{
  "abi": [
    {
      "type": "constructor",
      "inputs": [
        {
          "name": "_myTokenAddress",
          "type": "address",
          "internalType": "address"
        },
        {
          "name": "subscriptionId",
          "type": "uint256",
          "internalType": "uint256"
        },
        {
          "name": "vrfCoordinator",
          "type": "address",
          "internalType": "address"
        },
        {
          "name": "keyHash",
          "type": "bytes32",
          "internalType": "bytes32"
        },
        {
          "name": "_callbackGasLimit",
          "type": "uint32",
          "internalType": "uint32"
        },
        {
          "name": "_requestConfirmations",
          "type": "uint16",
          "internalType": "uint16"
        },
        {
          "name": "_numWords",
          "type": "uint32",
          "internalType": "uint32"
        }
      ],
      "stateMutability": "nonpayable"
    },
    {
      "type": "function",
      "name": "BURNER_ROLE",
      "inputs": [],
      "outputs": [
        {
          "name": "",
          "type": "bytes32",
          "internalType": "bytes32"
        }
      ],
      "stateMutability": "view"
    },
    {
      "type": "function",
      "name": "DEFAULT_HISTORY_SIZE",
      "inputs": [],
      "outputs": [
        {
          "name": "",
          "type": "uint256",
          "internalType": "uint256"
        }
      ],
      "stateMutability": "view"
    },
    {
      "type": "function",
      "name": "MINTER_ROLE",
      "inputs": [],
      "outputs": [
        {
          "name": "",
          "type": "bytes32",
          "internalType": "bytes32"
        }
      ],
      "stateMutability": "view"
    },
    {
      "type": "function",
      "name": "acceptOwnership",
      "inputs": [],
      "outputs": [],
      "stateMutability": "nonpayable"
    },
    {
      "type": "function",
      "name": "canStartNewGame",
      "inputs": [
        {
          "name": "player",
          "type": "address",
          "internalType": "address"
        }
      ],
      "outputs": [
        {
          "name": "",
          "type": "bool",
          "internalType": "bool"
        }
      ],
      "stateMutability": "view"
    },
    {
      "type": "function",
      "name": "forceStopGame",
      "inputs": [
        {
          "name": "player",
          "type": "address",
          "internalType": "address"
        }
      ],
      "outputs": [],
      "stateMutability": "nonpayable"
    },
    {
      "type": "function",
      "name": "getContractBalance",
      "inputs": [],
      "outputs": [
        {
          "name": "",
          "type": "uint256",
          "internalType": "uint256"
        }
      ],
      "stateMutability": "view"
    },
    {
      "type": "function",
      "name": "getCurrentGame",
      "inputs": [
        {
          "name": "player",
          "type": "address",
          "internalType": "address"
        }
      ],
      "outputs": [
        {
          "name": "",
          "type": "tuple",
          "internalType": "struct GameState",
          "components": [
            {
              "name": "isActive",
              "type": "bool",
              "internalType": "bool"
            },
            {
              "name": "chosenNumber",
              "type": "uint256",
              "internalType": "uint256"
            },
            {
              "name": "result",
              "type": "uint256",
              "internalType": "uint256"
            },
            {
              "name": "amount",
              "type": "uint256",
              "internalType": "uint256"
            },
            {
              "name": "timestamp",
              "type": "uint256",
              "internalType": "uint256"
            },
            {
              "name": "payout",
              "type": "uint256",
              "internalType": "uint256"
            },
            {
              "name": "randomWord",
              "type": "uint256",
              "internalType": "uint256"
            },
            {
              "name": "status",
              "type": "uint8",
              "internalType": "enum GameStatus"
            }
          ]
        }
      ],
      "stateMutability": "view"
    },
    {
      "type": "function",
      "name": "getCurrentRequestDetails",
      "inputs": [
        {
          "name": "player",
          "type": "address",
          "internalType": "address"
        }
      ],
      "outputs": [
        {
          "name": "requestId",
          "type": "uint256",
          "internalType": "uint256"
        },
        {
          "name": "requestFulfilled",
          "type": "bool",
          "internalType": "bool"
        },
        {
          "name": "requestActive",
          "type": "bool",
          "internalType": "bool"
        }
      ],
      "stateMutability": "view"
    },
    {
      "type": "function",
      "name": "getGameStatus",
      "inputs": [
        {
          "name": "player",
          "type": "address",
          "internalType": "address"
        }
      ],
      "outputs": [
        {
          "name": "isActive",
          "type": "bool",
          "internalType": "bool"
        },
        {
          "name": "status",
          "type": "uint8",
          "internalType": "enum GameStatus"
        },
        {
          "name": "chosenNumber",
          "type": "uint256",
          "internalType": "uint256"
        },
        {
          "name": "amount",
          "type": "uint256",
          "internalType": "uint256"
        },
        {
          "name": "timestamp",
          "type": "uint256",
          "internalType": "uint256"
        }
      ],
      "stateMutability": "view"
    },
    {
      "type": "function",
      "name": "getPlayerForRequest",
      "inputs": [
        {
          "name": "requestId",
          "type": "uint256",
          "internalType": "uint256"
        }
      ],
      "outputs": [
        {
          "name": "",
          "type": "address",
          "internalType": "address"
        }
      ],
      "stateMutability": "view"
    },
    {
      "type": "function",
      "name": "getPlayerStats",
      "inputs": [
        {
          "name": "player",
          "type": "address",
          "internalType": "address"
        }
      ],
      "outputs": [
        {
          "name": "winRate",
          "type": "uint256",
          "internalType": "uint256"
        },
        {
          "name": "averageBet",
          "type": "uint256",
          "internalType": "uint256"
        },
        {
          "name": "totalGamesWon",
          "type": "uint256",
          "internalType": "uint256"
        },
        {
          "name": "totalGamesLost",
          "type": "uint256",
          "internalType": "uint256"
        }
      ],
      "stateMutability": "view"
    },
    {
      "type": "function",
      "name": "getPreviousBets",
      "inputs": [
        {
          "name": "player",
          "type": "address",
          "internalType": "address"
        }
      ],
      "outputs": [
        {
          "name": "",
          "type": "tuple[]",
          "internalType": "struct BetHistory[]",
          "components": [
            {
              "name": "chosenNumber",
              "type": "uint256",
              "internalType": "uint256"
            },
            {
              "name": "rolledNumber",
              "type": "uint256",
              "internalType": "uint256"
            },
            {
              "name": "amount",
              "type": "uint256",
              "internalType": "uint256"
            },
            {
              "name": "timestamp",
              "type": "uint256",
              "internalType": "uint256"
            }
          ]
        }
      ],
      "stateMutability": "view"
    },
    {
      "type": "function",
      "name": "getUserData",
      "inputs": [
        {
          "name": "player",
          "type": "address",
          "internalType": "address"
        }
      ],
      "outputs": [
        {
          "name": "currentGame",
          "type": "tuple",
          "internalType": "struct GameState",
          "components": [
            {
              "name": "isActive",
              "type": "bool",
              "internalType": "bool"
            },
            {
              "name": "chosenNumber",
              "type": "uint256",
              "internalType": "uint256"
            },
            {
              "name": "result",
              "type": "uint256",
              "internalType": "uint256"
            },
            {
              "name": "amount",
              "type": "uint256",
              "internalType": "uint256"
            },
            {
              "name": "timestamp",
              "type": "uint256",
              "internalType": "uint256"
            },
            {
              "name": "payout",
              "type": "uint256",
              "internalType": "uint256"
            },
            {
              "name": "randomWord",
              "type": "uint256",
              "internalType": "uint256"
            },
            {
              "name": "status",
              "type": "uint8",
              "internalType": "enum GameStatus"
            }
          ]
        },
        {
          "name": "totalGames",
          "type": "uint256",
          "internalType": "uint256"
        },
        {
          "name": "totalBets",
          "type": "uint256",
          "internalType": "uint256"
        },
        {
          "name": "totalWinnings",
          "type": "uint256",
          "internalType": "uint256"
        },
        {
          "name": "totalLosses",
          "type": "uint256",
          "internalType": "uint256"
        },
        {
          "name": "lastPlayed",
          "type": "uint256",
          "internalType": "uint256"
        }
      ],
      "stateMutability": "view"
    },
    {
      "type": "function",
      "name": "hasPendingRequest",
      "inputs": [
        {
          "name": "player",
          "type": "address",
          "internalType": "address"
        }
      ],
      "outputs": [
        {
          "name": "",
          "type": "bool",
          "internalType": "bool"
        }
      ],
      "stateMutability": "view"
    },
    {
      "type": "function",
      "name": "isRequestActive",
      "inputs": [
        {
          "name": "requestId",
          "type": "uint256",
          "internalType": "uint256"
        }
      ],
      "outputs": [
        {
          "name": "",
          "type": "bool",
          "internalType": "bool"
        }
      ],
      "stateMutability": "view"
    },
    {
      "type": "function",
      "name": "myToken",
      "inputs": [],
      "outputs": [
        {
          "name": "",
          "type": "address",
          "internalType": "contract IMyToken"
        }
      ],
      "stateMutability": "view"
    },
    {
      "type": "function",
      "name": "owner",
      "inputs": [],
      "outputs": [
        {
          "name": "",
          "type": "address",
          "internalType": "address"
        }
      ],
      "stateMutability": "view"
    },
    {
      "type": "function",
      "name": "pause",
      "inputs": [],
      "outputs": [],
      "stateMutability": "nonpayable"
    },
    {
      "type": "function",
      "name": "paused",
      "inputs": [],
      "outputs": [
        {
          "name": "",
          "type": "bool",
          "internalType": "bool"
        }
      ],
      "stateMutability": "view"
    },
    {
      "type": "function",
      "name": "playDice",
      "inputs": [
        {
          "name": "chosenNumber",
          "type": "uint256",
          "internalType": "uint256"
        },
        {
          "name": "amount",
          "type": "uint256",
          "internalType": "uint256"
        }
      ],
      "outputs": [
        {
          "name": "requestId",
          "type": "uint256",
          "internalType": "uint256"
        }
      ],
      "stateMutability": "nonpayable"
    },
    {
      "type": "function",
      "name": "rawFulfillRandomWords",
      "inputs": [
        {
          "name": "requestId",
          "type": "uint256",
          "internalType": "uint256"
        },
        {
          "name": "randomWords",
          "type": "uint256[]",
          "internalType": "uint256[]"
        }
      ],
      "outputs": [],
      "stateMutability": "nonpayable"
    },
    {
      "type": "function",
      "name": "recoverStuckGame",
      "inputs": [
        {
          "name": "player",
          "type": "address",
          "internalType": "address"
        }
      ],
      "outputs": [],
      "stateMutability": "nonpayable"
    },
    {
      "type": "function",
      "name": "resolveGame",
      "inputs": [],
      "outputs": [],
      "stateMutability": "nonpayable"
    },
    {
      "type": "function",
      "name": "revokeTokenRole",
      "inputs": [
        {
          "name": "role",
          "type": "bytes32",
          "internalType": "bytes32"
        },
        {
          "name": "account",
          "type": "address",
          "internalType": "address"
        }
      ],
      "outputs": [],
      "stateMutability": "nonpayable"
    },
    {
      "type": "function",
      "name": "s_vrfCoordinator",
      "inputs": [],
      "outputs": [
        {
          "name": "",
          "type": "address",
          "internalType": "contract IVRFCoordinatorV2Plus"
        }
      ],
      "stateMutability": "view"
    },
    {
      "type": "function",
      "name": "setCallbackGasLimit",
      "inputs": [
        {
          "name": "_callbackGasLimit",
          "type": "uint32",
          "internalType": "uint32"
        }
      ],
      "outputs": [],
      "stateMutability": "nonpayable"
    },
    {
      "type": "function",
      "name": "setCoordinator",
      "inputs": [
        {
          "name": "_vrfCoordinator",
          "type": "address",
          "internalType": "address"
        }
      ],
      "outputs": [],
      "stateMutability": "nonpayable"
    },
    {
      "type": "function",
      "name": "setHistorySize",
      "inputs": [
        {
          "name": "newSize",
          "type": "uint256",
          "internalType": "uint256"
        }
      ],
      "outputs": [],
      "stateMutability": "nonpayable"
    },
    {
      "type": "function",
      "name": "transferOwnership",
      "inputs": [
        {
          "name": "to",
          "type": "address",
          "internalType": "address"
        }
      ],
      "outputs": [],
      "stateMutability": "nonpayable"
    },
    {
      "type": "function",
      "name": "unpause",
      "inputs": [],
      "outputs": [],
      "stateMutability": "nonpayable"
    },
    {
      "type": "event",
      "name": "CoordinatorSet",
      "inputs": [
        {
          "name": "vrfCoordinator",
          "type": "address",
          "indexed": false,
          "internalType": "address"
        }
      ],
      "anonymous": false
    },
    {
      "type": "event",
      "name": "OwnershipTransferRequested",
      "inputs": [
        {
          "name": "from",
          "type": "address",
          "indexed": true,
          "internalType": "address"
        },
        {
          "name": "to",
          "type": "address",
          "indexed": true,
          "internalType": "address"
        }
      ],
      "anonymous": false
    },
    {
      "type": "event",
      "name": "OwnershipTransferred",
      "inputs": [
        {
          "name": "from",
          "type": "address",
          "indexed": true,
          "internalType": "address"
        },
        {
          "name": "to",
          "type": "address",
          "indexed": true,
          "internalType": "address"
        }
      ],
      "anonymous": false
    },
    {
      "type": "event",
      "name": "Paused",
      "inputs": [
        {
          "name": "account",
          "type": "address",
          "indexed": false,
          "internalType": "address"
        }
      ],
      "anonymous": false
    },
    {
      "type": "event",
      "name": "Unpaused",
      "inputs": [
        {
          "name": "account",
          "type": "address",
          "indexed": false,
          "internalType": "address"
        }
      ],
      "anonymous": false
    },
    {
      "type": "error",
      "name": "EnforcedPause",
      "inputs": []
    },
    {
      "type": "error",
      "name": "ExpectedPause",
      "inputs": []
    },
    {
      "type": "error",
      "name": "GameError",
      "inputs": [
        {
          "name": "code",
          "type": "uint256",
          "internalType": "uint256"
        }
      ]
    },
    {
      "type": "error",
      "name": "InsufficientContractBalance",
      "inputs": [
        {
          "name": "required",
          "type": "uint256",
          "internalType": "uint256"
        },
        {
          "name": "available",
          "type": "uint256",
          "internalType": "uint256"
        }
      ]
    },
    {
      "type": "error",
      "name": "InsufficientUserBalance",
      "inputs": [
        {
          "name": "required",
          "type": "uint256",
          "internalType": "uint256"
        },
        {
          "name": "available",
          "type": "uint256",
          "internalType": "uint256"
        }
      ]
    },
    {
      "type": "error",
      "name": "InvalidBetParameters",
      "inputs": [
        {
          "name": "code",
          "type": "uint256",
          "internalType": "uint256"
        }
      ]
    },
    {
      "type": "error",
      "name": "OnlyCoordinatorCanFulfill",
      "inputs": [
        {
          "name": "have",
          "type": "address",
          "internalType": "address"
        },
        {
          "name": "want",
          "type": "address",
          "internalType": "address"
        }
      ]
    },
    {
      "type": "error",
      "name": "OnlyOwnerOrCoordinator",
      "inputs": [
        {
          "name": "have",
          "type": "address",
          "internalType": "address"
        },
        {
          "name": "owner",
          "type": "address",
          "internalType": "address"
        },
        {
          "name": "coordinator",
          "type": "address",
          "internalType": "address"
        }
      ]
    },
    {
      "type": "error",
      "name": "PayoutCalculationError",
      "inputs": [
        {
          "name": "message",
          "type": "string",
          "internalType": "string"
        }
      ]
    },
    {
      "type": "error",
      "name": "ReentrancyGuardReentrantCall",
      "inputs": []
    },
    {
      "type": "error",
      "name": "RoleError",
      "inputs": [
        {
          "name": "code",
          "type": "uint256",
          "internalType": "uint256"
        }
      ]
    },
    {
      "type": "error",
      "name": "TransferFailed",
      "inputs": [
        {
          "name": "code",
          "type": "uint256",
          "internalType": "uint256"
        }
      ]
    },
    {
      "type": "error",
      "name": "VRFError",
      "inputs": [
        {
          "name": "code",
          "type": "uint256",
          "internalType": "uint256"
        }
      ]
    },
    {
      "type": "error",
      "name": "ZeroAddress",
      "inputs": []
    }
  ],
  "bytecode": {
    "object": "0x61012060405234801561001157600080fd5b50604051612b71380380612b71833981016040819052610030916102d2565b6000805460ff1916815560018055859033908190816100965760405162461bcd60e51b815260206004820152601860248201527f43616e6e6f7420736574206f776e657220746f207a65726f000000000000000060448201526064015b60405180910390fd5b600280546001600160a01b0319166001600160a01b03848116919091179091558116156100c6576100c6816101f8565b5050506001600160a01b0381166100f05760405163d92e233d60e01b815260040160405180910390fd5b600480546001600160a01b0319166001600160a01b03928316179055871661012e57604051636cab86db60e01b81526001600482015260240161008d565b6001600160a01b03851661015857604051636cab86db60e01b81526002600482015260240161008d565b8263ffffffff1660000361018257604051636cab86db60e01b81526003600482015260240161008d565b8063ffffffff166000036101ab57604051636cab86db60e01b815260048181015260240161008d565b60809590955260a0929092526004805463ffffffff60a01b1916600160a01b63ffffffff9384160217905561ffff90911660c05290911660e052506001600160a01b031661010052610353565b336001600160a01b038216036102505760405162461bcd60e51b815260206004820152601760248201527f43616e6e6f74207472616e7366657220746f2073656c66000000000000000000604482015260640161008d565b600380546001600160a01b0319166001600160a01b03838116918217909255600254604051919216907fed8889f560326eb138920d842192f0eb3dd22b4f139c87a2c57538e05bae127890600090a350565b80516001600160a01b03811681146102b957600080fd5b919050565b805163ffffffff811681146102b957600080fd5b600080600080600080600060e0888a0312156102ed57600080fd5b6102f6886102a2565b96506020880151955061030b604089016102a2565b945060608801519350610320608089016102be565b925060a088015161ffff8116811461033757600080fd5b915061034560c089016102be565b905092959891949750929550565b60805160a05160c05160e051610100516127946103dd6000396000818161048601528181610717015281816107cf015281816108aa015281816109590152818161141201528181611828015281816118cf01528181611ad801528181611be20152611ca001526000610a6e01526000610a35015260006109e501526000610a0801526127946000f3fe608060405234801561001057600080fd5b50600436106101e45760003560e01c806362cf48f91161010f57806393e955bd116100a2578063b8fcf93711610071578063b8fcf93714610481578063d5391393146104a8578063f2fde38b146104cf578063ffc9896b146104e257600080fd5b806393e955bd146104355780639eccacf614610448578063a4eb718c1461045b578063b52a08551461046e57600080fd5b80637cd2d47c116100de5780637cd2d47c146104015780638456cb59146104095780638da5cb5b146104115780638ea981171461042257600080fd5b806362cf48f9146103b957806363df7a14146103e95780636f9fb98a146103f157806379ba5097146103f957600080fd5b8063282c51f3116101875780634fd66eae116101565780634fd66eae1461034457806354e4437e146103775780635c975abb1461039b5780635d424b85146103a657600080fd5b8063282c51f3146102e257806329febc73146103095780633f4ba83a1461031c578063447b2a061461032457600080fd5b806304243151116101c35780630424315114610266578063086bb182146102a75780630c99375d146102bc5780631fe543e3146102cf57600080fd5b8062d6b9ba146101e95780630176cf5e146102125780630359a8a314610233575b600080fd5b6101fc6101f73660046122d8565b610507565b60405161020991906122f3565b60405180910390f35b61022561022036600461235c565b61065e565b604051908152602001610209565b61025661024136600461237e565b60009081526007602052604090205460ff1690565b6040519015158152602001610209565b61028f61027436600461237e565b6000908152600660205260409020546001600160a01b031690565b6040516001600160a01b039091168152602001610209565b6102ba6102b536600461237e565b610c4e565b005b6102566102ca3660046122d8565b610d53565b6102ba6102dd366004612397565b610d8a565b6102257f3c11d16cbaffd01df69ce1c404f6340ee057498f5f00246190ea54220576a84881565b6102ba6103173660046122d8565b610ddb565b6102ba610ed2565b6103376103323660046122d8565b610ee4565b60405161020991906124a4565b6103576103523660046122d8565b6110c8565b604080519485526020850193909352918301526060820152608001610209565b61038a6103853660046122d8565b61123d565b6040516102099594939291906124b3565b60005460ff16610256565b6102566103b43660046122d8565b611338565b6103cc6103c73660046122d8565b611368565b604080519384529115156020840152151590820152606001610209565b610225600a81565b6102256113fa565b6102ba61148a565b6102ba611538565b6102ba6119a7565b6002546001600160a01b031661028f565b6102ba6104303660046122d8565b6119b7565b6102ba6104433660046124e5565b611aaa565b60045461028f906001600160a01b031681565b6102ba610469366004612511565b611b38565b6102ba61047c3660046122d8565b611b66565b61028f7f000000000000000000000000000000000000000000000000000000000000000081565b6102257f9f2df0fed2c77648de5860a4cc508cd0818c85b8b8a1ab4ceeef8d981c8956a681565b6102ba6104dd3660046122d8565b611d17565b6104f56104f03660046122d8565b611d2b565b60405161020996959493929190612537565b60606001600160a01b03821661053857604051636cab86db60e01b8152600c60048201526024015b60405180910390fd5b6001600160a01b0382166000908152600560205260408120600a81015490918167ffffffffffffffff81111561057057610570612573565b6040519080825280602002602001820160405280156105cc57816020015b6105b96040518060800160405280600081526020016000815260200160008152602001600081525090565b81526020019060019003908161058e5790505b50905060005b828110156106555783600a0181815481106105ef576105ef612589565b906000526020600020906004020160405180608001604052908160008201548152602001600182015481526020016002820154815260200160038201548152505082828151811061064257610642612589565b60209081029190910101526001016105d2565b50949350505050565b6000610668611e5a565b610670611e84565b336000908152600560205260408120908390036106a357604051636cab86db60e01b81526005600482015260240161052f565b805460ff16156106c95760405163d6d1036b60e01b81526001600482015260240161052f565b60018410806106d85750600684115b156106f957604051636cab86db60e01b81526006600482015260240161052f565b604051636eb1769f60e11b81523360048201523060248201526000907f00000000000000000000000000000000000000000000000000000000000000006001600160a01b03169063dd62ed3e90604401602060405180830381865afa158015610766573d6000803e3d6000fd5b505050506040513d601f19601f8201168201806040525081019061078a919061259f565b9050838110156107b7576040516302fa826960e51b8152600481018590526024810182905260440161052f565b6040516370a0823160e01b81523360048201526000907f00000000000000000000000000000000000000000000000000000000000000006001600160a01b0316906370a0823190602401602060405180830381865afa15801561081e573d6000803e3d6000fd5b505050506040513d601f19601f82011682018060405250810190610842919061259f565b90508481101561086f576040516302fa826960e51b8152600481018690526024810182905260440161052f565b604051632474521560e21b81527f3c11d16cbaffd01df69ce1c404f6340ee057498f5f00246190ea54220576a84860048201523060248201527f00000000000000000000000000000000000000000000000000000000000000006001600160a01b0316906391d1485490604401602060405180830381865afa1580156108f9573d6000803e3d6000fd5b505050506040513d601f19601f8201168201806040525081019061091d91906125b8565b61093d5760405163d64796dd60e01b81526001600482015260240161052f565b604051632770a7eb60e21b8152336004820152602481018690527f00000000000000000000000000000000000000000000000000000000000000006001600160a01b031690639dc29fac90604401600060405180830381600087803b1580156109a557600080fd5b505af19250505080156109b6575060015b6109d65760405163c39ba1a960e01b81526001600482015260240161052f565b6004546040805160c0810182527f000000000000000000000000000000000000000000000000000000000000000081527f000000000000000000000000000000000000000000000000000000000000000060208083019190915261ffff7f0000000000000000000000000000000000000000000000000000000000000000168284015263ffffffff600160a01b8504811660608401527f00000000000000000000000000000000000000000000000000000000000000001660808301528251908101909252600082526001600160a01b0390921691639b1c385e9160a0820190610abf90611ea8565b8152506040518263ffffffff1660e01b8152600401610ade91906125da565b6020604051808303816000875af1925050508015610b19575060408051601f3d908101601f19168201909252610b169181019061259f565b60015b610b395760405163588860ed60e11b81526001600482015260240161052f565b600081815260066020818152604080842080546001600160a01b031916331790556007808352818520805460ff1990811660019081179092558351610100810185528281529485018e9052928401869052606084018c9052426080850181905260a0850187905260c0850187905260e09094018190528954831681178a558981018d905560028a0186905560038a018c905560048a019390935560058901859055928801849055918701805483169091179055600886018390556009860180549091169055600c850180549296508792909190610c1790849061268c565b9091555050600f83018054906000610c2e8361269f565b9190505550428360100181905550505050610c4860018055565b92915050565b60008111610c9e5760405162461bcd60e51b815260206004820152601d60248201527f486973746f72792073697a65206d75737420626520706f736974697665000000604482015260640161052f565b6064811115610ce85760405162461bcd60e51b8152602060048201526016602482015275486973746f72792073697a6520746f6f206c6172676560501b604482015260640161052f565b336000908152600560205260409020600b81018290555b600a810154821015610d4f5780600a01805480610d1e57610d1e6126b8565b6000828152602081206004600019909301928302018181556001810182905560028101829055600301559055610cff565b5050565b6001600160a01b0381166000908152600560205260408120600881015415801590610d835750600981015460ff16155b9392505050565b6004546001600160a01b03163314610dcb576004805460405163073e64fd60e21b815233928101929092526001600160a01b0316602482015260440161052f565b610dd6838383611f19565b505050565b610de36120b6565b6001600160a01b0381166000908152600560205260409020805460ff16610e1c5760405162461bcd60e51b815260040161052f906126ce565b6004810154610e2e90610e109061268c565b4211610e715760405162461bcd60e51b815260206004820152601260248201527111d85b59481b9bdd081d1a5b5959081bdd5d60721b604482015260640161052f565b600881015415610eb257600881018054600090815260066020908152604080832080546001600160a01b0319169055925482526007905220805460ff191690555b805460ff1990811682556009820180549091169055600060089091015550565b610eda6120b6565b610ee2612109565b565b610eec612265565b6001600160a01b038216610f1657604051636cab86db60e01b81526008600482015260240161052f565b6001600160a01b0382166000908152600560205260409020805460ff161561106d57610f45600660001961270c565b60038201541115610f8c5760405163193a897b60e11b815260206004820152601060248201526f416d6f756e7420746f6f206c6172676560801b604482015260640161052f565b6004810154421015610fb45760405163d6d1036b60e01b81526003600482015260240161052f565b600181015460061015610fdd57604051636cab86db60e01b8152600d600482015260240161052f565b6040805161010081018252825460ff9081161515825260018401546020830152600284015492820192909252600383015460608201526004808401546080830152600584015460a0830152600684015460c083015260078401549192849260e085019291169081111561105257611052612418565b600481111561106357611063612418565b9052509392505050565b604051806101000160405280600015158152602001600081526020016000815260200160008152602001600081526020016000815260200160008152602001600060048111156110bf576110bf612418565b90529392505050565b60008080806001600160a01b0385166110f757604051636cab86db60e01b8152600a600482015260240161052f565b6001600160a01b0385166000908152600560205260408120600f81015490910361112f57600080600080945094509450945050611236565b600d8101546000901561115057600682600d015461114d919061270c565b90505b60008183600f01546111629190612720565b600f840154909150156111c35761117d61271060001961270c565b82116111a557600f83015461119483612710612733565b61119e919061270c565b96506111c3565b600f8301546111b4908361270c565b6111c090612710612733565b96505b600f8301541561122f576111e1670de0b6b3a764000060001961270c565b83600c01541161121857600f830154600c84015461120790670de0b6b3a7640000612733565b611211919061270c565b955061122f565b82600f015483600c015461122c919061270c565b95505b9093509150505b9193509193565b6000808080806001600160a01b03861661126d57604051636cab86db60e01b81526009600482015260240161052f565b6001600160a01b0386166000908152600560208181526040808420815161010081018352815460ff908116151582526001830154948201949094526002820154928101929092526003810154606083015260048082015460808401529381015460a0830152600681015460c083015260078101549193909260e085019216908111156112fb576112fb612418565b600481111561130c5761130c612418565b905250805160e082015160208301516060840151608090940151929b919a509850919650945092505050565b6001600160a01b0381166000908152600560205260408120805460ff16158015610d835750600801541592915050565b600080806001600160a01b03841661139657604051636cab86db60e01b8152600b600482015260240161052f565b6001600160a01b038416600090815260056020526040812060088101549091036113cb576000806000935093509350506113f3565b600881015460099091015460008281526007602052604090205491945060ff90811693501690505b9193909250565b6040516370a0823160e01b81523060048201526000907f00000000000000000000000000000000000000000000000000000000000000006001600160a01b0316906370a0823190602401602060405180830381865afa158015611461573d6000803e3d6000fd5b505050506040513d601f19601f82011682018060405250810190611485919061259f565b905090565b6003546001600160a01b031633146114dd5760405162461bcd60e51b815260206004820152601660248201527526bab9ba10313290383937b837b9b2b21037bbb732b960511b604482015260640161052f565b600280546001600160a01b0319808216339081179093556003805490911690556040516001600160a01b03909116919082907f8be0079c531659141344cd1fd0a4f28419497f9722a3daafe3b4186f6b6457e090600090a350565b611540611e5a565b336000908152600560205260409020805460ff166115705760405162461bcd60e51b815260040161052f906126ce565b600981015460ff166115c45760405162461bcd60e51b815260206004820152601760248201527f52616e646f6d206e756d626572206e6f74207265616479000000000000000000604482015260640161052f565b6006818101546000916115d69161274a565b6115e190600161268c565b905081600b01546000036115f757600a600b8301555b600b820154600a830154106116e15760005b600a83015461161a90600190612720565b8110156116a057600a830161163082600161268c565b8154811061164057611640612589565b906000526020600020906004020183600a01828154811061166357611663612589565b6000918252602090912082546004909202019081556001808301548183015560028084015490830155600392830154929091019190915501611609565b5081600a018054806116b4576116b46126b8565b60008281526020812060046000199093019283020181815560018101829055600281018290556003015590555b6040805160808101825260018085018054835260208084018681526003808901549686019687524260608701908152600a8a01805480880182556000918252948120975160049095029097019384559151948301949094559451600282015593519390910192909255905482900361195157611760600660001961270c565b600384015411156117ab5760405163193a897b60e11b815260206004820152601460248201527342657420616d6f756e7420746f6f206c6172676560601b604482015260640161052f565b60038301546117bb906006612733565b90508083600d0160008282546117d1919061268c565b909155505060078301805460ff19166002179055604051632474521560e21b81527f9f2df0fed2c77648de5860a4cc508cd0818c85b8b8a1ab4ceeef8d981c8956a660048201523060248201526001600160a01b037f000000000000000000000000000000000000000000000000000000000000000016906391d1485490604401602060405180830381865afa15801561186f573d6000803e3d6000fd5b505050506040513d601f19601f8201168201806040525081019061189391906125b8565b6118b35760405163d64796dd60e01b81526002600482015260240161052f565b6040516340c10f1960e01b8152336004820152602481018290527f00000000000000000000000000000000000000000000000000000000000000006001600160a01b0316906340c10f1990604401600060405180830381600087803b15801561191b57600080fd5b505af192505050801561192c575060015b61194c5760405163c39ba1a960e01b81526002600482015260240161052f565b61197f565b6003830154600e8401805460009061196a90849061268c565b909155505060078301805460ff191660031790555b5050805460ff19908116825560098201805490911690556000600890910155610ee260018055565b6119af6120b6565b610ee261215b565b6002546001600160a01b031633148015906119dd57506004546001600160a01b03163314155b15611a2f57336119f56002546001600160a01b031690565b6004805460405163061db9c160e01b81526001600160a01b039485169281019290925291831660248201529116604482015260640161052f565b6001600160a01b038116611a565760405163d92e233d60e01b815260040160405180910390fd5b600480546001600160a01b0319166001600160a01b0383169081179091556040519081527fd1a6a14209a385a964d036e404cb5cfb71f4000cdb03c9366292430787261be69060200160405180910390a150565b611ab26120b6565b60405163d547741f60e01b8152600481018390526001600160a01b0382811660248301527f0000000000000000000000000000000000000000000000000000000000000000169063d547741f90604401600060405180830381600087803b158015611b1c57600080fd5b505af1158015611b30573d6000803e3d6000fd5b505050505050565b611b406120b6565b6004805463ffffffff909216600160a01b0263ffffffff60a01b19909216919091179055565b611b6e6120b6565b6001600160a01b0381166000908152600560205260409020805460ff16611ba75760405162461bcd60e51b815260040161052f906126ce565b604051632474521560e21b81527f9f2df0fed2c77648de5860a4cc508cd0818c85b8b8a1ab4ceeef8d981c8956a660048201523060248201527f00000000000000000000000000000000000000000000000000000000000000006001600160a01b0316906391d1485490604401602060405180830381865afa158015611c31573d6000803e3d6000fd5b505050506040513d601f19601f82011682018060405250810190611c5591906125b8565b611c745760405163d64796dd60e01b815260048181015260240161052f565b60038101546040516340c10f1960e01b81526001600160a01b03848116600483015260248201929092527f0000000000000000000000000000000000000000000000000000000000000000909116906340c10f1990604401600060405180830381600087803b158015611ce657600080fd5b505af1925050508015611cf7575060015b610eb25760405163c39ba1a960e01b81526003600482015260240161052f565b611d1f6120b6565b611d2881612198565b50565b611d33612265565b6000808080806001600160a01b038716611d6357604051636cab86db60e01b81526007600482015260240161052f565b600060056000896001600160a01b03166001600160a01b0316815260200190815260200160002090508060000181600f015482600c015483600d015484600e0154856010015485604051806101000160405290816000820160009054906101000a900460ff161515151581526020016001820154815260200160028201548152602001600382015481526020016004820154815260200160058201548152602001600682015481526020016007820160009054906101000a900460ff166004811115611e3157611e31612418565b6004811115611e4257611e42612418565b9052509e949d50929b50909950975095509350505050565b600260015403611e7d57604051633ee5aeb560e01b815260040160405180910390fd5b6002600155565b60005460ff1615610ee25760405163d93c066560e01b815260040160405180910390fd5b60607f92fd13387c7fe7befbc38d303d6468778fb9731bc4583f17d92989c6fcfdeaaa82604051602401611ee191511515815260200190565b60408051601f198184030181529190526020810180516001600160e01b03166001600160e01b03199093169290921790915292915050565b6000838152600660205260409020546001600160a01b031680611f525760405163d6d1036b60e01b81526002600482015260240161052f565b6001600160a01b0381166000908152600560205260409020805460ff16611fad5760405162461bcd60e51b815260206004820152600f60248201526e47616d65206e6f742061637469766560881b604482015260640161052f565b84816008015414611ff65760405162461bcd60e51b81526020600482015260136024820152720a4cae2eacae6e840928840dad2e6dac2e8c6d606b1b604482015260640161052f565b60008581526007602052604090205460ff1661204c5760405162461bcd60e51b815260206004820152601560248201527452657175657374204944206e6f742061637469766560581b604482015260640161052f565b8383600081811061205f5761205f612589565b602090810292909201356006808501919091556009909301805460ff19908116600117909155600097885292825250604080872080546001600160a01b031916905560079091529094208054909416909355505050565b6002546001600160a01b03163314610ee25760405162461bcd60e51b815260206004820152601660248201527527b7363c9031b0b63630b1363290313c9037bbb732b960511b604482015260640161052f565b612111612242565b6000805460ff191690557f5db9ee0a495bf2e6ff9c91a7834c1ba4fdd244a5e8aa4e537bd38aeae4b073aa335b6040516001600160a01b03909116815260200160405180910390a1565b612163611e84565b6000805460ff191660011790557f62e78cea01bee320cd4e420270b5ea74000d11b0c9f74754ebdbfc544b05a25861213e3390565b336001600160a01b038216036121f05760405162461bcd60e51b815260206004820152601760248201527f43616e6e6f74207472616e7366657220746f2073656c66000000000000000000604482015260640161052f565b600380546001600160a01b0319166001600160a01b03838116918217909255600254604051919216907fed8889f560326eb138920d842192f0eb3dd22b4f139c87a2c57538e05bae127890600090a350565b60005460ff16610ee257604051638dfc202b60e01b815260040160405180910390fd5b604051806101000160405280600015158152602001600081526020016000815260200160008152602001600081526020016000815260200160008152602001600060048111156122b7576122b7612418565b905290565b80356001600160a01b03811681146122d357600080fd5b919050565b6000602082840312156122ea57600080fd5b610d83826122bc565b602080825282518282018190526000918401906040840190835b81811015612351578351805184526020810151602085015260408101516040850152606081015160608501525060808301925060208401935060018101905061230d565b509095945050505050565b6000806040838503121561236f57600080fd5b50508035926020909101359150565b60006020828403121561239057600080fd5b5035919050565b6000806000604084860312156123ac57600080fd5b83359250602084013567ffffffffffffffff8111156123ca57600080fd5b8401601f810186136123db57600080fd5b803567ffffffffffffffff8111156123f257600080fd5b8660208260051b840101111561240757600080fd5b939660209190910195509293505050565b634e487b7160e01b600052602160045260246000fd5b6005811061244c57634e487b7160e01b600052602160045260246000fd5b9052565b8051151582526020810151602083015260408101516040830152606081015160608301526080810151608083015260a081015160a083015260c081015160c083015260e0810151610dd660e084018261242e565b6101008101610c488284612450565b851515815260a081016124c9602083018761242e565b8460408301528360608301528260808301529695505050505050565b600080604083850312156124f857600080fd5b82359150612508602084016122bc565b90509250929050565b60006020828403121561252357600080fd5b813563ffffffff81168114610d8357600080fd5b6101a081016125468289612450565b61010082019690965261012081019490945261014084019290925261016083015261018090910152919050565b634e487b7160e01b600052604160045260246000fd5b634e487b7160e01b600052603260045260246000fd5b6000602082840312156125b157600080fd5b5051919050565b6000602082840312156125ca57600080fd5b81518015158114610d8357600080fd5b60208152815160208201526020820151604082015261ffff604083015116606082015263ffffffff606083015116608082015263ffffffff60808301511660a0820152600060a083015160c08084015280518060e085015260005b81811015612653576020818401810151610100878401015201612635565b5060006101008286010152610100601f19601f8301168501019250505092915050565b634e487b7160e01b600052601160045260246000fd5b80820180821115610c4857610c48612676565b6000600182016126b1576126b1612676565b5060010190565b634e487b7160e01b600052603160045260246000fd5b6020808252600e908201526d4e6f206163746976652067616d6560901b604082015260600190565b634e487b7160e01b600052601260045260246000fd5b60008261271b5761271b6126f6565b500490565b81810381811115610c4857610c48612676565b8082028115828204841417610c4857610c48612676565b600082612759576127596126f6565b50069056fea264697066735822122008e849d3ad40fed0a9b60562a77ac15f0cafd897cb77efae0040922a8555a7c264736f6c634300081a0033",
    "linkReferences": {}
  },
  "methodIdentifiers": {
    "BURNER_ROLE()": "282c51f3",
    "DEFAULT_HISTORY_SIZE()": "63df7a14",
    "MINTER_ROLE()": "d5391393",
    "acceptOwnership()": "79ba5097",
    "canStartNewGame(address)": "5d424b85",
    "forceStopGame(address)": "b52a0855",
    "getContractBalance()": "6f9fb98a",
    "getCurrentGame(address)": "447b2a06",
    "getCurrentRequestDetails(address)": "62cf48f9",
    "getGameStatus(address)": "54e4437e",
    "getPlayerForRequest(uint256)": "04243151",
    "getPlayerStats(address)": "4fd66eae",
    "getPreviousBets(address)": "00d6b9ba",
    "getUserData(address)": "ffc9896b",
    "hasPendingRequest(address)": "0c99375d",
    "isRequestActive(uint256)": "0359a8a3",
    "myToken()": "b8fcf937",
    "owner()": "8da5cb5b",
    "pause()": "8456cb59",
    "paused()": "5c975abb",
    "playDice(uint256,uint256)": "0176cf5e",
    "rawFulfillRandomWords(uint256,uint256[])": "1fe543e3",
    "recoverStuckGame(address)": "29febc73",
    "resolveGame()": "7cd2d47c",
    "revokeTokenRole(bytes32,address)": "93e955bd",
    "s_vrfCoordinator()": "9eccacf6",
    "setCallbackGasLimit(uint32)": "a4eb718c",
    "setCoordinator(address)": "8ea98117",
    "setHistorySize(uint256)": "086bb182",
    "transferOwnership(address)": "f2fde38b",
    "unpause()": "3f4ba83a"
  },
  "id": 60
}