{
  "abi": [
    {
      "type": "constructor",
      "inputs": [
        {
          "name": "_gamaTokenAddress",
          "type": "address",
          "internalType": "address"
        }
      ],
      "stateMutability": "nonpayable"
    },
    {
      "type": "function",
      "name": "BURNER_ROLE",
      "inputs": [],
      "outputs": [
        {
          "name": "",
          "type": "bytes32",
          "internalType": "bytes32"
        }
      ],
      "stateMutability": "view"
    },
    {
      "type": "function",
      "name": "MAX_BET_AMOUNT",
      "inputs": [],
      "outputs": [
        {
          "name": "",
          "type": "uint256",
          "internalType": "uint256"
        }
      ],
      "stateMutability": "view"
    },
    {
      "type": "function",
      "name": "MAX_HISTORY_SIZE",
      "inputs": [],
      "outputs": [
        {
          "name": "",
          "type": "uint256",
          "internalType": "uint256"
        }
      ],
      "stateMutability": "view"
    },
    {
      "type": "function",
      "name": "MINTER_ROLE",
      "inputs": [],
      "outputs": [
        {
          "name": "",
          "type": "bytes32",
          "internalType": "bytes32"
        }
      ],
      "stateMutability": "view"
    },
    {
      "type": "function",
      "name": "gamaToken",
      "inputs": [],
      "outputs": [
        {
          "name": "",
          "type": "address",
          "internalType": "contract IERC20"
        }
      ],
      "stateMutability": "view"
    },
    {
      "type": "function",
      "name": "getBetHistory",
      "inputs": [
        {
          "name": "player",
          "type": "address",
          "internalType": "address"
        }
      ],
      "outputs": [
        {
          "name": "",
          "type": "tuple[]",
          "internalType": "struct BetHistory[]",
          "components": [
            {
              "name": "chosenNumber",
              "type": "uint256",
              "internalType": "uint256"
            },
            {
              "name": "rolledNumber",
              "type": "uint256",
              "internalType": "uint256"
            },
            {
              "name": "amount",
              "type": "uint256",
              "internalType": "uint256"
            },
            {
              "name": "timestamp",
              "type": "uint256",
              "internalType": "uint256"
            },
            {
              "name": "payout",
              "type": "uint256",
              "internalType": "uint256"
            }
          ]
        }
      ],
      "stateMutability": "view"
    },
    {
      "type": "function",
      "name": "getUserData",
      "inputs": [
        {
          "name": "player",
          "type": "address",
          "internalType": "address"
        }
      ],
      "outputs": [
        {
          "name": "totalGames",
          "type": "uint256",
          "internalType": "uint256"
        },
        {
          "name": "totalWinnings",
          "type": "uint256",
          "internalType": "uint256"
        },
        {
          "name": "lastPlayed",
          "type": "uint256",
          "internalType": "uint256"
        }
      ],
      "stateMutability": "view"
    },
    {
      "type": "function",
      "name": "playDice",
      "inputs": [
        {
          "name": "chosenNumber",
          "type": "uint256",
          "internalType": "uint256"
        },
        {
          "name": "amount",
          "type": "uint256",
          "internalType": "uint256"
        }
      ],
      "outputs": [
        {
          "name": "result",
          "type": "uint256",
          "internalType": "uint256"
        },
        {
          "name": "payout",
          "type": "uint256",
          "internalType": "uint256"
        }
      ],
      "stateMutability": "nonpayable"
    },
    {
      "type": "function",
      "name": "totalGamesPlayed",
      "inputs": [],
      "outputs": [
        {
          "name": "",
          "type": "uint256",
          "internalType": "uint256"
        }
      ],
      "stateMutability": "view"
    },
    {
      "type": "function",
      "name": "totalPayoutAmount",
      "inputs": [],
      "outputs": [
        {
          "name": "",
          "type": "uint256",
          "internalType": "uint256"
        }
      ],
      "stateMutability": "view"
    },
    {
      "type": "function",
      "name": "totalWageredAmount",
      "inputs": [],
      "outputs": [
        {
          "name": "",
          "type": "uint256",
          "internalType": "uint256"
        }
      ],
      "stateMutability": "view"
    },
    {
      "type": "error",
      "name": "InsufficientAllowance",
      "inputs": [
        {
          "name": "required",
          "type": "uint256",
          "internalType": "uint256"
        },
        {
          "name": "allowed",
          "type": "uint256",
          "internalType": "uint256"
        }
      ]
    },
    {
      "type": "error",
      "name": "InsufficientUserBalance",
      "inputs": [
        {
          "name": "required",
          "type": "uint256",
          "internalType": "uint256"
        },
        {
          "name": "available",
          "type": "uint256",
          "internalType": "uint256"
        }
      ]
    },
    {
      "type": "error",
      "name": "InvalidBetParameters",
      "inputs": [
        {
          "name": "reason",
          "type": "string",
          "internalType": "string"
        }
      ]
    },
    {
      "type": "error",
      "name": "MissingContractRole",
      "inputs": [
        {
          "name": "role",
          "type": "bytes32",
          "internalType": "bytes32"
        }
      ]
    },
    {
      "type": "error",
      "name": "PayoutCalculationError",
      "inputs": [
        {
          "name": "message",
          "type": "string",
          "internalType": "string"
        }
      ]
    },
    {
      "type": "error",
      "name": "ReentrancyGuardReentrantCall",
      "inputs": []
    },
    {
      "type": "error",
      "name": "TransferFailed",
      "inputs": [
        {
          "name": "reason",
          "type": "string",
          "internalType": "string"
        }
      ]
    }
  ],
  "bytecode": {
    "object": "0x60a060405234801561000f575f5ffd5b5060405161110b38038061110b83398101604081905261002e9161009e565b60015f556001600160a01b03811661008d576040516334460f4160e01b815260206004820152601c60248201527f546f6b656e20616464726573732063616e6e6f74206265207a65726f00000000604482015260640160405180910390fd5b6001600160a01b03166080526100cb565b5f602082840312156100ae575f5ffd5b81516001600160a01b03811681146100c4575f5ffd5b9392505050565b608051610ff061011b5f395f8181610184015281816103b70152818161048a01528181610757015281816107e90152818161089d01528181610935015281816109fd0152610ae80152610ff05ff3fe608060405234801561000f575f5ffd5b50600436106100a6575f3560e01c8063c10662511161006e578063c106625114610130578063ce84a53b14610138578063d539139314610158578063d56ec8c91461017f578063e7efcfc2146101be578063ffc9896b146101c7575f5ffd5b80630176cf5e146100aa578063282c51f3146100d7578063309167f51461010c5780635bdb2e1b1461011e5780635c49212914610127575b5f5ffd5b6100bd6100b8366004610e08565b6101f5565b604080519283526020830191909152015b60405180910390f35b6100fe7f3c11d16cbaffd01df69ce1c404f6340ee057498f5f00246190ea54220576a84881565b6040519081526020016100ce565b6100fe6a084595161401484a00000081565b6100fe60045481565b6100fe60025481565b6100fe600a81565b61014b610146366004610e28565b61055b565b6040516100ce9190610e55565b6100fe7f9f2df0fed2c77648de5860a4cc508cd0818c85b8b8a1ab4ceeef8d981c8956a681565b6101a67f000000000000000000000000000000000000000000000000000000000000000081565b6040516001600160a01b0390911681526020016100ce565b6100fe60035481565b6101da6101d5366004610e28565b61064b565b604080519384526020840192909252908201526060016100ce565b5f5f6101ff61070e565b825f03610254576040516334460f4160e01b815260206004820152601960248201527f42657420616d6f756e742063616e6e6f74206265207a65726f0000000000000060448201526064015b60405180910390fd5b6a084595161401484a0000008311156102a7576040516334460f4160e01b815260206004820152601460248201527342657420616d6f756e7420746f6f206c6172676560601b604482015260640161024b565b60018410806102b65750600684115b156102fc576040516334460f4160e01b815260206004820152601560248201527424b73b30b634b21031b437b9b2b710373ab6b132b960591b604482015260640161024b565b6103063384610736565b61030e610b9c565b60ff1691505f905081840361039b5761032960065f19610eef565b83111561038d5760405163193a897b60e11b815260206004820152602b60248201527f42657420616d6f756e7420746f6f206c6172676520666f72207061796f75742060448201526a31b0b631bab630ba34b7b760a91b606482015260840161024b565b610398836006610f02565b90505b604051632770a7eb60e21b8152336004820152602481018490527f00000000000000000000000000000000000000000000000000000000000000006001600160a01b031690639dc29fac906044015f604051808303815f87803b158015610400575f5ffd5b505af1925050508015610411575060015b610452576040516312dfddb360e01b8152602060048201526011602482015270151bdad95b88189d5c9b8819985a5b1959607a1b604482015260640161024b565b8260045f8282546104639190610f1f565b90915550508015610525576040516340c10f1960e01b8152336004820152602481018290527f00000000000000000000000000000000000000000000000000000000000000006001600160a01b0316906340c10f19906044015f604051808303815f87803b1580156104d3575f5ffd5b505af19250505080156104e4575060015b610525576040516312dfddb360e01b8152602060048201526011602482015270151bdad95b881b5a5b9d0819985a5b1959607a1b604482015260640161024b565b335f9081526001602052604090206105408186858786610c12565b61054a8183610da5565b5061055460015f55565b9250929050565b60606001600160a01b0382166105ad576040516334460f4160e01b8152602060048201526016602482015275496e76616c696420706c61796572206164647265737360501b604482015260640161024b565b6001600160a01b0382165f90815260016020908152604080832080548251818502810185019093528083529193909284015b82821015610640578382905f5260205f2090600502016040518060a00160405290815f8201548152602001600182015481526020016002820154815260200160038201548152602001600482015481525050815260200190600101906105df565b505050509050919050565b5f80806001600160a01b03841661069e576040516334460f4160e01b8152602060048201526016602482015275496e76616c696420706c61796572206164647265737360501b604482015260640161024b565b6001600160a01b0384165f90815260016020526040812080549091906106c4575f6106f5565b815482906106d490600190610f32565b815481106106e4576106e4610f45565b905f5260205f209060050201600301545b6003830154600290930154929792965094509092505050565b60025f540361073057604051633ee5aeb560e01b815260040160405180910390fd5b60025f55565b6040516370a0823160e01b81526001600160a01b03838116600483015282917f0000000000000000000000000000000000000000000000000000000000000000909116906370a0823190602401602060405180830381865afa15801561079e573d5f5f3e3d5ffd5b505050506040513d601f19601f820116820180604052508101906107c29190610f59565b1015610876576040516370a0823160e01b81526001600160a01b03838116600483015282917f0000000000000000000000000000000000000000000000000000000000000000909116906370a0823190602401602060405180830381865afa158015610830573d5f5f3e3d5ffd5b505050506040513d601f19601f820116820180604052508101906108549190610f59565b6040516302fa826960e51b81526004810192909252602482015260440161024b565b604051636eb1769f60e11b81526001600160a01b03838116600483015230602483015282917f00000000000000000000000000000000000000000000000000000000000000009091169063dd62ed3e90604401602060405180830381865afa1580156108e4573d5f5f3e3d5ffd5b505050506040513d601f19601f820116820180604052508101906109089190610f59565b10156109c257604051636eb1769f60e11b81526001600160a01b03838116600483015230602483015282917f00000000000000000000000000000000000000000000000000000000000000009091169063dd62ed3e90604401602060405180830381865afa15801561097c573d5f5f3e3d5ffd5b505050506040513d601f19601f820116820180604052508101906109a09190610f59565b60405163054365bb60e31b81526004810192909252602482015260440161024b565b604051632474521560e21b81527f3c11d16cbaffd01df69ce1c404f6340ee057498f5f00246190ea54220576a84860048201523060248201527f00000000000000000000000000000000000000000000000000000000000000006001600160a01b0316906391d1485490604401602060405180830381865afa158015610a4a573d5f5f3e3d5ffd5b505050506040513d601f19601f82011682018060405250810190610a6e9190610f70565b610aad576040516359f75fb760e11b81527f3c11d16cbaffd01df69ce1c404f6340ee057498f5f00246190ea54220576a848600482015260240161024b565b604051632474521560e21b81527f9f2df0fed2c77648de5860a4cc508cd0818c85b8b8a1ab4ceeef8d981c8956a660048201523060248201527f00000000000000000000000000000000000000000000000000000000000000006001600160a01b0316906391d1485490604401602060405180830381865afa158015610b35573d5f5f3e3d5ffd5b505050506040513d601f19601f82011682018060405250810190610b599190610f70565b610b98576040516359f75fb760e11b81527f9f2df0fed2c77648de5860a4cc508cd0818c85b8b8a1ab4ceeef8d981c8956a6600482015260240161024b565b5050565b5f6006424433600254604051602001610be09493929190938452602084019290925260601b6bffffffffffffffffffffffff19166040830152605482015260740190565b604051602081830303815290604052805190602001205f1c610c029190610f8f565b610c0d906001610f1f565b905090565b84600101545f03610c2557600a60018601555b6040805160a08101825285815260208101859052908101839052426060820152608081018290526001860154865410610d58575f5b8654610c6890600190610f32565b811015610cf15786610c7b826001610f1f565b81548110610c8b57610c8b610f45565b905f5260205f209060050201875f018281548110610cab57610cab610f45565b5f91825260209091208254600590920201908155600180830154818301556002808401549083015560038084015490830155600492830154929091019190915501610c5a565b50855481908790610d0490600190610f32565b81548110610d1457610d14610f45565b905f5260205f2090600502015f820151815f015560208201518160010155604082015181600201556060820151816003015560808201518160040155905050610d9d565b8554600181810188555f888152602090819020845160059094020192835583015190820155604082015160028201556060820151600382015560808201516004909101555b505050505050565b8015610dc45780826002015f828254610dbe9190610f1f565b90915550505b600382018054905f610dd583610fa2565b909155505060028054905f610de983610fa2565b91905055508060035f828254610dff9190610f1f565b90915550505050565b5f5f60408385031215610e19575f5ffd5b50508035926020909101359150565b5f60208284031215610e38575f5ffd5b81356001600160a01b0381168114610e4e575f5ffd5b9392505050565b602080825282518282018190525f918401906040840190835b81811015610ebc57835180518452602081015160208501526040810151604085015260608101516060850152608081015160808501525060a083019250602084019350600181019050610e6e565b509095945050505050565b634e487b7160e01b5f52601260045260245ffd5b634e487b7160e01b5f52601160045260245ffd5b5f82610efd57610efd610ec7565b500490565b8082028115828204841417610f1957610f19610edb565b92915050565b80820180821115610f1957610f19610edb565b81810381811115610f1957610f19610edb565b634e487b7160e01b5f52603260045260245ffd5b5f60208284031215610f69575f5ffd5b5051919050565b5f60208284031215610f80575f5ffd5b81518015158114610e4e575f5ffd5b5f82610f9d57610f9d610ec7565b500690565b5f60018201610fb357610fb3610edb565b506001019056fea26469706673582212204124d766b344df3a8b0160778d12cd8625956d7e940a850c9553267f85ecd1a964736f6c634300081c0033",
    "linkReferences": {}
  },
  "methodIdentifiers": {
    "BURNER_ROLE()": "282c51f3",
    "MAX_BET_AMOUNT()": "309167f5",
    "MAX_HISTORY_SIZE()": "c1066251",
    "MINTER_ROLE()": "d5391393",
    "gamaToken()": "d56ec8c9",
    "getBetHistory(address)": "ce84a53b",
    "getUserData(address)": "ffc9896b",
    "playDice(uint256,uint256)": "0176cf5e",
    "totalGamesPlayed()": "5c492129",
    "totalPayoutAmount()": "e7efcfc2",
    "totalWageredAmount()": "5bdb2e1b"
  },
  "id": 21
}