{
  "abi": [
    {
      "type": "constructor",
      "inputs": [
        {
          "name": "_myTokenAddress",
          "type": "address",
          "internalType": "address"
        },
        {
          "name": "subscriptionId",
          "type": "uint256",
          "internalType": "uint256"
        },
        {
          "name": "vrfCoordinator",
          "type": "address",
          "internalType": "address"
        },
        {
          "name": "keyHash",
          "type": "bytes32",
          "internalType": "bytes32"
        },
        {
          "name": "_callbackGasLimit",
          "type": "uint32",
          "internalType": "uint32"
        },
        {
          "name": "_requestConfirmations",
          "type": "uint16",
          "internalType": "uint16"
        },
        {
          "name": "_numWords",
          "type": "uint32",
          "internalType": "uint32"
        }
      ],
      "stateMutability": "nonpayable"
    },
    {
      "type": "function",
      "name": "BURNER_ROLE",
      "inputs": [],
      "outputs": [
        {
          "name": "",
          "type": "bytes32",
          "internalType": "bytes32"
        }
      ],
      "stateMutability": "view"
    },
    {
      "type": "function",
      "name": "DEFAULT_HISTORY_SIZE",
      "inputs": [],
      "outputs": [
        {
          "name": "",
          "type": "uint256",
          "internalType": "uint256"
        }
      ],
      "stateMutability": "view"
    },
    {
      "type": "function",
      "name": "MINTER_ROLE",
      "inputs": [],
      "outputs": [
        {
          "name": "",
          "type": "bytes32",
          "internalType": "bytes32"
        }
      ],
      "stateMutability": "view"
    },
    {
      "type": "function",
      "name": "acceptOwnership",
      "inputs": [],
      "outputs": [],
      "stateMutability": "nonpayable"
    },
    {
      "type": "function",
      "name": "addOwner",
      "inputs": [
        {
          "name": "newOwner",
          "type": "address",
          "internalType": "address"
        }
      ],
      "outputs": [],
      "stateMutability": "nonpayable"
    },
    {
      "type": "function",
      "name": "canStartNewGame",
      "inputs": [
        {
          "name": "player",
          "type": "address",
          "internalType": "address"
        }
      ],
      "outputs": [
        {
          "name": "",
          "type": "bool",
          "internalType": "bool"
        }
      ],
      "stateMutability": "view"
    },
    {
      "type": "function",
      "name": "forceStopGame",
      "inputs": [
        {
          "name": "player",
          "type": "address",
          "internalType": "address"
        }
      ],
      "outputs": [],
      "stateMutability": "nonpayable"
    },
    {
      "type": "function",
      "name": "getContractBalance",
      "inputs": [],
      "outputs": [
        {
          "name": "",
          "type": "uint256",
          "internalType": "uint256"
        }
      ],
      "stateMutability": "view"
    },
    {
      "type": "function",
      "name": "getCurrentGame",
      "inputs": [
        {
          "name": "player",
          "type": "address",
          "internalType": "address"
        }
      ],
      "outputs": [
        {
          "name": "",
          "type": "tuple",
          "internalType": "struct GameState",
          "components": [
            {
              "name": "isActive",
              "type": "bool",
              "internalType": "bool"
            },
            {
              "name": "chosenNumber",
              "type": "uint256",
              "internalType": "uint256"
            },
            {
              "name": "result",
              "type": "uint256",
              "internalType": "uint256"
            },
            {
              "name": "amount",
              "type": "uint256",
              "internalType": "uint256"
            },
            {
              "name": "timestamp",
              "type": "uint256",
              "internalType": "uint256"
            },
            {
              "name": "payout",
              "type": "uint256",
              "internalType": "uint256"
            },
            {
              "name": "randomWord",
              "type": "uint256",
              "internalType": "uint256"
            },
            {
              "name": "status",
              "type": "uint8",
              "internalType": "enum GameStatus"
            }
          ]
        }
      ],
      "stateMutability": "view"
    },
    {
      "type": "function",
      "name": "getCurrentRequestDetails",
      "inputs": [
        {
          "name": "player",
          "type": "address",
          "internalType": "address"
        }
      ],
      "outputs": [
        {
          "name": "requestId",
          "type": "uint256",
          "internalType": "uint256"
        },
        {
          "name": "requestFulfilled",
          "type": "bool",
          "internalType": "bool"
        },
        {
          "name": "requestActive",
          "type": "bool",
          "internalType": "bool"
        }
      ],
      "stateMutability": "view"
    },
    {
      "type": "function",
      "name": "getGameStatus",
      "inputs": [
        {
          "name": "player",
          "type": "address",
          "internalType": "address"
        }
      ],
      "outputs": [
        {
          "name": "isActive",
          "type": "bool",
          "internalType": "bool"
        },
        {
          "name": "status",
          "type": "uint8",
          "internalType": "enum GameStatus"
        },
        {
          "name": "chosenNumber",
          "type": "uint256",
          "internalType": "uint256"
        },
        {
          "name": "amount",
          "type": "uint256",
          "internalType": "uint256"
        },
        {
          "name": "timestamp",
          "type": "uint256",
          "internalType": "uint256"
        }
      ],
      "stateMutability": "view"
    },
    {
      "type": "function",
      "name": "getOwnerCount",
      "inputs": [],
      "outputs": [
        {
          "name": "",
          "type": "uint256",
          "internalType": "uint256"
        }
      ],
      "stateMutability": "view"
    },
    {
      "type": "function",
      "name": "getPlayerForRequest",
      "inputs": [
        {
          "name": "requestId",
          "type": "uint256",
          "internalType": "uint256"
        }
      ],
      "outputs": [
        {
          "name": "",
          "type": "address",
          "internalType": "address"
        }
      ],
      "stateMutability": "view"
    },
    {
      "type": "function",
      "name": "getPlayerStats",
      "inputs": [
        {
          "name": "player",
          "type": "address",
          "internalType": "address"
        }
      ],
      "outputs": [
        {
          "name": "totalGamesWon",
          "type": "uint256",
          "internalType": "uint256"
        },
        {
          "name": "totalGamesLost",
          "type": "uint256",
          "internalType": "uint256"
        }
      ],
      "stateMutability": "view"
    },
    {
      "type": "function",
      "name": "getPreviousBets",
      "inputs": [
        {
          "name": "player",
          "type": "address",
          "internalType": "address"
        }
      ],
      "outputs": [
        {
          "name": "",
          "type": "tuple[]",
          "internalType": "struct BetHistory[]",
          "components": [
            {
              "name": "chosenNumber",
              "type": "uint256",
              "internalType": "uint256"
            },
            {
              "name": "rolledNumber",
              "type": "uint256",
              "internalType": "uint256"
            },
            {
              "name": "amount",
              "type": "uint256",
              "internalType": "uint256"
            },
            {
              "name": "timestamp",
              "type": "uint256",
              "internalType": "uint256"
            }
          ]
        }
      ],
      "stateMutability": "view"
    },
    {
      "type": "function",
      "name": "getUserData",
      "inputs": [
        {
          "name": "player",
          "type": "address",
          "internalType": "address"
        }
      ],
      "outputs": [
        {
          "name": "currentGame",
          "type": "tuple",
          "internalType": "struct GameState",
          "components": [
            {
              "name": "isActive",
              "type": "bool",
              "internalType": "bool"
            },
            {
              "name": "chosenNumber",
              "type": "uint256",
              "internalType": "uint256"
            },
            {
              "name": "result",
              "type": "uint256",
              "internalType": "uint256"
            },
            {
              "name": "amount",
              "type": "uint256",
              "internalType": "uint256"
            },
            {
              "name": "timestamp",
              "type": "uint256",
              "internalType": "uint256"
            },
            {
              "name": "payout",
              "type": "uint256",
              "internalType": "uint256"
            },
            {
              "name": "randomWord",
              "type": "uint256",
              "internalType": "uint256"
            },
            {
              "name": "status",
              "type": "uint8",
              "internalType": "enum GameStatus"
            }
          ]
        },
        {
          "name": "totalGames",
          "type": "uint256",
          "internalType": "uint256"
        },
        {
          "name": "totalBets",
          "type": "uint256",
          "internalType": "uint256"
        },
        {
          "name": "totalWinnings",
          "type": "uint256",
          "internalType": "uint256"
        },
        {
          "name": "totalLosses",
          "type": "uint256",
          "internalType": "uint256"
        },
        {
          "name": "lastPlayed",
          "type": "uint256",
          "internalType": "uint256"
        }
      ],
      "stateMutability": "view"
    },
    {
      "type": "function",
      "name": "hasPendingRequest",
      "inputs": [
        {
          "name": "player",
          "type": "address",
          "internalType": "address"
        }
      ],
      "outputs": [
        {
          "name": "",
          "type": "bool",
          "internalType": "bool"
        }
      ],
      "stateMutability": "view"
    },
    {
      "type": "function",
      "name": "isOwner",
      "inputs": [
        {
          "name": "account",
          "type": "address",
          "internalType": "address"
        }
      ],
      "outputs": [
        {
          "name": "",
          "type": "bool",
          "internalType": "bool"
        }
      ],
      "stateMutability": "view"
    },
    {
      "type": "function",
      "name": "isRequestActive",
      "inputs": [
        {
          "name": "requestId",
          "type": "uint256",
          "internalType": "uint256"
        }
      ],
      "outputs": [
        {
          "name": "",
          "type": "bool",
          "internalType": "bool"
        }
      ],
      "stateMutability": "view"
    },
    {
      "type": "function",
      "name": "myToken",
      "inputs": [],
      "outputs": [
        {
          "name": "",
          "type": "address",
          "internalType": "contract IMyToken"
        }
      ],
      "stateMutability": "view"
    },
    {
      "type": "function",
      "name": "owner",
      "inputs": [],
      "outputs": [
        {
          "name": "",
          "type": "address",
          "internalType": "address"
        }
      ],
      "stateMutability": "view"
    },
    {
      "type": "function",
      "name": "pause",
      "inputs": [],
      "outputs": [],
      "stateMutability": "nonpayable"
    },
    {
      "type": "function",
      "name": "paused",
      "inputs": [],
      "outputs": [
        {
          "name": "",
          "type": "bool",
          "internalType": "bool"
        }
      ],
      "stateMutability": "view"
    },
    {
      "type": "function",
      "name": "playDice",
      "inputs": [
        {
          "name": "chosenNumber",
          "type": "uint256",
          "internalType": "uint256"
        },
        {
          "name": "amount",
          "type": "uint256",
          "internalType": "uint256"
        }
      ],
      "outputs": [
        {
          "name": "requestId",
          "type": "uint256",
          "internalType": "uint256"
        }
      ],
      "stateMutability": "nonpayable"
    },
    {
      "type": "function",
      "name": "rawFulfillRandomWords",
      "inputs": [
        {
          "name": "requestId",
          "type": "uint256",
          "internalType": "uint256"
        },
        {
          "name": "randomWords",
          "type": "uint256[]",
          "internalType": "uint256[]"
        }
      ],
      "outputs": [],
      "stateMutability": "nonpayable"
    },
    {
      "type": "function",
      "name": "recoverStuckGame",
      "inputs": [
        {
          "name": "player",
          "type": "address",
          "internalType": "address"
        }
      ],
      "outputs": [],
      "stateMutability": "nonpayable"
    },
    {
      "type": "function",
      "name": "removeOwner",
      "inputs": [
        {
          "name": "ownerToRemove",
          "type": "address",
          "internalType": "address"
        }
      ],
      "outputs": [],
      "stateMutability": "nonpayable"
    },
    {
      "type": "function",
      "name": "resolveGame",
      "inputs": [],
      "outputs": [],
      "stateMutability": "nonpayable"
    },
    {
      "type": "function",
      "name": "revokeTokenRole",
      "inputs": [
        {
          "name": "role",
          "type": "bytes32",
          "internalType": "bytes32"
        },
        {
          "name": "account",
          "type": "address",
          "internalType": "address"
        }
      ],
      "outputs": [],
      "stateMutability": "nonpayable"
    },
    {
      "type": "function",
      "name": "s_vrfCoordinator",
      "inputs": [],
      "outputs": [
        {
          "name": "",
          "type": "address",
          "internalType": "contract IVRFCoordinatorV2Plus"
        }
      ],
      "stateMutability": "view"
    },
    {
      "type": "function",
      "name": "setCallbackGasLimit",
      "inputs": [
        {
          "name": "_callbackGasLimit",
          "type": "uint32",
          "internalType": "uint32"
        }
      ],
      "outputs": [],
      "stateMutability": "nonpayable"
    },
    {
      "type": "function",
      "name": "setCoordinator",
      "inputs": [
        {
          "name": "_vrfCoordinator",
          "type": "address",
          "internalType": "address"
        }
      ],
      "outputs": [],
      "stateMutability": "nonpayable"
    },
    {
      "type": "function",
      "name": "setHistorySize",
      "inputs": [
        {
          "name": "newSize",
          "type": "uint256",
          "internalType": "uint256"
        }
      ],
      "outputs": [],
      "stateMutability": "nonpayable"
    },
    {
      "type": "function",
      "name": "transferOwnership",
      "inputs": [
        {
          "name": "to",
          "type": "address",
          "internalType": "address"
        }
      ],
      "outputs": [],
      "stateMutability": "nonpayable"
    },
    {
      "type": "function",
      "name": "unpause",
      "inputs": [],
      "outputs": [],
      "stateMutability": "nonpayable"
    },
    {
      "type": "event",
      "name": "CoordinatorSet",
      "inputs": [
        {
          "name": "vrfCoordinator",
          "type": "address",
          "indexed": false,
          "internalType": "address"
        }
      ],
      "anonymous": false
    },
    {
      "type": "event",
      "name": "OwnerAdded",
      "inputs": [
        {
          "name": "newOwner",
          "type": "address",
          "indexed": true,
          "internalType": "address"
        }
      ],
      "anonymous": false
    },
    {
      "type": "event",
      "name": "OwnerRemoved",
      "inputs": [
        {
          "name": "removedOwner",
          "type": "address",
          "indexed": true,
          "internalType": "address"
        }
      ],
      "anonymous": false
    },
    {
      "type": "event",
      "name": "OwnershipTransferRequested",
      "inputs": [
        {
          "name": "from",
          "type": "address",
          "indexed": true,
          "internalType": "address"
        },
        {
          "name": "to",
          "type": "address",
          "indexed": true,
          "internalType": "address"
        }
      ],
      "anonymous": false
    },
    {
      "type": "event",
      "name": "OwnershipTransferred",
      "inputs": [
        {
          "name": "from",
          "type": "address",
          "indexed": true,
          "internalType": "address"
        },
        {
          "name": "to",
          "type": "address",
          "indexed": true,
          "internalType": "address"
        }
      ],
      "anonymous": false
    },
    {
      "type": "event",
      "name": "Paused",
      "inputs": [
        {
          "name": "account",
          "type": "address",
          "indexed": false,
          "internalType": "address"
        }
      ],
      "anonymous": false
    },
    {
      "type": "event",
      "name": "Unpaused",
      "inputs": [
        {
          "name": "account",
          "type": "address",
          "indexed": false,
          "internalType": "address"
        }
      ],
      "anonymous": false
    },
    {
      "type": "error",
      "name": "EnforcedPause",
      "inputs": []
    },
    {
      "type": "error",
      "name": "ExpectedPause",
      "inputs": []
    },
    {
      "type": "error",
      "name": "GameError",
      "inputs": [
        {
          "name": "code",
          "type": "uint256",
          "internalType": "uint256"
        }
      ]
    },
    {
      "type": "error",
      "name": "InsufficientContractBalance",
      "inputs": [
        {
          "name": "required",
          "type": "uint256",
          "internalType": "uint256"
        },
        {
          "name": "available",
          "type": "uint256",
          "internalType": "uint256"
        }
      ]
    },
    {
      "type": "error",
      "name": "InsufficientUserBalance",
      "inputs": [
        {
          "name": "required",
          "type": "uint256",
          "internalType": "uint256"
        },
        {
          "name": "available",
          "type": "uint256",
          "internalType": "uint256"
        }
      ]
    },
    {
      "type": "error",
      "name": "InvalidBetParameters",
      "inputs": [
        {
          "name": "code",
          "type": "uint256",
          "internalType": "uint256"
        }
      ]
    },
    {
      "type": "error",
      "name": "OnlyCoordinatorCanFulfill",
      "inputs": [
        {
          "name": "have",
          "type": "address",
          "internalType": "address"
        },
        {
          "name": "want",
          "type": "address",
          "internalType": "address"
        }
      ]
    },
    {
      "type": "error",
      "name": "OnlyOwnerOrCoordinator",
      "inputs": [
        {
          "name": "have",
          "type": "address",
          "internalType": "address"
        },
        {
          "name": "owner",
          "type": "address",
          "internalType": "address"
        },
        {
          "name": "coordinator",
          "type": "address",
          "internalType": "address"
        }
      ]
    },
    {
      "type": "error",
      "name": "OwnerError",
      "inputs": [
        {
          "name": "code",
          "type": "uint256",
          "internalType": "uint256"
        }
      ]
    },
    {
      "type": "error",
      "name": "PayoutCalculationError",
      "inputs": [
        {
          "name": "message",
          "type": "string",
          "internalType": "string"
        }
      ]
    },
    {
      "type": "error",
      "name": "ReentrancyGuardReentrantCall",
      "inputs": []
    },
    {
      "type": "error",
      "name": "RoleError",
      "inputs": [
        {
          "name": "code",
          "type": "uint256",
          "internalType": "uint256"
        }
      ]
    },
    {
      "type": "error",
      "name": "TransferFailed",
      "inputs": [
        {
          "name": "code",
          "type": "uint256",
          "internalType": "uint256"
        }
      ]
    },
    {
      "type": "error",
      "name": "VRFError",
      "inputs": [
        {
          "name": "code",
          "type": "uint256",
          "internalType": "uint256"
        }
      ]
    },
    {
      "type": "error",
      "name": "ZeroAddress",
      "inputs": []
    }
  ],
  "bytecode": {
    "object": "0x61012060405234801561001157600080fd5b50604051612ea1380380612ea183398101604081905261003091610321565b6000805460ff1916815560018055859033908190816100965760405162461bcd60e51b815260206004820152601860248201527f43616e6e6f7420736574206f776e657220746f207a65726f000000000000000060448201526064015b60405180910390fd5b600280546001600160a01b0319166001600160a01b03848116919091179091558116156100c6576100c681610247565b5050506001600160a01b0381166100f05760405163d92e233d60e01b815260040160405180910390fd5b600480546001600160a01b0319166001600160a01b03928316179055871661012e57604051636cab86db60e01b81526001600482015260240161008d565b6001600160a01b03851661015857604051636cab86db60e01b81526002600482015260240161008d565b8263ffffffff1660000361018257604051636cab86db60e01b81526003600482015260240161008d565b8063ffffffff166000036101ab57604051636cab86db60e01b815260048181015260240161008d565b608086905260a08490526004805463ffffffff808616600160a01b0263ffffffff60a01b199092169190911790915561ffff831660c052811660e0526001600160a01b0387166101005233600081815260086020526040808220805460ff19166001908117909155600955517f994a936646fe87ffe4f1e469d3d6aa417d6b855598397f323de5b449f765f0c39190a2505050505050506103a2565b336001600160a01b0382160361029f5760405162461bcd60e51b815260206004820152601760248201527f43616e6e6f74207472616e7366657220746f2073656c66000000000000000000604482015260640161008d565b600380546001600160a01b0319166001600160a01b03838116918217909255600254604051919216907fed8889f560326eb138920d842192f0eb3dd22b4f139c87a2c57538e05bae127890600090a350565b80516001600160a01b038116811461030857600080fd5b919050565b805163ffffffff8116811461030857600080fd5b600080600080600080600060e0888a03121561033c57600080fd5b610345886102f1565b96506020880151955061035a604089016102f1565b94506060880151935061036f6080890161030d565b925060a088015161ffff8116811461038657600080fd5b915061039460c0890161030d565b905092959891949750929550565b60805160a05160c05160e05161010051612a7561042c600039600081816104f9015281816107920152818161084a01528181610925015281816109d40152818161152901528181611a4601528181611aed01528181611d4c01528181611eac0152611f6a01526000610ae901526000610ab001526000610a6001526000610a830152612a756000f3fe608060405234801561001057600080fd5b50600436106102105760003560e01c806362cf48f91161012557806393e955bd116100ad578063b8fcf9371161007c578063b8fcf937146104f4578063d53913931461051b578063ef18374a14610542578063f2fde38b1461054a578063ffc9896b1461055d57600080fd5b806393e955bd146104a85780639eccacf6146104bb578063a4eb718c146104ce578063b52a0855146104e157600080fd5b806379ba5097116100f457806379ba50971461046c5780637cd2d47c146104745780638456cb591461047c5780638da5cb5b146104845780638ea981171461049557600080fd5b806362cf48f91461041957806363df7a14146104495780636f9fb98a146104515780637065cb481461045957600080fd5b8063282c51f3116101a8578063447b2a0611610177578063447b2a061461038f5780634fd66eae146103af57806354e4437e146103d75780635c975abb146103fb5780635d424b851461040657600080fd5b8063282c51f31461032157806329febc73146103485780632f54bf6e1461035b5780633f4ba83a1461038757600080fd5b8063086bb182116101e4578063086bb182146102d35780630c99375d146102e8578063173825d9146102fb5780631fe543e31461030e57600080fd5b8062d6b9ba146102155780630176cf5e1461023e5780630359a8a31461025f5780630424315114610292575b600080fd5b6102286102233660046125a2565b610582565b60405161023591906125bd565b60405180910390f35b61025161024c366004612626565b6106d9565b604051908152602001610235565b61028261026d366004612648565b60009081526007602052604090205460ff1690565b6040519015158152602001610235565b6102bb6102a0366004612648565b6000908152600660205260409020546001600160a01b031690565b6040516001600160a01b039091168152602001610235565b6102e66102e1366004612648565b610cc9565b005b6102826102f63660046125a2565b610dce565b6102e66103093660046125a2565b610e05565b6102e661031c366004612661565b610f2f565b6102517f3c11d16cbaffd01df69ce1c404f6340ee057498f5f00246190ea54220576a84881565b6102e66103563660046125a2565b610f80565b6102826103693660046125a2565b6001600160a01b031660009081526008602052604090205460ff1690565b6102e66110a2565b6103a261039d3660046125a2565b6110df565b604051610235919061276e565b6103c26103bd3660046125a2565b6112c3565b60408051928352602083019190915201610235565b6103ea6103e53660046125a2565b611354565b60405161023595949392919061277d565b60005460ff16610282565b6102826104143660046125a2565b61144f565b61042c6104273660046125a2565b61147f565b604080519384529115156020840152151590820152606001610235565b610251600a81565b610251611511565b6102e66104673660046125a2565b6115a1565b6102e66116a8565b6102e6611756565b6102e6611bc5565b6002546001600160a01b03166102bb565b6102e66104a33660046125a2565b611c00565b6102e66104b63660046127af565b611cf3565b6004546102bb906001600160a01b031681565b6102e66104dc3660046127db565b611dac565b6102e66104ef3660046125a2565b611e05565b6102bb7f000000000000000000000000000000000000000000000000000000000000000081565b6102517f9f2df0fed2c77648de5860a4cc508cd0818c85b8b8a1ab4ceeef8d981c8956a681565b600954610251565b6102e66105583660046125a2565b611fe1565b61057061056b3660046125a2565b611ff5565b60405161023596959493929190612801565b60606001600160a01b0382166105b357604051636cab86db60e01b8152600c60048201526024015b60405180910390fd5b6001600160a01b0382166000908152600560205260408120600a81015490918167ffffffffffffffff8111156105eb576105eb61283d565b60405190808252806020026020018201604052801561064757816020015b6106346040518060800160405280600081526020016000815260200160008152602001600081525090565b8152602001906001900390816106095790505b50905060005b828110156106d05783600a01818154811061066a5761066a612853565b90600052602060002090600402016040518060800160405290816000820154815260200160018201548152602001600282015481526020016003820154815250508282815181106106bd576106bd612853565b602090810291909101015260010161064d565b50949350505050565b60006106e3612124565b6106eb61214e565b3360009081526005602052604081209083900361071e57604051636cab86db60e01b8152600560048201526024016105aa565b805460ff16156107445760405163d6d1036b60e01b8152600160048201526024016105aa565b60018410806107535750600684115b1561077457604051636cab86db60e01b8152600660048201526024016105aa565b604051636eb1769f60e11b81523360048201523060248201526000907f00000000000000000000000000000000000000000000000000000000000000006001600160a01b03169063dd62ed3e90604401602060405180830381865afa1580156107e1573d6000803e3d6000fd5b505050506040513d601f19601f820116820180604052508101906108059190612869565b905083811015610832576040516302fa826960e51b815260048101859052602481018290526044016105aa565b6040516370a0823160e01b81523360048201526000907f00000000000000000000000000000000000000000000000000000000000000006001600160a01b0316906370a0823190602401602060405180830381865afa158015610899573d6000803e3d6000fd5b505050506040513d601f19601f820116820180604052508101906108bd9190612869565b9050848110156108ea576040516302fa826960e51b815260048101869052602481018290526044016105aa565b604051632474521560e21b81527f3c11d16cbaffd01df69ce1c404f6340ee057498f5f00246190ea54220576a84860048201523060248201527f00000000000000000000000000000000000000000000000000000000000000006001600160a01b0316906391d1485490604401602060405180830381865afa158015610974573d6000803e3d6000fd5b505050506040513d601f19601f820116820180604052508101906109989190612882565b6109b85760405163d64796dd60e01b8152600160048201526024016105aa565b604051632770a7eb60e21b8152336004820152602481018690527f00000000000000000000000000000000000000000000000000000000000000006001600160a01b031690639dc29fac90604401600060405180830381600087803b158015610a2057600080fd5b505af1925050508015610a31575060015b610a515760405163c39ba1a960e01b8152600160048201526024016105aa565b6004546040805160c0810182527f000000000000000000000000000000000000000000000000000000000000000081527f000000000000000000000000000000000000000000000000000000000000000060208083019190915261ffff7f0000000000000000000000000000000000000000000000000000000000000000168284015263ffffffff600160a01b8504811660608401527f00000000000000000000000000000000000000000000000000000000000000001660808301528251908101909252600082526001600160a01b0390921691639b1c385e9160a0820190610b3a90612172565b8152506040518263ffffffff1660e01b8152600401610b5991906128a4565b6020604051808303816000875af1925050508015610b94575060408051601f3d908101601f19168201909252610b9191810190612869565b60015b610bb45760405163588860ed60e11b8152600160048201526024016105aa565b600081815260066020818152604080842080546001600160a01b031916331790556007808352818520805460ff1990811660019081179092558351610100810185528281529485018e9052928401869052606084018c9052426080850181905260a0850187905260c0850187905260e09094018190528954831681178a558981018d905560028a0186905560038a018c905560048a019390935560058901859055928801849055918701805483169091179055600886018390556009860180549091169055600c850180549296508792909190610c92908490612956565b9091555050600f83018054906000610ca983612969565b9190505550428360100181905550505050610cc360018055565b92915050565b60008111610d195760405162461bcd60e51b815260206004820152601d60248201527f486973746f72792073697a65206d75737420626520706f73697469766500000060448201526064016105aa565b6064811115610d635760405162461bcd60e51b8152602060048201526016602482015275486973746f72792073697a6520746f6f206c6172676560501b60448201526064016105aa565b336000908152600560205260409020600b81018290555b600a810154821015610dca5780600a01805480610d9957610d99612982565b6000828152602081206004600019909301928302018181556001810182905560028101829055600301559055610d7a565b5050565b6001600160a01b0381166000908152600560205260408120600881015415801590610dfe5750600981015460ff16155b9392505050565b3360009081526008602052604090205460ff16610e3857604051630f25112d60e41b8152600160048201526024016105aa565b6001600160a01b03811660009081526008602052604090205460ff16610e7457604051630f25112d60e41b8152600160048201526024016105aa565b600160095411610e9a57604051630f25112d60e41b8152600360048201526024016105aa565b336001600160a01b03821603610ec557604051630f25112d60e41b81526004818101526024016105aa565b6001600160a01b0381166000908152600860205260408120805460ff191690556009805491610ef383612998565b90915550506040516001600160a01b038216907f58619076adf5bb0943d100ef88d52d7c3fd691b19d3a9071b555b651fbf418da90600090a250565b6004546001600160a01b03163314610f70576004805460405163073e64fd60e21b815233928101929092526001600160a01b031660248201526044016105aa565b610f7b8383836121e3565b505050565b3360009081526008602052604090205460ff16610fb357604051630f25112d60e41b8152600160048201526024016105aa565b6001600160a01b0381166000908152600560205260409020805460ff16610fec5760405162461bcd60e51b81526004016105aa906129af565b6004810154610ffe90610e1090612956565b42116110415760405162461bcd60e51b815260206004820152601260248201527111d85b59481b9bdd081d1a5b5959081bdd5d60721b60448201526064016105aa565b60088101541561108257600881018054600090815260066020908152604080832080546001600160a01b0319169055925482526007905220805460ff191690555b805460ff1990811682556009820180549091169055600060089091015550565b3360009081526008602052604090205460ff166110d557604051630f25112d60e41b8152600160048201526024016105aa565b6110dd612380565b565b6110e761252f565b6001600160a01b03821661111157604051636cab86db60e01b8152600860048201526024016105aa565b6001600160a01b0382166000908152600560205260409020805460ff16156112685761114060066000196129ed565b600382015411156111875760405163193a897b60e11b815260206004820152601060248201526f416d6f756e7420746f6f206c6172676560801b60448201526064016105aa565b60048101544210156111af5760405163d6d1036b60e01b8152600360048201526024016105aa565b6001810154600610156111d857604051636cab86db60e01b8152600d60048201526024016105aa565b6040805161010081018252825460ff9081161515825260018401546020830152600284015492820192909252600383015460608201526004808401546080830152600584015460a0830152600684015460c083015260078401549192849260e085019291169081111561124d5761124d6126e2565b600481111561125e5761125e6126e2565b9052509392505050565b604051806101000160405280600015158152602001600081526020016000815260200160008152602001600081526020016000815260200160008152602001600060048111156112ba576112ba6126e2565b90529392505050565b6000806001600160a01b0383166112f057604051636cab86db60e01b8152600a60048201526024016105aa565b6001600160a01b0383166000908152600560205260408120600f8101549091036113205750600093849350915050565b6000600682600d015461133391906129ed565b905060008183600f01546113479190612a01565b9196919550909350505050565b6000808080806001600160a01b03861661138457604051636cab86db60e01b8152600960048201526024016105aa565b6001600160a01b0386166000908152600560208181526040808420815161010081018352815460ff908116151582526001830154948201949094526002820154928101929092526003810154606083015260048082015460808401529381015460a0830152600681015460c083015260078101549193909260e08501921690811115611412576114126126e2565b6004811115611423576114236126e2565b905250805160e082015160208301516060840151608090940151929b919a509850919650945092505050565b6001600160a01b0381166000908152600560205260408120805460ff16158015610dfe5750600801541592915050565b600080806001600160a01b0384166114ad57604051636cab86db60e01b8152600b60048201526024016105aa565b6001600160a01b038416600090815260056020526040812060088101549091036114e25760008060009350935093505061150a565b600881015460099091015460008281526007602052604090205491945060ff90811693501690505b9193909250565b6040516370a0823160e01b81523060048201526000907f00000000000000000000000000000000000000000000000000000000000000006001600160a01b0316906370a0823190602401602060405180830381865afa158015611578573d6000803e3d6000fd5b505050506040513d601f19601f8201168201806040525081019061159c9190612869565b905090565b3360009081526008602052604090205460ff166115d457604051630f25112d60e41b8152600160048201526024016105aa565b6001600160a01b0381166115fe57604051636cab86db60e01b8152600e60048201526024016105aa565b6001600160a01b03811660009081526008602052604090205460ff161561163b57604051630f25112d60e41b8152600260048201526024016105aa565b6001600160a01b0381166000908152600860205260408120805460ff19166001179055600980549161166c83612969565b90915550506040516001600160a01b038216907f994a936646fe87ffe4f1e469d3d6aa417d6b855598397f323de5b449f765f0c390600090a250565b6003546001600160a01b031633146116fb5760405162461bcd60e51b815260206004820152601660248201527526bab9ba10313290383937b837b9b2b21037bbb732b960511b60448201526064016105aa565b600280546001600160a01b0319808216339081179093556003805490911690556040516001600160a01b03909116919082907f8be0079c531659141344cd1fd0a4f28419497f9722a3daafe3b4186f6b6457e090600090a350565b61175e612124565b336000908152600560205260409020805460ff1661178e5760405162461bcd60e51b81526004016105aa906129af565b600981015460ff166117e25760405162461bcd60e51b815260206004820152601760248201527f52616e646f6d206e756d626572206e6f7420726561647900000000000000000060448201526064016105aa565b6006818101546000916117f491612a14565b6117ff906001612956565b905081600b015460000361181557600a600b8301555b600b820154600a830154106118ff5760005b600a83015461183890600190612a01565b8110156118be57600a830161184e826001612956565b8154811061185e5761185e612853565b906000526020600020906004020183600a01828154811061188157611881612853565b6000918252602090912082546004909202019081556001808301548183015560028084015490830155600392830154929091019190915501611827565b5081600a018054806118d2576118d2612982565b60008281526020812060046000199093019283020181815560018101829055600281018290556003015590555b6040805160808101825260018085018054835260208084018681526003808901549686019687524260608701908152600a8a018054808801825560009182529481209751600490950290970193845591519483019490945594516002820155935193909101929092559054829003611b6f5761197e60066000196129ed565b600384015411156119c95760405163193a897b60e11b815260206004820152601460248201527342657420616d6f756e7420746f6f206c6172676560601b60448201526064016105aa565b60038301546119d9906006612a28565b90508083600d0160008282546119ef9190612956565b909155505060078301805460ff19166002179055604051632474521560e21b81527f9f2df0fed2c77648de5860a4cc508cd0818c85b8b8a1ab4ceeef8d981c8956a660048201523060248201526001600160a01b037f000000000000000000000000000000000000000000000000000000000000000016906391d1485490604401602060405180830381865afa158015611a8d573d6000803e3d6000fd5b505050506040513d601f19601f82011682018060405250810190611ab19190612882565b611ad15760405163d64796dd60e01b8152600260048201526024016105aa565b6040516340c10f1960e01b8152336004820152602481018290527f00000000000000000000000000000000000000000000000000000000000000006001600160a01b0316906340c10f1990604401600060405180830381600087803b158015611b3957600080fd5b505af1925050508015611b4a575060015b611b6a5760405163c39ba1a960e01b8152600260048201526024016105aa565b611b9d565b6003830154600e84018054600090611b88908490612956565b909155505060078301805460ff191660031790555b5050805460ff199081168255600982018054909116905560006008909101556110dd60018055565b3360009081526008602052604090205460ff16611bf857604051630f25112d60e41b8152600160048201526024016105aa565b6110dd6123d2565b6002546001600160a01b03163314801590611c2657506004546001600160a01b03163314155b15611c785733611c3e6002546001600160a01b031690565b6004805460405163061db9c160e01b81526001600160a01b03948516928101929092529183166024820152911660448201526064016105aa565b6001600160a01b038116611c9f5760405163d92e233d60e01b815260040160405180910390fd5b600480546001600160a01b0319166001600160a01b0383169081179091556040519081527fd1a6a14209a385a964d036e404cb5cfb71f4000cdb03c9366292430787261be69060200160405180910390a150565b3360009081526008602052604090205460ff16611d2657604051630f25112d60e41b8152600160048201526024016105aa565b60405163d547741f60e01b8152600481018390526001600160a01b0382811660248301527f0000000000000000000000000000000000000000000000000000000000000000169063d547741f90604401600060405180830381600087803b158015611d9057600080fd5b505af1158015611da4573d6000803e3d6000fd5b505050505050565b3360009081526008602052604090205460ff16611ddf57604051630f25112d60e41b8152600160048201526024016105aa565b6004805463ffffffff909216600160a01b0263ffffffff60a01b19909216919091179055565b3360009081526008602052604090205460ff16611e3857604051630f25112d60e41b8152600160048201526024016105aa565b6001600160a01b0381166000908152600560205260409020805460ff16611e715760405162461bcd60e51b81526004016105aa906129af565b604051632474521560e21b81527f9f2df0fed2c77648de5860a4cc508cd0818c85b8b8a1ab4ceeef8d981c8956a660048201523060248201527f00000000000000000000000000000000000000000000000000000000000000006001600160a01b0316906391d1485490604401602060405180830381865afa158015611efb573d6000803e3d6000fd5b505050506040513d601f19601f82011682018060405250810190611f1f9190612882565b611f3e5760405163d64796dd60e01b81526004818101526024016105aa565b60038101546040516340c10f1960e01b81526001600160a01b03848116600483015260248201929092527f0000000000000000000000000000000000000000000000000000000000000000909116906340c10f1990604401600060405180830381600087803b158015611fb057600080fd5b505af1925050508015611fc1575060015b6110825760405163c39ba1a960e01b8152600360048201526024016105aa565b611fe961240f565b611ff281612462565b50565b611ffd61252f565b6000808080806001600160a01b03871661202d57604051636cab86db60e01b8152600760048201526024016105aa565b600060056000896001600160a01b03166001600160a01b0316815260200190815260200160002090508060000181600f015482600c015483600d015484600e0154856010015485604051806101000160405290816000820160009054906101000a900460ff161515151581526020016001820154815260200160028201548152602001600382015481526020016004820154815260200160058201548152602001600682015481526020016007820160009054906101000a900460ff1660048111156120fb576120fb6126e2565b600481111561210c5761210c6126e2565b9052509e949d50929b50909950975095509350505050565b60026001540361214757604051633ee5aeb560e01b815260040160405180910390fd5b6002600155565b60005460ff16156110dd5760405163d93c066560e01b815260040160405180910390fd5b60607f92fd13387c7fe7befbc38d303d6468778fb9731bc4583f17d92989c6fcfdeaaa826040516024016121ab91511515815260200190565b60408051601f198184030181529190526020810180516001600160e01b03166001600160e01b03199093169290921790915292915050565b6000838152600660205260409020546001600160a01b03168061221c5760405163d6d1036b60e01b8152600260048201526024016105aa565b6001600160a01b0381166000908152600560205260409020805460ff166122775760405162461bcd60e51b815260206004820152600f60248201526e47616d65206e6f742061637469766560881b60448201526064016105aa565b848160080154146122c05760405162461bcd60e51b81526020600482015260136024820152720a4cae2eacae6e840928840dad2e6dac2e8c6d606b1b60448201526064016105aa565b60008581526007602052604090205460ff166123165760405162461bcd60e51b815260206004820152601560248201527452657175657374204944206e6f742061637469766560581b60448201526064016105aa565b8383600081811061232957612329612853565b602090810292909201356006808501919091556009909301805460ff19908116600117909155600097885292825250604080872080546001600160a01b031916905560079091529094208054909416909355505050565b61238861250c565b6000805460ff191690557f5db9ee0a495bf2e6ff9c91a7834c1ba4fdd244a5e8aa4e537bd38aeae4b073aa335b6040516001600160a01b03909116815260200160405180910390a1565b6123da61214e565b6000805460ff191660011790557f62e78cea01bee320cd4e420270b5ea74000d11b0c9f74754ebdbfc544b05a2586123b53390565b6002546001600160a01b031633146110dd5760405162461bcd60e51b815260206004820152601660248201527527b7363c9031b0b63630b1363290313c9037bbb732b960511b60448201526064016105aa565b336001600160a01b038216036124ba5760405162461bcd60e51b815260206004820152601760248201527f43616e6e6f74207472616e7366657220746f2073656c6600000000000000000060448201526064016105aa565b600380546001600160a01b0319166001600160a01b03838116918217909255600254604051919216907fed8889f560326eb138920d842192f0eb3dd22b4f139c87a2c57538e05bae127890600090a350565b60005460ff166110dd57604051638dfc202b60e01b815260040160405180910390fd5b60405180610100016040528060001515815260200160008152602001600081526020016000815260200160008152602001600081526020016000815260200160006004811115612581576125816126e2565b905290565b80356001600160a01b038116811461259d57600080fd5b919050565b6000602082840312156125b457600080fd5b610dfe82612586565b602080825282518282018190526000918401906040840190835b8181101561261b57835180518452602081015160208501526040810151604085015260608101516060850152506080830192506020840193506001810190506125d7565b509095945050505050565b6000806040838503121561263957600080fd5b50508035926020909101359150565b60006020828403121561265a57600080fd5b5035919050565b60008060006040848603121561267657600080fd5b83359250602084013567ffffffffffffffff81111561269457600080fd5b8401601f810186136126a557600080fd5b803567ffffffffffffffff8111156126bc57600080fd5b8660208260051b84010111156126d157600080fd5b939660209190910195509293505050565b634e487b7160e01b600052602160045260246000fd5b6005811061271657634e487b7160e01b600052602160045260246000fd5b9052565b8051151582526020810151602083015260408101516040830152606081015160608301526080810151608083015260a081015160a083015260c081015160c083015260e0810151610f7b60e08401826126f8565b6101008101610cc3828461271a565b851515815260a0810161279360208301876126f8565b8460408301528360608301528260808301529695505050505050565b600080604083850312156127c257600080fd5b823591506127d260208401612586565b90509250929050565b6000602082840312156127ed57600080fd5b813563ffffffff81168114610dfe57600080fd5b6101a08101612810828961271a565b61010082019690965261012081019490945261014084019290925261016083015261018090910152919050565b634e487b7160e01b600052604160045260246000fd5b634e487b7160e01b600052603260045260246000fd5b60006020828403121561287b57600080fd5b5051919050565b60006020828403121561289457600080fd5b81518015158114610dfe57600080fd5b60208152815160208201526020820151604082015261ffff604083015116606082015263ffffffff606083015116608082015263ffffffff60808301511660a0820152600060a083015160c08084015280518060e085015260005b8181101561291d5760208184018101516101008784010152016128ff565b5060006101008286010152610100601f19601f8301168501019250505092915050565b634e487b7160e01b600052601160045260246000fd5b80820180821115610cc357610cc3612940565b60006001820161297b5761297b612940565b5060010190565b634e487b7160e01b600052603160045260246000fd5b6000816129a7576129a7612940565b506000190190565b6020808252600e908201526d4e6f206163746976652067616d6560901b604082015260600190565b634e487b7160e01b600052601260045260246000fd5b6000826129fc576129fc6129d7565b500490565b81810381811115610cc357610cc3612940565b600082612a2357612a236129d7565b500690565b8082028115828204841417610cc357610cc361294056fea2646970667358221220beaabadd97c0736f2e63a9e45415a87e3d7218ec723f531045f7076d1d064a1664736f6c634300081a0033",
    "linkReferences": {}
  },
  "methodIdentifiers": {
    "BURNER_ROLE()": "282c51f3",
    "DEFAULT_HISTORY_SIZE()": "63df7a14",
    "MINTER_ROLE()": "d5391393",
    "acceptOwnership()": "79ba5097",
    "addOwner(address)": "7065cb48",
    "canStartNewGame(address)": "5d424b85",
    "forceStopGame(address)": "b52a0855",
    "getContractBalance()": "6f9fb98a",
    "getCurrentGame(address)": "447b2a06",
    "getCurrentRequestDetails(address)": "62cf48f9",
    "getGameStatus(address)": "54e4437e",
    "getOwnerCount()": "ef18374a",
    "getPlayerForRequest(uint256)": "04243151",
    "getPlayerStats(address)": "4fd66eae",
    "getPreviousBets(address)": "00d6b9ba",
    "getUserData(address)": "ffc9896b",
    "hasPendingRequest(address)": "0c99375d",
    "isOwner(address)": "2f54bf6e",
    "isRequestActive(uint256)": "0359a8a3",
    "myToken()": "b8fcf937",
    "owner()": "8da5cb5b",
    "pause()": "8456cb59",
    "paused()": "5c975abb",
    "playDice(uint256,uint256)": "0176cf5e",
    "rawFulfillRandomWords(uint256,uint256[])": "1fe543e3",
    "recoverStuckGame(address)": "29febc73",
    "removeOwner(address)": "173825d9",
    "resolveGame()": "7cd2d47c",
    "revokeTokenRole(bytes32,address)": "93e955bd",
    "s_vrfCoordinator()": "9eccacf6",
    "setCallbackGasLimit(uint32)": "a4eb718c",
    "setCoordinator(address)": "8ea98117",
    "setHistorySize(uint256)": "086bb182",
    "transferOwnership(address)": "f2fde38b",
    "unpause()": "3f4ba83a"
  },
  "id": 59
}