{
  "abi": [
    {
      "type": "constructor",
      "inputs": [
        {
          "name": "_myTokenAddress",
          "type": "address",
          "internalType": "address"
        },
        {
          "name": "subscriptionId",
          "type": "uint64",
          "internalType": "uint64"
        },
        {
          "name": "vrfCoordinator",
          "type": "address",
          "internalType": "address"
        },
        {
          "name": "keyHash",
          "type": "bytes32",
          "internalType": "bytes32"
        },
        {
          "name": "_callbackGasLimit",
          "type": "uint32",
          "internalType": "uint32"
        },
        {
          "name": "_requestConfirmations",
          "type": "uint16",
          "internalType": "uint16"
        },
        {
          "name": "_numWords",
          "type": "uint32",
          "internalType": "uint32"
        }
      ],
      "stateMutability": "nonpayable"
    },
    {
      "type": "function",
      "name": "BURNER_ROLE",
      "inputs": [],
      "outputs": [
        {
          "name": "",
          "type": "bytes32",
          "internalType": "bytes32"
        }
      ],
      "stateMutability": "view"
    },
    {
      "type": "function",
      "name": "DEFAULT_HISTORY_SIZE",
      "inputs": [],
      "outputs": [
        {
          "name": "",
          "type": "uint256",
          "internalType": "uint256"
        }
      ],
      "stateMutability": "view"
    },
    {
      "type": "function",
      "name": "MINTER_ROLE",
      "inputs": [],
      "outputs": [
        {
          "name": "",
          "type": "bytes32",
          "internalType": "bytes32"
        }
      ],
      "stateMutability": "view"
    },
    {
      "type": "function",
      "name": "addOwner",
      "inputs": [
        {
          "name": "newOwner",
          "type": "address",
          "internalType": "address"
        }
      ],
      "outputs": [],
      "stateMutability": "nonpayable"
    },
    {
      "type": "function",
      "name": "canStartNewGame",
      "inputs": [
        {
          "name": "player",
          "type": "address",
          "internalType": "address"
        }
      ],
      "outputs": [
        {
          "name": "",
          "type": "bool",
          "internalType": "bool"
        }
      ],
      "stateMutability": "view"
    },
    {
      "type": "function",
      "name": "forceStopGame",
      "inputs": [
        {
          "name": "player",
          "type": "address",
          "internalType": "address"
        }
      ],
      "outputs": [],
      "stateMutability": "nonpayable"
    },
    {
      "type": "function",
      "name": "getContractBalance",
      "inputs": [],
      "outputs": [
        {
          "name": "",
          "type": "uint256",
          "internalType": "uint256"
        }
      ],
      "stateMutability": "view"
    },
    {
      "type": "function",
      "name": "getCurrentGame",
      "inputs": [
        {
          "name": "player",
          "type": "address",
          "internalType": "address"
        }
      ],
      "outputs": [
        {
          "name": "",
          "type": "tuple",
          "internalType": "struct GameState",
          "components": [
            {
              "name": "isActive",
              "type": "bool",
              "internalType": "bool"
            },
            {
              "name": "chosenNumber",
              "type": "uint256",
              "internalType": "uint256"
            },
            {
              "name": "result",
              "type": "uint256",
              "internalType": "uint256"
            },
            {
              "name": "amount",
              "type": "uint256",
              "internalType": "uint256"
            },
            {
              "name": "timestamp",
              "type": "uint256",
              "internalType": "uint256"
            },
            {
              "name": "payout",
              "type": "uint256",
              "internalType": "uint256"
            },
            {
              "name": "randomWord",
              "type": "uint256",
              "internalType": "uint256"
            },
            {
              "name": "status",
              "type": "uint8",
              "internalType": "enum GameStatus"
            }
          ]
        }
      ],
      "stateMutability": "view"
    },
    {
      "type": "function",
      "name": "getCurrentRequestDetails",
      "inputs": [
        {
          "name": "player",
          "type": "address",
          "internalType": "address"
        }
      ],
      "outputs": [
        {
          "name": "requestId",
          "type": "uint256",
          "internalType": "uint256"
        },
        {
          "name": "requestFulfilled",
          "type": "bool",
          "internalType": "bool"
        },
        {
          "name": "requestActive",
          "type": "bool",
          "internalType": "bool"
        }
      ],
      "stateMutability": "view"
    },
    {
      "type": "function",
      "name": "getGameStatus",
      "inputs": [
        {
          "name": "player",
          "type": "address",
          "internalType": "address"
        }
      ],
      "outputs": [
        {
          "name": "isActive",
          "type": "bool",
          "internalType": "bool"
        },
        {
          "name": "status",
          "type": "uint8",
          "internalType": "enum GameStatus"
        },
        {
          "name": "chosenNumber",
          "type": "uint256",
          "internalType": "uint256"
        },
        {
          "name": "amount",
          "type": "uint256",
          "internalType": "uint256"
        },
        {
          "name": "timestamp",
          "type": "uint256",
          "internalType": "uint256"
        }
      ],
      "stateMutability": "view"
    },
    {
      "type": "function",
      "name": "getHistorySize",
      "inputs": [
        {
          "name": "player",
          "type": "address",
          "internalType": "address"
        }
      ],
      "outputs": [
        {
          "name": "",
          "type": "uint256",
          "internalType": "uint256"
        }
      ],
      "stateMutability": "view"
    },
    {
      "type": "function",
      "name": "getOwnerCount",
      "inputs": [],
      "outputs": [
        {
          "name": "",
          "type": "uint256",
          "internalType": "uint256"
        }
      ],
      "stateMutability": "view"
    },
    {
      "type": "function",
      "name": "getPlayerForRequest",
      "inputs": [
        {
          "name": "requestId",
          "type": "uint256",
          "internalType": "uint256"
        }
      ],
      "outputs": [
        {
          "name": "",
          "type": "address",
          "internalType": "address"
        }
      ],
      "stateMutability": "view"
    },
    {
      "type": "function",
      "name": "getPreviousBets",
      "inputs": [
        {
          "name": "player",
          "type": "address",
          "internalType": "address"
        }
      ],
      "outputs": [
        {
          "name": "",
          "type": "tuple[]",
          "internalType": "struct BetHistory[]",
          "components": [
            {
              "name": "chosenNumber",
              "type": "uint256",
              "internalType": "uint256"
            },
            {
              "name": "rolledNumber",
              "type": "uint256",
              "internalType": "uint256"
            },
            {
              "name": "amount",
              "type": "uint256",
              "internalType": "uint256"
            },
            {
              "name": "timestamp",
              "type": "uint256",
              "internalType": "uint256"
            }
          ]
        }
      ],
      "stateMutability": "view"
    },
    {
      "type": "function",
      "name": "getUserData",
      "inputs": [
        {
          "name": "player",
          "type": "address",
          "internalType": "address"
        }
      ],
      "outputs": [
        {
          "name": "currentGame",
          "type": "tuple",
          "internalType": "struct GameState",
          "components": [
            {
              "name": "isActive",
              "type": "bool",
              "internalType": "bool"
            },
            {
              "name": "chosenNumber",
              "type": "uint256",
              "internalType": "uint256"
            },
            {
              "name": "result",
              "type": "uint256",
              "internalType": "uint256"
            },
            {
              "name": "amount",
              "type": "uint256",
              "internalType": "uint256"
            },
            {
              "name": "timestamp",
              "type": "uint256",
              "internalType": "uint256"
            },
            {
              "name": "payout",
              "type": "uint256",
              "internalType": "uint256"
            },
            {
              "name": "randomWord",
              "type": "uint256",
              "internalType": "uint256"
            },
            {
              "name": "status",
              "type": "uint8",
              "internalType": "enum GameStatus"
            }
          ]
        },
        {
          "name": "totalGames",
          "type": "uint256",
          "internalType": "uint256"
        },
        {
          "name": "totalBets",
          "type": "uint256",
          "internalType": "uint256"
        },
        {
          "name": "totalWinnings",
          "type": "uint256",
          "internalType": "uint256"
        },
        {
          "name": "totalLosses",
          "type": "uint256",
          "internalType": "uint256"
        },
        {
          "name": "lastPlayed",
          "type": "uint256",
          "internalType": "uint256"
        }
      ],
      "stateMutability": "view"
    },
    {
      "type": "function",
      "name": "hasPendingRequest",
      "inputs": [
        {
          "name": "player",
          "type": "address",
          "internalType": "address"
        }
      ],
      "outputs": [
        {
          "name": "",
          "type": "bool",
          "internalType": "bool"
        }
      ],
      "stateMutability": "view"
    },
    {
      "type": "function",
      "name": "isOwner",
      "inputs": [
        {
          "name": "account",
          "type": "address",
          "internalType": "address"
        }
      ],
      "outputs": [
        {
          "name": "",
          "type": "bool",
          "internalType": "bool"
        }
      ],
      "stateMutability": "view"
    },
    {
      "type": "function",
      "name": "isRequestActive",
      "inputs": [
        {
          "name": "requestId",
          "type": "uint256",
          "internalType": "uint256"
        }
      ],
      "outputs": [
        {
          "name": "",
          "type": "bool",
          "internalType": "bool"
        }
      ],
      "stateMutability": "view"
    },
    {
      "type": "function",
      "name": "myToken",
      "inputs": [],
      "outputs": [
        {
          "name": "",
          "type": "address",
          "internalType": "contract IMyToken"
        }
      ],
      "stateMutability": "view"
    },
    {
      "type": "function",
      "name": "owner",
      "inputs": [],
      "outputs": [
        {
          "name": "",
          "type": "address",
          "internalType": "address"
        }
      ],
      "stateMutability": "view"
    },
    {
      "type": "function",
      "name": "pause",
      "inputs": [],
      "outputs": [],
      "stateMutability": "nonpayable"
    },
    {
      "type": "function",
      "name": "paused",
      "inputs": [],
      "outputs": [
        {
          "name": "",
          "type": "bool",
          "internalType": "bool"
        }
      ],
      "stateMutability": "view"
    },
    {
      "type": "function",
      "name": "playDice",
      "inputs": [
        {
          "name": "chosenNumber",
          "type": "uint256",
          "internalType": "uint256"
        },
        {
          "name": "amount",
          "type": "uint256",
          "internalType": "uint256"
        }
      ],
      "outputs": [
        {
          "name": "requestId",
          "type": "uint256",
          "internalType": "uint256"
        }
      ],
      "stateMutability": "nonpayable"
    },
    {
      "type": "function",
      "name": "rawFulfillRandomWords",
      "inputs": [
        {
          "name": "requestId",
          "type": "uint256",
          "internalType": "uint256"
        },
        {
          "name": "randomWords",
          "type": "uint256[]",
          "internalType": "uint256[]"
        }
      ],
      "outputs": [],
      "stateMutability": "nonpayable"
    },
    {
      "type": "function",
      "name": "recoverOwnStuckGame",
      "inputs": [],
      "outputs": [],
      "stateMutability": "nonpayable"
    },
    {
      "type": "function",
      "name": "recoverStuckGame",
      "inputs": [
        {
          "name": "player",
          "type": "address",
          "internalType": "address"
        }
      ],
      "outputs": [],
      "stateMutability": "nonpayable"
    },
    {
      "type": "function",
      "name": "removeOwner",
      "inputs": [
        {
          "name": "ownerToRemove",
          "type": "address",
          "internalType": "address"
        }
      ],
      "outputs": [],
      "stateMutability": "nonpayable"
    },
    {
      "type": "function",
      "name": "renounceOwnership",
      "inputs": [],
      "outputs": [],
      "stateMutability": "nonpayable"
    },
    {
      "type": "function",
      "name": "resolveGame",
      "inputs": [],
      "outputs": [],
      "stateMutability": "nonpayable"
    },
    {
      "type": "function",
      "name": "revokeTokenRole",
      "inputs": [
        {
          "name": "role",
          "type": "bytes32",
          "internalType": "bytes32"
        },
        {
          "name": "account",
          "type": "address",
          "internalType": "address"
        }
      ],
      "outputs": [],
      "stateMutability": "nonpayable"
    },
    {
      "type": "function",
      "name": "s_requests",
      "inputs": [
        {
          "name": "",
          "type": "uint256",
          "internalType": "uint256"
        }
      ],
      "outputs": [
        {
          "name": "fulfilled",
          "type": "bool",
          "internalType": "bool"
        },
        {
          "name": "exists",
          "type": "bool",
          "internalType": "bool"
        }
      ],
      "stateMutability": "view"
    },
    {
      "type": "function",
      "name": "setHistorySize",
      "inputs": [
        {
          "name": "newSize",
          "type": "uint256",
          "internalType": "uint256"
        }
      ],
      "outputs": [],
      "stateMutability": "nonpayable"
    },
    {
      "type": "function",
      "name": "transferOwnership",
      "inputs": [
        {
          "name": "newOwner",
          "type": "address",
          "internalType": "address"
        }
      ],
      "outputs": [],
      "stateMutability": "nonpayable"
    },
    {
      "type": "function",
      "name": "unpause",
      "inputs": [],
      "outputs": [],
      "stateMutability": "nonpayable"
    },
    {
      "type": "event",
      "name": "OwnerAdded",
      "inputs": [
        {
          "name": "newOwner",
          "type": "address",
          "indexed": true,
          "internalType": "address"
        }
      ],
      "anonymous": false
    },
    {
      "type": "event",
      "name": "OwnerRemoved",
      "inputs": [
        {
          "name": "removedOwner",
          "type": "address",
          "indexed": true,
          "internalType": "address"
        }
      ],
      "anonymous": false
    },
    {
      "type": "event",
      "name": "OwnershipTransferred",
      "inputs": [
        {
          "name": "previousOwner",
          "type": "address",
          "indexed": true,
          "internalType": "address"
        },
        {
          "name": "newOwner",
          "type": "address",
          "indexed": true,
          "internalType": "address"
        }
      ],
      "anonymous": false
    },
    {
      "type": "event",
      "name": "Paused",
      "inputs": [
        {
          "name": "account",
          "type": "address",
          "indexed": false,
          "internalType": "address"
        }
      ],
      "anonymous": false
    },
    {
      "type": "event",
      "name": "Unpaused",
      "inputs": [
        {
          "name": "account",
          "type": "address",
          "indexed": false,
          "internalType": "address"
        }
      ],
      "anonymous": false
    },
    {
      "type": "error",
      "name": "EnforcedPause",
      "inputs": []
    },
    {
      "type": "error",
      "name": "ExpectedPause",
      "inputs": []
    },
    {
      "type": "error",
      "name": "GameError",
      "inputs": [
        {
          "name": "code",
          "type": "uint256",
          "internalType": "uint256"
        }
      ]
    },
    {
      "type": "error",
      "name": "InsufficientContractBalance",
      "inputs": [
        {
          "name": "required",
          "type": "uint256",
          "internalType": "uint256"
        },
        {
          "name": "available",
          "type": "uint256",
          "internalType": "uint256"
        }
      ]
    },
    {
      "type": "error",
      "name": "InsufficientUserBalance",
      "inputs": [
        {
          "name": "required",
          "type": "uint256",
          "internalType": "uint256"
        },
        {
          "name": "available",
          "type": "uint256",
          "internalType": "uint256"
        }
      ]
    },
    {
      "type": "error",
      "name": "InvalidBetParameters",
      "inputs": [
        {
          "name": "code",
          "type": "uint256",
          "internalType": "uint256"
        }
      ]
    },
    {
      "type": "error",
      "name": "OnlyCoordinatorCanFulfill",
      "inputs": [
        {
          "name": "have",
          "type": "address",
          "internalType": "address"
        },
        {
          "name": "want",
          "type": "address",
          "internalType": "address"
        }
      ]
    },
    {
      "type": "error",
      "name": "OwnableInvalidOwner",
      "inputs": [
        {
          "name": "owner",
          "type": "address",
          "internalType": "address"
        }
      ]
    },
    {
      "type": "error",
      "name": "OwnableUnauthorizedAccount",
      "inputs": [
        {
          "name": "account",
          "type": "address",
          "internalType": "address"
        }
      ]
    },
    {
      "type": "error",
      "name": "OwnerError",
      "inputs": [
        {
          "name": "code",
          "type": "uint256",
          "internalType": "uint256"
        }
      ]
    },
    {
      "type": "error",
      "name": "PayoutCalculationError",
      "inputs": [
        {
          "name": "message",
          "type": "string",
          "internalType": "string"
        }
      ]
    },
    {
      "type": "error",
      "name": "ReentrancyGuardReentrantCall",
      "inputs": []
    },
    {
      "type": "error",
      "name": "RoleError",
      "inputs": [
        {
          "name": "code",
          "type": "uint256",
          "internalType": "uint256"
        }
      ]
    },
    {
      "type": "error",
      "name": "TransferFailed",
      "inputs": [
        {
          "name": "code",
          "type": "uint256",
          "internalType": "uint256"
        }
      ]
    },
    {
      "type": "error",
      "name": "VRFError",
      "inputs": [
        {
          "name": "code",
          "type": "uint256",
          "internalType": "uint256"
        }
      ]
    }
  ],
  "bytecode": {
    "object": "0x61018060405234801561001157600080fd5b50604051612d21380380612d2183398101604081905261003091610238565b6000805460ff19169055600180556001600160a01b038516608052338061007257604051631e4fbdf760e01b8152600060048201526024015b60405180910390fd5b61007b816101b6565b506001600160a01b0387166100a657604051636cab86db60e01b815260016004820152602401610069565b6001600160a01b0385166100d057604051636cab86db60e01b815260026004820152602401610069565b8263ffffffff166000036100fa57604051636cab86db60e01b815260036004820152602401610069565b8063ffffffff1660000361012357604051636cab86db60e01b8152600481810152602401610069565b6001600160a01b03808616610160526001600160401b03871660a05260c085905263ffffffff80851660e05261ffff84166101005282166101205287166101405233600081815260066020526040808220805460ff19166001908117909155600755517f994a936646fe87ffe4f1e469d3d6aa417d6b855598397f323de5b449f765f0c39190a2505050505050506102cf565b600280546001600160a01b038381166001600160a01b0319831681179093556040519116919082907f8be0079c531659141344cd1fd0a4f28419497f9722a3daafe3b4186f6b6457e090600090a35050565b80516001600160a01b038116811461021f57600080fd5b919050565b805163ffffffff8116811461021f57600080fd5b600080600080600080600060e0888a03121561025357600080fd5b61025c88610208565b60208901519097506001600160401b038116811461027957600080fd5b955061028760408901610208565b94506060880151935061029c60808901610224565b925060a088015161ffff811681146102b357600080fd5b91506102c160c08901610224565b905092959891949750929550565b60805160a05160c05160e0516101005161012051610140516101605161299261038f6000396000610b2d0152600081816104d80152818161078b015281816108430152818161091e015281816109cd015281816114d501528181611919015281816119c001528181611ad601528181611c2d01528181611ce101528181611dee0152611eac01526000610b0601526000610ab201526000610ade01526000610a5901526000610a88015260008181610f9b0152610fdd01526129926000f3fe608060405234801561001057600080fd5b50600436106102055760003560e01c806363df7a141161011a578063a168fa89116100ad578063c23a179f1161007c578063c23a179f146104fa578063d539139314610526578063ef18374a1461053b578063f2fde38b14610543578063ffc9896b1461055657600080fd5b8063a168fa8914610475578063a20ff9fc146104b8578063b52a0855146104c0578063b8fcf937146104d357600080fd5b80637cd2d47c116100e95780637cd2d47c146104415780638456cb59146104495780638da5cb5b1461045157806393e955bd1461046257600080fd5b806363df7a14146104165780636f9fb98a1461041e5780637065cb4814610426578063715018a61461043957600080fd5b8063282c51f31161019d578063447b2a061161016c578063447b2a061461038457806354e4437e146103a45780635c975abb146103c85780635d424b85146103d357806362cf48f9146103e657600080fd5b8063282c51f31461031657806329febc731461033d5780632f54bf6e146103505780633f4ba83a1461037c57600080fd5b8063086bb182116101d9578063086bb182146102c85780630c99375d146102dd578063173825d9146102f05780631fe543e31461030357600080fd5b8062d6b9ba1461020a5780630176cf5e146102335780630359a8a3146102545780630424315114610287575b600080fd5b61021d610218366004612504565b61057b565b60405161022a919061251f565b60405180910390f35b610246610241366004612588565b6106d2565b60405190815260200161022a565b6102776102623660046125aa565b60009081526005602052604090205460ff1690565b604051901515815260200161022a565b6102b06102953660046125aa565b6000908152600460205260409020546001600160a01b031690565b6040516001600160a01b03909116815260200161022a565b6102db6102d63660046125aa565b610d2b565b005b6102776102eb366004612504565b610e30565b6102db6102fe366004612504565b610e67565b6102db6103113660046125d9565b610f90565b6102467f3c11d16cbaffd01df69ce1c404f6340ee057498f5f00246190ea54220576a84881565b6102db61034b366004612504565b611014565b61027761035e366004612504565b6001600160a01b031660009081526006602052604090205460ff1690565b6102db61110b565b610397610392366004612504565b61111d565b60405161022a9190612743565b6103b76103b2366004612504565b611301565b60405161022a959493929190612752565b60005460ff16610277565b6102776103e1366004612504565b6113fb565b6103f96103f4366004612504565b61142b565b60408051938452911515602084015215159082015260600161022a565b610246600a81565b6102466114bd565b6102db610434366004612504565b61154d565b6102db611629565b6102db61163b565b6102db611a98565b6002546001600160a01b03166102b0565b6102db610470366004612784565b611aa8565b6104a16104833660046125aa565b60086020526000908152604090205460ff8082169161010090041682565b60408051921515835290151560208301520161022a565b6102db611b36565b6102db6104ce366004612504565b611d84565b6102b07f000000000000000000000000000000000000000000000000000000000000000081565b610246610508366004612504565b6001600160a01b03166000908152600360205260409020600b015490565b61024660008051602061293d83398151915281565b600754610246565b6102db610551366004612504565b611f23565b610569610564366004612504565b611f61565b60405161022a969594939291906127b0565b60606001600160a01b0382166105ac57604051636cab86db60e01b8152600c60048201526024015b60405180910390fd5b6001600160a01b0382166000908152600360205260408120600a81015490918167ffffffffffffffff8111156105e4576105e46125c3565b60405190808252806020026020018201604052801561064057816020015b61062d6040518060800160405280600081526020016000815260200160008152602001600081525090565b8152602001906001900390816106025790505b50905060005b828110156106c95783600a018181548110610663576106636127ec565b90600052602060002090600402016040518060800160405290816000820154815260200160018201548152602001600282015481526020016003820154815250508282815181106106b6576106b66127ec565b6020908102919091010152600101610646565b50949350505050565b60006106dc612090565b6106e46120ba565b3360009081526003602052604081209083900361071757604051636cab86db60e01b8152600560048201526024016105a3565b805460ff161561073d5760405163d6d1036b60e01b8152600160048201526024016105a3565b600184108061074c5750600684115b1561076d57604051636cab86db60e01b8152600660048201526024016105a3565b604051636eb1769f60e11b81523360048201523060248201526000907f00000000000000000000000000000000000000000000000000000000000000006001600160a01b03169063dd62ed3e90604401602060405180830381865afa1580156107da573d6000803e3d6000fd5b505050506040513d601f19601f820116820180604052508101906107fe9190612802565b90508381101561082b576040516302fa826960e51b815260048101859052602481018290526044016105a3565b6040516370a0823160e01b81523360048201526000907f00000000000000000000000000000000000000000000000000000000000000006001600160a01b0316906370a0823190602401602060405180830381865afa158015610892573d6000803e3d6000fd5b505050506040513d601f19601f820116820180604052508101906108b69190612802565b9050848110156108e3576040516302fa826960e51b815260048101869052602481018290526044016105a3565b604051632474521560e21b81527f3c11d16cbaffd01df69ce1c404f6340ee057498f5f00246190ea54220576a84860048201523060248201527f00000000000000000000000000000000000000000000000000000000000000006001600160a01b0316906391d1485490604401602060405180830381865afa15801561096d573d6000803e3d6000fd5b505050506040513d601f19601f82011682018060405250810190610991919061281b565b6109b15760405163d64796dd60e01b8152600160048201526024016105a3565b604051632770a7eb60e21b8152336004820152602481018690527f00000000000000000000000000000000000000000000000000000000000000006001600160a01b031690639dc29fac90604401600060405180830381600087803b158015610a1957600080fd5b505af1925050508015610a2a575060015b610a4a5760405163c39ba1a960e01b8152600160048201526024016105a3565b6040516305d3b1d360e41b81527f0000000000000000000000000000000000000000000000000000000000000000600482015267ffffffffffffffff7f000000000000000000000000000000000000000000000000000000000000000016602482015261ffff7f000000000000000000000000000000000000000000000000000000000000000016604482015263ffffffff7f0000000000000000000000000000000000000000000000000000000000000000811660648301527f00000000000000000000000000000000000000000000000000000000000000001660848201527f00000000000000000000000000000000000000000000000000000000000000006001600160a01b031690635d3b1d309060a4016020604051808303816000875af1158015610b7e573d6000803e3d6000fd5b505050506040513d601f19601f82011682018060405250810190610ba29190612802565b6040805160608101825260008082526001602080840182815285518481528083018752858701908152878552600883529590932084518154945161ffff1990951690151561ff00191617610100941515949094029390931783559351805195995092949193610c179391850192910190612431565b505050600084815260046020818152604080842080546001600160a01b031916331790556005808352818520805460ff1990811660019081179092558351610100810185528281529485018d9052928401869052606084018b9052426080850181905260a0850187905260c0850187905260e090940181905288548316811789558881018c905560028901869055600389018b905593880192909255908601839055600686018390556007860180548216909217909155600885018690556009850180549091169055600c84018054879290610cf4908490612853565b9091555050600f83018054906000610d0b83612866565b9190505550428360100181905550505050610d2560018055565b92915050565b60008111610d7b5760405162461bcd60e51b815260206004820152601d60248201527f486973746f72792073697a65206d75737420626520706f73697469766500000060448201526064016105a3565b6064811115610dc55760405162461bcd60e51b8152602060048201526016602482015275486973746f72792073697a6520746f6f206c6172676560501b60448201526064016105a3565b336000908152600360205260409020600b81018290555b600a810154821015610e2c5780600a01805480610dfb57610dfb61287f565b6000828152602081206004600019909301928302018181556001810182905560028101829055600301559055610ddc565b5050565b6001600160a01b0381166000908152600360205260408120600881015415801590610e605750600981015460ff16155b9392505050565b610e6f6120de565b6001600160a01b038116610e9957604051630f25112d60e41b8152600160048201526024016105a3565b6001600160a01b03811660009081526006602052604090205460ff16610ed557604051630f25112d60e41b8152600160048201526024016105a3565b600160075411610efb57604051630f25112d60e41b8152600360048201526024016105a3565b336001600160a01b03821603610f2657604051630f25112d60e41b81526004818101526024016105a3565b6001600160a01b0381166000908152600660205260408120805460ff191690556007805491610f5483612895565b90915550506040516001600160a01b038216907f58619076adf5bb0943d100ef88d52d7c3fd691b19d3a9071b555b651fbf418da90600090a250565b336001600160a01b037f0000000000000000000000000000000000000000000000000000000000000000161461100a5760405163073e64fd60e21b81523360048201526001600160a01b037f00000000000000000000000000000000000000000000000000000000000000001660248201526044016105a3565b610e2c828261210b565b61101c6120de565b6001600160a01b0381166000908152600360205260409020805460ff166110555760405162461bcd60e51b81526004016105a3906128ac565b600481015461106790610e1090612853565b42116110aa5760405162461bcd60e51b815260206004820152601260248201527111d85b59481b9bdd081d1a5b5959081bdd5d60721b60448201526064016105a3565b6008810154156110eb57600881018054600090815260046020908152604080832080546001600160a01b0319169055925482526005905220805460ff191690555b805460ff1990811682556009820180549091169055600060089091015550565b6111136120de565b61111b61232d565b565b61112561247c565b6001600160a01b03821661114f57604051636cab86db60e01b8152600860048201526024016105a3565b6001600160a01b0382166000908152600360205260409020805460ff16156112a65761117e60066000196128ea565b600382015411156111c55760405163193a897b60e11b815260206004820152601060248201526f416d6f756e7420746f6f206c6172676560801b60448201526064016105a3565b60048101544210156111ed5760405163d6d1036b60e01b8152600360048201526024016105a3565b60018101546006101561121657604051636cab86db60e01b8152600d60048201526024016105a3565b6040805161010081018252825460ff9081161515825260018401546020830152600284015492820192909252600383015460608201526004808401546080830152600584015460a0830152600684015460c083015260078401549192849260e085019291169081111561128b5761128b6126b2565b600481111561129c5761129c6126b2565b9052509392505050565b604051806101000160405280600015158152602001600081526020016000815260200160008152602001600081526020016000815260200160008152602001600060048111156112f8576112f86126b2565b90529392505050565b6000808080806001600160a01b03861661133157604051636cab86db60e01b8152600960048201526024016105a3565b6001600160a01b0386166000908152600360208181526040808420815161010081018352815460ff908116151582526001830154948201949094526002820154928101929092529283015460608201526004808401546080830152600584015460a0830152600684015460c0830152600784015491939260e085019216908111156113be576113be6126b2565b60048111156113cf576113cf6126b2565b905250805160e082015160208301516060840151608090940151929b919a509850919650945092505050565b6001600160a01b0381166000908152600360205260408120805460ff16158015610e605750600801541592915050565b600080806001600160a01b03841661145957604051636cab86db60e01b8152600b60048201526024016105a3565b6001600160a01b0384166000908152600360205260408120600881015490910361148e576000806000935093509350506114b6565b600881015460099091015460008281526005602052604090205491945060ff90811693501690505b9193909250565b6040516370a0823160e01b81523060048201526000907f00000000000000000000000000000000000000000000000000000000000000006001600160a01b0316906370a0823190602401602060405180830381865afa158015611524573d6000803e3d6000fd5b505050506040513d601f19601f820116820180604052508101906115489190612802565b905090565b6115556120de565b6001600160a01b03811661157f57604051630f25112d60e41b8152600160048201526024016105a3565b6001600160a01b03811660009081526006602052604090205460ff16156115bc57604051630f25112d60e41b8152600260048201526024016105a3565b6001600160a01b0381166000908152600660205260408120805460ff1916600117905560078054916115ed83612866565b90915550506040516001600160a01b038216907f994a936646fe87ffe4f1e469d3d6aa417d6b855598397f323de5b449f765f0c390600090a250565b6116316120de565b61111b600061237f565b611643612090565b336000908152600360205260409020805460ff166116735760405162461bcd60e51b81526004016105a3906128ac565b600981015460ff166116c75760405162461bcd60e51b815260206004820152601760248201527f52616e646f6d206e756d626572206e6f7420726561647900000000000000000060448201526064016105a3565b6006818101546000916116d9916128fe565b6116e4906001612853565b905081600b01546000036116fa57600a600b8301555b600b820154600a830154106117e45760005b600a83015461171d90600190612912565b8110156117a357600a8301611733826001612853565b81548110611743576117436127ec565b906000526020600020906004020183600a018281548110611766576117666127ec565b600091825260209091208254600490920201908155600180830154818301556002808401549083015560039283015492909101919091550161170c565b5081600a018054806117b7576117b761287f565b60008281526020812060046000199093019283020181815560018101829055600281018290556003015590555b6040805160808101825260018085018054835260208084018681526003808901549686019687524260608701908152600a8a018054808801825560009182529481209751600490950290970193845591519483019490945594516002820155935193909101929092559054829003611a425761186360066000196128ea565b600384015411156118ae5760405163193a897b60e11b815260206004820152601460248201527342657420616d6f756e7420746f6f206c6172676560601b60448201526064016105a3565b60038301546118be906006612925565b90508083600d0160008282546118d49190612853565b909155505060078301805460ff19166002179055604051632474521560e21b815260008051602061293d83398151915260048201523060248201526001600160a01b037f000000000000000000000000000000000000000000000000000000000000000016906391d1485490604401602060405180830381865afa158015611960573d6000803e3d6000fd5b505050506040513d601f19601f82011682018060405250810190611984919061281b565b6119a45760405163d64796dd60e01b8152600260048201526024016105a3565b6040516340c10f1960e01b8152336004820152602481018290527f00000000000000000000000000000000000000000000000000000000000000006001600160a01b0316906340c10f1990604401600060405180830381600087803b158015611a0c57600080fd5b505af1925050508015611a1d575060015b611a3d5760405163c39ba1a960e01b8152600260048201526024016105a3565b611a70565b6003830154600e84018054600090611a5b908490612853565b909155505060078301805460ff191660031790555b5050805460ff1990811682556009820180549091169055600060089091015561111b60018055565b611aa06120de565b61111b6123d1565b611ab06120de565b60405163d547741f60e01b8152600481018390526001600160a01b0382811660248301527f0000000000000000000000000000000000000000000000000000000000000000169063d547741f90604401600060405180830381600087803b158015611b1a57600080fd5b505af1158015611b2e573d6000803e3d6000fd5b505050505050565b611b3e612090565b336000908152600360205260409020805460ff16611b6e5760405162461bcd60e51b81526004016105a3906128ac565b6004810154611b8090610e1090612853565b4211611bc35760405162461bcd60e51b815260206004820152601260248201527111d85b59481b9bdd081d1a5b5959081bdd5d60721b60448201526064016105a3565b600881015415611c0457600881018054600090815260046020908152604080832080546001600160a01b0319169055925482526005905220805460ff191690555b604051632474521560e21b815260008051602061293d83398151915260048201523060248201527f00000000000000000000000000000000000000000000000000000000000000006001600160a01b0316906391d1485490604401602060405180830381865afa158015611c7c573d6000803e3d6000fd5b505050506040513d601f19601f82011682018060405250810190611ca0919061281b565b611cbf5760405163d64796dd60e01b81526004818101526024016105a3565b60038101546040516340c10f1960e01b815233600482015260248101919091527f00000000000000000000000000000000000000000000000000000000000000006001600160a01b0316906340c10f1990604401600060405180830381600087803b158015611d2d57600080fd5b505af1925050508015611d3e575060015b611d5e5760405163c39ba1a960e01b8152600360048201526024016105a3565b805460ff1990811682556009820180549091169055600060089091015561111b60018055565b611d8c6120de565b6001600160a01b0381166000908152600360205260409020805460ff16611dc55760405162461bcd60e51b81526004016105a3906128ac565b604051632474521560e21b815260008051602061293d83398151915260048201523060248201527f00000000000000000000000000000000000000000000000000000000000000006001600160a01b0316906391d1485490604401602060405180830381865afa158015611e3d573d6000803e3d6000fd5b505050506040513d601f19601f82011682018060405250810190611e61919061281b565b611e805760405163d64796dd60e01b81526004818101526024016105a3565b60038101546040516340c10f1960e01b81526001600160a01b03848116600483015260248201929092527f0000000000000000000000000000000000000000000000000000000000000000909116906340c10f1990604401600060405180830381600087803b158015611ef257600080fd5b505af1925050508015611f03575060015b6110eb5760405163c39ba1a960e01b8152600360048201526024016105a3565b611f2b6120de565b6001600160a01b038116611f5557604051631e4fbdf760e01b8152600060048201526024016105a3565b611f5e8161237f565b50565b611f6961247c565b6000808080806001600160a01b038716611f9957604051636cab86db60e01b8152600760048201526024016105a3565b600060036000896001600160a01b03166001600160a01b0316815260200190815260200160002090508060000181600f015482600c015483600d015484600e0154856010015485604051806101000160405290816000820160009054906101000a900460ff161515151581526020016001820154815260200160028201548152602001600382015481526020016004820154815260200160058201548152602001600682015481526020016007820160009054906101000a900460ff166004811115612067576120676126b2565b6004811115612078576120786126b2565b9052509e949d50929b50909950975095509350505050565b6002600154036120b357604051633ee5aeb560e01b815260040160405180910390fd5b6002600155565b60005460ff161561111b5760405163d93c066560e01b815260040160405180910390fd5b6002546001600160a01b0316331461111b5760405163118cdaa760e01b81523360048201526024016105a3565b600082815260086020526040902054610100900460ff166121625760405162461bcd60e51b81526020600482015260116024820152701c995c5d595cdd081b9bdd08199bdd5b99607a1b60448201526064016105a3565b6000828152600860209081526040909120805460ff1916600190811782558351612193939290910191840190612431565b506000828152600460205260409020546001600160a01b0316806121cd5760405163d6d1036b60e01b8152600260048201526024016105a3565b6001600160a01b0381166000908152600360205260409020805460ff166122285760405162461bcd60e51b815260206004820152600f60248201526e47616d65206e6f742061637469766560881b60448201526064016105a3565b838160080154146122715760405162461bcd60e51b81526020600482015260136024820152720a4cae2eacae6e840928840dad2e6dac2e8c6d606b1b60448201526064016105a3565b60008481526005602052604090205460ff166122c75760405162461bcd60e51b815260206004820152601560248201527452657175657374204944206e6f742061637469766560581b60448201526064016105a3565b826000815181106122da576122da6127ec565b60209081029190910181015160068301556009909101805460ff19908116600117909155600094855260048252604080862080546001600160a01b03191690556005909252932080549093169092555050565b61233561240e565b6000805460ff191690557f5db9ee0a495bf2e6ff9c91a7834c1ba4fdd244a5e8aa4e537bd38aeae4b073aa335b6040516001600160a01b03909116815260200160405180910390a1565b600280546001600160a01b038381166001600160a01b0319831681179093556040519116919082907f8be0079c531659141344cd1fd0a4f28419497f9722a3daafe3b4186f6b6457e090600090a35050565b6123d96120ba565b6000805460ff191660011790557f62e78cea01bee320cd4e420270b5ea74000d11b0c9f74754ebdbfc544b05a2586123623390565b60005460ff1661111b57604051638dfc202b60e01b815260040160405180910390fd5b82805482825590600052602060002090810192821561246c579160200282015b8281111561246c578251825591602001919060010190612451565b506124789291506124d3565b5090565b604051806101000160405280600015158152602001600081526020016000815260200160008152602001600081526020016000815260200160008152602001600060048111156124ce576124ce6126b2565b905290565b5b8082111561247857600081556001016124d4565b80356001600160a01b03811681146124ff57600080fd5b919050565b60006020828403121561251657600080fd5b610e60826124e8565b602080825282518282018190526000918401906040840190835b8181101561257d5783518051845260208101516020850152604081015160408501526060810151606085015250608083019250602084019350600181019050612539565b509095945050505050565b6000806040838503121561259b57600080fd5b50508035926020909101359150565b6000602082840312156125bc57600080fd5b5035919050565b634e487b7160e01b600052604160045260246000fd5b600080604083850312156125ec57600080fd5b82359150602083013567ffffffffffffffff81111561260a57600080fd5b8301601f8101851361261b57600080fd5b803567ffffffffffffffff811115612635576126356125c3565b8060051b604051601f19603f830116810181811067ffffffffffffffff82111715612662576126626125c3565b60405291825260208184018101929081018884111561268057600080fd5b6020850194505b838510156126a357843580825260209586019590935001612687565b50809450505050509250929050565b634e487b7160e01b600052602160045260246000fd5b600581106126e657634e487b7160e01b600052602160045260246000fd5b9052565b8051151582526020810151602083015260408101516040830152606081015160608301526080810151608083015260a081015160a083015260c081015160c083015260e081015161273e60e08401826126c8565b505050565b6101008101610d2582846126ea565b851515815260a0810161276860208301876126c8565b8460408301528360608301528260808301529695505050505050565b6000806040838503121561279757600080fd5b823591506127a7602084016124e8565b90509250929050565b6101a081016127bf82896126ea565b61010082019690965261012081019490945261014084019290925261016083015261018090910152919050565b634e487b7160e01b600052603260045260246000fd5b60006020828403121561281457600080fd5b5051919050565b60006020828403121561282d57600080fd5b81518015158114610e6057600080fd5b634e487b7160e01b600052601160045260246000fd5b80820180821115610d2557610d2561283d565b6000600182016128785761287861283d565b5060010190565b634e487b7160e01b600052603160045260246000fd5b6000816128a4576128a461283d565b506000190190565b6020808252600e908201526d4e6f206163746976652067616d6560901b604082015260600190565b634e487b7160e01b600052601260045260246000fd5b6000826128f9576128f96128d4565b500490565b60008261290d5761290d6128d4565b500690565b81810381811115610d2557610d2561283d565b8082028115828204841417610d2557610d2561283d56fe9f2df0fed2c77648de5860a4cc508cd0818c85b8b8a1ab4ceeef8d981c8956a6a2646970667358221220fe28e826b909c66022f90d754209a194dab1516aa384db11f1ee8c204648023064736f6c634300081a0033",
    "linkReferences": {}
  },
  "methodIdentifiers": {
    "BURNER_ROLE()": "282c51f3",
    "DEFAULT_HISTORY_SIZE()": "63df7a14",
    "MINTER_ROLE()": "d5391393",
    "addOwner(address)": "7065cb48",
    "canStartNewGame(address)": "5d424b85",
    "forceStopGame(address)": "b52a0855",
    "getContractBalance()": "6f9fb98a",
    "getCurrentGame(address)": "447b2a06",
    "getCurrentRequestDetails(address)": "62cf48f9",
    "getGameStatus(address)": "54e4437e",
    "getHistorySize(address)": "c23a179f",
    "getOwnerCount()": "ef18374a",
    "getPlayerForRequest(uint256)": "04243151",
    "getPreviousBets(address)": "00d6b9ba",
    "getUserData(address)": "ffc9896b",
    "hasPendingRequest(address)": "0c99375d",
    "isOwner(address)": "2f54bf6e",
    "isRequestActive(uint256)": "0359a8a3",
    "myToken()": "b8fcf937",
    "owner()": "8da5cb5b",
    "pause()": "8456cb59",
    "paused()": "5c975abb",
    "playDice(uint256,uint256)": "0176cf5e",
    "rawFulfillRandomWords(uint256,uint256[])": "1fe543e3",
    "recoverOwnStuckGame()": "a20ff9fc",
    "recoverStuckGame(address)": "29febc73",
    "removeOwner(address)": "173825d9",
    "renounceOwnership()": "715018a6",
    "resolveGame()": "7cd2d47c",
    "revokeTokenRole(bytes32,address)": "93e955bd",
    "s_requests(uint256)": "a168fa89",
    "setHistorySize(uint256)": "086bb182",
    "transferOwnership(address)": "f2fde38b",
    "unpause()": "3f4ba83a"
  },
  "id": 35
}