{
  "abi": [
    {
      "type": "constructor",
      "inputs": [
        {
          "name": "_myTokenAddress",
          "type": "address",
          "internalType": "address"
        },
        {
          "name": "subscriptionId",
          "type": "uint64",
          "internalType": "uint64"
        },
        {
          "name": "vrfCoordinator",
          "type": "address",
          "internalType": "address"
        },
        {
          "name": "keyHash",
          "type": "bytes32",
          "internalType": "bytes32"
        },
        {
          "name": "_callbackGasLimit",
          "type": "uint32",
          "internalType": "uint32"
        },
        {
          "name": "_requestConfirmations",
          "type": "uint16",
          "internalType": "uint16"
        },
        {
          "name": "_numWords",
          "type": "uint32",
          "internalType": "uint32"
        }
      ],
      "stateMutability": "nonpayable"
    },
    {
      "type": "function",
      "name": "BURNER_ROLE",
      "inputs": [],
      "outputs": [
        {
          "name": "",
          "type": "bytes32",
          "internalType": "bytes32"
        }
      ],
      "stateMutability": "view"
    },
    {
      "type": "function",
      "name": "DEFAULT_HISTORY_SIZE",
      "inputs": [],
      "outputs": [
        {
          "name": "",
          "type": "uint256",
          "internalType": "uint256"
        }
      ],
      "stateMutability": "view"
    },
    {
      "type": "function",
      "name": "MINTER_ROLE",
      "inputs": [],
      "outputs": [
        {
          "name": "",
          "type": "bytes32",
          "internalType": "bytes32"
        }
      ],
      "stateMutability": "view"
    },
    {
      "type": "function",
      "name": "addOwner",
      "inputs": [
        {
          "name": "newOwner",
          "type": "address",
          "internalType": "address"
        }
      ],
      "outputs": [],
      "stateMutability": "nonpayable"
    },
    {
      "type": "function",
      "name": "canStartNewGame",
      "inputs": [
        {
          "name": "player",
          "type": "address",
          "internalType": "address"
        }
      ],
      "outputs": [
        {
          "name": "",
          "type": "bool",
          "internalType": "bool"
        }
      ],
      "stateMutability": "view"
    },
    {
      "type": "function",
      "name": "forceStopGame",
      "inputs": [
        {
          "name": "player",
          "type": "address",
          "internalType": "address"
        }
      ],
      "outputs": [],
      "stateMutability": "nonpayable"
    },
    {
      "type": "function",
      "name": "getContractBalance",
      "inputs": [],
      "outputs": [
        {
          "name": "",
          "type": "uint256",
          "internalType": "uint256"
        }
      ],
      "stateMutability": "view"
    },
    {
      "type": "function",
      "name": "getCurrentGame",
      "inputs": [
        {
          "name": "player",
          "type": "address",
          "internalType": "address"
        }
      ],
      "outputs": [
        {
          "name": "",
          "type": "tuple",
          "internalType": "struct GameState",
          "components": [
            {
              "name": "isActive",
              "type": "bool",
              "internalType": "bool"
            },
            {
              "name": "chosenNumber",
              "type": "uint256",
              "internalType": "uint256"
            },
            {
              "name": "result",
              "type": "uint256",
              "internalType": "uint256"
            },
            {
              "name": "amount",
              "type": "uint256",
              "internalType": "uint256"
            },
            {
              "name": "timestamp",
              "type": "uint256",
              "internalType": "uint256"
            },
            {
              "name": "payout",
              "type": "uint256",
              "internalType": "uint256"
            },
            {
              "name": "randomWord",
              "type": "uint256",
              "internalType": "uint256"
            },
            {
              "name": "status",
              "type": "uint8",
              "internalType": "enum GameStatus"
            }
          ]
        }
      ],
      "stateMutability": "view"
    },
    {
      "type": "function",
      "name": "getCurrentRequestDetails",
      "inputs": [
        {
          "name": "player",
          "type": "address",
          "internalType": "address"
        }
      ],
      "outputs": [
        {
          "name": "requestId",
          "type": "uint256",
          "internalType": "uint256"
        },
        {
          "name": "requestFulfilled",
          "type": "bool",
          "internalType": "bool"
        },
        {
          "name": "requestActive",
          "type": "bool",
          "internalType": "bool"
        }
      ],
      "stateMutability": "view"
    },
    {
      "type": "function",
      "name": "getGameStatus",
      "inputs": [
        {
          "name": "player",
          "type": "address",
          "internalType": "address"
        }
      ],
      "outputs": [
        {
          "name": "isActive",
          "type": "bool",
          "internalType": "bool"
        },
        {
          "name": "status",
          "type": "uint8",
          "internalType": "enum GameStatus"
        },
        {
          "name": "chosenNumber",
          "type": "uint256",
          "internalType": "uint256"
        },
        {
          "name": "amount",
          "type": "uint256",
          "internalType": "uint256"
        },
        {
          "name": "timestamp",
          "type": "uint256",
          "internalType": "uint256"
        }
      ],
      "stateMutability": "view"
    },
    {
      "type": "function",
      "name": "getHistorySize",
      "inputs": [
        {
          "name": "player",
          "type": "address",
          "internalType": "address"
        }
      ],
      "outputs": [
        {
          "name": "",
          "type": "uint256",
          "internalType": "uint256"
        }
      ],
      "stateMutability": "view"
    },
    {
      "type": "function",
      "name": "getOwnerCount",
      "inputs": [],
      "outputs": [
        {
          "name": "",
          "type": "uint256",
          "internalType": "uint256"
        }
      ],
      "stateMutability": "view"
    },
    {
      "type": "function",
      "name": "getPlayerForRequest",
      "inputs": [
        {
          "name": "requestId",
          "type": "uint256",
          "internalType": "uint256"
        }
      ],
      "outputs": [
        {
          "name": "",
          "type": "address",
          "internalType": "address"
        }
      ],
      "stateMutability": "view"
    },
    {
      "type": "function",
      "name": "getPreviousBets",
      "inputs": [
        {
          "name": "player",
          "type": "address",
          "internalType": "address"
        }
      ],
      "outputs": [
        {
          "name": "",
          "type": "tuple[]",
          "internalType": "struct BetHistory[]",
          "components": [
            {
              "name": "chosenNumber",
              "type": "uint256",
              "internalType": "uint256"
            },
            {
              "name": "rolledNumber",
              "type": "uint256",
              "internalType": "uint256"
            },
            {
              "name": "amount",
              "type": "uint256",
              "internalType": "uint256"
            },
            {
              "name": "timestamp",
              "type": "uint256",
              "internalType": "uint256"
            }
          ]
        }
      ],
      "stateMutability": "view"
    },
    {
      "type": "function",
      "name": "getUserData",
      "inputs": [
        {
          "name": "player",
          "type": "address",
          "internalType": "address"
        }
      ],
      "outputs": [
        {
          "name": "currentGame",
          "type": "tuple",
          "internalType": "struct GameState",
          "components": [
            {
              "name": "isActive",
              "type": "bool",
              "internalType": "bool"
            },
            {
              "name": "chosenNumber",
              "type": "uint256",
              "internalType": "uint256"
            },
            {
              "name": "result",
              "type": "uint256",
              "internalType": "uint256"
            },
            {
              "name": "amount",
              "type": "uint256",
              "internalType": "uint256"
            },
            {
              "name": "timestamp",
              "type": "uint256",
              "internalType": "uint256"
            },
            {
              "name": "payout",
              "type": "uint256",
              "internalType": "uint256"
            },
            {
              "name": "randomWord",
              "type": "uint256",
              "internalType": "uint256"
            },
            {
              "name": "status",
              "type": "uint8",
              "internalType": "enum GameStatus"
            }
          ]
        },
        {
          "name": "totalGames",
          "type": "uint256",
          "internalType": "uint256"
        },
        {
          "name": "totalBets",
          "type": "uint256",
          "internalType": "uint256"
        },
        {
          "name": "totalWinnings",
          "type": "uint256",
          "internalType": "uint256"
        },
        {
          "name": "totalLosses",
          "type": "uint256",
          "internalType": "uint256"
        },
        {
          "name": "lastPlayed",
          "type": "uint256",
          "internalType": "uint256"
        }
      ],
      "stateMutability": "view"
    },
    {
      "type": "function",
      "name": "hasPendingRequest",
      "inputs": [
        {
          "name": "player",
          "type": "address",
          "internalType": "address"
        }
      ],
      "outputs": [
        {
          "name": "",
          "type": "bool",
          "internalType": "bool"
        }
      ],
      "stateMutability": "view"
    },
    {
      "type": "function",
      "name": "isOwner",
      "inputs": [
        {
          "name": "account",
          "type": "address",
          "internalType": "address"
        }
      ],
      "outputs": [
        {
          "name": "",
          "type": "bool",
          "internalType": "bool"
        }
      ],
      "stateMutability": "view"
    },
    {
      "type": "function",
      "name": "isRequestActive",
      "inputs": [
        {
          "name": "requestId",
          "type": "uint256",
          "internalType": "uint256"
        }
      ],
      "outputs": [
        {
          "name": "",
          "type": "bool",
          "internalType": "bool"
        }
      ],
      "stateMutability": "view"
    },
    {
      "type": "function",
      "name": "myToken",
      "inputs": [],
      "outputs": [
        {
          "name": "",
          "type": "address",
          "internalType": "contract IMyToken"
        }
      ],
      "stateMutability": "view"
    },
    {
      "type": "function",
      "name": "owner",
      "inputs": [],
      "outputs": [
        {
          "name": "",
          "type": "address",
          "internalType": "address"
        }
      ],
      "stateMutability": "view"
    },
    {
      "type": "function",
      "name": "pause",
      "inputs": [],
      "outputs": [],
      "stateMutability": "nonpayable"
    },
    {
      "type": "function",
      "name": "paused",
      "inputs": [],
      "outputs": [
        {
          "name": "",
          "type": "bool",
          "internalType": "bool"
        }
      ],
      "stateMutability": "view"
    },
    {
      "type": "function",
      "name": "playDice",
      "inputs": [
        {
          "name": "chosenNumber",
          "type": "uint256",
          "internalType": "uint256"
        },
        {
          "name": "amount",
          "type": "uint256",
          "internalType": "uint256"
        }
      ],
      "outputs": [
        {
          "name": "requestId",
          "type": "uint256",
          "internalType": "uint256"
        }
      ],
      "stateMutability": "nonpayable"
    },
    {
      "type": "function",
      "name": "rawFulfillRandomWords",
      "inputs": [
        {
          "name": "requestId",
          "type": "uint256",
          "internalType": "uint256"
        },
        {
          "name": "randomWords",
          "type": "uint256[]",
          "internalType": "uint256[]"
        }
      ],
      "outputs": [],
      "stateMutability": "nonpayable"
    },
    {
      "type": "function",
      "name": "recoverStuckGame",
      "inputs": [
        {
          "name": "player",
          "type": "address",
          "internalType": "address"
        }
      ],
      "outputs": [],
      "stateMutability": "nonpayable"
    },
    {
      "type": "function",
      "name": "removeOwner",
      "inputs": [
        {
          "name": "ownerToRemove",
          "type": "address",
          "internalType": "address"
        }
      ],
      "outputs": [],
      "stateMutability": "nonpayable"
    },
    {
      "type": "function",
      "name": "renounceOwnership",
      "inputs": [],
      "outputs": [],
      "stateMutability": "nonpayable"
    },
    {
      "type": "function",
      "name": "resolveGame",
      "inputs": [],
      "outputs": [],
      "stateMutability": "nonpayable"
    },
    {
      "type": "function",
      "name": "revokeTokenRole",
      "inputs": [
        {
          "name": "role",
          "type": "bytes32",
          "internalType": "bytes32"
        },
        {
          "name": "account",
          "type": "address",
          "internalType": "address"
        }
      ],
      "outputs": [],
      "stateMutability": "nonpayable"
    },
    {
      "type": "function",
      "name": "s_requests",
      "inputs": [
        {
          "name": "",
          "type": "uint256",
          "internalType": "uint256"
        }
      ],
      "outputs": [
        {
          "name": "fulfilled",
          "type": "bool",
          "internalType": "bool"
        },
        {
          "name": "exists",
          "type": "bool",
          "internalType": "bool"
        }
      ],
      "stateMutability": "view"
    },
    {
      "type": "function",
      "name": "setCallbackGasLimit",
      "inputs": [
        {
          "name": "_callbackGasLimit",
          "type": "uint32",
          "internalType": "uint32"
        }
      ],
      "outputs": [],
      "stateMutability": "nonpayable"
    },
    {
      "type": "function",
      "name": "setHistorySize",
      "inputs": [
        {
          "name": "newSize",
          "type": "uint256",
          "internalType": "uint256"
        }
      ],
      "outputs": [],
      "stateMutability": "nonpayable"
    },
    {
      "type": "function",
      "name": "transferOwnership",
      "inputs": [
        {
          "name": "newOwner",
          "type": "address",
          "internalType": "address"
        }
      ],
      "outputs": [],
      "stateMutability": "nonpayable"
    },
    {
      "type": "function",
      "name": "unpause",
      "inputs": [],
      "outputs": [],
      "stateMutability": "nonpayable"
    },
    {
      "type": "event",
      "name": "OwnerAdded",
      "inputs": [
        {
          "name": "newOwner",
          "type": "address",
          "indexed": true,
          "internalType": "address"
        }
      ],
      "anonymous": false
    },
    {
      "type": "event",
      "name": "OwnerRemoved",
      "inputs": [
        {
          "name": "removedOwner",
          "type": "address",
          "indexed": true,
          "internalType": "address"
        }
      ],
      "anonymous": false
    },
    {
      "type": "event",
      "name": "OwnershipTransferred",
      "inputs": [
        {
          "name": "previousOwner",
          "type": "address",
          "indexed": true,
          "internalType": "address"
        },
        {
          "name": "newOwner",
          "type": "address",
          "indexed": true,
          "internalType": "address"
        }
      ],
      "anonymous": false
    },
    {
      "type": "event",
      "name": "Paused",
      "inputs": [
        {
          "name": "account",
          "type": "address",
          "indexed": false,
          "internalType": "address"
        }
      ],
      "anonymous": false
    },
    {
      "type": "event",
      "name": "Unpaused",
      "inputs": [
        {
          "name": "account",
          "type": "address",
          "indexed": false,
          "internalType": "address"
        }
      ],
      "anonymous": false
    },
    {
      "type": "error",
      "name": "EnforcedPause",
      "inputs": []
    },
    {
      "type": "error",
      "name": "ExpectedPause",
      "inputs": []
    },
    {
      "type": "error",
      "name": "GameError",
      "inputs": [
        {
          "name": "code",
          "type": "uint256",
          "internalType": "uint256"
        }
      ]
    },
    {
      "type": "error",
      "name": "InsufficientContractBalance",
      "inputs": [
        {
          "name": "required",
          "type": "uint256",
          "internalType": "uint256"
        },
        {
          "name": "available",
          "type": "uint256",
          "internalType": "uint256"
        }
      ]
    },
    {
      "type": "error",
      "name": "InsufficientUserBalance",
      "inputs": [
        {
          "name": "required",
          "type": "uint256",
          "internalType": "uint256"
        },
        {
          "name": "available",
          "type": "uint256",
          "internalType": "uint256"
        }
      ]
    },
    {
      "type": "error",
      "name": "InvalidBetParameters",
      "inputs": [
        {
          "name": "code",
          "type": "uint256",
          "internalType": "uint256"
        }
      ]
    },
    {
      "type": "error",
      "name": "OnlyCoordinatorCanFulfill",
      "inputs": [
        {
          "name": "have",
          "type": "address",
          "internalType": "address"
        },
        {
          "name": "want",
          "type": "address",
          "internalType": "address"
        }
      ]
    },
    {
      "type": "error",
      "name": "OwnableInvalidOwner",
      "inputs": [
        {
          "name": "owner",
          "type": "address",
          "internalType": "address"
        }
      ]
    },
    {
      "type": "error",
      "name": "OwnableUnauthorizedAccount",
      "inputs": [
        {
          "name": "account",
          "type": "address",
          "internalType": "address"
        }
      ]
    },
    {
      "type": "error",
      "name": "OwnerError",
      "inputs": [
        {
          "name": "code",
          "type": "uint256",
          "internalType": "uint256"
        }
      ]
    },
    {
      "type": "error",
      "name": "PayoutCalculationError",
      "inputs": [
        {
          "name": "message",
          "type": "string",
          "internalType": "string"
        }
      ]
    },
    {
      "type": "error",
      "name": "ReentrancyGuardReentrantCall",
      "inputs": []
    },
    {
      "type": "error",
      "name": "RoleError",
      "inputs": [
        {
          "name": "code",
          "type": "uint256",
          "internalType": "uint256"
        }
      ]
    },
    {
      "type": "error",
      "name": "TransferFailed",
      "inputs": [
        {
          "name": "code",
          "type": "uint256",
          "internalType": "uint256"
        }
      ]
    },
    {
      "type": "error",
      "name": "VRFError",
      "inputs": [
        {
          "name": "code",
          "type": "uint256",
          "internalType": "uint256"
        }
      ]
    }
  ],
  "bytecode": {
    "object": "0x61016060405234801561001157600080fd5b50604051612b33380380612b3383398101604081905261003091610251565b6000805460ff19169055600180556001600160a01b038516608052338061007257604051631e4fbdf760e01b8152600060048201526024015b60405180910390fd5b61007b816101cf565b506001600160a01b0387166100a657604051636cab86db60e01b815260016004820152602401610069565b6001600160a01b0385166100d057604051636cab86db60e01b815260026004820152602401610069565b8263ffffffff166000036100fa57604051636cab86db60e01b815260036004820152602401610069565b8063ffffffff1660000361012357604051636cab86db60e01b8152600481810152602401610069565b6001600160a01b03808616610140526001600160401b03871660a05260c08590526002805463ffffffff808716600160a01b0263ffffffff60a01b199092169190911790915561ffff841660e05282166101005287166101205233600081815260066020526040808220805460ff19166001908117909155600755517f994a936646fe87ffe4f1e469d3d6aa417d6b855598397f323de5b449f765f0c39190a2505050505050506102e8565b600280546001600160a01b038381166001600160a01b0319831681179093556040519116919082907f8be0079c531659141344cd1fd0a4f28419497f9722a3daafe3b4186f6b6457e090600090a35050565b80516001600160a01b038116811461023857600080fd5b919050565b805163ffffffff8116811461023857600080fd5b600080600080600080600060e0888a03121561026c57600080fd5b61027588610221565b60208901519097506001600160401b038116811461029257600080fd5b95506102a060408901610221565b9450606088015193506102b56080890161023d565b925060a088015161ffff811681146102cc57600080fd5b91506102da60c0890161023d565b905092959891949750929550565b60805160a05160c05160e0516101005161012051610140516127a461038f6000396000610b350152600081816104e3015281816107a8015281816108600152818161093b015281816109ea015281816114dd01528181611933015281816119da01528181611af001528181611bfa0152611cb801526000610b0e01526000610ad201526000610a7901526000610aa8015260008181610fa30152610fe501526127a46000f3fe608060405234801561001057600080fd5b50600436106102055760003560e01c806363df7a141161011a578063a168fa89116100ad578063c23a179f1161007c578063c23a179f14610505578063d539139314610531578063ef18374a14610558578063f2fde38b14610560578063ffc9896b1461057357600080fd5b8063a168fa8914610475578063a4eb718c146104b8578063b52a0855146104cb578063b8fcf937146104de57600080fd5b80637cd2d47c116100e95780637cd2d47c146104415780638456cb59146104495780638da5cb5b1461045157806393e955bd1461046257600080fd5b806363df7a14146104165780636f9fb98a1461041e5780637065cb4814610426578063715018a61461043957600080fd5b8063282c51f31161019d578063447b2a061161016c578063447b2a061461038457806354e4437e146103a45780635c975abb146103c85780635d424b85146103d357806362cf48f9146103e657600080fd5b8063282c51f31461031657806329febc731461033d5780632f54bf6e146103505780633f4ba83a1461037c57600080fd5b8063086bb182116101d9578063086bb182146102c85780630c99375d146102dd578063173825d9146102f05780631fe543e31461030357600080fd5b8062d6b9ba1461020a5780630176cf5e146102335780630359a8a3146102545780630424315114610287575b600080fd5b61021d610218366004612310565b610598565b60405161022a919061232b565b60405180910390f35b610246610241366004612394565b6106ef565b60405190815260200161022a565b6102776102623660046123b6565b60009081526005602052604090205460ff1690565b604051901515815260200161022a565b6102b06102953660046123b6565b6000908152600460205260409020546001600160a01b031690565b6040516001600160a01b03909116815260200161022a565b6102db6102d63660046123b6565b610d33565b005b6102776102eb366004612310565b610e38565b6102db6102fe366004612310565b610e6f565b6102db6103113660046123e5565b610f98565b6102467f3c11d16cbaffd01df69ce1c404f6340ee057498f5f00246190ea54220576a84881565b6102db61034b366004612310565b61101c565b61027761035e366004612310565b6001600160a01b031660009081526006602052604090205460ff1690565b6102db611113565b610397610392366004612310565b611125565b60405161022a919061254f565b6103b76103b2366004612310565b611309565b60405161022a95949392919061255e565b60005460ff16610277565b6102776103e1366004612310565b611403565b6103f96103f4366004612310565b611433565b60408051938452911515602084015215159082015260600161022a565b610246600a81565b6102466114c5565b6102db610434366004612310565b611555565b6102db611631565b6102db611643565b6102db611ab2565b6002546001600160a01b03166102b0565b6102db610470366004612590565b611ac2565b6104a16104833660046123b6565b60086020526000908152604090205460ff8082169161010090041682565b60408051921515835290151560208301520161022a565b6102db6104c63660046125bc565b611b50565b6102db6104d9366004612310565b611b7e565b6102b07f000000000000000000000000000000000000000000000000000000000000000081565b610246610513366004612310565b6001600160a01b03166000908152600360205260409020600b015490565b6102467f9f2df0fed2c77648de5860a4cc508cd0818c85b8b8a1ab4ceeef8d981c8956a681565b600754610246565b6102db61056e366004612310565b611d2f565b610586610581366004612310565b611d6d565b60405161022a969594939291906125e2565b60606001600160a01b0382166105c957604051636cab86db60e01b8152600c60048201526024015b60405180910390fd5b6001600160a01b0382166000908152600360205260408120600a81015490918167ffffffffffffffff811115610601576106016123cf565b60405190808252806020026020018201604052801561065d57816020015b61064a6040518060800160405280600081526020016000815260200160008152602001600081525090565b81526020019060019003908161061f5790505b50905060005b828110156106e65783600a0181815481106106805761068061261e565b90600052602060002090600402016040518060800160405290816000820154815260200160018201548152602001600282015481526020016003820154815250508282815181106106d3576106d361261e565b6020908102919091010152600101610663565b50949350505050565b60006106f9611e9c565b610701611ec6565b3360009081526003602052604081209083900361073457604051636cab86db60e01b8152600560048201526024016105c0565b805460ff161561075a5760405163d6d1036b60e01b8152600160048201526024016105c0565b60018410806107695750600684115b1561078a57604051636cab86db60e01b8152600660048201526024016105c0565b604051636eb1769f60e11b81523360048201523060248201526000907f00000000000000000000000000000000000000000000000000000000000000006001600160a01b03169063dd62ed3e90604401602060405180830381865afa1580156107f7573d6000803e3d6000fd5b505050506040513d601f19601f8201168201806040525081019061081b9190612634565b905083811015610848576040516302fa826960e51b815260048101859052602481018290526044016105c0565b6040516370a0823160e01b81523360048201526000907f00000000000000000000000000000000000000000000000000000000000000006001600160a01b0316906370a0823190602401602060405180830381865afa1580156108af573d6000803e3d6000fd5b505050506040513d601f19601f820116820180604052508101906108d39190612634565b905084811015610900576040516302fa826960e51b815260048101869052602481018290526044016105c0565b604051632474521560e21b81527f3c11d16cbaffd01df69ce1c404f6340ee057498f5f00246190ea54220576a84860048201523060248201527f00000000000000000000000000000000000000000000000000000000000000006001600160a01b0316906391d1485490604401602060405180830381865afa15801561098a573d6000803e3d6000fd5b505050506040513d601f19601f820116820180604052508101906109ae919061264d565b6109ce5760405163d64796dd60e01b8152600160048201526024016105c0565b604051632770a7eb60e21b8152336004820152602481018690527f00000000000000000000000000000000000000000000000000000000000000006001600160a01b031690639dc29fac90604401600060405180830381600087803b158015610a3657600080fd5b505af1925050508015610a47575060015b610a675760405163c39ba1a960e01b8152600160048201526024016105c0565b6002546040516305d3b1d360e41b81527f0000000000000000000000000000000000000000000000000000000000000000600482015267ffffffffffffffff7f000000000000000000000000000000000000000000000000000000000000000016602482015261ffff7f0000000000000000000000000000000000000000000000000000000000000000166044820152600160a01b90910463ffffffff90811660648301527f00000000000000000000000000000000000000000000000000000000000000001660848201527f00000000000000000000000000000000000000000000000000000000000000006001600160a01b031690635d3b1d309060a4016020604051808303816000875af1158015610b86573d6000803e3d6000fd5b505050506040513d601f19601f82011682018060405250810190610baa9190612634565b6040805160608101825260008082526001602080840182815285518481528083018752858701908152878552600883529590932084518154945161ffff1990951690151561ff00191617610100941515949094029390931783559351805195995092949193610c1f939185019291019061223d565b505050600084815260046020818152604080842080546001600160a01b031916331790556005808352818520805460ff1990811660019081179092558351610100810185528281529485018d9052928401869052606084018b9052426080850181905260a0850187905260c0850187905260e090940181905288548316811789558881018c905560028901869055600389018b905593880192909255908601839055600686018390556007860180548216909217909155600885018690556009850180549091169055600c84018054879290610cfc908490612685565b9091555050600f83018054906000610d1383612698565b9190505550428360100181905550505050610d2d60018055565b92915050565b60008111610d835760405162461bcd60e51b815260206004820152601d60248201527f486973746f72792073697a65206d75737420626520706f73697469766500000060448201526064016105c0565b6064811115610dcd5760405162461bcd60e51b8152602060048201526016602482015275486973746f72792073697a6520746f6f206c6172676560501b60448201526064016105c0565b336000908152600360205260409020600b81018290555b600a810154821015610e345780600a01805480610e0357610e036126b1565b6000828152602081206004600019909301928302018181556001810182905560028101829055600301559055610de4565b5050565b6001600160a01b0381166000908152600360205260408120600881015415801590610e685750600981015460ff16155b9392505050565b610e77611eea565b6001600160a01b038116610ea157604051630f25112d60e41b8152600160048201526024016105c0565b6001600160a01b03811660009081526006602052604090205460ff16610edd57604051630f25112d60e41b8152600160048201526024016105c0565b600160075411610f0357604051630f25112d60e41b8152600360048201526024016105c0565b336001600160a01b03821603610f2e57604051630f25112d60e41b81526004818101526024016105c0565b6001600160a01b0381166000908152600660205260408120805460ff191690556007805491610f5c836126c7565b90915550506040516001600160a01b038216907f58619076adf5bb0943d100ef88d52d7c3fd691b19d3a9071b555b651fbf418da90600090a250565b336001600160a01b037f000000000000000000000000000000000000000000000000000000000000000016146110125760405163073e64fd60e21b81523360048201526001600160a01b037f00000000000000000000000000000000000000000000000000000000000000001660248201526044016105c0565b610e348282611f17565b611024611eea565b6001600160a01b0381166000908152600360205260409020805460ff1661105d5760405162461bcd60e51b81526004016105c0906126de565b600481015461106f90610e1090612685565b42116110b25760405162461bcd60e51b815260206004820152601260248201527111d85b59481b9bdd081d1a5b5959081bdd5d60721b60448201526064016105c0565b6008810154156110f357600881018054600090815260046020908152604080832080546001600160a01b0319169055925482526005905220805460ff191690555b805460ff1990811682556009820180549091169055600060089091015550565b61111b611eea565b611123612139565b565b61112d612288565b6001600160a01b03821661115757604051636cab86db60e01b8152600860048201526024016105c0565b6001600160a01b0382166000908152600360205260409020805460ff16156112ae57611186600660001961271c565b600382015411156111cd5760405163193a897b60e11b815260206004820152601060248201526f416d6f756e7420746f6f206c6172676560801b60448201526064016105c0565b60048101544210156111f55760405163d6d1036b60e01b8152600360048201526024016105c0565b60018101546006101561121e57604051636cab86db60e01b8152600d60048201526024016105c0565b6040805161010081018252825460ff9081161515825260018401546020830152600284015492820192909252600383015460608201526004808401546080830152600584015460a0830152600684015460c083015260078401549192849260e0850192911690811115611293576112936124be565b60048111156112a4576112a46124be565b9052509392505050565b60405180610100016040528060001515815260200160008152602001600081526020016000815260200160008152602001600081526020016000815260200160006004811115611300576113006124be565b90529392505050565b6000808080806001600160a01b03861661133957604051636cab86db60e01b8152600960048201526024016105c0565b6001600160a01b0386166000908152600360208181526040808420815161010081018352815460ff908116151582526001830154948201949094526002820154928101929092529283015460608201526004808401546080830152600584015460a0830152600684015460c0830152600784015491939260e085019216908111156113c6576113c66124be565b60048111156113d7576113d76124be565b905250805160e082015160208301516060840151608090940151929b919a509850919650945092505050565b6001600160a01b0381166000908152600360205260408120805460ff16158015610e685750600801541592915050565b600080806001600160a01b03841661146157604051636cab86db60e01b8152600b60048201526024016105c0565b6001600160a01b03841660009081526003602052604081206008810154909103611496576000806000935093509350506114be565b600881015460099091015460008281526005602052604090205491945060ff90811693501690505b9193909250565b6040516370a0823160e01b81523060048201526000907f00000000000000000000000000000000000000000000000000000000000000006001600160a01b0316906370a0823190602401602060405180830381865afa15801561152c573d6000803e3d6000fd5b505050506040513d601f19601f820116820180604052508101906115509190612634565b905090565b61155d611eea565b6001600160a01b03811661158757604051630f25112d60e41b8152600160048201526024016105c0565b6001600160a01b03811660009081526006602052604090205460ff16156115c457604051630f25112d60e41b8152600260048201526024016105c0565b6001600160a01b0381166000908152600660205260408120805460ff1916600117905560078054916115f583612698565b90915550506040516001600160a01b038216907f994a936646fe87ffe4f1e469d3d6aa417d6b855598397f323de5b449f765f0c390600090a250565b611639611eea565b611123600061218b565b61164b611e9c565b336000908152600360205260409020805460ff1661167b5760405162461bcd60e51b81526004016105c0906126de565b600981015460ff166116cf5760405162461bcd60e51b815260206004820152601760248201527f52616e646f6d206e756d626572206e6f7420726561647900000000000000000060448201526064016105c0565b6006818101546000916116e191612730565b6116ec906001612685565b905081600b015460000361170257600a600b8301555b600b820154600a830154106117ec5760005b600a83015461172590600190612744565b8110156117ab57600a830161173b826001612685565b8154811061174b5761174b61261e565b906000526020600020906004020183600a01828154811061176e5761176e61261e565b6000918252602090912082546004909202019081556001808301548183015560028084015490830155600392830154929091019190915501611714565b5081600a018054806117bf576117bf6126b1565b60008281526020812060046000199093019283020181815560018101829055600281018290556003015590555b6040805160808101825260018085018054835260208084018681526003808901549686019687524260608701908152600a8a018054808801825560009182529481209751600490950290970193845591519483019490945594516002820155935193909101929092559054829003611a5c5761186b600660001961271c565b600384015411156118b65760405163193a897b60e11b815260206004820152601460248201527342657420616d6f756e7420746f6f206c6172676560601b60448201526064016105c0565b60038301546118c6906006612757565b90508083600d0160008282546118dc9190612685565b909155505060078301805460ff19166002179055604051632474521560e21b81527f9f2df0fed2c77648de5860a4cc508cd0818c85b8b8a1ab4ceeef8d981c8956a660048201523060248201526001600160a01b037f000000000000000000000000000000000000000000000000000000000000000016906391d1485490604401602060405180830381865afa15801561197a573d6000803e3d6000fd5b505050506040513d601f19601f8201168201806040525081019061199e919061264d565b6119be5760405163d64796dd60e01b8152600260048201526024016105c0565b6040516340c10f1960e01b8152336004820152602481018290527f00000000000000000000000000000000000000000000000000000000000000006001600160a01b0316906340c10f1990604401600060405180830381600087803b158015611a2657600080fd5b505af1925050508015611a37575060015b611a575760405163c39ba1a960e01b8152600260048201526024016105c0565b611a8a565b6003830154600e84018054600090611a75908490612685565b909155505060078301805460ff191660031790555b5050805460ff1990811682556009820180549091169055600060089091015561112360018055565b611aba611eea565b6111236121dd565b611aca611eea565b60405163d547741f60e01b8152600481018390526001600160a01b0382811660248301527f0000000000000000000000000000000000000000000000000000000000000000169063d547741f90604401600060405180830381600087803b158015611b3457600080fd5b505af1158015611b48573d6000803e3d6000fd5b505050505050565b611b58611eea565b6002805463ffffffff909216600160a01b0263ffffffff60a01b19909216919091179055565b611b86611eea565b6001600160a01b0381166000908152600360205260409020805460ff16611bbf5760405162461bcd60e51b81526004016105c0906126de565b604051632474521560e21b81527f9f2df0fed2c77648de5860a4cc508cd0818c85b8b8a1ab4ceeef8d981c8956a660048201523060248201527f00000000000000000000000000000000000000000000000000000000000000006001600160a01b0316906391d1485490604401602060405180830381865afa158015611c49573d6000803e3d6000fd5b505050506040513d601f19601f82011682018060405250810190611c6d919061264d565b611c8c5760405163d64796dd60e01b81526004818101526024016105c0565b60038101546040516340c10f1960e01b81526001600160a01b03848116600483015260248201929092527f0000000000000000000000000000000000000000000000000000000000000000909116906340c10f1990604401600060405180830381600087803b158015611cfe57600080fd5b505af1925050508015611d0f575060015b6110f35760405163c39ba1a960e01b8152600360048201526024016105c0565b611d37611eea565b6001600160a01b038116611d6157604051631e4fbdf760e01b8152600060048201526024016105c0565b611d6a8161218b565b50565b611d75612288565b6000808080806001600160a01b038716611da557604051636cab86db60e01b8152600760048201526024016105c0565b600060036000896001600160a01b03166001600160a01b0316815260200190815260200160002090508060000181600f015482600c015483600d015484600e0154856010015485604051806101000160405290816000820160009054906101000a900460ff161515151581526020016001820154815260200160028201548152602001600382015481526020016004820154815260200160058201548152602001600682015481526020016007820160009054906101000a900460ff166004811115611e7357611e736124be565b6004811115611e8457611e846124be565b9052509e949d50929b50909950975095509350505050565b600260015403611ebf57604051633ee5aeb560e01b815260040160405180910390fd5b6002600155565b60005460ff16156111235760405163d93c066560e01b815260040160405180910390fd5b6002546001600160a01b031633146111235760405163118cdaa760e01b81523360048201526024016105c0565b600082815260086020526040902054610100900460ff16611f6e5760405162461bcd60e51b81526020600482015260116024820152701c995c5d595cdd081b9bdd08199bdd5b99607a1b60448201526064016105c0565b6000828152600860209081526040909120805460ff1916600190811782558351611f9f93929091019184019061223d565b506000828152600460205260409020546001600160a01b031680611fd95760405163d6d1036b60e01b8152600260048201526024016105c0565b6001600160a01b0381166000908152600360205260409020805460ff166120345760405162461bcd60e51b815260206004820152600f60248201526e47616d65206e6f742061637469766560881b60448201526064016105c0565b8381600801541461207d5760405162461bcd60e51b81526020600482015260136024820152720a4cae2eacae6e840928840dad2e6dac2e8c6d606b1b60448201526064016105c0565b60008481526005602052604090205460ff166120d35760405162461bcd60e51b815260206004820152601560248201527452657175657374204944206e6f742061637469766560581b60448201526064016105c0565b826000815181106120e6576120e661261e565b60209081029190910181015160068301556009909101805460ff19908116600117909155600094855260048252604080862080546001600160a01b03191690556005909252932080549093169092555050565b61214161221a565b6000805460ff191690557f5db9ee0a495bf2e6ff9c91a7834c1ba4fdd244a5e8aa4e537bd38aeae4b073aa335b6040516001600160a01b03909116815260200160405180910390a1565b600280546001600160a01b038381166001600160a01b0319831681179093556040519116919082907f8be0079c531659141344cd1fd0a4f28419497f9722a3daafe3b4186f6b6457e090600090a35050565b6121e5611ec6565b6000805460ff191660011790557f62e78cea01bee320cd4e420270b5ea74000d11b0c9f74754ebdbfc544b05a25861216e3390565b60005460ff1661112357604051638dfc202b60e01b815260040160405180910390fd5b828054828255906000526020600020908101928215612278579160200282015b8281111561227857825182559160200191906001019061225d565b506122849291506122df565b5090565b604051806101000160405280600015158152602001600081526020016000815260200160008152602001600081526020016000815260200160008152602001600060048111156122da576122da6124be565b905290565b5b8082111561228457600081556001016122e0565b80356001600160a01b038116811461230b57600080fd5b919050565b60006020828403121561232257600080fd5b610e68826122f4565b602080825282518282018190526000918401906040840190835b818110156123895783518051845260208101516020850152604081015160408501526060810151606085015250608083019250602084019350600181019050612345565b509095945050505050565b600080604083850312156123a757600080fd5b50508035926020909101359150565b6000602082840312156123c857600080fd5b5035919050565b634e487b7160e01b600052604160045260246000fd5b600080604083850312156123f857600080fd5b82359150602083013567ffffffffffffffff81111561241657600080fd5b8301601f8101851361242757600080fd5b803567ffffffffffffffff811115612441576124416123cf565b8060051b604051601f19603f830116810181811067ffffffffffffffff8211171561246e5761246e6123cf565b60405291825260208184018101929081018884111561248c57600080fd5b6020850194505b838510156124af57843580825260209586019590935001612493565b50809450505050509250929050565b634e487b7160e01b600052602160045260246000fd5b600581106124f257634e487b7160e01b600052602160045260246000fd5b9052565b8051151582526020810151602083015260408101516040830152606081015160608301526080810151608083015260a081015160a083015260c081015160c083015260e081015161254a60e08401826124d4565b505050565b6101008101610d2d82846124f6565b851515815260a0810161257460208301876124d4565b8460408301528360608301528260808301529695505050505050565b600080604083850312156125a357600080fd5b823591506125b3602084016122f4565b90509250929050565b6000602082840312156125ce57600080fd5b813563ffffffff81168114610e6857600080fd5b6101a081016125f182896124f6565b61010082019690965261012081019490945261014084019290925261016083015261018090910152919050565b634e487b7160e01b600052603260045260246000fd5b60006020828403121561264657600080fd5b5051919050565b60006020828403121561265f57600080fd5b81518015158114610e6857600080fd5b634e487b7160e01b600052601160045260246000fd5b80820180821115610d2d57610d2d61266f565b6000600182016126aa576126aa61266f565b5060010190565b634e487b7160e01b600052603160045260246000fd5b6000816126d6576126d661266f565b506000190190565b6020808252600e908201526d4e6f206163746976652067616d6560901b604082015260600190565b634e487b7160e01b600052601260045260246000fd5b60008261272b5761272b612706565b500490565b60008261273f5761273f612706565b500690565b81810381811115610d2d57610d2d61266f565b8082028115828204841417610d2d57610d2d61266f56fea26469706673582212208ea81d2691628aa2056a113f34bcf2abe76f9874d1378f1616dac126fea6a20664736f6c634300081a0033",
    "linkReferences": {}
  },
  "methodIdentifiers": {
    "BURNER_ROLE()": "282c51f3",
    "DEFAULT_HISTORY_SIZE()": "63df7a14",
    "MINTER_ROLE()": "d5391393",
    "addOwner(address)": "7065cb48",
    "canStartNewGame(address)": "5d424b85",
    "forceStopGame(address)": "b52a0855",
    "getContractBalance()": "6f9fb98a",
    "getCurrentGame(address)": "447b2a06",
    "getCurrentRequestDetails(address)": "62cf48f9",
    "getGameStatus(address)": "54e4437e",
    "getHistorySize(address)": "c23a179f",
    "getOwnerCount()": "ef18374a",
    "getPlayerForRequest(uint256)": "04243151",
    "getPreviousBets(address)": "00d6b9ba",
    "getUserData(address)": "ffc9896b",
    "hasPendingRequest(address)": "0c99375d",
    "isOwner(address)": "2f54bf6e",
    "isRequestActive(uint256)": "0359a8a3",
    "myToken()": "b8fcf937",
    "owner()": "8da5cb5b",
    "pause()": "8456cb59",
    "paused()": "5c975abb",
    "playDice(uint256,uint256)": "0176cf5e",
    "rawFulfillRandomWords(uint256,uint256[])": "1fe543e3",
    "recoverStuckGame(address)": "29febc73",
    "removeOwner(address)": "173825d9",
    "renounceOwnership()": "715018a6",
    "resolveGame()": "7cd2d47c",
    "revokeTokenRole(bytes32,address)": "93e955bd",
    "s_requests(uint256)": "a168fa89",
    "setCallbackGasLimit(uint32)": "a4eb718c",
    "setHistorySize(uint256)": "086bb182",
    "transferOwnership(address)": "f2fde38b",
    "unpause()": "3f4ba83a"
  },
  "id": 39
}