{
  "abi": [
    {
      "type": "constructor",
      "inputs": [
        {
          "name": "_gamaTokenAddress",
          "type": "address",
          "internalType": "address"
        }
      ],
      "stateMutability": "nonpayable"
    },
    {
      "type": "function",
      "name": "BURNER_ROLE",
      "inputs": [],
      "outputs": [
        {
          "name": "",
          "type": "bytes32",
          "internalType": "bytes32"
        }
      ],
      "stateMutability": "view"
    },
    {
      "type": "function",
      "name": "MAX_BET_AMOUNT",
      "inputs": [],
      "outputs": [
        {
          "name": "",
          "type": "uint256",
          "internalType": "uint256"
        }
      ],
      "stateMutability": "view"
    },
    {
      "type": "function",
      "name": "MAX_HISTORY_SIZE",
      "inputs": [],
      "outputs": [
        {
          "name": "",
          "type": "uint256",
          "internalType": "uint256"
        }
      ],
      "stateMutability": "view"
    },
    {
      "type": "function",
      "name": "MINTER_ROLE",
      "inputs": [],
      "outputs": [
        {
          "name": "",
          "type": "bytes32",
          "internalType": "bytes32"
        }
      ],
      "stateMutability": "view"
    },
    {
      "type": "function",
      "name": "gamaToken",
      "inputs": [],
      "outputs": [
        {
          "name": "",
          "type": "address",
          "internalType": "contract IERC20"
        }
      ],
      "stateMutability": "view"
    },
    {
      "type": "function",
      "name": "getBetHistory",
      "inputs": [
        {
          "name": "player",
          "type": "address",
          "internalType": "address"
        }
      ],
      "outputs": [
        {
          "name": "",
          "type": "tuple[]",
          "internalType": "struct BetHistory[]",
          "components": [
            {
              "name": "chosenNumber",
              "type": "uint256",
              "internalType": "uint256"
            },
            {
              "name": "rolledNumber",
              "type": "uint256",
              "internalType": "uint256"
            },
            {
              "name": "amount",
              "type": "uint256",
              "internalType": "uint256"
            },
            {
              "name": "timestamp",
              "type": "uint256",
              "internalType": "uint256"
            },
            {
              "name": "payout",
              "type": "uint256",
              "internalType": "uint256"
            }
          ]
        }
      ],
      "stateMutability": "view"
    },
    {
      "type": "function",
      "name": "getUserData",
      "inputs": [
        {
          "name": "player",
          "type": "address",
          "internalType": "address"
        }
      ],
      "outputs": [
        {
          "name": "totalGames",
          "type": "uint256",
          "internalType": "uint256"
        },
        {
          "name": "totalBets",
          "type": "uint256",
          "internalType": "uint256"
        },
        {
          "name": "totalWinnings",
          "type": "uint256",
          "internalType": "uint256"
        },
        {
          "name": "lastPlayed",
          "type": "uint256",
          "internalType": "uint256"
        }
      ],
      "stateMutability": "view"
    },
    {
      "type": "function",
      "name": "playDice",
      "inputs": [
        {
          "name": "chosenNumber",
          "type": "uint256",
          "internalType": "uint256"
        },
        {
          "name": "amount",
          "type": "uint256",
          "internalType": "uint256"
        }
      ],
      "outputs": [
        {
          "name": "result",
          "type": "uint256",
          "internalType": "uint256"
        },
        {
          "name": "payout",
          "type": "uint256",
          "internalType": "uint256"
        }
      ],
      "stateMutability": "nonpayable"
    },
    {
      "type": "function",
      "name": "totalGamesPlayed",
      "inputs": [],
      "outputs": [
        {
          "name": "",
          "type": "uint256",
          "internalType": "uint256"
        }
      ],
      "stateMutability": "view"
    },
    {
      "type": "function",
      "name": "totalPayoutAmount",
      "inputs": [],
      "outputs": [
        {
          "name": "",
          "type": "uint256",
          "internalType": "uint256"
        }
      ],
      "stateMutability": "view"
    },
    {
      "type": "function",
      "name": "totalWageredAmount",
      "inputs": [],
      "outputs": [
        {
          "name": "",
          "type": "uint256",
          "internalType": "uint256"
        }
      ],
      "stateMutability": "view"
    },
    {
      "type": "error",
      "name": "InsufficientAllowance",
      "inputs": [
        {
          "name": "required",
          "type": "uint256",
          "internalType": "uint256"
        },
        {
          "name": "allowed",
          "type": "uint256",
          "internalType": "uint256"
        }
      ]
    },
    {
      "type": "error",
      "name": "InsufficientUserBalance",
      "inputs": [
        {
          "name": "required",
          "type": "uint256",
          "internalType": "uint256"
        },
        {
          "name": "available",
          "type": "uint256",
          "internalType": "uint256"
        }
      ]
    },
    {
      "type": "error",
      "name": "InvalidBetParameters",
      "inputs": [
        {
          "name": "reason",
          "type": "string",
          "internalType": "string"
        }
      ]
    },
    {
      "type": "error",
      "name": "MissingContractRole",
      "inputs": [
        {
          "name": "role",
          "type": "bytes32",
          "internalType": "bytes32"
        }
      ]
    },
    {
      "type": "error",
      "name": "PayoutCalculationError",
      "inputs": [
        {
          "name": "message",
          "type": "string",
          "internalType": "string"
        }
      ]
    },
    {
      "type": "error",
      "name": "ReentrancyGuardReentrantCall",
      "inputs": []
    },
    {
      "type": "error",
      "name": "TransferFailed",
      "inputs": [
        {
          "name": "reason",
          "type": "string",
          "internalType": "string"
        }
      ]
    }
  ],
  "bytecode": {
    "object": "0x60a060405234801561000f575f5ffd5b5060405161113038038061113083398101604081905261002e9161009e565b60015f556001600160a01b03811661008d576040516334460f4160e01b815260206004820152601c60248201527f546f6b656e20616464726573732063616e6e6f74206265207a65726f00000000604482015260640160405180910390fd5b6001600160a01b03166080526100cb565b5f602082840312156100ae575f5ffd5b81516001600160a01b03811681146100c4575f5ffd5b9392505050565b60805161101561011b5f395f8181610184015281816103bc0152818161048f01528181610765015281816107f7015281816108ab0152818161094301528181610a0b0152610af601526110155ff3fe608060405234801561000f575f5ffd5b50600436106100a6575f3560e01c8063c10662511161006e578063c106625114610130578063ce84a53b14610138578063d539139314610158578063d56ec8c91461017f578063e7efcfc2146101be578063ffc9896b146101c7575f5ffd5b80630176cf5e146100aa578063282c51f3146100d7578063309167f51461010c5780635bdb2e1b1461011e5780635c49212914610127575b5f5ffd5b6100bd6100b8366004610e2d565b6101fa565b604080519283526020830191909152015b60405180910390f35b6100fe7f3c11d16cbaffd01df69ce1c404f6340ee057498f5f00246190ea54220576a84881565b6040519081526020016100ce565b6100fe6a084595161401484a00000081565b6100fe60045481565b6100fe60025481565b6100fe600a81565b61014b610146366004610e4d565b610561565b6040516100ce9190610e7a565b6100fe7f9f2df0fed2c77648de5860a4cc508cd0818c85b8b8a1ab4ceeef8d981c8956a681565b6101a67f000000000000000000000000000000000000000000000000000000000000000081565b6040516001600160a01b0390911681526020016100ce565b6100fe60035481565b6101da6101d5366004610e4d565b610651565b6040805194855260208501939093529183015260608201526080016100ce565b5f5f61020461071c565b825f03610259576040516334460f4160e01b815260206004820152601960248201527f42657420616d6f756e742063616e6e6f74206265207a65726f0000000000000060448201526064015b60405180910390fd5b6a084595161401484a0000008311156102ac576040516334460f4160e01b815260206004820152601460248201527342657420616d6f756e7420746f6f206c6172676560601b6044820152606401610250565b60018410806102bb5750600684115b15610301576040516334460f4160e01b815260206004820152601560248201527424b73b30b634b21031b437b9b2b710373ab6b132b960591b6044820152606401610250565b61030b3384610744565b610313610baa565b60ff1691505f90508184036103a05761032e60065f19610f14565b8311156103925760405163193a897b60e11b815260206004820152602b60248201527f42657420616d6f756e7420746f6f206c6172676520666f72207061796f75742060448201526a31b0b631bab630ba34b7b760a91b6064820152608401610250565b61039d836006610f27565b90505b604051632770a7eb60e21b8152336004820152602481018490527f00000000000000000000000000000000000000000000000000000000000000006001600160a01b031690639dc29fac906044015f604051808303815f87803b158015610405575f5ffd5b505af1925050508015610416575060015b610457576040516312dfddb360e01b8152602060048201526011602482015270151bdad95b88189d5c9b8819985a5b1959607a1b6044820152606401610250565b8260045f8282546104689190610f44565b9091555050801561052a576040516340c10f1960e01b8152336004820152602481018290527f00000000000000000000000000000000000000000000000000000000000000006001600160a01b0316906340c10f19906044015f604051808303815f87803b1580156104d8575f5ffd5b505af19250505080156104e9575060015b61052a576040516312dfddb360e01b8152602060048201526011602482015270151bdad95b881b5a5b9d0819985a5b1959607a1b6044820152606401610250565b335f9081526001602052604090206105458186858786610c1e565b610550818584610db1565b5061055a60015f55565b9250929050565b60606001600160a01b0382166105b3576040516334460f4160e01b8152602060048201526016602482015275496e76616c696420706c61796572206164647265737360501b6044820152606401610250565b6001600160a01b0382165f90815260016020908152604080832080548251818502810185019093528083529193909284015b82821015610646578382905f5260205f2090600502016040518060a00160405290815f8201548152602001600182015481526020016002820154815260200160038201548152602001600482015481525050815260200190600101906105e5565b505050509050919050565b5f8080806001600160a01b0385166106a5576040516334460f4160e01b8152602060048201526016602482015275496e76616c696420706c61796572206164647265737360501b6044820152606401610250565b6001600160a01b0385165f90815260016020526040812080549091906106cb575f6106fc565b815482906106db90600190610f57565b815481106106eb576106eb610f6a565b905f5260205f209060050201600301545b600483015460028401546003909401549099939850965094509092505050565b60025f540361073e57604051633ee5aeb560e01b815260040160405180910390fd5b60025f55565b6040516370a0823160e01b81526001600160a01b03838116600483015282917f0000000000000000000000000000000000000000000000000000000000000000909116906370a0823190602401602060405180830381865afa1580156107ac573d5f5f3e3d5ffd5b505050506040513d601f19601f820116820180604052508101906107d09190610f7e565b1015610884576040516370a0823160e01b81526001600160a01b03838116600483015282917f0000000000000000000000000000000000000000000000000000000000000000909116906370a0823190602401602060405180830381865afa15801561083e573d5f5f3e3d5ffd5b505050506040513d601f19601f820116820180604052508101906108629190610f7e565b6040516302fa826960e51b815260048101929092526024820152604401610250565b604051636eb1769f60e11b81526001600160a01b03838116600483015230602483015282917f00000000000000000000000000000000000000000000000000000000000000009091169063dd62ed3e90604401602060405180830381865afa1580156108f2573d5f5f3e3d5ffd5b505050506040513d601f19601f820116820180604052508101906109169190610f7e565b10156109d057604051636eb1769f60e11b81526001600160a01b03838116600483015230602483015282917f00000000000000000000000000000000000000000000000000000000000000009091169063dd62ed3e90604401602060405180830381865afa15801561098a573d5f5f3e3d5ffd5b505050506040513d601f19601f820116820180604052508101906109ae9190610f7e565b60405163054365bb60e31b815260048101929092526024820152604401610250565b604051632474521560e21b81527f3c11d16cbaffd01df69ce1c404f6340ee057498f5f00246190ea54220576a84860048201523060248201527f00000000000000000000000000000000000000000000000000000000000000006001600160a01b0316906391d1485490604401602060405180830381865afa158015610a58573d5f5f3e3d5ffd5b505050506040513d601f19601f82011682018060405250810190610a7c9190610f95565b610abb576040516359f75fb760e11b81527f3c11d16cbaffd01df69ce1c404f6340ee057498f5f00246190ea54220576a8486004820152602401610250565b604051632474521560e21b81527f9f2df0fed2c77648de5860a4cc508cd0818c85b8b8a1ab4ceeef8d981c8956a660048201523060248201527f00000000000000000000000000000000000000000000000000000000000000006001600160a01b0316906391d1485490604401602060405180830381865afa158015610b43573d5f5f3e3d5ffd5b505050506040513d601f19601f82011682018060405250810190610b679190610f95565b610ba6576040516359f75fb760e11b81527f9f2df0fed2c77648de5860a4cc508cd0818c85b8b8a1ab4ceeef8d981c8956a66004820152602401610250565b5050565b5f610bb760066001610f44565b600254604051610bf791429144913391602001938452602084019290925260601b6bffffffffffffffffffffffff19166040830152605482015260740190565b604051602081830303815290604052805190602001205f1c610c199190610fb4565b905090565b84600101545f03610c3157600a60018601555b6040805160a08101825285815260208101859052908101839052426060820152608081018290526001860154865410610d64575f5b8654610c7490600190610f57565b811015610cfd5786610c87826001610f44565b81548110610c9757610c97610f6a565b905f5260205f209060050201875f018281548110610cb757610cb7610f6a565b5f91825260209091208254600590920201908155600180830154818301556002808401549083015560038084015490830155600492830154929091019190915501610c66565b50855481908790610d1090600190610f57565b81548110610d2057610d20610f6a565b905f5260205f2090600502015f820151815f015560208201518160010155604082015181600201556060820151816003015560808201518160040155905050610da9565b8554600181810188555f888152602090819020845160059094020192835583015190820155604082015160028201556060820151600382015560808201516004909101555b505050505050565b81836002015f828254610dc49190610f44565b90915550508015610de85780836003015f828254610de29190610f44565b90915550505b600483018054905f610df983610fc7565b909155505060028054905f610e0d83610fc7565b91905055508060035f828254610e239190610f44565b9091555050505050565b5f5f60408385031215610e3e575f5ffd5b50508035926020909101359150565b5f60208284031215610e5d575f5ffd5b81356001600160a01b0381168114610e73575f5ffd5b9392505050565b602080825282518282018190525f918401906040840190835b81811015610ee157835180518452602081015160208501526040810151604085015260608101516060850152608081015160808501525060a083019250602084019350600181019050610e93565b509095945050505050565b634e487b7160e01b5f52601260045260245ffd5b634e487b7160e01b5f52601160045260245ffd5b5f82610f2257610f22610eec565b500490565b8082028115828204841417610f3e57610f3e610f00565b92915050565b80820180821115610f3e57610f3e610f00565b81810381811115610f3e57610f3e610f00565b634e487b7160e01b5f52603260045260245ffd5b5f60208284031215610f8e575f5ffd5b5051919050565b5f60208284031215610fa5575f5ffd5b81518015158114610e73575f5ffd5b5f82610fc257610fc2610eec565b500690565b5f60018201610fd857610fd8610f00565b506001019056fea264697066735822122011e8f07b31a29f544138b2be43376bbde2c65c60058f01a248e6e41dfcd7891264736f6c634300081c0033",
    "linkReferences": {}
  },
  "methodIdentifiers": {
    "BURNER_ROLE()": "282c51f3",
    "MAX_BET_AMOUNT()": "309167f5",
    "MAX_HISTORY_SIZE()": "c1066251",
    "MINTER_ROLE()": "d5391393",
    "gamaToken()": "d56ec8c9",
    "getBetHistory(address)": "ce84a53b",
    "getUserData(address)": "ffc9896b",
    "playDice(uint256,uint256)": "0176cf5e",
    "totalGamesPlayed()": "5c492129",
    "totalPayoutAmount()": "e7efcfc2",
    "totalWageredAmount()": "5bdb2e1b"
  },
  "id": 21
}