{
  "abi": [
    {
      "type": "constructor",
      "inputs": [
        {
          "name": "_gamaTokenAddress",
          "type": "address",
          "internalType": "address"
        }
      ],
      "stateMutability": "nonpayable"
    },
    {
      "type": "function",
      "name": "BLACK_BET",
      "inputs": [],
      "outputs": [
        {
          "name": "",
          "type": "uint8",
          "internalType": "uint8"
        }
      ],
      "stateMutability": "view"
    },
    {
      "type": "function",
      "name": "BURNER_ROLE",
      "inputs": [],
      "outputs": [
        {
          "name": "",
          "type": "bytes32",
          "internalType": "bytes32"
        }
      ],
      "stateMutability": "view"
    },
    {
      "type": "function",
      "name": "COLUMN_BET_FIRST",
      "inputs": [],
      "outputs": [
        {
          "name": "",
          "type": "uint8",
          "internalType": "uint8"
        }
      ],
      "stateMutability": "view"
    },
    {
      "type": "function",
      "name": "COLUMN_BET_SECOND",
      "inputs": [],
      "outputs": [
        {
          "name": "",
          "type": "uint8",
          "internalType": "uint8"
        }
      ],
      "stateMutability": "view"
    },
    {
      "type": "function",
      "name": "COLUMN_BET_THIRD",
      "inputs": [],
      "outputs": [
        {
          "name": "",
          "type": "uint8",
          "internalType": "uint8"
        }
      ],
      "stateMutability": "view"
    },
    {
      "type": "function",
      "name": "DENOMINATOR",
      "inputs": [],
      "outputs": [
        {
          "name": "",
          "type": "uint256",
          "internalType": "uint256"
        }
      ],
      "stateMutability": "view"
    },
    {
      "type": "function",
      "name": "DOZEN_BET_FIRST",
      "inputs": [],
      "outputs": [
        {
          "name": "",
          "type": "uint8",
          "internalType": "uint8"
        }
      ],
      "stateMutability": "view"
    },
    {
      "type": "function",
      "name": "DOZEN_BET_SECOND",
      "inputs": [],
      "outputs": [
        {
          "name": "",
          "type": "uint8",
          "internalType": "uint8"
        }
      ],
      "stateMutability": "view"
    },
    {
      "type": "function",
      "name": "DOZEN_BET_THIRD",
      "inputs": [],
      "outputs": [
        {
          "name": "",
          "type": "uint8",
          "internalType": "uint8"
        }
      ],
      "stateMutability": "view"
    },
    {
      "type": "function",
      "name": "EVEN_BET",
      "inputs": [],
      "outputs": [
        {
          "name": "",
          "type": "uint8",
          "internalType": "uint8"
        }
      ],
      "stateMutability": "view"
    },
    {
      "type": "function",
      "name": "HIGH_BET",
      "inputs": [],
      "outputs": [
        {
          "name": "",
          "type": "uint8",
          "internalType": "uint8"
        }
      ],
      "stateMutability": "view"
    },
    {
      "type": "function",
      "name": "LOW_BET",
      "inputs": [],
      "outputs": [
        {
          "name": "",
          "type": "uint8",
          "internalType": "uint8"
        }
      ],
      "stateMutability": "view"
    },
    {
      "type": "function",
      "name": "MAX_BET_AMOUNT",
      "inputs": [],
      "outputs": [
        {
          "name": "",
          "type": "uint256",
          "internalType": "uint256"
        }
      ],
      "stateMutability": "view"
    },
    {
      "type": "function",
      "name": "MAX_HISTORY_SIZE",
      "inputs": [],
      "outputs": [
        {
          "name": "",
          "type": "uint256",
          "internalType": "uint256"
        }
      ],
      "stateMutability": "view"
    },
    {
      "type": "function",
      "name": "MAX_NUMBER",
      "inputs": [],
      "outputs": [
        {
          "name": "",
          "type": "uint8",
          "internalType": "uint8"
        }
      ],
      "stateMutability": "view"
    },
    {
      "type": "function",
      "name": "MAX_POSSIBLE_PAYOUT",
      "inputs": [],
      "outputs": [
        {
          "name": "",
          "type": "uint256",
          "internalType": "uint256"
        }
      ],
      "stateMutability": "view"
    },
    {
      "type": "function",
      "name": "MAX_TOTAL_BET_AMOUNT",
      "inputs": [],
      "outputs": [
        {
          "name": "",
          "type": "uint256",
          "internalType": "uint256"
        }
      ],
      "stateMutability": "view"
    },
    {
      "type": "function",
      "name": "MINTER_ROLE",
      "inputs": [],
      "outputs": [
        {
          "name": "",
          "type": "bytes32",
          "internalType": "bytes32"
        }
      ],
      "stateMutability": "view"
    },
    {
      "type": "function",
      "name": "ODD_BET",
      "inputs": [],
      "outputs": [
        {
          "name": "",
          "type": "uint8",
          "internalType": "uint8"
        }
      ],
      "stateMutability": "view"
    },
    {
      "type": "function",
      "name": "RED_BET",
      "inputs": [],
      "outputs": [
        {
          "name": "",
          "type": "uint8",
          "internalType": "uint8"
        }
      ],
      "stateMutability": "view"
    },
    {
      "type": "function",
      "name": "STRAIGHT_BET",
      "inputs": [],
      "outputs": [
        {
          "name": "",
          "type": "uint8",
          "internalType": "uint8"
        }
      ],
      "stateMutability": "view"
    },
    {
      "type": "function",
      "name": "gamaToken",
      "inputs": [],
      "outputs": [
        {
          "name": "",
          "type": "address",
          "internalType": "contract IERC20"
        }
      ],
      "stateMutability": "view"
    },
    {
      "type": "function",
      "name": "getAllBetTypes",
      "inputs": [],
      "outputs": [
        {
          "name": "betTypeIds",
          "type": "uint8[]",
          "internalType": "uint8[]"
        },
        {
          "name": "names",
          "type": "string[]",
          "internalType": "string[]"
        },
        {
          "name": "requiresNumbers",
          "type": "bool[]",
          "internalType": "bool[]"
        },
        {
          "name": "payoutMultipliers",
          "type": "uint256[]",
          "internalType": "uint256[]"
        }
      ],
      "stateMutability": "pure"
    },
    {
      "type": "function",
      "name": "getBetDetails",
      "inputs": [
        {
          "name": "player",
          "type": "address",
          "internalType": "address"
        },
        {
          "name": "betIndex",
          "type": "uint256",
          "internalType": "uint256"
        }
      ],
      "outputs": [
        {
          "name": "timestamp",
          "type": "uint256",
          "internalType": "uint256"
        },
        {
          "name": "betTypeName",
          "type": "string",
          "internalType": "string"
        },
        {
          "name": "numbers",
          "type": "uint8[]",
          "internalType": "uint8[]"
        },
        {
          "name": "amount",
          "type": "uint256",
          "internalType": "uint256"
        },
        {
          "name": "payout",
          "type": "uint256",
          "internalType": "uint256"
        },
        {
          "name": "resultNumber",
          "type": "uint8",
          "internalType": "uint8"
        },
        {
          "name": "isWin",
          "type": "bool",
          "internalType": "bool"
        }
      ],
      "stateMutability": "view"
    },
    {
      "type": "function",
      "name": "getBetTypeInfo",
      "inputs": [
        {
          "name": "betTypeId",
          "type": "uint8",
          "internalType": "uint8"
        }
      ],
      "outputs": [
        {
          "name": "name",
          "type": "string",
          "internalType": "string"
        },
        {
          "name": "requiresNumber",
          "type": "bool",
          "internalType": "bool"
        },
        {
          "name": "payoutMultiplier",
          "type": "uint256",
          "internalType": "uint256"
        }
      ],
      "stateMutability": "pure"
    },
    {
      "type": "function",
      "name": "getPossibleWinningNumbers",
      "inputs": [
        {
          "name": "betTypeId",
          "type": "uint8",
          "internalType": "uint8"
        }
      ],
      "outputs": [
        {
          "name": "numbers",
          "type": "uint8[]",
          "internalType": "uint8[]"
        }
      ],
      "stateMutability": "pure"
    },
    {
      "type": "function",
      "name": "getUserBetHistory",
      "inputs": [
        {
          "name": "player",
          "type": "address",
          "internalType": "address"
        },
        {
          "name": "offset",
          "type": "uint256",
          "internalType": "uint256"
        },
        {
          "name": "limit",
          "type": "uint256",
          "internalType": "uint256"
        }
      ],
      "outputs": [
        {
          "name": "bets",
          "type": "tuple[]",
          "internalType": "struct Bet[]",
          "components": [
            {
              "name": "timestamp",
              "type": "uint256",
              "internalType": "uint256"
            },
            {
              "name": "betType",
              "type": "uint8",
              "internalType": "enum BetType"
            },
            {
              "name": "numbers",
              "type": "uint8[]",
              "internalType": "uint8[]"
            },
            {
              "name": "amount",
              "type": "uint256",
              "internalType": "uint256"
            },
            {
              "name": "payout",
              "type": "uint256",
              "internalType": "uint256"
            },
            {
              "name": "winningNumber",
              "type": "uint8",
              "internalType": "uint8"
            }
          ]
        },
        {
          "name": "total",
          "type": "uint256",
          "internalType": "uint256"
        }
      ],
      "stateMutability": "view"
    },
    {
      "type": "function",
      "name": "getValidBetNumbers",
      "inputs": [
        {
          "name": "betType",
          "type": "uint8",
          "internalType": "enum BetType"
        },
        {
          "name": "start",
          "type": "uint8",
          "internalType": "uint8"
        }
      ],
      "outputs": [
        {
          "name": "",
          "type": "uint8[]",
          "internalType": "uint8[]"
        }
      ],
      "stateMutability": "pure"
    },
    {
      "type": "function",
      "name": "placeBet",
      "inputs": [
        {
          "name": "betRequests",
          "type": "tuple[]",
          "internalType": "struct BetRequest[]",
          "components": [
            {
              "name": "betTypeId",
              "type": "uint8",
              "internalType": "uint8"
            },
            {
              "name": "number",
              "type": "uint8",
              "internalType": "uint8"
            },
            {
              "name": "amount",
              "type": "uint256",
              "internalType": "uint256"
            }
          ]
        }
      ],
      "outputs": [],
      "stateMutability": "nonpayable"
    },
    {
      "type": "function",
      "name": "totalGamesPlayed",
      "inputs": [],
      "outputs": [
        {
          "name": "",
          "type": "uint256",
          "internalType": "uint256"
        }
      ],
      "stateMutability": "view"
    },
    {
      "type": "function",
      "name": "totalPayoutAmount",
      "inputs": [],
      "outputs": [
        {
          "name": "",
          "type": "uint256",
          "internalType": "uint256"
        }
      ],
      "stateMutability": "view"
    },
    {
      "type": "function",
      "name": "userData",
      "inputs": [
        {
          "name": "",
          "type": "address",
          "internalType": "address"
        }
      ],
      "outputs": [
        {
          "name": "maxHistorySize",
          "type": "uint256",
          "internalType": "uint256"
        }
      ],
      "stateMutability": "view"
    },
    {
      "type": "function",
      "name": "winningNumber",
      "inputs": [],
      "outputs": [
        {
          "name": "",
          "type": "uint8",
          "internalType": "uint8"
        }
      ],
      "stateMutability": "view"
    },
    {
      "type": "error",
      "name": "BurnFailed",
      "inputs": [
        {
          "name": "account",
          "type": "address",
          "internalType": "address"
        },
        {
          "name": "amount",
          "type": "uint256",
          "internalType": "uint256"
        }
      ]
    },
    {
      "type": "error",
      "name": "InsufficientAllowance",
      "inputs": [
        {
          "name": "required",
          "type": "uint256",
          "internalType": "uint256"
        },
        {
          "name": "allowed",
          "type": "uint256",
          "internalType": "uint256"
        }
      ]
    },
    {
      "type": "error",
      "name": "InsufficientUserBalance",
      "inputs": [
        {
          "name": "required",
          "type": "uint256",
          "internalType": "uint256"
        },
        {
          "name": "available",
          "type": "uint256",
          "internalType": "uint256"
        }
      ]
    },
    {
      "type": "error",
      "name": "InvalidBetParameters",
      "inputs": [
        {
          "name": "reason",
          "type": "string",
          "internalType": "string"
        }
      ]
    },
    {
      "type": "error",
      "name": "InvalidBetType",
      "inputs": [
        {
          "name": "betType",
          "type": "uint256",
          "internalType": "uint256"
        }
      ]
    },
    {
      "type": "error",
      "name": "MaxPayoutExceeded",
      "inputs": [
        {
          "name": "potentialPayout",
          "type": "uint256",
          "internalType": "uint256"
        },
        {
          "name": "maxAllowed",
          "type": "uint256",
          "internalType": "uint256"
        }
      ]
    },
    {
      "type": "error",
      "name": "MintFailed",
      "inputs": [
        {
          "name": "account",
          "type": "address",
          "internalType": "address"
        },
        {
          "name": "amount",
          "type": "uint256",
          "internalType": "uint256"
        }
      ]
    },
    {
      "type": "error",
      "name": "MissingContractRole",
      "inputs": [
        {
          "name": "role",
          "type": "bytes32",
          "internalType": "bytes32"
        }
      ]
    },
    {
      "type": "error",
      "name": "ReentrancyGuardReentrantCall",
      "inputs": []
    },
    {
      "type": "error",
      "name": "TransferFailed",
      "inputs": [
        {
          "name": "from",
          "type": "address",
          "internalType": "address"
        },
        {
          "name": "to",
          "type": "address",
          "internalType": "address"
        },
        {
          "name": "amount",
          "type": "uint256",
          "internalType": "uint256"
        }
      ]
    }
  ],
  "bytecode": {
    "object": "0x6080604052348015600e575f5ffd5b5060405161309b38038061309b833981016040819052602b9160ac565b60015f556001600160a01b03811660885760405162461bcd60e51b815260206004820152601c60248201527f546f6b656e20616464726573732063616e6e6f74206265207a65726f00000000604482015260640160405180910390fd5b600180546001600160a01b0319166001600160a01b039290921691909117905560d7565b5f6020828403121560bb575f5ffd5b81516001600160a01b038116811460d0575f5ffd5b9392505050565b612fb7806100e45f395ff3fe608060405234801561000f575f5ffd5b50600436106101f2575f3560e01c806394bae38511610114578063d5391393116100a9578063e3286e5511610079578063e3286e55146103f6578063e60271cf14610417578063e7efcfc21461041f578063fa198c4f14610428578063fea9b5721461044a575f5ffd5b8063d539139314610394578063d56ec8c9146103bb578063d6b6cd59146103e6578063ddebc952146103ee575f5ffd5b8063b8a5e438116100e4578063b8a5e4381461034d578063c106625114610355578063c1a5fe511461035d578063c891091314610372575f5ffd5b806394bae385146103225780639793e1d61461032a578063a39822271461033d578063b34daef414610345575f5ffd5b80634664611e1161018a578063790231701161015a57806379023170146102f15780637d3d31ad14610309578063918f86741461031157806394b9b5071461031a575f5ffd5b80634664611e146102a95780634689b441146102b65780635a0db4d2146102c85780635c492129146102e8575f5ffd5b80632ff21494116101c55780632ff2149414610263578063309167f51461028957806336b39a601461029a578063432aeb8f146102a2575f5ffd5b806319469f1b146101f65780632257b05714610215578063282c51f31461021d5780632d2cd03414610252575b5f5ffd5b6101fe600881565b60405160ff90911681526020015b60405180910390f35b6101fe600581565b6102447f3c11d16cbaffd01df69ce1c404f6340ee057498f5f00246190ea54220576a84881565b60405190815260200161020c565b6102446969e10de76676d080000081565b6102766102713660046129b9565b610452565b60405161020c9796959493929190612a4c565b61024469152d02c7e14af680000081565b6101fe600181565b6101fe5f81565b6005546101fe9060ff1681565b6102446a0e79c4e6a3023e8180000081565b6102db6102d6366004612ab2565b61062a565b60405161020c9190612acb565b61024460035481565b6102f9610b34565b60405161020c9493929190612b3f565b6101fe600c81565b61024461271081565b6101fe600b81565b6101fe600a81565b6102db610338366004612bdc565b610c99565b6101fe600781565b6101fe600281565b6101fe600481565b610244600a81565b61037061036b366004612c12565b610e0e565b005b610244610380366004612c83565b60026020525f908152604090206001015481565b6102447f9f2df0fed2c77648de5860a4cc508cd0818c85b8b8a1ab4ceeef8d981c8956a681565b6001546103ce906001600160a01b031681565b6040516001600160a01b03909116815260200161020c565b6101fe600381565b6101fe600681565b610409610404366004612c9c565b610f10565b60405161020c929190612ce0565b6101fe600981565b61024460045481565b61043b610436366004612ab2565b6111de565b60405161020c93929190612de8565b6101fe602481565b6001600160a01b0382165f908152600260205260408120546060908190839081908190819088106104be5760405162461bcd60e51b8152602060048201526011602482015270092dcecc2d8d2c840c4cae840d2dcc8caf607b1b60448201526064015b60405180910390fd5b6001600160a01b0389165f90815260026020526040812080548a9081106104e7576104e7612e0c565b905f5260205f2090600602016040518060c00160405290815f8201548152602001600182015f9054906101000a900460ff16600881111561052a5761052a612ccc565b600881111561053b5761053b612ccc565b8152602001600282018054806020026020016040519081016040528092919081815260200182805480156105a957602002820191905f5260205f20905f905b825461010083900a900460ff1681526020600192830181810494850194909303909202910180841161057a5790505b505050918352505060038201546020808301919091526004830154604083015260059092015460ff166060909101528101519091505f906105f590600881111561043657610436612ccc565b5050825160408401516060850151608086015160a090960151929f939e50909c509a5092985091965050861515945092505050565b606060ff82166106a4576040805160258082526104c0820190925290602082016104a0803683370190505090505f5b60248160ff161161069e5780828260ff168151811061067a5761067a612e0c565b60ff909216602092830291909101909101528061069681612e48565b915050610659565b50919050565b60061960ff8316016107c95760408051601280825261026082019092529060208201610240803683370190505060408051610240810182526001815260036020808301919091526005928201929092526007606082015260096080820152600c60a0820152600e60c0820152601060e082015260126101008201526013610120820152601561014082015260176101608201526019610180820152601b6101a0820152601e6101c08201526101e0810191909152602261020082015260246102208201529091505f5b60128160ff1610156107c257818160ff166012811061078e5761078e612e0c565b6020020151838260ff16815181106107a8576107a8612e0c565b60ff9092166020928302919091019091015260010161076d565b5050919050565b60071960ff8316016108e2576040805160128082526102608201909252906020820161024080368337019050506040805161024081018252600281526004602082015260069181019190915260086060820152600a6080820152600b60a0820152600d60c0820152600f60e08201526011610100820152601461012082015260166101408201526018610160820152601a610180820152601c6101a0820152601d6101c0820152601f6101e0820152602161020082015260236102208201529091505f5b60128160ff1610156107c257818160ff16601281106108ae576108ae612e0c565b6020020151838260ff16815181106108c8576108c8612e0c565b60ff9092166020928302919091019091015260010161088d565b60081960ff8316016109645760408051601280825261026082019092529060208201610240803683370190505090505f5b60128160ff16101561069e5761092a816001612e66565b610935906002612e7f565b828260ff168151811061094a5761094a612e0c565b60ff90921660209283029190910190910152600101610913565b60091960ff8316016109e65760408051601280825261026082019092529060208201610240803683370190505090505f5b60128160ff16101561069e576109ac816002612e7f565b6109b7906001612e66565b828260ff16815181106109cc576109cc612e0c565b60ff90921660209283029190910190910152600101610995565b600a1960ff831601610a5d5760408051601280825261026082019092529060208201610240803683370190505090505f5b60128160ff16101561069e57610a2e816001612e66565b828260ff1681518110610a4357610a43612e0c565b60ff90921660209283029190910190910152600101610a17565b600b1960ff831601610ad45760408051601280825261026082019092529060208201610240803683370190505090505f5b60128160ff16101561069e57610aa5816013612e66565b828260ff1681518110610aba57610aba612e0c565b60ff90921660209283029190910190910152600101610a8e565b6040516334460f4160e01b815260206004820152602960248201527f496e76616c696420626574207479706520494420666f72206e756d626572206760448201526832b732b930ba34b7b760b91b60648201526084016104b5565b919050565b60408051600d8082526101c0820190925260609182918291829190602082016101a0803683370190505060408051600d8082526101c08201909252919550816020015b6060815260200190600190039081610b7757505060408051600d8082526101c08201909252919450602082016101a080368337505060408051600d8082526101c082019092529294509050602082016101a0803683370190505090505f5b600d8160ff161015610c92575f5f5f610bed846111de565b92509250925083888560ff1681518110610c0957610c09612e0c565b602002602001019060ff16908160ff168152505082878560ff1681518110610c3357610c33612e0c565b602002602001018190525081868560ff1681518110610c5457610c54612e0c565b60200260200101901515908115158152505080858560ff1681518110610c7c57610c7c612e0c565b6020908102919091010152505050600101610bd5565b5090919293565b60606002836008811115610caf57610caf612ccc565b03610d2a578160ff1660011480610cc957508160ff166002145b80610cd757508160ff166003145b610d1a5760405162461bcd60e51b8152602060048201526014602482015273125b9d985b1a590818dbdb1d5b5b881cdd185c9d60621b60448201526064016104b5565b610d238261157a565b9050610e08565b6001836008811115610d3e57610d3e612ccc565b03610db1578160ff1660011480610d5857508160ff16600d145b80610d6657508160ff166019145b610da85760405162461bcd60e51b8152602060048201526013602482015272125b9d985b1a5908191bde995b881cdd185c9d606a1b60448201526064016104b5565b610d23826115fb565b60405162461bcd60e51b815260206004820152602660248201527f496e76616c696420626574207479706520666f72206e756d6265722067656e656044820152653930ba34b7b760d11b60648201526084016104b5565b92915050565b610e1661166a565b5f819003610e5a576040516334460f4160e01b815260206004820152601060248201526f139bc818995d1cc81c1c9bdd9a59195960821b60448201526064016104b5565b600f811115610e9c576040516334460f4160e01b815260206004820152600d60248201526c546f6f206d616e79206265747360981b60448201526064016104b5565b335f9081526002602052604081209080610eb68585611692565b9092509050610ec5338361187e565b5f610ed286868686611c28565b600380549192505f610ee383612e9b565b91905055508060045f828254610ef99190612eb3565b909155505060015f5550610f0c92505050565b5050565b6001600160a01b0383165f9081526002602090815260408083208054825181850281018501909352808352606094938493929190849084015b82821015611054578382905f5260205f2090600602016040518060c00160405290815f8201548152602001600182015f9054906101000a900460ff166008811115610f9657610f96612ccc565b6008811115610fa757610fa7612ccc565b81526020016002820180548060200260200160405190810160405280929190818152602001828054801561101557602002820191905f5260205f20905f905b825461010083900a900460ff16815260206001928301818104948501949093039092029101808411610fe65790505b505050918352505060038201546020808301919091526004830154604083015260059092015460ff166060909101529082526001929092019101610f49565b5050825192935050508086106110d157604080515f80825260208201909252906110c5565b6110b26040805160c081019091525f80825260208201908152602001606081526020015f81526020015f81526020015f60ff1681525090565b8152602001906001900390816110795790505b50935091506111d69050565b5f6110dc8688612eb3565b9050818111156110e95750805b5f6110f48883612ec6565b90508067ffffffffffffffff81111561110f5761110f612e20565b60405190808252806020026020018201604052801561117957816020015b6111666040805160c081019091525f80825260208201908152602001606081526020015f81526020015f81526020015f60ff1681525090565b81526020019060019003908161112d5790505b5095505f5b818110156111ce5784611191828b612eb3565b815181106111a1576111a1612e0c565b60200260200101518782815181106111bb576111bb612e0c565b602090810291909101015260010161117e565b509193505050505b935093915050565b60605f8060ff84166112245760016111f96127106023612ed9565b60408051808201909152600881526714dd1c985a59da1d60c21b602082015294509092509050611573565b5f1960ff851601611272575f61123d6127106002612ed9565b604080518082019091526012815271466972737420446f7a656e2028312d31322960701b602082015294509092509050611573565b60011960ff8516016112c3575f61128c6127106002612ed9565b6040805180820190915260148152735365636f6e6420446f7a656e202831332d32342960601b602082015294509092509050611573565b60021960ff851601611313575f6112dd6127106002612ed9565b604080518082019091526013815272546869726420446f7a656e202832352d33362960681b602082015294509092509050611573565b60031960ff85160161135c575f61132d6127106002612ed9565b60408051808201909152600c81526b2334b939ba1021b7b63ab6b760a11b602082015294509092509050611573565b60041960ff8516016113a6575f6113766127106002612ed9565b60408051808201909152600d81526c29b2b1b7b7321021b7b63ab6b760991b602082015294509092509050611573565b60051960ff8516016113ef575f6113c06127106002612ed9565b60408051808201909152600c81526b2a3434b9321021b7b63ab6b760a11b602082015294509092509050611573565b60061960ff85160161142257505060408051808201909152600381526214995960ea1b602082015290505f612710611573565b60071960ff851601611457575050604080518082019091526005815264426c61636b60d81b602082015290505f612710611573565b60081960ff85160161148b57505060408051808201909152600481526322bb32b760e11b602082015290505f612710611573565b60091960ff8516016114be57505060408051808201909152600381526213d91960ea1b602082015290505f612710611573565b600a1960ff8516016114f857505060408051808201909152600a8152694c6f772028312d31382960b01b602082015290505f612710611573565b600b1960ff85160161153457505060408051808201909152600c81526b48696768202831392d33362960a01b602082015290505f612710611573565b6040516334460f4160e01b8152602060048201526013602482015272125b9d985b1a590818995d081d1e5c19481251606a1b60448201526064016104b5565b9193909250565b60408051600c8082526101a082019092526060915f919060208201610180803683370190505090505f5b600c8160ff1610156115f4576115bb816003612e7f565b6115c59085612e66565b828260ff16815181106115da576115da612e0c565b60ff909216602092830291909101909101526001016115a4565b5092915050565b60408051600c8082526101a082019092526060915f919060208201610180803683370190505090505f5b600c8160ff1610156115f45761163b8185612e66565b828260ff168151811061165057611650612e0c565b60ff90921660209283029190910190910152600101611625565b60025f540361168c57604051633ee5aeb560e01b815260040160405180910390fd5b60025f55565b5f80805b83811015611876578484828181106116b0576116b0612e0c565b905060600201604001355f036116fe576040516334460f4160e01b8152602060048201526012602482015271125b9d985b1a590818995d08185b5bdd5b9d60721b60448201526064016104b5565b69152d02c7e14af680000085858381811061171b5761171b612e0c565b905060600201604001351115611774576040516334460f4160e01b815260206004820152601b60248201527f53696e676c652062657420616d6f756e7420746f6f206c61726765000000000060448201526064016104b5565b84848281811061178657611786612e0c565b905060600201604001358361179b9190612eb3565b92505f6117be8686848181106117b3576117b3612e0c565b905060600201611e82565b5090505f6117cb82612120565b90505f612710828989878181106117e4576117e4612e0c565b905060600201604001356117f89190612ed9565b6118029190612f04565b905061180e8186612eb3565b94506969e10de76676d080000086111561186b576040516334460f4160e01b815260206004820152601a60248201527f546f74616c2062657420616d6f756e7420746f6f206c6172676500000000000060448201526064016104b5565b505050600101611696565b509250929050565b6001546040516370a0823160e01b81526001600160a01b038481166004830152839216906370a0823190602401602060405180830381865afa1580156118c6573d5f5f3e3d5ffd5b505050506040513d601f19601f820116820180604052508101906118ea9190612f17565b101561197e576001546040516370a0823160e01b81526001600160a01b038481166004830152839216906370a0823190602401602060405180830381865afa158015611938573d5f5f3e3d5ffd5b505050506040513d601f19601f8201168201806040525081019061195c9190612f17565b6040516302fa826960e51b8152600481019290925260248201526044016104b5565b600154604051636eb1769f60e11b81526001600160a01b0384811660048301523060248301528392169063dd62ed3e90604401602060405180830381865afa1580156119cc573d5f5f3e3d5ffd5b505050506040513d601f19601f820116820180604052508101906119f09190612f17565b1015611a8a57600154604051636eb1769f60e11b81526001600160a01b0384811660048301523060248301528392169063dd62ed3e90604401602060405180830381865afa158015611a44573d5f5f3e3d5ffd5b505050506040513d601f19601f82011682018060405250810190611a689190612f17565b60405163054365bb60e31b8152600481019290925260248201526044016104b5565b600154604051632474521560e21b81527f3c11d16cbaffd01df69ce1c404f6340ee057498f5f00246190ea54220576a84860048201523060248201526001600160a01b03909116906391d1485490604401602060405180830381865afa158015611af6573d5f5f3e3d5ffd5b505050506040513d601f19601f82011682018060405250810190611b1a9190612f2e565b611b59576040516359f75fb760e11b81527f3c11d16cbaffd01df69ce1c404f6340ee057498f5f00246190ea54220576a84860048201526024016104b5565b600154604051632474521560e21b81527f9f2df0fed2c77648de5860a4cc508cd0818c85b8b8a1ab4ceeef8d981c8956a660048201523060248201526001600160a01b03909116906391d1485490604401602060405180830381865afa158015611bc5573d5f5f3e3d5ffd5b505050506040513d601f19601f82011682018060405250810190611be99190612f2e565b610f0c576040516359f75fb760e11b81527f9f2df0fed2c77648de5860a4cc508cd0818c85b8b8a1ab4ceeef8d981c8956a660048201526024016104b5565b600154604051632770a7eb60e21b8152336004820152602481018390525f916001600160a01b031690639dc29fac906044015f604051808303815f87803b158015611c71575f5ffd5b505af1925050508015611c82575060015b611ca85760405163016f84a160e01b8152336004820152602481018390526044016104b5565b611cb0612202565b6005805460ff191660ff929092169190911790555f5b84811015611df3575f5f611ce58888858181106117b3576117b3612e0c565b915091505f611d1c82848b8b88818110611d0157611d01612e0c565b600554604060609092029390930101359160ff16905061227a565b905084611d298282612eb3565b1015611d695760405162461bcd60e51b815260206004820152600f60248201526e5061796f7574206f766572666c6f7760881b60448201526064016104b5565b611d738186612eb3565b94505f6040518060c00160405280428152602001856008811115611d9957611d99612ccc565b81526020018481526020018b8b88818110611db657611db6612e0c565b60406060909102929092018201358352506020820185905260055460ff169101529050611de388826123bf565b505060019092019150611cc69050565b508015611e7a576001546040516340c10f1960e01b8152336004820152602481018390526001600160a01b03909116906340c10f19906044015f604051808303815f87803b158015611e43575f5ffd5b505af1925050508015611e54575060015b611e7a57604051635c0b206f60e01b8152336004820152602481018290526044016104b5565b949350505050565b5f606081611e936020850185612ab2565b60ff1603611f5c576024611ead6040850160208601612ab2565b60ff161115611efe5760405162461bcd60e51b815260206004820152601f60248201527f496e76616c6964206e756d62657220666f72207374726169676874206265740060448201526064016104b5565b6040805160018082528183019092529060208083019080368337019050509050611f2e6040840160208501612ab2565b815f81518110611f4057611f40612e0c565b602002602001019060ff16908160ff16815250505f9150915091565b6001611f6b6020850185612ab2565b60ff1603611f88576001611f7f60016115fb565b91509150915091565b6002611f976020850185612ab2565b60ff1603611fab576001611f7f600d6115fb565b6003611fba6020850185612ab2565b60ff1603611fce576001611f7f60196115fb565b6004611fdd6020850185612ab2565b60ff1603611ff1576002611f7f600161157a565b60056120006020850185612ab2565b60ff1603612014576002611f7f600261157a565b60066120236020850185612ab2565b60ff1603612037576002611f7f600361157a565b60076120466020850185612ab2565b60ff16036120855760035f5b60405190808252806020026020018201604052801561207b578160200160208202803683370190505b5091509150915091565b60086120946020850185612ab2565b60ff16036120a45760045f612052565b60096120b36020850185612ab2565b60ff16036120c35760055f612052565b600a6120d26020850185612ab2565b60ff16036120e25760065f612052565b600b6120f16020850185612ab2565b60ff16036121015760075f612052565b600c6121106020850185612ab2565b60ff16036115345760085f612052565b5f8082600881111561213457612134612ccc565b0361214657610e086127106023612ed9565b600182600881111561215a5761215a612ccc565b0361216c57610e086127106002612ed9565b600282600881111561218057612180612ccc565b0361219257610e086127106002612ed9565b60038260088111156121a6576121a6612ccc565b101580156121c6575060088260088111156121c3576121c3612ccc565b11155b156121d45750612710919050565b8160088111156121e6576121e6612ccc565b604051636a35924760e01b81526004016104b591815260200190565b5f61220f60246001612e66565b60ff164244336003546040516020016122539493929190938452602084019290925260601b6bffffffffffffffffffffffff19166040830152605482015260740190565b604051602081830303815290604052805190602001205f1c6122759190612f4d565b905090565b5f825f0361228957505f611e7a565b69152d02c7e14af68000008311156122e4576040516334460f4160e01b815260206004820152601a60248201527f42657420616d6f756e742065786365656473206d6178696d756d00000000000060448201526064016104b5565b6122ef85858461259f565b156123b5575f6122fe85612120565b9050805f036123445760405162461bcd60e51b815260206004820152601260248201527124b73b30b634b21036bab63a34b83634b2b960711b60448201526064016104b5565b5f6127106123528387612ed9565b61235c9190612f04565b90505f6123698683612eb3565b90506a0e79c4e6a3023e818000008111156123ab576040516310f2885f60e11b8152600481018290526a0e79c4e6a3023e8180000060248201526044016104b5565b9250611e7a915050565b505f949350505050565b8154600a1161255d575f5b82546123d890600190612ec6565b8110156124a857826123eb826001612eb3565b815481106123fb576123fb612e0c565b905f5260205f209060060201835f01828154811061241b5761241b612e0c565b5f91825260209091208254600690920201908155600180830154818301805460ff90921692909160ff19169083600881111561245957612459612ccc565b021790555060028281018054612472928401919061289d565b5060038281015490820155600480830154908201556005918201549101805460ff191660ff9092169190911790556001016123ca565b508154819083906124bb90600190612ec6565b815481106124cb576124cb612e0c565b905f5260205f2090600602015f820151815f01556020820151816001015f6101000a81548160ff0219169083600881111561250857612508612ccc565b0217905550604082015180516125289160028401916020909101906128f7565b50606082015160038201556080820151600482015560a0909101516005909101805460ff191660ff9092169190911790555050565b8154600181810184555f8481526020908190208451600690940201928355830151828201805485949360ff199091169083600881111561250857612508612ccc565b5f602460ff831611156125b357505f612794565b8160ff165f0361260c575f8360088111156125d0576125d0612ccc565b1480156125de575083516001145b80156126055750835f815181106125f7576125f7612e0c565b602002602001015160ff165f145b9050612794565b600383600881111561262057612620612ccc565b0361262e576126058261279b565b600483600881111561264257612642612ccc565b03612664576126508261279b565b15801561260557505060ff81161515612794565b600583600881111561267857612678612ccc565b0361269f57612688600283612f60565b60ff1615801561260557505060ff81161515612794565b60068360088111156126b3576126b3612ccc565b036126d0576126c3600283612f60565b60ff166001149050612794565b60078360088111156126e4576126e4612ccc565b036127065760018260ff1610158015612605575050601260ff82161115612794565b600883600881111561271a5761271a612ccc565b0361273c5760138260ff1610158015612605575050602460ff82161115612794565b5f5b84518160ff16101561278f578260ff16858260ff168151811061276357612763612e0c565b602002602001015160ff160361277d576001915050612794565b8061278781612e48565b91505061273e565b505f90505b9392505050565b5f8160ff165f036127ad57505f919050565b60408051610240810182526001815260036020808301919091526005928201929092526007606082015260096080820152600c60a0820152600e60c0820152601060e082015260126101008201526013610120820152601561014082015260176101608201526019610180820152601b6101a0820152601e6101c08201526101e0810191909152602261020082015260246102208201525f5b60128160ff161015612894578360ff16828260ff166012811061286b5761286b612e0c565b602002015160ff1603612882575060019392505050565b8061288c81612e48565b915050612846565b505f9392505050565b828054828255905f5260205f2090601f016020900481019282156128e7575f5260205f2091601f016020900482015b828111156128e75782548255916001019190600101906128cc565b506128f392915061298f565b5090565b828054828255905f5260205f2090601f016020900481019282156128e7579160200282015f5b8382111561295a57835183826101000a81548160ff021916908360ff16021790555092602001926001016020815f0104928301926001030261291d565b80156129865782816101000a81549060ff02191690556001016020815f0104928301926001030261295a565b50506128f39291505b5b808211156128f3575f8155600101612990565b80356001600160a01b0381168114610b2f575f5ffd5b5f5f604083850312156129ca575f5ffd5b6129d3836129a3565b946020939093013593505050565b5f81518084528060208401602086015e5f602082860101526020601f19601f83011685010191505092915050565b5f8151808452602084019350602083015f5b82811015612a4257815160ff16865260209586019590910190600101612a21565b5093949350505050565b87815260e060208201525f612a6460e08301896129e1565b8281036040840152612a768189612a0f565b91505085606083015284608083015260ff841660a083015282151560c083015298975050505050505050565b803560ff81168114610b2f575f5ffd5b5f60208284031215612ac2575f5ffd5b61279482612aa2565b602081525f6127946020830184612a0f565b5f8151808452602084019350602083015f5b82811015612a425781511515865260209586019590910190600101612aef565b5f8151808452602084019350602083015f5b82811015612a42578151865260209586019590910190600101612b21565b608081525f612b516080830187612a0f565b828103602084015280865180835260208301915060208160051b840101602089015f5b83811015612ba657601f19868403018552612b908383516129e1565b6020958601959093509190910190600101612b74565b50508581036040870152612bba8189612add565b93505050508281036060840152612bd18185612b0f565b979650505050505050565b5f5f60408385031215612bed575f5ffd5b823560098110612bfb575f5ffd5b9150612c0960208401612aa2565b90509250929050565b5f5f60208385031215612c23575f5ffd5b823567ffffffffffffffff811115612c39575f5ffd5b8301601f81018513612c49575f5ffd5b803567ffffffffffffffff811115612c5f575f5ffd5b856020606083028401011115612c73575f5ffd5b6020919091019590945092505050565b5f60208284031215612c93575f5ffd5b612794826129a3565b5f5f5f60608486031215612cae575f5ffd5b612cb7846129a3565b95602085013595506040909401359392505050565b634e487b7160e01b5f52602160045260245ffd5b5f604082016040835280855180835260608501915060608160051b8601019250602087015f5b82811015612dd457605f19878603018452815160c0860181518752602082015160098110612d4257634e487b7160e01b5f52602160045260245ffd5b80602089015250604082015160c0604089015281815180845260e08a0191506020830193505f92505b80831015612d915760ff8451168252602082019150602084019350600183019250612d6b565b50606084015160608a0152608084015160808a015260a08401519350612dbc60a08a018560ff169052565b97505050602094850194929092019150600101612d06565b505050506020929092019290925292915050565b606081525f612dfa60608301866129e1565b93151560208301525060400152919050565b634e487b7160e01b5f52603260045260245ffd5b634e487b7160e01b5f52604160045260245ffd5b634e487b7160e01b5f52601160045260245ffd5b5f60ff821660ff8103612e5d57612e5d612e34565b60010192915050565b60ff8181168382160190811115610e0857610e08612e34565b60ff81811683821602908116908181146115f4576115f4612e34565b5f60018201612eac57612eac612e34565b5060010190565b80820180821115610e0857610e08612e34565b81810381811115610e0857610e08612e34565b8082028115828204841417610e0857610e08612e34565b634e487b7160e01b5f52601260045260245ffd5b5f82612f1257612f12612ef0565b500490565b5f60208284031215612f27575f5ffd5b5051919050565b5f60208284031215612f3e575f5ffd5b81518015158114612794575f5ffd5b5f82612f5b57612f5b612ef0565b500690565b5f60ff831680612f7257612f72612ef0565b8060ff8416069150509291505056fea26469706673582212205a414c32eb2784ff43ca3bc380506610b4c0ed18a655e152cef129d91e8158c164736f6c634300081c0033",
    "linkReferences": {}
  },
  "methodIdentifiers": {
    "BLACK_BET()": "19469f1b",
    "BURNER_ROLE()": "282c51f3",
    "COLUMN_BET_FIRST()": "b8a5e438",
    "COLUMN_BET_SECOND()": "2257b057",
    "COLUMN_BET_THIRD()": "ddebc952",
    "DENOMINATOR()": "918f8674",
    "DOZEN_BET_FIRST()": "36b39a60",
    "DOZEN_BET_SECOND()": "b34daef4",
    "DOZEN_BET_THIRD()": "d6b6cd59",
    "EVEN_BET()": "e60271cf",
    "HIGH_BET()": "7d3d31ad",
    "LOW_BET()": "94b9b507",
    "MAX_BET_AMOUNT()": "309167f5",
    "MAX_HISTORY_SIZE()": "c1066251",
    "MAX_NUMBER()": "fea9b572",
    "MAX_POSSIBLE_PAYOUT()": "4689b441",
    "MAX_TOTAL_BET_AMOUNT()": "2d2cd034",
    "MINTER_ROLE()": "d5391393",
    "ODD_BET()": "94bae385",
    "RED_BET()": "a3982227",
    "STRAIGHT_BET()": "432aeb8f",
    "gamaToken()": "d56ec8c9",
    "getAllBetTypes()": "79023170",
    "getBetDetails(address,uint256)": "2ff21494",
    "getBetTypeInfo(uint8)": "fa198c4f",
    "getPossibleWinningNumbers(uint8)": "5a0db4d2",
    "getUserBetHistory(address,uint256,uint256)": "e3286e55",
    "getValidBetNumbers(uint8,uint8)": "9793e1d6",
    "placeBet((uint8,uint8,uint256)[])": "c1a5fe51",
    "totalGamesPlayed()": "5c492129",
    "totalPayoutAmount()": "e7efcfc2",
    "userData(address)": "c8910913",
    "winningNumber()": "4664611e"
  },
  "id": 21
}