{"abi":[{"type":"constructor","inputs":[{"name":"_gamaTokenAddress","type":"address","internalType":"address"}],"stateMutability":"nonpayable"},{"type":"function","name":"BURNER_ROLE","inputs":[],"outputs":[{"name":"","type":"bytes32","internalType":"bytes32"}],"stateMutability":"view"},{"type":"function","name":"DENOMINATOR","inputs":[],"outputs":[{"name":"","type":"uint256","internalType":"uint256"}],"stateMutability":"view"},{"type":"function","name":"MAX_BET_AMOUNT","inputs":[],"outputs":[{"name":"","type":"uint256","internalType":"uint256"}],"stateMutability":"view"},{"type":"function","name":"MAX_HISTORY_SIZE","inputs":[],"outputs":[{"name":"","type":"uint256","internalType":"uint256"}],"stateMutability":"view"},{"type":"function","name":"MAX_NUMBER","inputs":[],"outputs":[{"name":"","type":"uint8","internalType":"uint8"}],"stateMutability":"view"},{"type":"function","name":"MAX_POSSIBLE_PAYOUT","inputs":[],"outputs":[{"name":"","type":"uint256","internalType":"uint256"}],"stateMutability":"view"},{"type":"function","name":"MAX_TOTAL_BET_AMOUNT","inputs":[],"outputs":[{"name":"","type":"uint256","internalType":"uint256"}],"stateMutability":"view"},{"type":"function","name":"MINTER_ROLE","inputs":[],"outputs":[{"name":"","type":"bytes32","internalType":"bytes32"}],"stateMutability":"view"},{"type":"function","name":"gamaToken","inputs":[],"outputs":[{"name":"","type":"address","internalType":"contract IERC20"}],"stateMutability":"view"},{"type":"function","name":"getBettingLimits","inputs":[],"outputs":[{"name":"maxBetsPerSpin","type":"uint256","internalType":"uint256"},{"name":"maxBetAmount","type":"uint256","internalType":"uint256"},{"name":"maxTotalBetAmount","type":"uint256","internalType":"uint256"},{"name":"maxPossiblePayout","type":"uint256","internalType":"uint256"}],"stateMutability":"pure"},{"type":"function","name":"getContractStats","inputs":[],"outputs":[{"name":"totalGames","type":"uint256","internalType":"uint256"},{"name":"totalPayout","type":"uint256","internalType":"uint256"},{"name":"currentBalance","type":"uint256","internalType":"uint256"}],"stateMutability":"view"},{"type":"function","name":"getUserGameData","inputs":[{"name":"player","type":"address","internalType":"address"}],"outputs":[{"name":"","type":"tuple[]","internalType":"struct Bet[]","components":[{"name":"timestamp","type":"uint256","internalType":"uint256"},{"name":"betType","type":"uint8","internalType":"enum BetType"},{"name":"numbers","type":"uint8[]","internalType":"uint8[]"},{"name":"amount","type":"uint256","internalType":"uint256"},{"name":"payout","type":"uint256","internalType":"uint256"},{"name":"winningNumber","type":"uint8","internalType":"uint8"}]}],"stateMutability":"view"},{"type":"function","name":"getValidBetNumbers","inputs":[{"name":"betType","type":"uint8","internalType":"enum BetType"},{"name":"start","type":"uint8","internalType":"uint8"}],"outputs":[{"name":"","type":"uint8[]","internalType":"uint8[]"}],"stateMutability":"pure"},{"type":"function","name":"placeBet","inputs":[{"name":"bets","type":"tuple[]","internalType":"struct BetRequest[]","components":[{"name":"numbers","type":"uint8[]","internalType":"uint8[]"},{"name":"amount","type":"uint256","internalType":"uint256"},{"name":"betType","type":"uint8","internalType":"enum BetType"}]}],"outputs":[],"stateMutability":"nonpayable"},{"type":"function","name":"totalGamesPlayed","inputs":[],"outputs":[{"name":"","type":"uint256","internalType":"uint256"}],"stateMutability":"view"},{"type":"function","name":"totalPayoutAmount","inputs":[],"outputs":[{"name":"","type":"uint256","internalType":"uint256"}],"stateMutability":"view"},{"type":"function","name":"userData","inputs":[{"name":"","type":"address","internalType":"address"}],"outputs":[{"name":"maxHistorySize","type":"uint256","internalType":"uint256"}],"stateMutability":"view"},{"type":"function","name":"winningNumber","inputs":[],"outputs":[{"name":"","type":"uint8","internalType":"uint8"}],"stateMutability":"view"},{"type":"error","name":"BurnFailed","inputs":[{"name":"account","type":"address","internalType":"address"},{"name":"amount","type":"uint256","internalType":"uint256"}]},{"type":"error","name":"InsufficientAllowance","inputs":[{"name":"required","type":"uint256","internalType":"uint256"},{"name":"allowed","type":"uint256","internalType":"uint256"}]},{"type":"error","name":"InsufficientContractBalance","inputs":[{"name":"required","type":"uint256","internalType":"uint256"},{"name":"available","type":"uint256","internalType":"uint256"}]},{"type":"error","name":"InsufficientUserBalance","inputs":[{"name":"required","type":"uint256","internalType":"uint256"},{"name":"available","type":"uint256","internalType":"uint256"}]},{"type":"error","name":"InvalidBetParameters","inputs":[{"name":"reason","type":"string","internalType":"string"}]},{"type":"error","name":"InvalidBetType","inputs":[{"name":"betType","type":"uint256","internalType":"uint256"}]},{"type":"error","name":"MaxPayoutExceeded","inputs":[{"name":"potentialPayout","type":"uint256","internalType":"uint256"},{"name":"maxAllowed","type":"uint256","internalType":"uint256"}]},{"type":"error","name":"MintFailed","inputs":[{"name":"account","type":"address","internalType":"address"},{"name":"amount","type":"uint256","internalType":"uint256"}]},{"type":"error","name":"MissingContractRole","inputs":[{"name":"role","type":"bytes32","internalType":"bytes32"}]},{"type":"error","name":"ReentrancyGuardReentrantCall","inputs":[]},{"type":"error","name":"TransferFailed","inputs":[{"name":"from","type":"address","internalType":"address"},{"name":"to","type":"address","internalType":"address"},{"name":"amount","type":"uint256","internalType":"uint256"}]}],"bytecode":{"object":"0x6080604052348015600f57600080fd5b5060405161286f38038061286f833981016040819052602c9160ae565b60016000556001600160a01b038116608a5760405162461bcd60e51b815260206004820152601c60248201527f546f6b656e20616464726573732063616e6e6f74206265207a65726f00000000604482015260640160405180910390fd5b600180546001600160a01b0319166001600160a01b039290921691909117905560dc565b60006020828403121560bf57600080fd5b81516001600160a01b038116811460d557600080fd5b9392505050565b612784806100eb6000396000f3fe608060405234801561001057600080fd5b50600436106101165760003560e01c80639793e1d6116100a2578063d539139311610071578063d53913931461027d578063d56ec8c914610292578063dfe6b5d6146102bd578063e7efcfc2146102e0578063fea9b572146102e957600080fd5b80639793e1d61461021d578063b283f1191461023d578063c106625114610252578063c89109131461025a57600080fd5b80634689b441116100e95780634689b441146101965780634efa3b54146101a85780635c492129146101c857806368afea74146101d1578063918f86741461021457600080fd5b8063282c51f31461011b5780632d2cd03414610155578063309167f5146101665780634664611e14610177575b600080fd5b6101427f3c11d16cbaffd01df69ce1c404f6340ee057498f5f00246190ea54220576a84881565b6040519081526020015b60405180910390f35b6101426969e10de76676d080000081565b61014269152d02c7e14af680000081565b6005546101849060ff1681565b60405160ff909116815260200161014c565b6101426a0ee3a5f48a68b55200000081565b6101bb6101b63660046122df565b6102f1565b60405161014c919061231e565b61014260035481565b60408051600f815269152d02c7e14af680000060208201526969e10de76676d0800000918101919091526a0ee3a5f48a68b552000000606082015260800161014c565b61014261271081565b61023061022b366004612437565b610446565b60405161014c9190612474565b61025061024b3660046124ba565b6105c0565b005b610142600a81565b6101426102683660046122df565b60026020526000908152604090206001015481565b61014260008051602061272f83398151915281565b6001546102a5906001600160a01b031681565b6040516001600160a01b03909116815260200161014c565b6102c561151c565b6040805193845260208401929092529082015260600161014c565b61014260045481565b610184602481565b6001600160a01b0381166000908152600260209081526040808320805482518185028101850190935280835260609492939192909184015b8282101561043b57838290600052602060002090600602016040518060c0016040529081600082015481526020016001820160009054906101000a900460ff16600881111561037a5761037a612308565b600881111561038b5761038b612308565b8152602001600282018054806020026020016040519081016040528092919081815260200182805480156103fc57602002820191906000526020600020906000905b825461010083900a900460ff168152602060019283018181049485019490930390920291018084116103cd5790505b505050918352505060038201546020808301919091526004830154604083015260059092015460ff166060909101529082526001929092019101610329565b505050509050919050565b6060600283600881111561045c5761045c612308565b036104dc578160ff166001148061047657508160ff166002145b8061048457508160ff166003145b6104cc5760405162461bcd60e51b8152602060048201526014602482015273125b9d985b1a590818dbdb1d5b5b881cdd185c9d60621b60448201526064015b60405180910390fd5b6104d5826115a3565b90506105ba565b60018360088111156104f0576104f0612308565b03610563578160ff166001148061050a57508160ff16600d145b8061051857508160ff166019145b61055a5760405162461bcd60e51b8152602060048201526013602482015272125b9d985b1a5908191bde995b881cdd185c9d606a1b60448201526064016104c3565b6104d582611626565b60405162461bcd60e51b815260206004820152602660248201527f496e76616c696420626574207479706520666f72206e756d6265722067656e656044820152653930ba34b7b760d11b60648201526084016104c3565b92915050565b6105c8611697565b600081900361060d576040516334460f4160e01b815260206004820152601060248201526f139bc818995d1cc81c1c9bdd9a59195960821b60448201526064016104c3565b600f81111561064f576040516334460f4160e01b815260206004820152600d60248201526c546f6f206d616e79206265747360981b60448201526064016104c3565b3360009081526002602052604081209080805b848110156109dd5785858281811061067c5761067c612531565b905060200281019061068e9190612547565b602001356000036106d7576040516334460f4160e01b8152602060048201526012602482015271125b9d985b1a590818995d08185b5bdd5b9d60721b60448201526064016104c3565b69152d02c7e14af68000008686838181106106f4576106f4612531565b90506020028101906107069190612547565b602001351115610759576040516334460f4160e01b815260206004820152601b60248201527f53696e676c652062657420616d6f756e7420746f6f206c61726765000000000060448201526064016104c3565b6107f886868381811061076e5761076e612531565b90506020028101906107809190612547565b61078a9080612567565b808060200260200160405190810160405280939291908181526020018383602002808284376000920191909152508a92508991508590508181106107d0576107d0612531565b90506020028101906107e29190612547565b6107f39060608101906040016125b8565b6116c1565b610845576040516334460f4160e01b815260206004820152601960248201527f496e76616c69642062657420636f6e66696775726174696f6e0000000000000060448201526064016104c3565b60006108ac87878481811061085c5761085c612531565b905060200281019061086e9190612547565b6020013588888581811061088457610884612531565b90506020028101906108969190612547565b6108a79060608101906040016125b8565b61188a565b9050826108b982826125e9565b10156108f95760405162461bcd60e51b815260206004820152600f60248201526e5061796f7574206f766572666c6f7760881b60448201526064016104c3565b61090381846125e9565b92506a0ee3a5f48a68b552000000831115610945576040516310f2885f60e11b8152600481018490526a0ee3a5f48a68b55200000060248201526044016104c3565b86868381811061095757610957612531565b90506020028101906109699190612547565b6109779060200135856125e9565b93506969e10de76676d08000008411156109d4576040516334460f4160e01b815260206004820152601a60248201527f546f74616c2062657420616d6f756e7420746f6f206c6172676500000000000060448201526064016104c3565b50600101610662565b506001546040516370a0823160e01b815233600482015283916001600160a01b0316906370a0823190602401602060405180830381865afa158015610a26573d6000803e3d6000fd5b505050506040513d601f19601f82011682018060405250810190610a4a91906125fc565b1015610ade576001546040516370a0823160e01b815233600482015283916001600160a01b0316906370a0823190602401602060405180830381865afa158015610a98573d6000803e3d6000fd5b505050506040513d601f19601f82011682018060405250810190610abc91906125fc565b6040516302fa826960e51b8152600481019290925260248201526044016104c3565b600154604051636eb1769f60e11b815233600482015230602482015283916001600160a01b03169063dd62ed3e90604401602060405180830381865afa158015610b2c573d6000803e3d6000fd5b505050506040513d601f19601f82011682018060405250810190610b5091906125fc565b1015610bea57600154604051636eb1769f60e11b815233600482015230602482015283916001600160a01b03169063dd62ed3e90604401602060405180830381865afa158015610ba4573d6000803e3d6000fd5b505050506040513d601f19601f82011682018060405250810190610bc891906125fc565b60405163054365bb60e31b8152600481019290925260248201526044016104c3565b6001546040516370a0823160e01b8152306004820152829184916001600160a01b03909116906370a0823190602401602060405180830381865afa158015610c36573d6000803e3d6000fd5b505050506040513d601f19601f82011682018060405250810190610c5a91906125fc565b610c6491906125e9565b1015610d06576001546040516370a0823160e01b8152306004820152829184916001600160a01b03909116906370a0823190602401602060405180830381865afa158015610cb6573d6000803e3d6000fd5b505050506040513d601f19601f82011682018060405250810190610cda91906125fc565b610ce491906125e9565b60405163b7ddd88b60e01b8152600481019290925260248201526044016104c3565b600154604051632474521560e21b81527f3c11d16cbaffd01df69ce1c404f6340ee057498f5f00246190ea54220576a84860048201523060248201526001600160a01b03909116906391d1485490604401602060405180830381865afa158015610d74573d6000803e3d6000fd5b505050506040513d601f19601f82011682018060405250810190610d989190612615565b610dd7576040516359f75fb760e11b81527f3c11d16cbaffd01df69ce1c404f6340ee057498f5f00246190ea54220576a84860048201526024016104c3565b600154604051632474521560e21b815260008051602061272f83398151915260048201523060248201526001600160a01b03909116906391d1485490604401602060405180830381865afa158015610e33573d6000803e3d6000fd5b505050506040513d601f19601f82011682018060405250810190610e579190612615565b610e84576040516359f75fb760e11b815260008051602061272f83398151915260048201526024016104c3565b600154604051632770a7eb60e21b8152336004820152602481018490526001600160a01b0390911690639dc29fac90604401600060405180830381600087803b158015610ed057600080fd5b505af1925050508015610ee1575060015b610f075760405163016f84a160e01b8152336004820152602481018390526044016104c3565b610f0f6119ac565b6005805460ff191660ff929092169190911790556000805b858110156113a6576000611002888884818110610f4657610f46612531565b9050602002810190610f589190612547565b610f629080612567565b808060200260200160405190810160405280939291908181526020018383602002808284376000920191909152508c92508b9150869050818110610fa857610fa8612531565b9050602002810190610fba9190612547565b610fcb9060608101906040016125b8565b8a8a86818110610fdd57610fdd612531565b9050602002810190610fef9190612547565b600554602091909101359060ff16611a26565b90508261100f82826125e9565b101561104f5760405162461bcd60e51b815260206004820152600f60248201526e5061796f7574206f766572666c6f7760881b60448201526064016104c3565b61105981846125e9565b925060006040518060c001604052804281526020018a8a8681811061108057611080612531565b90506020028101906110929190612547565b6110a39060608101906040016125b8565b60088111156110b4576110b4612308565b81526020018a8a868181106110cb576110cb612531565b90506020028101906110dd9190612547565b6110e79080612567565b808060200260200160405190810160405280939291908181526020018383602002808284376000920191909152505050908252506020018a8a8681811061113057611130612531565b90506020028101906111429190612547565b6020908101358252810184905260055460ff166040909101528754909150600a116113075760005b875461117890600190612637565b81101561124c578761118b8260016125e9565b8154811061119b5761119b612531565b90600052602060002090600602018860000182815481106111be576111be612531565b600091825260209091208254600690920201908155600180830154818301805460ff90921692909160ff1916908360088111156111fd576111fd612308565b02179055506002828101805461121692840191906121cf565b5060038281015490820155600480830154908201556005918201549101805460ff191660ff90921691909117905560010161116a565b5086548190889061125f90600190612637565b8154811061126f5761126f612531565b90600052602060002090600602016000820151816000015560208201518160010160006101000a81548160ff021916908360088111156112b1576112b1612308565b0217905550604082015180516112d191600284019160209091019061222d565b50606082015160038201556080820151600482015560a0909101516005909101805460ff191660ff90921691909117905561139c565b86546001818101895560008981526020908190208451600690940201928355830151828201805485949360ff199091169083600881111561134a5761134a612308565b02179055506040820151805161136a91600284019160209091019061222d565b50606082015160038201556080820151600482015560a0909101516005909101805460ff191660ff9092169190911790555b5050600101610f27565b5080156114dd57600154604051632474521560e21b815260008051602061272f83398151915260048201523060248201526001600160a01b03909116906391d1485490604401602060405180830381865afa158015611409573d6000803e3d6000fd5b505050506040513d601f19601f8201168201806040525081019061142d9190612615565b61145a576040516359f75fb760e11b815260008051602061272f83398151915260048201526024016104c3565b6001546040516340c10f1960e01b8152336004820152602481018390526001600160a01b03909116906340c10f1990604401600060405180830381600087803b1580156114a657600080fd5b505af19250505080156114b7575060015b6114dd57604051635c0b206f60e01b8152336004820152602481018290526044016104c3565b600380549060006114ed8361264a565b9190505550806004600082825461150491906125e9565b909155505060016000555061151892505050565b5050565b600354600480546001546040516370a0823160e01b815230938101939093526000938493849391926001600160a01b0316906370a0823190602401602060405180830381865afa158015611574573d6000803e3d6000fd5b505050506040513d601f19601f8201168201806040525081019061159891906125fc565b925092509250909192565b60408051600c8082526101a0820190925260609160009190602082016101808036833701905050905060005b600c8160ff16101561161f576115e6816003612663565b6115f0908561267f565b828260ff168151811061160557611605612531565b60ff909216602092830291909101909101526001016115cf565b5092915050565b60408051600c8082526101a0820190925260609160009190602082016101808036833701905050905060005b600c8160ff16101561161f57611668818561267f565b828260ff168151811061167d5761167d612531565b60ff90921660209283029190910190910152600101611652565b6002600054036116ba57604051633ee5aeb560e01b815260040160405180910390fd5b6002600055565b6000808260088111156116d6576116d6612308565b14806116f3575060018260088111156116f1576116f1612308565b145b8061170f5750600282600881111561170d5761170d612308565b145b1561176c5760005b83518160ff16101561176a57602460ff16848260ff168151811061173d5761173d612531565b602002602001015160ff1611156117585760009150506105ba565b8061176281612698565b915050611717565b505b600082600881111561178057611780612308565b03611790575081516001146105ba565b60018260088111156117a4576117a4612308565b036117b2576104d583611b64565b60028260088111156117c6576117c6612308565b036117d4576104d583611c29565b60038260088111156117e8576117e8612308565b14806118055750600482600881111561180357611803612308565b145b806118215750600582600881111561181f5761181f612308565b145b8061183d5750600682600881111561183b5761183b612308565b145b806118595750600782600881111561185757611857612308565b145b806118755750600882600881111561187357611873612308565b145b15611882575060016105ba565b5060006105ba565b60008260000361189c575060006105ba565b69152d02c7e14af68000008311156118f7576040516334460f4160e01b815260206004820152601a60248201527f42657420616d6f756e742065786365656473206d6178696d756d00000000000060448201526064016104c3565b600061190283611de1565b9050806000036119495760405162461bcd60e51b815260206004820152601260248201527124b73b30b634b21036bab63a34b83634b2b960711b60448201526064016104c3565b600061271061195883876126b7565b61196291906126e4565b90506a0ee3a5f48a68b5520000008111156119a4576040516310f2885f60e11b8152600481018290526a0ee3a5f48a68b55200000060248201526044016104c3565b949350505050565b60006119ba6024600161267f565b60ff164244336003546040516020016119fe9493929190938452602084019290925260601b6bffffffffffffffffffffffff19166040830152605482015260740190565b6040516020818303038152906040528051906020012060001c611a2191906126f8565b905090565b600082600003611a38575060006119a4565b69152d02c7e14af6800000831115611a93576040516334460f4160e01b815260206004820152601a60248201527f42657420616d6f756e742065786365656473206d6178696d756d00000000000060448201526064016104c3565b611a9e858584611ec4565b15611b59576000611aae85611de1565b905080600003611af55760405162461bcd60e51b815260206004820152601260248201527124b73b30b634b21036bab63a34b83634b2b960711b60448201526064016104c3565b6000612710611b0483876126b7565b611b0e91906126e4565b90506a0ee3a5f48a68b552000000811115611b50576040516310f2885f60e11b8152600481018290526a0ee3a5f48a68b55200000060248201526044016104c3565b91506119a49050565b506000949350505050565b60008151600c14611b7757506000919050565b600082600081518110611b8c57611b8c612531565b602002602001015190508060ff16600114158015611bae57508060ff16600d14155b8015611bbe57508060ff16601914155b15611bcc5750600092915050565b60005b600c8160ff161015611c1f57611be5818361267f565b60ff16848260ff1681518110611bfd57611bfd612531565b602002602001015160ff1614611c17575060009392505050565b600101611bcf565b5060019392505050565b60008151600c14611c3c57506000919050565b6040805160038082526080820190925260009160208201606080368337019050509050600381600081518110611c7457611c74612531565b602002602001019060ff16908160ff1681525050600281600181518110611c9d57611c9d612531565b602002602001019060ff16908160ff1681525050600181600281518110611cc657611cc6612531565b602002602001019060ff16908160ff168152505060008084600081518110611cf057611cf0612531565b6020026020010151905060005b83518160ff161015611d4d57838160ff1681518110611d1e57611d1e612531565b602002602001015160ff168260ff1603611d3b5760019250611d4d565b80611d4581612698565b915050611cfd565b5081611d5e57506000949350505050565b60005b600c8160ff161015611dd5576000611d7a826003612663565b611d84908461267f565b90508060ff16878360ff1681518110611d9f57611d9f612531565b602002602001015160ff16141580611dba5750602460ff8216115b15611dcc575060009695505050505050565b50600101611d61565b50600195945050505050565b600080826008811115611df657611df6612308565b03611e08576105ba61271060236126b7565b6001826008811115611e1c57611e1c612308565b03611e2e576105ba61271060026126b7565b6002826008811115611e4257611e42612308565b03611e54576105ba61271060026126b7565b6003826008811115611e6857611e68612308565b10158015611e8857506008826008811115611e8557611e85612308565b11155b15611e965750612710919050565b816008811115611ea857611ea8612308565b604051636a35924760e01b81526004016104c391815260200190565b6000602460ff83161115611eda575060006120c1565b8160ff16600003611f37576000836008811115611ef957611ef9612308565b148015611f07575083516001145b8015611f30575083600081518110611f2157611f21612531565b602002602001015160ff166000145b90506120c1565b6003836008811115611f4b57611f4b612308565b03611f5957611f30826120c8565b6004836008811115611f6d57611f6d612308565b03611f8f57611f7b826120c8565b158015611f3057505060ff811615156120c1565b6005836008811115611fa357611fa3612308565b03611fca57611fb360028361270c565b60ff16158015611f3057505060ff811615156120c1565b6006836008811115611fde57611fde612308565b03611ffb57611fee60028361270c565b60ff1660011490506120c1565b600783600881111561200f5761200f612308565b036120315760018260ff1610158015611f30575050601260ff821611156120c1565b600883600881111561204557612045612308565b036120675760138260ff1610158015611f30575050602460ff821611156120c1565b60005b84518160ff1610156120bb578260ff16858260ff168151811061208f5761208f612531565b602002602001015160ff16036120a95760019150506120c1565b806120b381612698565b91505061206a565b50600090505b9392505050565b60008160ff166000036120dd57506000919050565b60408051610240810182526001815260036020808301919091526005928201929092526007606082015260096080820152600c60a0820152600e60c0820152601060e082015260126101008201526013610120820152601561014082015260176101608201526019610180820152601b6101a0820152601e6101c08201526101e08101919091526022610200820152602461022082015260005b60128160ff1610156121c5578360ff16828260ff166012811061219c5761219c612531565b602002015160ff16036121b3575060019392505050565b806121bd81612698565b915050612177565b5060009392505050565b82805482825590600052602060002090601f0160209004810192821561221d57600052602060002091601f016020900482015b8281111561221d578254825591600101919060010190612202565b506122299291506122ca565b5090565b82805482825590600052602060002090601f0160209004810192821561221d5791602002820160005b8382111561229457835183826101000a81548160ff021916908360ff1602179055509260200192600101602081600001049283019260010302612256565b80156122c15782816101000a81549060ff0219169055600101602081600001049283019260010302612294565b50506122299291505b5b8082111561222957600081556001016122cb565b6000602082840312156122f157600080fd5b81356001600160a01b03811681146120c157600080fd5b634e487b7160e01b600052602160045260246000fd5b6000602082016020835280845180835260408501915060408160051b86010192506020860160005b8281101561241757603f19878603018452815160c086018151875260208201516009811061238457634e487b7160e01b600052602160045260246000fd5b80602089015250604082015160c0604089015281815180845260e08a019150602083019350600092505b808310156123d45760ff84511682526020820191506020840193506001830192506123ae565b50606084015160608a0152608084015160808a015260a084015193506123ff60a08a018560ff169052565b97505050602094850194929092019150600101612346565b50929695505050505050565b80356009811061243257600080fd5b919050565b6000806040838503121561244a57600080fd5b61245383612423565b9150602083013560ff8116811461246957600080fd5b809150509250929050565b602080825282518282018190526000918401906040840190835b818110156124af57835160ff1683526020938401939092019160010161248e565b509095945050505050565b600080602083850312156124cd57600080fd5b823567ffffffffffffffff8111156124e457600080fd5b8301601f810185136124f557600080fd5b803567ffffffffffffffff81111561250c57600080fd5b8560208260051b840101111561252157600080fd5b6020919091019590945092505050565b634e487b7160e01b600052603260045260246000fd5b60008235605e1983360301811261255d57600080fd5b9190910192915050565b6000808335601e1984360301811261257e57600080fd5b83018035915067ffffffffffffffff82111561259957600080fd5b6020019150600581901b36038213156125b157600080fd5b9250929050565b6000602082840312156125ca57600080fd5b6120c182612423565b634e487b7160e01b600052601160045260246000fd5b808201808211156105ba576105ba6125d3565b60006020828403121561260e57600080fd5b5051919050565b60006020828403121561262757600080fd5b815180151581146120c157600080fd5b818103818111156105ba576105ba6125d3565b60006001820161265c5761265c6125d3565b5060010190565b60ff818116838216029081169081811461161f5761161f6125d3565b60ff81811683821601908111156105ba576105ba6125d3565b600060ff821660ff81036126ae576126ae6125d3565b60010192915050565b80820281158282048414176105ba576105ba6125d3565b634e487b7160e01b600052601260045260246000fd5b6000826126f3576126f36126ce565b500490565b600082612707576127076126ce565b500690565b600060ff83168061271f5761271f6126ce565b8060ff8416069150509291505056fe9f2df0fed2c77648de5860a4cc508cd0818c85b8b8a1ab4ceeef8d981c8956a6a26469706673582212207a4275a9884154f55f4c6f54b0e9de76d359d625e9c727b379a62eb3462b05f664736f6c634300081a0033","linkReferences":{}},"methodIdentifiers":{"BURNER_ROLE()":"282c51f3","DENOMINATOR()":"918f8674","MAX_BET_AMOUNT()":"309167f5","MAX_HISTORY_SIZE()":"c1066251","MAX_NUMBER()":"fea9b572","MAX_POSSIBLE_PAYOUT()":"4689b441","MAX_TOTAL_BET_AMOUNT()":"2d2cd034","MINTER_ROLE()":"d5391393","gamaToken()":"d56ec8c9","getBettingLimits()":"68afea74","getContractStats()":"dfe6b5d6","getUserGameData(address)":"4efa3b54","getValidBetNumbers(uint8,uint8)":"9793e1d6","placeBet((uint8[],uint256,uint8)[])":"b283f119","totalGamesPlayed()":"5c492129","totalPayoutAmount()":"e7efcfc2","userData(address)":"c8910913","winningNumber()":"4664611e"},"id":39}