{
  "abi": [
    {
      "type": "constructor",
      "inputs": [
        {
          "name": "_gamaTokenAddress",
          "type": "address",
          "internalType": "address"
        }
      ],
      "stateMutability": "nonpayable"
    },
    {
      "type": "function",
      "name": "BLACK_BET",
      "inputs": [],
      "outputs": [
        {
          "name": "",
          "type": "uint8",
          "internalType": "uint8"
        }
      ],
      "stateMutability": "view"
    },
    {
      "type": "function",
      "name": "BURNER_ROLE",
      "inputs": [],
      "outputs": [
        {
          "name": "",
          "type": "bytes32",
          "internalType": "bytes32"
        }
      ],
      "stateMutability": "view"
    },
    {
      "type": "function",
      "name": "COLUMN_BET_FIRST",
      "inputs": [],
      "outputs": [
        {
          "name": "",
          "type": "uint8",
          "internalType": "uint8"
        }
      ],
      "stateMutability": "view"
    },
    {
      "type": "function",
      "name": "COLUMN_BET_SECOND",
      "inputs": [],
      "outputs": [
        {
          "name": "",
          "type": "uint8",
          "internalType": "uint8"
        }
      ],
      "stateMutability": "view"
    },
    {
      "type": "function",
      "name": "COLUMN_BET_THIRD",
      "inputs": [],
      "outputs": [
        {
          "name": "",
          "type": "uint8",
          "internalType": "uint8"
        }
      ],
      "stateMutability": "view"
    },
    {
      "type": "function",
      "name": "DENOMINATOR",
      "inputs": [],
      "outputs": [
        {
          "name": "",
          "type": "uint256",
          "internalType": "uint256"
        }
      ],
      "stateMutability": "view"
    },
    {
      "type": "function",
      "name": "DOZEN_BET_FIRST",
      "inputs": [],
      "outputs": [
        {
          "name": "",
          "type": "uint8",
          "internalType": "uint8"
        }
      ],
      "stateMutability": "view"
    },
    {
      "type": "function",
      "name": "DOZEN_BET_SECOND",
      "inputs": [],
      "outputs": [
        {
          "name": "",
          "type": "uint8",
          "internalType": "uint8"
        }
      ],
      "stateMutability": "view"
    },
    {
      "type": "function",
      "name": "DOZEN_BET_THIRD",
      "inputs": [],
      "outputs": [
        {
          "name": "",
          "type": "uint8",
          "internalType": "uint8"
        }
      ],
      "stateMutability": "view"
    },
    {
      "type": "function",
      "name": "EVEN_BET",
      "inputs": [],
      "outputs": [
        {
          "name": "",
          "type": "uint8",
          "internalType": "uint8"
        }
      ],
      "stateMutability": "view"
    },
    {
      "type": "function",
      "name": "HIGH_BET",
      "inputs": [],
      "outputs": [
        {
          "name": "",
          "type": "uint8",
          "internalType": "uint8"
        }
      ],
      "stateMutability": "view"
    },
    {
      "type": "function",
      "name": "LOW_BET",
      "inputs": [],
      "outputs": [
        {
          "name": "",
          "type": "uint8",
          "internalType": "uint8"
        }
      ],
      "stateMutability": "view"
    },
    {
      "type": "function",
      "name": "MAX_BET_AMOUNT",
      "inputs": [],
      "outputs": [
        {
          "name": "",
          "type": "uint256",
          "internalType": "uint256"
        }
      ],
      "stateMutability": "view"
    },
    {
      "type": "function",
      "name": "MAX_HISTORY_SIZE",
      "inputs": [],
      "outputs": [
        {
          "name": "",
          "type": "uint256",
          "internalType": "uint256"
        }
      ],
      "stateMutability": "view"
    },
    {
      "type": "function",
      "name": "MAX_NUMBER",
      "inputs": [],
      "outputs": [
        {
          "name": "",
          "type": "uint8",
          "internalType": "uint8"
        }
      ],
      "stateMutability": "view"
    },
    {
      "type": "function",
      "name": "MAX_POSSIBLE_PAYOUT",
      "inputs": [],
      "outputs": [
        {
          "name": "",
          "type": "uint256",
          "internalType": "uint256"
        }
      ],
      "stateMutability": "view"
    },
    {
      "type": "function",
      "name": "MAX_TOTAL_BET_AMOUNT",
      "inputs": [],
      "outputs": [
        {
          "name": "",
          "type": "uint256",
          "internalType": "uint256"
        }
      ],
      "stateMutability": "view"
    },
    {
      "type": "function",
      "name": "MINTER_ROLE",
      "inputs": [],
      "outputs": [
        {
          "name": "",
          "type": "bytes32",
          "internalType": "bytes32"
        }
      ],
      "stateMutability": "view"
    },
    {
      "type": "function",
      "name": "ODD_BET",
      "inputs": [],
      "outputs": [
        {
          "name": "",
          "type": "uint8",
          "internalType": "uint8"
        }
      ],
      "stateMutability": "view"
    },
    {
      "type": "function",
      "name": "RED_BET",
      "inputs": [],
      "outputs": [
        {
          "name": "",
          "type": "uint8",
          "internalType": "uint8"
        }
      ],
      "stateMutability": "view"
    },
    {
      "type": "function",
      "name": "STRAIGHT_BET",
      "inputs": [],
      "outputs": [
        {
          "name": "",
          "type": "uint8",
          "internalType": "uint8"
        }
      ],
      "stateMutability": "view"
    },
    {
      "type": "function",
      "name": "gamaToken",
      "inputs": [],
      "outputs": [
        {
          "name": "",
          "type": "address",
          "internalType": "contract IERC20"
        }
      ],
      "stateMutability": "view"
    },
    {
      "type": "function",
      "name": "getAllBetTypes",
      "inputs": [],
      "outputs": [
        {
          "name": "betTypeIds",
          "type": "uint8[]",
          "internalType": "uint8[]"
        },
        {
          "name": "names",
          "type": "string[]",
          "internalType": "string[]"
        },
        {
          "name": "requiresNumbers",
          "type": "bool[]",
          "internalType": "bool[]"
        },
        {
          "name": "payoutMultipliers",
          "type": "uint256[]",
          "internalType": "uint256[]"
        }
      ],
      "stateMutability": "pure"
    },
    {
      "type": "function",
      "name": "getBetDetails",
      "inputs": [
        {
          "name": "player",
          "type": "address",
          "internalType": "address"
        },
        {
          "name": "betIndex",
          "type": "uint256",
          "internalType": "uint256"
        }
      ],
      "outputs": [
        {
          "name": "timestamp",
          "type": "uint256",
          "internalType": "uint256"
        },
        {
          "name": "betDetails",
          "type": "tuple[]",
          "internalType": "struct BetDetails[]",
          "components": [
            {
              "name": "betType",
              "type": "uint8",
              "internalType": "enum BetType"
            },
            {
              "name": "numbers",
              "type": "uint8[]",
              "internalType": "uint8[]"
            },
            {
              "name": "amount",
              "type": "uint256",
              "internalType": "uint256"
            },
            {
              "name": "payout",
              "type": "uint256",
              "internalType": "uint256"
            }
          ]
        },
        {
          "name": "resultNumber",
          "type": "uint8",
          "internalType": "uint8"
        },
        {
          "name": "isWin",
          "type": "bool",
          "internalType": "bool"
        }
      ],
      "stateMutability": "view"
    },
    {
      "type": "function",
      "name": "getBetTypeInfo",
      "inputs": [
        {
          "name": "betTypeId",
          "type": "uint8",
          "internalType": "uint8"
        }
      ],
      "outputs": [
        {
          "name": "name",
          "type": "string",
          "internalType": "string"
        },
        {
          "name": "requiresNumber",
          "type": "bool",
          "internalType": "bool"
        },
        {
          "name": "payoutMultiplier",
          "type": "uint256",
          "internalType": "uint256"
        }
      ],
      "stateMutability": "pure"
    },
    {
      "type": "function",
      "name": "getPossibleWinningNumbers",
      "inputs": [
        {
          "name": "betTypeId",
          "type": "uint8",
          "internalType": "uint8"
        }
      ],
      "outputs": [
        {
          "name": "numbers",
          "type": "uint8[]",
          "internalType": "uint8[]"
        }
      ],
      "stateMutability": "pure"
    },
    {
      "type": "function",
      "name": "getUserBetHistory",
      "inputs": [
        {
          "name": "player",
          "type": "address",
          "internalType": "address"
        },
        {
          "name": "offset",
          "type": "uint256",
          "internalType": "uint256"
        },
        {
          "name": "limit",
          "type": "uint256",
          "internalType": "uint256"
        }
      ],
      "outputs": [
        {
          "name": "bets",
          "type": "tuple[]",
          "internalType": "struct Bet[]",
          "components": [
            {
              "name": "timestamp",
              "type": "uint256",
              "internalType": "uint256"
            },
            {
              "name": "bets",
              "type": "tuple[]",
              "internalType": "struct BetDetails[]",
              "components": [
                {
                  "name": "betType",
                  "type": "uint8",
                  "internalType": "enum BetType"
                },
                {
                  "name": "numbers",
                  "type": "uint8[]",
                  "internalType": "uint8[]"
                },
                {
                  "name": "amount",
                  "type": "uint256",
                  "internalType": "uint256"
                },
                {
                  "name": "payout",
                  "type": "uint256",
                  "internalType": "uint256"
                }
              ]
            },
            {
              "name": "winningNumber",
              "type": "uint8",
              "internalType": "uint8"
            }
          ]
        },
        {
          "name": "total",
          "type": "uint256",
          "internalType": "uint256"
        }
      ],
      "stateMutability": "view"
    },
    {
      "type": "function",
      "name": "getValidBetNumbers",
      "inputs": [
        {
          "name": "betType",
          "type": "uint8",
          "internalType": "enum BetType"
        },
        {
          "name": "start",
          "type": "uint8",
          "internalType": "uint8"
        }
      ],
      "outputs": [
        {
          "name": "",
          "type": "uint8[]",
          "internalType": "uint8[]"
        }
      ],
      "stateMutability": "pure"
    },
    {
      "type": "function",
      "name": "placeBet",
      "inputs": [
        {
          "name": "betRequests",
          "type": "tuple[]",
          "internalType": "struct BetRequest[]",
          "components": [
            {
              "name": "betTypeId",
              "type": "uint8",
              "internalType": "uint8"
            },
            {
              "name": "number",
              "type": "uint8",
              "internalType": "uint8"
            },
            {
              "name": "amount",
              "type": "uint256",
              "internalType": "uint256"
            }
          ]
        }
      ],
      "outputs": [],
      "stateMutability": "nonpayable"
    },
    {
      "type": "function",
      "name": "totalGamesPlayed",
      "inputs": [],
      "outputs": [
        {
          "name": "",
          "type": "uint256",
          "internalType": "uint256"
        }
      ],
      "stateMutability": "view"
    },
    {
      "type": "function",
      "name": "totalPayoutAmount",
      "inputs": [],
      "outputs": [
        {
          "name": "",
          "type": "uint256",
          "internalType": "uint256"
        }
      ],
      "stateMutability": "view"
    },
    {
      "type": "function",
      "name": "userData",
      "inputs": [
        {
          "name": "",
          "type": "address",
          "internalType": "address"
        }
      ],
      "outputs": [
        {
          "name": "maxHistorySize",
          "type": "uint256",
          "internalType": "uint256"
        }
      ],
      "stateMutability": "view"
    },
    {
      "type": "error",
      "name": "BurnFailed",
      "inputs": [
        {
          "name": "account",
          "type": "address",
          "internalType": "address"
        },
        {
          "name": "amount",
          "type": "uint256",
          "internalType": "uint256"
        }
      ]
    },
    {
      "type": "error",
      "name": "InsufficientAllowance",
      "inputs": [
        {
          "name": "required",
          "type": "uint256",
          "internalType": "uint256"
        },
        {
          "name": "allowed",
          "type": "uint256",
          "internalType": "uint256"
        }
      ]
    },
    {
      "type": "error",
      "name": "InsufficientUserBalance",
      "inputs": [
        {
          "name": "required",
          "type": "uint256",
          "internalType": "uint256"
        },
        {
          "name": "available",
          "type": "uint256",
          "internalType": "uint256"
        }
      ]
    },
    {
      "type": "error",
      "name": "InvalidBetParameters",
      "inputs": [
        {
          "name": "reason",
          "type": "string",
          "internalType": "string"
        }
      ]
    },
    {
      "type": "error",
      "name": "InvalidBetType",
      "inputs": [
        {
          "name": "betType",
          "type": "uint256",
          "internalType": "uint256"
        }
      ]
    },
    {
      "type": "error",
      "name": "MaxPayoutExceeded",
      "inputs": [
        {
          "name": "potentialPayout",
          "type": "uint256",
          "internalType": "uint256"
        },
        {
          "name": "maxAllowed",
          "type": "uint256",
          "internalType": "uint256"
        }
      ]
    },
    {
      "type": "error",
      "name": "MintFailed",
      "inputs": [
        {
          "name": "account",
          "type": "address",
          "internalType": "address"
        },
        {
          "name": "amount",
          "type": "uint256",
          "internalType": "uint256"
        }
      ]
    },
    {
      "type": "error",
      "name": "MissingContractRole",
      "inputs": [
        {
          "name": "role",
          "type": "bytes32",
          "internalType": "bytes32"
        }
      ]
    },
    {
      "type": "error",
      "name": "ReentrancyGuardReentrantCall",
      "inputs": []
    },
    {
      "type": "error",
      "name": "TransferFailed",
      "inputs": [
        {
          "name": "from",
          "type": "address",
          "internalType": "address"
        },
        {
          "name": "to",
          "type": "address",
          "internalType": "address"
        },
        {
          "name": "amount",
          "type": "uint256",
          "internalType": "uint256"
        }
      ]
    }
  ],
  "bytecode": {
    "object": "0x6080604052348015600e575f5ffd5b506040516134e73803806134e7833981016040819052602b9160ac565b60015f556001600160a01b03811660885760405162461bcd60e51b815260206004820152601c60248201527f546f6b656e20616464726573732063616e6e6f74206265207a65726f00000000604482015260640160405180910390fd5b600180546001600160a01b0319166001600160a01b039290921691909117905560d7565b5f6020828403121560bb575f5ffd5b81516001600160a01b038116811460d0575f5ffd5b9392505050565b613403806100e45f395ff3fe608060405234801561000f575f5ffd5b50600436106101e7575f3560e01c80639793e1d611610109578063d56ec8c91161009e578063e60271cf1161006e578063e60271cf146103fc578063e7efcfc214610404578063fa198c4f1461040d578063fea9b5721461042f575f5ffd5b8063d56ec8c9146103a0578063d6b6cd59146103cb578063ddebc952146103d3578063e3286e55146103db575f5ffd5b8063c1066251116100d9578063c10662511461033a578063c1a5fe5114610342578063c891091314610357578063d539139314610379575f5ffd5b80639793e1d61461030f578063a398222714610322578063b34daef41461032a578063b8a5e43814610332575f5ffd5b80634689b4411161017f5780637d3d31ad1161014f5780637d3d31ad146102ee578063918f8674146102f657806394b9b507146102ff57806394bae38514610307575f5ffd5b80634689b4411461029b5780635a0db4d2146102ad5780635c492129146102cd57806379023170146102d6575f5ffd5b80632ff21494116101ba5780632ff2149414610258578063309167f51461027b57806336b39a601461028c578063432aeb8f14610294575f5ffd5b806319469f1b146101eb5780632257b0571461020a578063282c51f3146102125780632d2cd03414610247575b5f5ffd5b6101f3600881565b60405160ff90911681526020015b60405180910390f35b6101f3600581565b6102397f3c11d16cbaffd01df69ce1c404f6340ee057498f5f00246190ea54220576a84881565b604051908152602001610201565b6102396969e10de76676d080000081565b61026b610266366004612d1a565b610437565b6040516102019493929190612d56565b61023969152d02c7e14af680000081565b6101f3600181565b6101f35f81565b6102396a0e79c4e6a3023e8180000081565b6102c06102bb366004612e58565b61066e565b6040516102019190612eae565b61023960035481565b6102de610b78565b6040516102019493929190612f50565b6101f3600c81565b61023961271081565b6101f3600b81565b6101f3600a81565b6102c061031d366004612fed565b610cdd565b6101f3600781565b6101f3600281565b6101f3600481565b610239600a81565b610355610350366004613023565b610e52565b005b610239610365366004613094565b60026020525f908152604090206001015481565b6102397f9f2df0fed2c77648de5860a4cc508cd0818c85b8b8a1ab4ceeef8d981c8956a681565b6001546103b3906001600160a01b031681565b6040516001600160a01b039091168152602001610201565b6101f3600381565b6101f3600681565b6103ee6103e93660046130ad565b610f54565b6040516102019291906130dd565b6101f3600981565b61023960045481565b61042061041b366004612e58565b611249565b60405161020193929190613234565b6101f3602481565b6001600160a01b0382165f9081526002602052604081205460609082908190851061049d5760405162461bcd60e51b8152602060048201526011602482015270092dcecc2d8d2c840c4cae840d2dcc8caf607b1b60448201526064015b60405180910390fd5b6001600160a01b0386165f9081526002602052604081208054879081106104c6576104c6613258565b905f5260205f2090600302016040518060600160405290815f820154815260200160018201805480602002602001604051908101604052809291908181526020015f905b828210156105ef575f848152602090206040805160808101909152600484029091018054829060ff16600881111561054457610544612d42565b600881111561055557610555612d42565b8152602001600182018054806020026020016040519081016040528092919081815260200182805480156105c357602002820191905f5260205f20905f905b825461010083900a900460ff168152602060019283018181049485019490930390920291018084116105945790505b50505050508152602001600282015481526020016003820154815250508152602001906001019061050a565b505050908252506002919091015460ff1660209091015290505f805b82602001515181101561064f578260200151818151811061062e5761062e613258565b602002602001015160600151826106459190613280565b915060010161060b565b5081516020830151604090930151909992985096501515945092505050565b606060ff82166106e8576040805160258082526104c0820190925290602082016104a0803683370190505090505f5b60248160ff16116106e25780828260ff16815181106106be576106be613258565b60ff90921660209283029190910190910152806106da816132a7565b91505061069d565b50919050565b60061960ff83160161080d5760408051601280825261026082019092529060208201610240803683370190505060408051610240810182526001815260036020808301919091526005928201929092526007606082015260096080820152600c60a0820152600e60c0820152601060e082015260126101008201526013610120820152601561014082015260176101608201526019610180820152601b6101a0820152601e6101c08201526101e0810191909152602261020082015260246102208201529091505f5b60128160ff16101561080657818160ff16601281106107d2576107d2613258565b6020020151838260ff16815181106107ec576107ec613258565b60ff909216602092830291909101909101526001016107b1565b5050919050565b60071960ff831601610926576040805160128082526102608201909252906020820161024080368337019050506040805161024081018252600281526004602082015260069181019190915260086060820152600a6080820152600b60a0820152600d60c0820152600f60e08201526011610100820152601461012082015260166101408201526018610160820152601a610180820152601c6101a0820152601d6101c0820152601f6101e0820152602161020082015260236102208201529091505f5b60128160ff16101561080657818160ff16601281106108f2576108f2613258565b6020020151838260ff168151811061090c5761090c613258565b60ff909216602092830291909101909101526001016108d1565b60081960ff8316016109a85760408051601280825261026082019092529060208201610240803683370190505090505f5b60128160ff1610156106e25761096e8160016132c5565b6109799060026132de565b828260ff168151811061098e5761098e613258565b60ff90921660209283029190910190910152600101610957565b60091960ff831601610a2a5760408051601280825261026082019092529060208201610240803683370190505090505f5b60128160ff1610156106e2576109f08160026132de565b6109fb9060016132c5565b828260ff1681518110610a1057610a10613258565b60ff909216602092830291909101909101526001016109d9565b600a1960ff831601610aa15760408051601280825261026082019092529060208201610240803683370190505090505f5b60128160ff1610156106e257610a728160016132c5565b828260ff1681518110610a8757610a87613258565b60ff90921660209283029190910190910152600101610a5b565b600b1960ff831601610b185760408051601280825261026082019092529060208201610240803683370190505090505f5b60128160ff1610156106e257610ae98160136132c5565b828260ff1681518110610afe57610afe613258565b60ff90921660209283029190910190910152600101610ad2565b6040516334460f4160e01b815260206004820152602960248201527f496e76616c696420626574207479706520494420666f72206e756d626572206760448201526832b732b930ba34b7b760b91b6064820152608401610494565b919050565b60408051600d8082526101c0820190925260609182918291829190602082016101a0803683370190505060408051600d8082526101c08201909252919550816020015b6060815260200190600190039081610bbb57505060408051600d8082526101c08201909252919450602082016101a080368337505060408051600d8082526101c082019092529294509050602082016101a0803683370190505090505f5b600d8160ff161015610cd6575f5f5f610c3184611249565b92509250925083888560ff1681518110610c4d57610c4d613258565b602002602001019060ff16908160ff168152505082878560ff1681518110610c7757610c77613258565b602002602001018190525081868560ff1681518110610c9857610c98613258565b60200260200101901515908115158152505080858560ff1681518110610cc057610cc0613258565b6020908102919091010152505050600101610c19565b5090919293565b60606002836008811115610cf357610cf3612d42565b03610d6e578160ff1660011480610d0d57508160ff166002145b80610d1b57508160ff166003145b610d5e5760405162461bcd60e51b8152602060048201526014602482015273125b9d985b1a590818dbdb1d5b5b881cdd185c9d60621b6044820152606401610494565b610d67826115e5565b9050610e4c565b6001836008811115610d8257610d82612d42565b03610df5578160ff1660011480610d9c57508160ff16600d145b80610daa57508160ff166019145b610dec5760405162461bcd60e51b8152602060048201526013602482015272125b9d985b1a5908191bde995b881cdd185c9d606a1b6044820152606401610494565b610d6782611666565b60405162461bcd60e51b815260206004820152602660248201527f496e76616c696420626574207479706520666f72206e756d6265722067656e656044820152653930ba34b7b760d11b6064820152608401610494565b92915050565b610e5a6116d5565b5f819003610e9e576040516334460f4160e01b815260206004820152601060248201526f139bc818995d1cc81c1c9bdd9a59195960821b6044820152606401610494565b600f811115610ee0576040516334460f4160e01b815260206004820152600d60248201526c546f6f206d616e79206265747360981b6044820152606401610494565b335f9081526002602052604081209080610efa85856116fd565b9092509050610f0933836118e9565b5f610f1686868686611c93565b600380549192505f610f27836132fa565b91905055508060045f828254610f3d9190613280565b909155505060015f5550610f5092505050565b5050565b6001600160a01b0383165f9081526002602090815260408083208054825181850281018501909352808352606094938493929190849084015b828210156110e7578382905f5260205f2090600302016040518060600160405290815f820154815260200160018201805480602002602001604051908101604052809291908181526020015f905b828210156110c0575f848152602090206040805160808101909152600484029091018054829060ff16600881111561101557611015612d42565b600881111561102657611026612d42565b81526020016001820180548060200260200160405190810160405280929190818152602001828054801561109457602002820191905f5260205f20905f905b825461010083900a900460ff168152602060019283018181049485019490930390920291018084116110655790505b505050505081526020016002820154815260200160038201548152505081526020019060010190610fdb565b505050908252506002919091015460ff166020918201529082526001929092019101610f8d565b50508251929350505080861061115057604080515f8082526020820190925290611144565b61113160405180606001604052805f8152602001606081526020015f60ff1681525090565b81526020019060019003908161110c5790505b50935091506112419050565b5f61115b8688613280565b9050818111156111685750805b5f6111738883613312565b90508067ffffffffffffffff81111561118e5761118e613293565b6040519080825280602002602001820160405280156111e457816020015b6111d160405180606001604052805f8152602001606081526020015f60ff1681525090565b8152602001906001900390816111ac5790505b5095505f5b8181101561123957846111fc828b613280565b8151811061120c5761120c613258565b602002602001015187828151811061122657611226613258565b60209081029190910101526001016111e9565b509193505050505b935093915050565b60605f8060ff841661128f5760016112646127106023613325565b60408051808201909152600881526714dd1c985a59da1d60c21b6020820152945090925090506115de565b5f1960ff8516016112dd575f6112a86127106002613325565b604080518082019091526012815271466972737420446f7a656e2028312d31322960701b6020820152945090925090506115de565b60011960ff85160161132e575f6112f76127106002613325565b6040805180820190915260148152735365636f6e6420446f7a656e202831332d32342960601b6020820152945090925090506115de565b60021960ff85160161137e575f6113486127106002613325565b604080518082019091526013815272546869726420446f7a656e202832352d33362960681b6020820152945090925090506115de565b60031960ff8516016113c7575f6113986127106002613325565b60408051808201909152600c81526b2334b939ba1021b7b63ab6b760a11b6020820152945090925090506115de565b60041960ff851601611411575f6113e16127106002613325565b60408051808201909152600d81526c29b2b1b7b7321021b7b63ab6b760991b6020820152945090925090506115de565b60051960ff85160161145a575f61142b6127106002613325565b60408051808201909152600c81526b2a3434b9321021b7b63ab6b760a11b6020820152945090925090506115de565b60061960ff85160161148d57505060408051808201909152600381526214995960ea1b602082015290505f6127106115de565b60071960ff8516016114c2575050604080518082019091526005815264426c61636b60d81b602082015290505f6127106115de565b60081960ff8516016114f657505060408051808201909152600481526322bb32b760e11b602082015290505f6127106115de565b60091960ff85160161152957505060408051808201909152600381526213d91960ea1b602082015290505f6127106115de565b600a1960ff85160161156357505060408051808201909152600a8152694c6f772028312d31382960b01b602082015290505f6127106115de565b600b1960ff85160161159f57505060408051808201909152600c81526b48696768202831392d33362960a01b602082015290505f6127106115de565b6040516334460f4160e01b8152602060048201526013602482015272125b9d985b1a590818995d081d1e5c19481251606a1b6044820152606401610494565b9193909250565b60408051600c8082526101a082019092526060915f919060208201610180803683370190505090505f5b600c8160ff16101561165f576116268160036132de565b61163090856132c5565b828260ff168151811061164557611645613258565b60ff9092166020928302919091019091015260010161160f565b5092915050565b60408051600c8082526101a082019092526060915f919060208201610180803683370190505090505f5b600c8160ff16101561165f576116a681856132c5565b828260ff16815181106116bb576116bb613258565b60ff90921660209283029190910190910152600101611690565b60025f54036116f757604051633ee5aeb560e01b815260040160405180910390fd5b60025f55565b5f80805b838110156118e15784848281811061171b5761171b613258565b905060600201604001355f03611769576040516334460f4160e01b8152602060048201526012602482015271125b9d985b1a590818995d08185b5bdd5b9d60721b6044820152606401610494565b69152d02c7e14af680000085858381811061178657611786613258565b9050606002016040013511156117df576040516334460f4160e01b815260206004820152601b60248201527f53696e676c652062657420616d6f756e7420746f6f206c6172676500000000006044820152606401610494565b8484828181106117f1576117f1613258565b90506060020160400135836118069190613280565b92505f61182986868481811061181e5761181e613258565b9050606002016122b1565b5090505f6118368261254f565b90505f6127108289898781811061184f5761184f613258565b905060600201604001356118639190613325565b61186d9190613350565b90506118798186613280565b94506969e10de76676d08000008611156118d6576040516334460f4160e01b815260206004820152601a60248201527f546f74616c2062657420616d6f756e7420746f6f206c617267650000000000006044820152606401610494565b505050600101611701565b509250929050565b6001546040516370a0823160e01b81526001600160a01b038481166004830152839216906370a0823190602401602060405180830381865afa158015611931573d5f5f3e3d5ffd5b505050506040513d601f19601f820116820180604052508101906119559190613363565b10156119e9576001546040516370a0823160e01b81526001600160a01b038481166004830152839216906370a0823190602401602060405180830381865afa1580156119a3573d5f5f3e3d5ffd5b505050506040513d601f19601f820116820180604052508101906119c79190613363565b6040516302fa826960e51b815260048101929092526024820152604401610494565b600154604051636eb1769f60e11b81526001600160a01b0384811660048301523060248301528392169063dd62ed3e90604401602060405180830381865afa158015611a37573d5f5f3e3d5ffd5b505050506040513d601f19601f82011682018060405250810190611a5b9190613363565b1015611af557600154604051636eb1769f60e11b81526001600160a01b0384811660048301523060248301528392169063dd62ed3e90604401602060405180830381865afa158015611aaf573d5f5f3e3d5ffd5b505050506040513d601f19601f82011682018060405250810190611ad39190613363565b60405163054365bb60e31b815260048101929092526024820152604401610494565b600154604051632474521560e21b81527f3c11d16cbaffd01df69ce1c404f6340ee057498f5f00246190ea54220576a84860048201523060248201526001600160a01b03909116906391d1485490604401602060405180830381865afa158015611b61573d5f5f3e3d5ffd5b505050506040513d601f19601f82011682018060405250810190611b85919061337a565b611bc4576040516359f75fb760e11b81527f3c11d16cbaffd01df69ce1c404f6340ee057498f5f00246190ea54220576a8486004820152602401610494565b600154604051632474521560e21b81527f9f2df0fed2c77648de5860a4cc508cd0818c85b8b8a1ab4ceeef8d981c8956a660048201523060248201526001600160a01b03909116906391d1485490604401602060405180830381865afa158015611c30573d5f5f3e3d5ffd5b505050506040513d601f19601f82011682018060405250810190611c54919061337a565b610f50576040516359f75fb760e11b81527f9f2df0fed2c77648de5860a4cc508cd0818c85b8b8a1ab4ceeef8d981c8956a66004820152602401610494565b600154604051632770a7eb60e21b8152336004820152602481018390525f916001600160a01b031690639dc29fac906044015f604051808303815f87803b158015611cdc575f5ffd5b505af1925050508015611ced575060015b611d135760405163016f84a160e01b815233600482015260248101839052604401610494565b5f611d1c612631565b90505f8567ffffffffffffffff811115611d3857611d38613293565b604051908082528060200260200182016040528015611d9257816020015b611d7f6040805160808101909152805f8152602001606081526020015f81526020015f81525090565b815260200190600190039081611d565790505b5090505f5b86811015611eb0575f5f611db68a8a8581811061181e5761181e613258565b915091505f611de282848d8d88818110611dd257611dd2613258565b90506060020160400135896126a9565b905086611def8282613280565b1015611e2f5760405162461bcd60e51b815260206004820152600f60248201526e5061796f7574206f766572666c6f7760881b6044820152606401610494565b611e398188613280565b96506040518060800160405280846008811115611e5857611e58612d42565b81526020018381526020018c8c87818110611e7557611e75613258565b90506060020160400135815260200182815250858581518110611e9a57611e9a613258565b6020908102919091010152505050600101611d97565b508454600a116120e0575f5b8554611eca90600190613312565b811015611f575785611edd826001613280565b81548110611eed57611eed613258565b905f5260205f209060030201865f018281548110611f0d57611f0d613258565b5f9182526020909120825460039092020190815560018083018054611f359284019190612aec565b506002918201549101805460ff191660ff909216919091179055600101611ebc565b50845442908690611f6a90600190613312565b81548110611f7a57611f7a613258565b5f918252602090912060039091020155845482908690611f9c90600190613312565b81548110611fac57611fac613258565b5f9182526020909120600390910201600201805460ff191660ff9290921691909117905584548590611fe090600190613312565b81548110611ff057611ff0613258565b905f5260205f2090600302016001015f61200a9190612b92565b5f5b81518110156120da578554869061202590600190613312565b8154811061203557612035613258565b905f5260205f20906003020160010182828151811061205657612056613258565b6020908102919091018101518254600181810185555f9485529290932081516004909402018054919390929091839160ff199091169083600881111561209e5761209e612d42565b021790555060208281015180516120bb9260018501920190612bb3565b506040820151600282015560609091015160039091015560010161200c565b50612220565b845460019081018087555f878152916120f891613312565b905042865f01828154811061210f5761210f613258565b5f9182526020909120600390910201558554839087908390811061213557612135613258565b5f9182526020822060039190910201600201805460ff191660ff93909316929092179091555b825181101561221d57865f01828154811061217857612178613258565b905f5260205f20906003020160010183828151811061219957612199613258565b6020908102919091018101518254600181810185555f9485529290932081516004909402018054919390929091839160ff19909116908360088111156121e1576121e1612d42565b021790555060208281015180516121fe9260018501920190612bb3565b506040820151600282015560609091015160039091015560010161215b565b50505b82156122a6576001546040516340c10f1960e01b8152336004820152602481018590526001600160a01b03909116906340c10f19906044015f604051808303815f87803b15801561226f575f5ffd5b505af1925050508015612280575060015b6122a657604051635c0b206f60e01b815233600482015260248101849052604401610494565b50505b949350505050565b5f6060816122c26020850185612e58565b60ff160361238b5760246122dc6040850160208601612e58565b60ff16111561232d5760405162461bcd60e51b815260206004820152601f60248201527f496e76616c6964206e756d62657220666f7220737472616967687420626574006044820152606401610494565b604080516001808252818301909252906020808301908036833701905050905061235d6040840160208501612e58565b815f8151811061236f5761236f613258565b602002602001019060ff16908160ff16815250505f9150915091565b600161239a6020850185612e58565b60ff16036123b75760016123ae6001611666565b91509150915091565b60026123c66020850185612e58565b60ff16036123da5760016123ae600d611666565b60036123e96020850185612e58565b60ff16036123fd5760016123ae6019611666565b600461240c6020850185612e58565b60ff16036124205760026123ae60016115e5565b600561242f6020850185612e58565b60ff16036124435760026123ae60026115e5565b60066124526020850185612e58565b60ff16036124665760026123ae60036115e5565b60076124756020850185612e58565b60ff16036124b45760035f5b6040519080825280602002602001820160405280156124aa578160200160208202803683370190505b5091509150915091565b60086124c36020850185612e58565b60ff16036124d35760045f612481565b60096124e26020850185612e58565b60ff16036124f25760055f612481565b600a6125016020850185612e58565b60ff16036125115760065f612481565b600b6125206020850185612e58565b60ff16036125305760075f612481565b600c61253f6020850185612e58565b60ff160361159f5760085f612481565b5f8082600881111561256357612563612d42565b0361257557610e4c6127106023613325565b600182600881111561258957612589612d42565b0361259b57610e4c6127106002613325565b60028260088111156125af576125af612d42565b036125c157610e4c6127106002613325565b60038260088111156125d5576125d5612d42565b101580156125f5575060088260088111156125f2576125f2612d42565b11155b156126035750612710919050565b81600881111561261557612615612d42565b604051636a35924760e01b815260040161049491815260200190565b5f61263e602460016132c5565b60ff164244336003546040516020016126829493929190938452602084019290925260601b6bffffffffffffffffffffffff19166040830152605482015260740190565b604051602081830303815290604052805190602001205f1c6126a49190613399565b905090565b5f825f036126b857505f6122a9565b69152d02c7e14af6800000831115612713576040516334460f4160e01b815260206004820152601a60248201527f42657420616d6f756e742065786365656473206d6178696d756d0000000000006044820152606401610494565b61271e8585846127ee565b156127e4575f61272d8561254f565b9050805f036127735760405162461bcd60e51b815260206004820152601260248201527124b73b30b634b21036bab63a34b83634b2b960711b6044820152606401610494565b5f6127106127818387613325565b61278b9190613350565b90505f6127988683613280565b90506a0e79c4e6a3023e818000008111156127da576040516310f2885f60e11b8152600481018290526a0e79c4e6a3023e818000006024820152604401610494565b92506122a9915050565b505f949350505050565b5f602460ff8316111561280257505f6129e3565b8160ff165f0361285b575f83600881111561281f5761281f612d42565b14801561282d575083516001145b80156128545750835f8151811061284657612846613258565b602002602001015160ff165f145b90506129e3565b600383600881111561286f5761286f612d42565b0361287d57612854826129ea565b600483600881111561289157612891612d42565b036128b35761289f826129ea565b15801561285457505060ff811615156129e3565b60058360088111156128c7576128c7612d42565b036128ee576128d76002836133ac565b60ff1615801561285457505060ff811615156129e3565b600683600881111561290257612902612d42565b0361291f576129126002836133ac565b60ff1660011490506129e3565b600783600881111561293357612933612d42565b036129555760018260ff1610158015612854575050601260ff821611156129e3565b600883600881111561296957612969612d42565b0361298b5760138260ff1610158015612854575050602460ff821611156129e3565b5f5b84518160ff1610156129de578260ff16858260ff16815181106129b2576129b2613258565b602002602001015160ff16036129cc5760019150506129e3565b806129d6816132a7565b91505061298d565b505f90505b9392505050565b5f8160ff165f036129fc57505f919050565b60408051610240810182526001815260036020808301919091526005928201929092526007606082015260096080820152600c60a0820152600e60c0820152601060e082015260126101008201526013610120820152601561014082015260176101608201526019610180820152601b6101a0820152601e6101c08201526101e0810191909152602261020082015260246102208201525f5b60128160ff161015612ae3578360ff16828260ff1660128110612aba57612aba613258565b602002015160ff1603612ad1575060019392505050565b80612adb816132a7565b915050612a95565b505f9392505050565b828054828255905f5260205f20906004028101928215612b82575f5260205f209160040282015b82811115612b8257825482548491849160ff90911690829060ff19166001836008811115612b4357612b43612d42565b021790555060018281018054612b5c9284019190612c50565b506002820154816002015560038201548160030155505091600401919060040190612b13565b50612b8e929150612c9a565b5090565b5080545f8255600402905f5260205f2090810190612bb09190612c9a565b50565b828054828255905f5260205f2090601f01602090048101928215612c44579160200282015f5b83821115612c1657835183826101000a81548160ff021916908360ff16021790555092602001926001016020815f01049283019260010302612bd9565b8015612c425782816101000a81549060ff02191690556001016020815f01049283019260010302612c16565b505b50612b8e929150612cce565b828054828255905f5260205f2090601f01602090048101928215612c44575f5260205f2091601f016020900482015b82811115612c44578254825591600101919060010190612c7f565b80821115612b8e57805460ff191681555f612cb86001830182612ce2565b505f600282018190556003820155600401612c9a565b5b80821115612b8e575f8155600101612ccf565b5080545f8255601f0160209004905f5260205f2090810190612bb09190612cce565b80356001600160a01b0381168114610b73575f5ffd5b5f5f60408385031215612d2b575f5ffd5b612d3483612d04565b946020939093013593505050565b634e487b7160e01b5f52602160045260245ffd5b5f608082018683526080602084015280865180835260a08501915060a08160051b8601019250602088015f5b82811015612e2957609f19878603018452815160808601815160098110612db757634e487b7160e01b5f52602160045260245ffd5b87526020828101516080828a015280519283905201905f9060a08901905b80831015612dfb5760ff8451168252602082019150602084019350600183019250612dd5565b50604084810151908a0152606093840151939098019290925250506020938401939190910190600101612d82565b5050505060ff9490941660408301525090151560609091015292915050565b803560ff81168114610b73575f5ffd5b5f60208284031215612e68575f5ffd5b6129e382612e48565b5f8151808452602084019350602083015f5b82811015612ea457815160ff16865260209586019590910190600101612e83565b5093949350505050565b602081525f6129e36020830184612e71565b5f81518084528060208401602086015e5f602082860101526020601f19601f83011685010191505092915050565b5f8151808452602084019350602083015f5b82811015612ea45781511515865260209586019590910190600101612f00565b5f8151808452602084019350602083015f5b82811015612ea4578151865260209586019590910190600101612f32565b608081525f612f626080830187612e71565b828103602084015280865180835260208301915060208160051b840101602089015f5b83811015612fb757601f19868403018552612fa1838351612ec0565b6020958601959093509190910190600101612f85565b50508581036040870152612fcb8189612eee565b93505050508281036060840152612fe28185612f20565b979650505050505050565b5f5f60408385031215612ffe575f5ffd5b82356009811061300c575f5ffd5b915061301a60208401612e48565b90509250929050565b5f5f60208385031215613034575f5ffd5b823567ffffffffffffffff81111561304a575f5ffd5b8301601f8101851361305a575f5ffd5b803567ffffffffffffffff811115613070575f5ffd5b856020606083028401011115613084575f5ffd5b6020919091019590945092505050565b5f602082840312156130a4575f5ffd5b6129e382612d04565b5f5f5f606084860312156130bf575f5ffd5b6130c884612d04565b95602085013595506040909401359392505050565b5f604082016040835280855180835260608501915060608160051b8601019250602087015f5b8281101561322057605f198786030184528151606086018151875260208201516060602089015281815180845260808a01915060808160051b8b010193506020830192505f5b818110156131f057607f198b860301835283516080860181516009811061317e57634e487b7160e01b5f52602160045260245ffd5b87526020828101516080828a015280519283905201905f9060a08901905b808310156131c25760ff845116825260208201915060208401935060018301925061319c565b50604084810151908a0152606093840151939098019290925250506020938401939290920191600101613149565b505050506040820151915061320a604088018360ff169052565b9550506020938401939190910190600101613103565b505050506020929092019290925292915050565b606081525f6132466060830186612ec0565b93151560208301525060400152919050565b634e487b7160e01b5f52603260045260245ffd5b634e487b7160e01b5f52601160045260245ffd5b80820180821115610e4c57610e4c61326c565b634e487b7160e01b5f52604160045260245ffd5b5f60ff821660ff81036132bc576132bc61326c565b60010192915050565b60ff8181168382160190811115610e4c57610e4c61326c565b60ff818116838216029081169081811461165f5761165f61326c565b5f6001820161330b5761330b61326c565b5060010190565b81810381811115610e4c57610e4c61326c565b8082028115828204841417610e4c57610e4c61326c565b634e487b7160e01b5f52601260045260245ffd5b5f8261335e5761335e61333c565b500490565b5f60208284031215613373575f5ffd5b5051919050565b5f6020828403121561338a575f5ffd5b815180151581146129e3575f5ffd5b5f826133a7576133a761333c565b500690565b5f60ff8316806133be576133be61333c565b8060ff8416069150509291505056fea2646970667358221220b3da93be5680e248519ef5441d16e287558cab5afa743e6e2b90a9038f1c944a64736f6c634300081c0033",
    "linkReferences": {}
  },
  "methodIdentifiers": {
    "BLACK_BET()": "19469f1b",
    "BURNER_ROLE()": "282c51f3",
    "COLUMN_BET_FIRST()": "b8a5e438",
    "COLUMN_BET_SECOND()": "2257b057",
    "COLUMN_BET_THIRD()": "ddebc952",
    "DENOMINATOR()": "918f8674",
    "DOZEN_BET_FIRST()": "36b39a60",
    "DOZEN_BET_SECOND()": "b34daef4",
    "DOZEN_BET_THIRD()": "d6b6cd59",
    "EVEN_BET()": "e60271cf",
    "HIGH_BET()": "7d3d31ad",
    "LOW_BET()": "94b9b507",
    "MAX_BET_AMOUNT()": "309167f5",
    "MAX_HISTORY_SIZE()": "c1066251",
    "MAX_NUMBER()": "fea9b572",
    "MAX_POSSIBLE_PAYOUT()": "4689b441",
    "MAX_TOTAL_BET_AMOUNT()": "2d2cd034",
    "MINTER_ROLE()": "d5391393",
    "ODD_BET()": "94bae385",
    "RED_BET()": "a3982227",
    "STRAIGHT_BET()": "432aeb8f",
    "gamaToken()": "d56ec8c9",
    "getAllBetTypes()": "79023170",
    "getBetDetails(address,uint256)": "2ff21494",
    "getBetTypeInfo(uint8)": "fa198c4f",
    "getPossibleWinningNumbers(uint8)": "5a0db4d2",
    "getUserBetHistory(address,uint256,uint256)": "e3286e55",
    "getValidBetNumbers(uint8,uint8)": "9793e1d6",
    "placeBet((uint8,uint8,uint256)[])": "c1a5fe51",
    "totalGamesPlayed()": "5c492129",
    "totalPayoutAmount()": "e7efcfc2",
    "userData(address)": "c8910913"
  },
  "id": 21
}