{
  "abi": [
    {
      "type": "constructor",
      "inputs": [
        {
          "name": "_gamaTokenAddress",
          "type": "address",
          "internalType": "address"
        }
      ],
      "stateMutability": "nonpayable"
    },
    {
      "type": "function",
      "name": "BLACK_BET",
      "inputs": [],
      "outputs": [
        {
          "name": "",
          "type": "uint8",
          "internalType": "uint8"
        }
      ],
      "stateMutability": "view"
    },
    {
      "type": "function",
      "name": "BURNER_ROLE",
      "inputs": [],
      "outputs": [
        {
          "name": "",
          "type": "bytes32",
          "internalType": "bytes32"
        }
      ],
      "stateMutability": "view"
    },
    {
      "type": "function",
      "name": "COLUMN_BET_FIRST",
      "inputs": [],
      "outputs": [
        {
          "name": "",
          "type": "uint8",
          "internalType": "uint8"
        }
      ],
      "stateMutability": "view"
    },
    {
      "type": "function",
      "name": "COLUMN_BET_SECOND",
      "inputs": [],
      "outputs": [
        {
          "name": "",
          "type": "uint8",
          "internalType": "uint8"
        }
      ],
      "stateMutability": "view"
    },
    {
      "type": "function",
      "name": "COLUMN_BET_THIRD",
      "inputs": [],
      "outputs": [
        {
          "name": "",
          "type": "uint8",
          "internalType": "uint8"
        }
      ],
      "stateMutability": "view"
    },
    {
      "type": "function",
      "name": "DENOMINATOR",
      "inputs": [],
      "outputs": [
        {
          "name": "",
          "type": "uint256",
          "internalType": "uint256"
        }
      ],
      "stateMutability": "view"
    },
    {
      "type": "function",
      "name": "DOZEN_BET_FIRST",
      "inputs": [],
      "outputs": [
        {
          "name": "",
          "type": "uint8",
          "internalType": "uint8"
        }
      ],
      "stateMutability": "view"
    },
    {
      "type": "function",
      "name": "DOZEN_BET_SECOND",
      "inputs": [],
      "outputs": [
        {
          "name": "",
          "type": "uint8",
          "internalType": "uint8"
        }
      ],
      "stateMutability": "view"
    },
    {
      "type": "function",
      "name": "DOZEN_BET_THIRD",
      "inputs": [],
      "outputs": [
        {
          "name": "",
          "type": "uint8",
          "internalType": "uint8"
        }
      ],
      "stateMutability": "view"
    },
    {
      "type": "function",
      "name": "EVEN_BET",
      "inputs": [],
      "outputs": [
        {
          "name": "",
          "type": "uint8",
          "internalType": "uint8"
        }
      ],
      "stateMutability": "view"
    },
    {
      "type": "function",
      "name": "HIGH_BET",
      "inputs": [],
      "outputs": [
        {
          "name": "",
          "type": "uint8",
          "internalType": "uint8"
        }
      ],
      "stateMutability": "view"
    },
    {
      "type": "function",
      "name": "LOW_BET",
      "inputs": [],
      "outputs": [
        {
          "name": "",
          "type": "uint8",
          "internalType": "uint8"
        }
      ],
      "stateMutability": "view"
    },
    {
      "type": "function",
      "name": "MAX_BET_AMOUNT",
      "inputs": [],
      "outputs": [
        {
          "name": "",
          "type": "uint256",
          "internalType": "uint256"
        }
      ],
      "stateMutability": "view"
    },
    {
      "type": "function",
      "name": "MAX_HISTORY_SIZE",
      "inputs": [],
      "outputs": [
        {
          "name": "",
          "type": "uint256",
          "internalType": "uint256"
        }
      ],
      "stateMutability": "view"
    },
    {
      "type": "function",
      "name": "MAX_NUMBER",
      "inputs": [],
      "outputs": [
        {
          "name": "",
          "type": "uint8",
          "internalType": "uint8"
        }
      ],
      "stateMutability": "view"
    },
    {
      "type": "function",
      "name": "MAX_POSSIBLE_PAYOUT",
      "inputs": [],
      "outputs": [
        {
          "name": "",
          "type": "uint256",
          "internalType": "uint256"
        }
      ],
      "stateMutability": "view"
    },
    {
      "type": "function",
      "name": "MAX_TOTAL_BET_AMOUNT",
      "inputs": [],
      "outputs": [
        {
          "name": "",
          "type": "uint256",
          "internalType": "uint256"
        }
      ],
      "stateMutability": "view"
    },
    {
      "type": "function",
      "name": "MINTER_ROLE",
      "inputs": [],
      "outputs": [
        {
          "name": "",
          "type": "bytes32",
          "internalType": "bytes32"
        }
      ],
      "stateMutability": "view"
    },
    {
      "type": "function",
      "name": "ODD_BET",
      "inputs": [],
      "outputs": [
        {
          "name": "",
          "type": "uint8",
          "internalType": "uint8"
        }
      ],
      "stateMutability": "view"
    },
    {
      "type": "function",
      "name": "RED_BET",
      "inputs": [],
      "outputs": [
        {
          "name": "",
          "type": "uint8",
          "internalType": "uint8"
        }
      ],
      "stateMutability": "view"
    },
    {
      "type": "function",
      "name": "STRAIGHT_BET",
      "inputs": [],
      "outputs": [
        {
          "name": "",
          "type": "uint8",
          "internalType": "uint8"
        }
      ],
      "stateMutability": "view"
    },
    {
      "type": "function",
      "name": "checkContractHealth",
      "inputs": [],
      "outputs": [
        {
          "name": "hasSufficientBalance",
          "type": "bool",
          "internalType": "bool"
        },
        {
          "name": "hasMinterRole",
          "type": "bool",
          "internalType": "bool"
        },
        {
          "name": "hasBurnerRole",
          "type": "bool",
          "internalType": "bool"
        },
        {
          "name": "currentBalance",
          "type": "uint256",
          "internalType": "uint256"
        },
        {
          "name": "maxRequiredBalance",
          "type": "uint256",
          "internalType": "uint256"
        }
      ],
      "stateMutability": "view"
    },
    {
      "type": "function",
      "name": "gamaToken",
      "inputs": [],
      "outputs": [
        {
          "name": "",
          "type": "address",
          "internalType": "contract IERC20"
        }
      ],
      "stateMutability": "view"
    },
    {
      "type": "function",
      "name": "getAllBetTypes",
      "inputs": [],
      "outputs": [
        {
          "name": "betTypeIds",
          "type": "uint8[]",
          "internalType": "uint8[]"
        },
        {
          "name": "names",
          "type": "string[]",
          "internalType": "string[]"
        },
        {
          "name": "requiresNumbers",
          "type": "bool[]",
          "internalType": "bool[]"
        },
        {
          "name": "payoutMultipliers",
          "type": "uint256[]",
          "internalType": "uint256[]"
        }
      ],
      "stateMutability": "pure"
    },
    {
      "type": "function",
      "name": "getBetDetails",
      "inputs": [
        {
          "name": "player",
          "type": "address",
          "internalType": "address"
        },
        {
          "name": "betIndex",
          "type": "uint256",
          "internalType": "uint256"
        }
      ],
      "outputs": [
        {
          "name": "timestamp",
          "type": "uint256",
          "internalType": "uint256"
        },
        {
          "name": "betTypeName",
          "type": "string",
          "internalType": "string"
        },
        {
          "name": "numbers",
          "type": "uint8[]",
          "internalType": "uint8[]"
        },
        {
          "name": "amount",
          "type": "uint256",
          "internalType": "uint256"
        },
        {
          "name": "payout",
          "type": "uint256",
          "internalType": "uint256"
        },
        {
          "name": "resultNumber",
          "type": "uint8",
          "internalType": "uint8"
        },
        {
          "name": "isWin",
          "type": "bool",
          "internalType": "bool"
        }
      ],
      "stateMutability": "view"
    },
    {
      "type": "function",
      "name": "getBetTypeInfo",
      "inputs": [
        {
          "name": "betTypeId",
          "type": "uint8",
          "internalType": "uint8"
        }
      ],
      "outputs": [
        {
          "name": "name",
          "type": "string",
          "internalType": "string"
        },
        {
          "name": "requiresNumber",
          "type": "bool",
          "internalType": "bool"
        },
        {
          "name": "payoutMultiplier",
          "type": "uint256",
          "internalType": "uint256"
        }
      ],
      "stateMutability": "pure"
    },
    {
      "type": "function",
      "name": "getPossibleWinningNumbers",
      "inputs": [
        {
          "name": "betTypeId",
          "type": "uint8",
          "internalType": "uint8"
        }
      ],
      "outputs": [
        {
          "name": "numbers",
          "type": "uint8[]",
          "internalType": "uint8[]"
        }
      ],
      "stateMutability": "pure"
    },
    {
      "type": "function",
      "name": "getUserBetHistory",
      "inputs": [
        {
          "name": "player",
          "type": "address",
          "internalType": "address"
        },
        {
          "name": "offset",
          "type": "uint256",
          "internalType": "uint256"
        },
        {
          "name": "limit",
          "type": "uint256",
          "internalType": "uint256"
        }
      ],
      "outputs": [
        {
          "name": "bets",
          "type": "tuple[]",
          "internalType": "struct Bet[]",
          "components": [
            {
              "name": "timestamp",
              "type": "uint256",
              "internalType": "uint256"
            },
            {
              "name": "betType",
              "type": "uint8",
              "internalType": "enum BetType"
            },
            {
              "name": "numbers",
              "type": "uint8[]",
              "internalType": "uint8[]"
            },
            {
              "name": "amount",
              "type": "uint256",
              "internalType": "uint256"
            },
            {
              "name": "payout",
              "type": "uint256",
              "internalType": "uint256"
            },
            {
              "name": "winningNumber",
              "type": "uint8",
              "internalType": "uint8"
            }
          ]
        },
        {
          "name": "total",
          "type": "uint256",
          "internalType": "uint256"
        }
      ],
      "stateMutability": "view"
    },
    {
      "type": "function",
      "name": "getValidBetNumbers",
      "inputs": [
        {
          "name": "betType",
          "type": "uint8",
          "internalType": "enum BetType"
        },
        {
          "name": "start",
          "type": "uint8",
          "internalType": "uint8"
        }
      ],
      "outputs": [
        {
          "name": "",
          "type": "uint8[]",
          "internalType": "uint8[]"
        }
      ],
      "stateMutability": "pure"
    },
    {
      "type": "function",
      "name": "placeBet",
      "inputs": [
        {
          "name": "betRequests",
          "type": "tuple[]",
          "internalType": "struct BetRequest[]",
          "components": [
            {
              "name": "betTypeId",
              "type": "uint8",
              "internalType": "uint8"
            },
            {
              "name": "number",
              "type": "uint8",
              "internalType": "uint8"
            },
            {
              "name": "amount",
              "type": "uint256",
              "internalType": "uint256"
            }
          ]
        }
      ],
      "outputs": [],
      "stateMutability": "nonpayable"
    },
    {
      "type": "function",
      "name": "totalGamesPlayed",
      "inputs": [],
      "outputs": [
        {
          "name": "",
          "type": "uint256",
          "internalType": "uint256"
        }
      ],
      "stateMutability": "view"
    },
    {
      "type": "function",
      "name": "totalPayoutAmount",
      "inputs": [],
      "outputs": [
        {
          "name": "",
          "type": "uint256",
          "internalType": "uint256"
        }
      ],
      "stateMutability": "view"
    },
    {
      "type": "function",
      "name": "userData",
      "inputs": [
        {
          "name": "",
          "type": "address",
          "internalType": "address"
        }
      ],
      "outputs": [
        {
          "name": "maxHistorySize",
          "type": "uint256",
          "internalType": "uint256"
        }
      ],
      "stateMutability": "view"
    },
    {
      "type": "function",
      "name": "winningNumber",
      "inputs": [],
      "outputs": [
        {
          "name": "",
          "type": "uint8",
          "internalType": "uint8"
        }
      ],
      "stateMutability": "view"
    },
    {
      "type": "error",
      "name": "BurnFailed",
      "inputs": [
        {
          "name": "account",
          "type": "address",
          "internalType": "address"
        },
        {
          "name": "amount",
          "type": "uint256",
          "internalType": "uint256"
        }
      ]
    },
    {
      "type": "error",
      "name": "InsufficientAllowance",
      "inputs": [
        {
          "name": "required",
          "type": "uint256",
          "internalType": "uint256"
        },
        {
          "name": "allowed",
          "type": "uint256",
          "internalType": "uint256"
        }
      ]
    },
    {
      "type": "error",
      "name": "InsufficientContractBalance",
      "inputs": [
        {
          "name": "required",
          "type": "uint256",
          "internalType": "uint256"
        },
        {
          "name": "available",
          "type": "uint256",
          "internalType": "uint256"
        }
      ]
    },
    {
      "type": "error",
      "name": "InsufficientUserBalance",
      "inputs": [
        {
          "name": "required",
          "type": "uint256",
          "internalType": "uint256"
        },
        {
          "name": "available",
          "type": "uint256",
          "internalType": "uint256"
        }
      ]
    },
    {
      "type": "error",
      "name": "InvalidBetParameters",
      "inputs": [
        {
          "name": "reason",
          "type": "string",
          "internalType": "string"
        }
      ]
    },
    {
      "type": "error",
      "name": "InvalidBetType",
      "inputs": [
        {
          "name": "betType",
          "type": "uint256",
          "internalType": "uint256"
        }
      ]
    },
    {
      "type": "error",
      "name": "MaxPayoutExceeded",
      "inputs": [
        {
          "name": "potentialPayout",
          "type": "uint256",
          "internalType": "uint256"
        },
        {
          "name": "maxAllowed",
          "type": "uint256",
          "internalType": "uint256"
        }
      ]
    },
    {
      "type": "error",
      "name": "MintFailed",
      "inputs": [
        {
          "name": "account",
          "type": "address",
          "internalType": "address"
        },
        {
          "name": "amount",
          "type": "uint256",
          "internalType": "uint256"
        }
      ]
    },
    {
      "type": "error",
      "name": "MissingContractRole",
      "inputs": [
        {
          "name": "role",
          "type": "bytes32",
          "internalType": "bytes32"
        }
      ]
    },
    {
      "type": "error",
      "name": "ReentrancyGuardReentrantCall",
      "inputs": []
    },
    {
      "type": "error",
      "name": "TransferFailed",
      "inputs": [
        {
          "name": "from",
          "type": "address",
          "internalType": "address"
        },
        {
          "name": "to",
          "type": "address",
          "internalType": "address"
        },
        {
          "name": "amount",
          "type": "uint256",
          "internalType": "uint256"
        }
      ]
    }
  ],
  "bytecode": {
    "object": "0x6080604052348015600e575f5ffd5b5060405161334c38038061334c833981016040819052602b9160ac565b60015f556001600160a01b03811660885760405162461bcd60e51b815260206004820152601c60248201527f546f6b656e20616464726573732063616e6e6f74206265207a65726f00000000604482015260640160405180910390fd5b600180546001600160a01b0319166001600160a01b039290921691909117905560d7565b5f6020828403121560bb575f5ffd5b81516001600160a01b038116811460d0575f5ffd5b9392505050565b613268806100e45f395ff3fe608060405234801561000f575f5ffd5b50600436106101fd575f3560e01c806394bae38511610114578063d5391393116100a9578063e3286e5511610079578063e3286e5514610414578063e60271cf14610435578063e7efcfc21461043d578063fa198c4f14610446578063fea9b57214610468575f5ffd5b8063d5391393146103c5578063d56ec8c9146103d9578063d6b6cd5914610404578063ddebc9521461040c575f5ffd5b8063b8a5e438116100e4578063b8a5e4381461037e578063c106625114610386578063c1a5fe511461038e578063c8910913146103a3575f5ffd5b806394bae385146103535780639793e1d61461035b578063a39822271461036e578063b34daef414610376575f5ffd5b8063432aeb8f116101955780635c492129116101655780635c4921291461031957806379023170146103225780637d3d31ad1461033a578063918f86741461034257806394b9b5071461034b575f5ffd5b8063432aeb8f146102d35780634664611e146102da5780634689b441146102e75780635a0db4d2146102f9575f5ffd5b80632d2cd034116101d05780632d2cd034146102835780632ff2149414610294578063309167f5146102ba57806336b39a60146102cb575f5ffd5b806319469f1b146102015780632257b0571461022057806327a69dad14610228578063282c51f314610261575b5f5ffd5b610209600881565b60405160ff90911681526020015b60405180910390f35b610209600581565b610230610470565b6040516102179594939291909415158552921515602085015290151560408401526060830152608082015260a00190565b6102755f5160206131f35f395f51905f5281565b604051908152602001610217565b6102756969e10de76676d080000081565b6102a76102a2366004612c2a565b6105ff565b6040516102179796959493929190612cbd565b61027569152d02c7e14af680000081565b610209600181565b6102095f81565b6005546102099060ff1681565b6102756a0e79c4e6a3023e8180000081565b61030c610307366004612d23565b6107d7565b6040516102179190612d3c565b61027560035481565b61032a610ce1565b6040516102179493929190612db0565b610209600c81565b61027561271081565b610209600b81565b610209600a81565b61030c610369366004612e4d565b610e46565b610209600781565b610209600281565b610209600481565b610275600a81565b6103a161039c366004612e83565b610fbb565b005b6102756103b1366004612ef4565b60026020525f908152604090206001015481565b6102755f5160206132135f395f51905f5281565b6001546103ec906001600160a01b031681565b6040516001600160a01b039091168152602001610217565b610209600381565b610209600681565b610427610422366004612f0d565b6110be565b604051610217929190612f51565b610209600981565b61027560045481565b610459610454366004612d23565b61138c565b60405161021793929190613059565b610209602481565b6001546040516370a0823160e01b81523060048201525f9182918291829182916001600160a01b0316906370a0823190602401602060405180830381865afa1580156104be573d5f5f3e3d5ffd5b505050506040513d601f19601f820116820180604052508101906104e2919061307d565b600154604051632474521560e21b81525f5160206132135f395f51905f5260048201523060248201529193506a0e79c4e6a3023e81800000925082841015916001600160a01b03909116906391d1485490604401602060405180830381865afa158015610551573d5f5f3e3d5ffd5b505050506040513d601f19601f820116820180604052508101906105759190613094565b600154604051632474521560e21b81525f5160206131f35f395f51905f5260048201523060248201526001600160a01b03909116906391d1485490604401602060405180830381865afa1580156105ce573d5f5f3e3d5ffd5b505050506040513d601f19601f820116820180604052508101906105f29190613094565b9450945094509091929394565b6001600160a01b0382165f9081526002602052604081205460609081908390819081908190881061066b5760405162461bcd60e51b8152602060048201526011602482015270092dcecc2d8d2c840c4cae840d2dcc8caf607b1b60448201526064015b60405180910390fd5b6001600160a01b0389165f90815260026020526040812080548a908110610694576106946130b3565b905f5260205f2090600602016040518060c00160405290815f8201548152602001600182015f9054906101000a900460ff1660088111156106d7576106d7612f3d565b60088111156106e8576106e8612f3d565b81526020016002820180548060200260200160405190810160405280929190818152602001828054801561075657602002820191905f5260205f20905f905b825461010083900a900460ff168152602060019283018181049485019490930390920291018084116107275790505b505050918352505060038201546020808301919091526004830154604083015260059092015460ff166060909101528101519091505f906107a290600881111561045457610454612f3d565b5050825160408401516060850151608086015160a090960151929f939e50909c509a5092985091965050861515945092505050565b606060ff8216610851576040805160258082526104c0820190925290602082016104a0803683370190505090505f5b60248160ff161161084b5780828260ff1681518110610827576108276130b3565b60ff9092166020928302919091019091015280610843816130ef565b915050610806565b50919050565b60061960ff8316016109765760408051601280825261026082019092529060208201610240803683370190505060408051610240810182526001815260036020808301919091526005928201929092526007606082015260096080820152600c60a0820152600e60c0820152601060e082015260126101008201526013610120820152601561014082015260176101608201526019610180820152601b6101a0820152601e6101c08201526101e0810191909152602261020082015260246102208201529091505f5b60128160ff16101561096f57818160ff166012811061093b5761093b6130b3565b6020020151838260ff1681518110610955576109556130b3565b60ff9092166020928302919091019091015260010161091a565b5050919050565b60071960ff831601610a8f576040805160128082526102608201909252906020820161024080368337019050506040805161024081018252600281526004602082015260069181019190915260086060820152600a6080820152600b60a0820152600d60c0820152600f60e08201526011610100820152601461012082015260166101408201526018610160820152601a610180820152601c6101a0820152601d6101c0820152601f6101e0820152602161020082015260236102208201529091505f5b60128160ff16101561096f57818160ff1660128110610a5b57610a5b6130b3565b6020020151838260ff1681518110610a7557610a756130b3565b60ff90921660209283029190910190910152600101610a3a565b60081960ff831601610b115760408051601280825261026082019092529060208201610240803683370190505090505f5b60128160ff16101561084b57610ad781600161310d565b610ae2906002613126565b828260ff1681518110610af757610af76130b3565b60ff90921660209283029190910190910152600101610ac0565b60091960ff831601610b935760408051601280825261026082019092529060208201610240803683370190505090505f5b60128160ff16101561084b57610b59816002613126565b610b6490600161310d565b828260ff1681518110610b7957610b796130b3565b60ff90921660209283029190910190910152600101610b42565b600a1960ff831601610c0a5760408051601280825261026082019092529060208201610240803683370190505090505f5b60128160ff16101561084b57610bdb81600161310d565b828260ff1681518110610bf057610bf06130b3565b60ff90921660209283029190910190910152600101610bc4565b600b1960ff831601610c815760408051601280825261026082019092529060208201610240803683370190505090505f5b60128160ff16101561084b57610c5281601361310d565b828260ff1681518110610c6757610c676130b3565b60ff90921660209283029190910190910152600101610c3b565b6040516334460f4160e01b815260206004820152602960248201527f496e76616c696420626574207479706520494420666f72206e756d626572206760448201526832b732b930ba34b7b760b91b6064820152608401610662565b919050565b60408051600d8082526101c0820190925260609182918291829190602082016101a0803683370190505060408051600d8082526101c08201909252919550816020015b6060815260200190600190039081610d2457505060408051600d8082526101c08201909252919450602082016101a080368337505060408051600d8082526101c082019092529294509050602082016101a0803683370190505090505f5b600d8160ff161015610e3f575f5f5f610d9a8461138c565b92509250925083888560ff1681518110610db657610db66130b3565b602002602001019060ff16908160ff168152505082878560ff1681518110610de057610de06130b3565b602002602001018190525081868560ff1681518110610e0157610e016130b3565b60200260200101901515908115158152505080858560ff1681518110610e2957610e296130b3565b6020908102919091010152505050600101610d82565b5090919293565b60606002836008811115610e5c57610e5c612f3d565b03610ed7578160ff1660011480610e7657508160ff166002145b80610e8457508160ff166003145b610ec75760405162461bcd60e51b8152602060048201526014602482015273125b9d985b1a590818dbdb1d5b5b881cdd185c9d60621b6044820152606401610662565b610ed082611728565b9050610fb5565b6001836008811115610eeb57610eeb612f3d565b03610f5e578160ff1660011480610f0557508160ff16600d145b80610f1357508160ff166019145b610f555760405162461bcd60e51b8152602060048201526013602482015272125b9d985b1a5908191bde995b881cdd185c9d606a1b6044820152606401610662565b610ed0826117a9565b60405162461bcd60e51b815260206004820152602660248201527f496e76616c696420626574207479706520666f72206e756d6265722067656e656044820152653930ba34b7b760d11b6064820152608401610662565b92915050565b610fc3611818565b5f819003611007576040516334460f4160e01b815260206004820152601060248201526f139bc818995d1cc81c1c9bdd9a59195960821b6044820152606401610662565b600f811115611049576040516334460f4160e01b815260206004820152600d60248201526c546f6f206d616e79206265747360981b6044820152606401610662565b335f90815260026020526040812090806110638585611840565b9092509050611073338383611a2c565b5f61108086868686611ea7565b600380549192505f61109183613142565b91905055508060045f8282546110a7919061315a565b909155505060015f55506110ba92505050565b5050565b6001600160a01b0383165f9081526002602090815260408083208054825181850281018501909352808352606094938493929190849084015b82821015611202578382905f5260205f2090600602016040518060c00160405290815f8201548152602001600182015f9054906101000a900460ff16600881111561114457611144612f3d565b600881111561115557611155612f3d565b8152602001600282018054806020026020016040519081016040528092919081815260200182805480156111c357602002820191905f5260205f20905f905b825461010083900a900460ff168152602060019283018181049485019490930390920291018084116111945790505b505050918352505060038201546020808301919091526004830154604083015260059092015460ff1660609091015290825260019290920191016110f7565b50508251929350505080861061127f57604080515f8082526020820190925290611273565b6112606040805160c081019091525f80825260208201908152602001606081526020015f81526020015f81526020015f60ff1681525090565b8152602001906001900390816112275790505b50935091506113849050565b5f61128a868861315a565b9050818111156112975750805b5f6112a2888361316d565b90508067ffffffffffffffff8111156112bd576112bd6130c7565b60405190808252806020026020018201604052801561132757816020015b6113146040805160c081019091525f80825260208201908152602001606081526020015f81526020015f81526020015f60ff1681525090565b8152602001906001900390816112db5790505b5095505f5b8181101561137c578461133f828b61315a565b8151811061134f5761134f6130b3565b6020026020010151878281518110611369576113696130b3565b602090810291909101015260010161132c565b509193505050505b935093915050565b60605f8060ff84166113d25760016113a76127106023613180565b60408051808201909152600881526714dd1c985a59da1d60c21b602082015294509092509050611721565b5f1960ff851601611420575f6113eb6127106002613180565b604080518082019091526012815271466972737420446f7a656e2028312d31322960701b602082015294509092509050611721565b60011960ff851601611471575f61143a6127106002613180565b6040805180820190915260148152735365636f6e6420446f7a656e202831332d32342960601b602082015294509092509050611721565b60021960ff8516016114c1575f61148b6127106002613180565b604080518082019091526013815272546869726420446f7a656e202832352d33362960681b602082015294509092509050611721565b60031960ff85160161150a575f6114db6127106002613180565b60408051808201909152600c81526b2334b939ba1021b7b63ab6b760a11b602082015294509092509050611721565b60041960ff851601611554575f6115246127106002613180565b60408051808201909152600d81526c29b2b1b7b7321021b7b63ab6b760991b602082015294509092509050611721565b60051960ff85160161159d575f61156e6127106002613180565b60408051808201909152600c81526b2a3434b9321021b7b63ab6b760a11b602082015294509092509050611721565b60061960ff8516016115d057505060408051808201909152600381526214995960ea1b602082015290505f612710611721565b60071960ff851601611605575050604080518082019091526005815264426c61636b60d81b602082015290505f612710611721565b60081960ff85160161163957505060408051808201909152600481526322bb32b760e11b602082015290505f612710611721565b60091960ff85160161166c57505060408051808201909152600381526213d91960ea1b602082015290505f612710611721565b600a1960ff8516016116a657505060408051808201909152600a8152694c6f772028312d31382960b01b602082015290505f612710611721565b600b1960ff8516016116e257505060408051808201909152600c81526b48696768202831392d33362960a01b602082015290505f612710611721565b6040516334460f4160e01b8152602060048201526013602482015272125b9d985b1a590818995d081d1e5c19481251606a1b6044820152606401610662565b9193909250565b60408051600c8082526101a082019092526060915f919060208201610180803683370190505090505f5b600c8160ff1610156117a257611769816003613126565b611773908561310d565b828260ff1681518110611788576117886130b3565b60ff90921660209283029190910190910152600101611752565b5092915050565b60408051600c8082526101a082019092526060915f919060208201610180803683370190505090505f5b600c8160ff1610156117a2576117e9818561310d565b828260ff16815181106117fe576117fe6130b3565b60ff909216602092830291909101909101526001016117d3565b60025f540361183a57604051633ee5aeb560e01b815260040160405180910390fd5b60025f55565b5f80805b83811015611a245784848281811061185e5761185e6130b3565b905060600201604001355f036118ac576040516334460f4160e01b8152602060048201526012602482015271125b9d985b1a590818995d08185b5bdd5b9d60721b6044820152606401610662565b69152d02c7e14af68000008585838181106118c9576118c96130b3565b905060600201604001351115611922576040516334460f4160e01b815260206004820152601b60248201527f53696e676c652062657420616d6f756e7420746f6f206c6172676500000000006044820152606401610662565b848482818110611934576119346130b3565b9050606002016040013583611949919061315a565b92505f61196c868684818110611961576119616130b3565b905060600201612101565b5090505f6119798261239f565b90505f61271082898987818110611992576119926130b3565b905060600201604001356119a69190613180565b6119b091906131ab565b90506119bc818661315a565b94506969e10de76676d0800000861115611a19576040516334460f4160e01b815260206004820152601a60248201527f546f74616c2062657420616d6f756e7420746f6f206c617267650000000000006044820152606401610662565b505050600101611844565b509250929050565b6001546040516370a0823160e01b81526001600160a01b038581166004830152849216906370a0823190602401602060405180830381865afa158015611a74573d5f5f3e3d5ffd5b505050506040513d601f19601f82011682018060405250810190611a98919061307d565b1015611b2c576001546040516370a0823160e01b81526001600160a01b038581166004830152849216906370a0823190602401602060405180830381865afa158015611ae6573d5f5f3e3d5ffd5b505050506040513d601f19601f82011682018060405250810190611b0a919061307d565b6040516302fa826960e51b815260048101929092526024820152604401610662565b600154604051636eb1769f60e11b81526001600160a01b0385811660048301523060248301528492169063dd62ed3e90604401602060405180830381865afa158015611b7a573d5f5f3e3d5ffd5b505050506040513d601f19601f82011682018060405250810190611b9e919061307d565b1015611c3857600154604051636eb1769f60e11b81526001600160a01b0385811660048301523060248301528492169063dd62ed3e90604401602060405180830381865afa158015611bf2573d5f5f3e3d5ffd5b505050506040513d601f19601f82011682018060405250810190611c16919061307d565b60405163054365bb60e31b815260048101929092526024820152604401610662565b6001546040516370a0823160e01b8152306004820152829184916001600160a01b03909116906370a0823190602401602060405180830381865afa158015611c82573d5f5f3e3d5ffd5b505050506040513d601f19601f82011682018060405250810190611ca6919061307d565b611cb0919061315a565b1015611d50576001546040516370a0823160e01b8152306004820152829184916001600160a01b03909116906370a0823190602401602060405180830381865afa158015611d00573d5f5f3e3d5ffd5b505050506040513d601f19601f82011682018060405250810190611d24919061307d565b611d2e919061315a565b60405163b7ddd88b60e01b815260048101929092526024820152604401610662565b600154604051632474521560e21b81525f5160206131f35f395f51905f5260048201523060248201526001600160a01b03909116906391d1485490604401602060405180830381865afa158015611da9573d5f5f3e3d5ffd5b505050506040513d601f19601f82011682018060405250810190611dcd9190613094565b611df9576040516359f75fb760e11b81525f5160206131f35f395f51905f526004820152602401610662565b600154604051632474521560e21b81525f5160206132135f395f51905f5260048201523060248201526001600160a01b03909116906391d1485490604401602060405180830381865afa158015611e52573d5f5f3e3d5ffd5b505050506040513d601f19601f82011682018060405250810190611e769190613094565b611ea2576040516359f75fb760e11b81525f5160206132135f395f51905f526004820152602401610662565b505050565b600154604051632770a7eb60e21b8152336004820152602481018390525f916001600160a01b031690639dc29fac906044015f604051808303815f87803b158015611ef0575f5ffd5b505af1925050508015611f01575060015b611f275760405163016f84a160e01b815233600482015260248101839052604401610662565b611f2f612481565b6005805460ff191660ff929092169190911790555f5b84811015612072575f5f611f64888885818110611961576119616130b3565b915091505f611f9b82848b8b88818110611f8057611f806130b3565b600554604060609092029390930101359160ff1690506124f9565b905084611fa8828261315a565b1015611fe85760405162461bcd60e51b815260206004820152600f60248201526e5061796f7574206f766572666c6f7760881b6044820152606401610662565b611ff2818661315a565b94505f6040518060c0016040528042815260200185600881111561201857612018612f3d565b81526020018481526020018b8b88818110612035576120356130b3565b60406060909102929092018201358352506020820185905260055460ff1691015290506120628882612630565b505060019092019150611f459050565b5080156120f9576001546040516340c10f1960e01b8152336004820152602481018390526001600160a01b03909116906340c10f19906044015f604051808303815f87803b1580156120c2575f5ffd5b505af19250505080156120d3575060015b6120f957604051635c0b206f60e01b815233600482015260248101829052604401610662565b949350505050565b5f6060816121126020850185612d23565b60ff16036121db57602461212c6040850160208601612d23565b60ff16111561217d5760405162461bcd60e51b815260206004820152601f60248201527f496e76616c6964206e756d62657220666f7220737472616967687420626574006044820152606401610662565b60408051600180825281830190925290602080830190803683370190505090506121ad6040840160208501612d23565b815f815181106121bf576121bf6130b3565b602002602001019060ff16908160ff16815250505f9150915091565b60016121ea6020850185612d23565b60ff16036122075760016121fe60016117a9565b91509150915091565b60026122166020850185612d23565b60ff160361222a5760016121fe600d6117a9565b60036122396020850185612d23565b60ff160361224d5760016121fe60196117a9565b600461225c6020850185612d23565b60ff16036122705760026121fe6001611728565b600561227f6020850185612d23565b60ff16036122935760026121fe6002611728565b60066122a26020850185612d23565b60ff16036122b65760026121fe6003611728565b60076122c56020850185612d23565b60ff16036123045760035f5b6040519080825280602002602001820160405280156122fa578160200160208202803683370190505b5091509150915091565b60086123136020850185612d23565b60ff16036123235760045f6122d1565b60096123326020850185612d23565b60ff16036123425760055f6122d1565b600a6123516020850185612d23565b60ff16036123615760065f6122d1565b600b6123706020850185612d23565b60ff16036123805760075f6122d1565b600c61238f6020850185612d23565b60ff16036116e25760085f6122d1565b5f808260088111156123b3576123b3612f3d565b036123c557610fb56127106023613180565b60018260088111156123d9576123d9612f3d565b036123eb57610fb56127106002613180565b60028260088111156123ff576123ff612f3d565b0361241157610fb56127106002613180565b600382600881111561242557612425612f3d565b101580156124455750600882600881111561244257612442612f3d565b11155b156124535750612710919050565b81600881111561246557612465612f3d565b604051636a35924760e01b815260040161066291815260200190565b5f61248e6024600161310d565b60ff164244336003546040516020016124d29493929190938452602084019290925260601b6bffffffffffffffffffffffff19166040830152605482015260740190565b604051602081830303815290604052805190602001205f1c6124f491906131be565b905090565b5f825f0361250857505f6120f9565b69152d02c7e14af6800000831115612563576040516334460f4160e01b815260206004820152601a60248201527f42657420616d6f756e742065786365656473206d6178696d756d0000000000006044820152606401610662565b61256e858584612810565b15612626575f61257d8561239f565b9050805f036125c35760405162461bcd60e51b815260206004820152601260248201527124b73b30b634b21036bab63a34b83634b2b960711b6044820152606401610662565b5f6127106125d18387613180565b6125db91906131ab565b90506a0e79c4e6a3023e8180000081111561261d576040516310f2885f60e11b8152600481018290526a0e79c4e6a3023e818000006024820152604401610662565b91506120f99050565b505f949350505050565b8154600a116127ce575f5b82546126499060019061316d565b811015612719578261265c82600161315a565b8154811061266c5761266c6130b3565b905f5260205f209060060201835f01828154811061268c5761268c6130b3565b5f91825260209091208254600690920201908155600180830154818301805460ff90921692909160ff1916908360088111156126ca576126ca612f3d565b0217905550600282810180546126e39284019190612b0e565b5060038281015490820155600480830154908201556005918201549101805460ff191660ff90921691909117905560010161263b565b5081548190839061272c9060019061316d565b8154811061273c5761273c6130b3565b905f5260205f2090600602015f820151815f01556020820151816001015f6101000a81548160ff0219169083600881111561277957612779612f3d565b021790555060408201518051612799916002840191602090910190612b68565b50606082015160038201556080820151600482015560a0909101516005909101805460ff191660ff9092169190911790555050565b8154600181810184555f8481526020908190208451600690940201928355830151828201805485949360ff199091169083600881111561277957612779612f3d565b5f602460ff8316111561282457505f612a05565b8160ff165f0361287d575f83600881111561284157612841612f3d565b14801561284f575083516001145b80156128765750835f81518110612868576128686130b3565b602002602001015160ff165f145b9050612a05565b600383600881111561289157612891612f3d565b0361289f5761287682612a0c565b60048360088111156128b3576128b3612f3d565b036128d5576128c182612a0c565b15801561287657505060ff81161515612a05565b60058360088111156128e9576128e9612f3d565b03612910576128f96002836131d1565b60ff1615801561287657505060ff81161515612a05565b600683600881111561292457612924612f3d565b03612941576129346002836131d1565b60ff166001149050612a05565b600783600881111561295557612955612f3d565b036129775760018260ff1610158015612876575050601260ff82161115612a05565b600883600881111561298b5761298b612f3d565b036129ad5760138260ff1610158015612876575050602460ff82161115612a05565b5f5b84518160ff161015612a00578260ff16858260ff16815181106129d4576129d46130b3565b602002602001015160ff16036129ee576001915050612a05565b806129f8816130ef565b9150506129af565b505f90505b9392505050565b5f8160ff165f03612a1e57505f919050565b60408051610240810182526001815260036020808301919091526005928201929092526007606082015260096080820152600c60a0820152600e60c0820152601060e082015260126101008201526013610120820152601561014082015260176101608201526019610180820152601b6101a0820152601e6101c08201526101e0810191909152602261020082015260246102208201525f5b60128160ff161015612b05578360ff16828260ff1660128110612adc57612adc6130b3565b602002015160ff1603612af3575060019392505050565b80612afd816130ef565b915050612ab7565b505f9392505050565b828054828255905f5260205f2090601f01602090048101928215612b58575f5260205f2091601f016020900482015b82811115612b58578254825591600101919060010190612b3d565b50612b64929150612c00565b5090565b828054828255905f5260205f2090601f01602090048101928215612b58579160200282015f5b83821115612bcb57835183826101000a81548160ff021916908360ff16021790555092602001926001016020815f01049283019260010302612b8e565b8015612bf75782816101000a81549060ff02191690556001016020815f01049283019260010302612bcb565b5050612b649291505b5b80821115612b64575f8155600101612c01565b80356001600160a01b0381168114610cdc575f5ffd5b5f5f60408385031215612c3b575f5ffd5b612c4483612c14565b946020939093013593505050565b5f81518084528060208401602086015e5f602082860101526020601f19601f83011685010191505092915050565b5f8151808452602084019350602083015f5b82811015612cb357815160ff16865260209586019590910190600101612c92565b5093949350505050565b87815260e060208201525f612cd560e0830189612c52565b8281036040840152612ce78189612c80565b91505085606083015284608083015260ff841660a083015282151560c083015298975050505050505050565b803560ff81168114610cdc575f5ffd5b5f60208284031215612d33575f5ffd5b612a0582612d13565b602081525f612a056020830184612c80565b5f8151808452602084019350602083015f5b82811015612cb35781511515865260209586019590910190600101612d60565b5f8151808452602084019350602083015f5b82811015612cb3578151865260209586019590910190600101612d92565b608081525f612dc26080830187612c80565b828103602084015280865180835260208301915060208160051b840101602089015f5b83811015612e1757601f19868403018552612e01838351612c52565b6020958601959093509190910190600101612de5565b50508581036040870152612e2b8189612d4e565b93505050508281036060840152612e428185612d80565b979650505050505050565b5f5f60408385031215612e5e575f5ffd5b823560098110612e6c575f5ffd5b9150612e7a60208401612d13565b90509250929050565b5f5f60208385031215612e94575f5ffd5b823567ffffffffffffffff811115612eaa575f5ffd5b8301601f81018513612eba575f5ffd5b803567ffffffffffffffff811115612ed0575f5ffd5b856020606083028401011115612ee4575f5ffd5b6020919091019590945092505050565b5f60208284031215612f04575f5ffd5b612a0582612c14565b5f5f5f60608486031215612f1f575f5ffd5b612f2884612c14565b95602085013595506040909401359392505050565b634e487b7160e01b5f52602160045260245ffd5b5f604082016040835280855180835260608501915060608160051b8601019250602087015f5b8281101561304557605f19878603018452815160c0860181518752602082015160098110612fb357634e487b7160e01b5f52602160045260245ffd5b80602089015250604082015160c0604089015281815180845260e08a0191506020830193505f92505b808310156130025760ff8451168252602082019150602084019350600183019250612fdc565b50606084015160608a0152608084015160808a015260a0840151935061302d60a08a018560ff169052565b97505050602094850194929092019150600101612f77565b505050506020929092019290925292915050565b606081525f61306b6060830186612c52565b93151560208301525060400152919050565b5f6020828403121561308d575f5ffd5b5051919050565b5f602082840312156130a4575f5ffd5b81518015158114612a05575f5ffd5b634e487b7160e01b5f52603260045260245ffd5b634e487b7160e01b5f52604160045260245ffd5b634e487b7160e01b5f52601160045260245ffd5b5f60ff821660ff8103613104576131046130db565b60010192915050565b60ff8181168382160190811115610fb557610fb56130db565b60ff81811683821602908116908181146117a2576117a26130db565b5f60018201613153576131536130db565b5060010190565b80820180821115610fb557610fb56130db565b81810381811115610fb557610fb56130db565b8082028115828204841417610fb557610fb56130db565b634e487b7160e01b5f52601260045260245ffd5b5f826131b9576131b9613197565b500490565b5f826131cc576131cc613197565b500690565b5f60ff8316806131e3576131e3613197565b8060ff8416069150509291505056fe3c11d16cbaffd01df69ce1c404f6340ee057498f5f00246190ea54220576a8489f2df0fed2c77648de5860a4cc508cd0818c85b8b8a1ab4ceeef8d981c8956a6a264697066735822122091c9c1e201ade0d82cec3a2ea7933a6c669f80106cd0b256ef5b8693d873def464736f6c634300081c0033",
    "linkReferences": {}
  },
  "methodIdentifiers": {
    "BLACK_BET()": "19469f1b",
    "BURNER_ROLE()": "282c51f3",
    "COLUMN_BET_FIRST()": "b8a5e438",
    "COLUMN_BET_SECOND()": "2257b057",
    "COLUMN_BET_THIRD()": "ddebc952",
    "DENOMINATOR()": "918f8674",
    "DOZEN_BET_FIRST()": "36b39a60",
    "DOZEN_BET_SECOND()": "b34daef4",
    "DOZEN_BET_THIRD()": "d6b6cd59",
    "EVEN_BET()": "e60271cf",
    "HIGH_BET()": "7d3d31ad",
    "LOW_BET()": "94b9b507",
    "MAX_BET_AMOUNT()": "309167f5",
    "MAX_HISTORY_SIZE()": "c1066251",
    "MAX_NUMBER()": "fea9b572",
    "MAX_POSSIBLE_PAYOUT()": "4689b441",
    "MAX_TOTAL_BET_AMOUNT()": "2d2cd034",
    "MINTER_ROLE()": "d5391393",
    "ODD_BET()": "94bae385",
    "RED_BET()": "a3982227",
    "STRAIGHT_BET()": "432aeb8f",
    "checkContractHealth()": "27a69dad",
    "gamaToken()": "d56ec8c9",
    "getAllBetTypes()": "79023170",
    "getBetDetails(address,uint256)": "2ff21494",
    "getBetTypeInfo(uint8)": "fa198c4f",
    "getPossibleWinningNumbers(uint8)": "5a0db4d2",
    "getUserBetHistory(address,uint256,uint256)": "e3286e55",
    "getValidBetNumbers(uint8,uint8)": "9793e1d6",
    "placeBet((uint8,uint8,uint256)[])": "c1a5fe51",
    "totalGamesPlayed()": "5c492129",
    "totalPayoutAmount()": "e7efcfc2",
    "userData(address)": "c8910913",
    "winningNumber()": "4664611e"
  },
  "id": 39
}