{
  "abi": [
    {
      "type": "constructor",
      "inputs": [
        {
          "name": "_myTokenAddress",
          "type": "address",
          "internalType": "address"
        }
      ],
      "stateMutability": "nonpayable"
    },
    {
      "type": "function",
      "name": "BURNER_ROLE",
      "inputs": [],
      "outputs": [
        {
          "name": "",
          "type": "bytes32",
          "internalType": "bytes32"
        }
      ],
      "stateMutability": "view"
    },
    {
      "type": "function",
      "name": "DEFAULT_HISTORY_SIZE",
      "inputs": [],
      "outputs": [
        {
          "name": "",
          "type": "uint256",
          "internalType": "uint256"
        }
      ],
      "stateMutability": "view"
    },
    {
      "type": "function",
      "name": "DENOMINATOR",
      "inputs": [],
      "outputs": [
        {
          "name": "",
          "type": "uint256",
          "internalType": "uint256"
        }
      ],
      "stateMutability": "view"
    },
    {
      "type": "function",
      "name": "MAX_NUMBER",
      "inputs": [],
      "outputs": [
        {
          "name": "",
          "type": "uint8",
          "internalType": "uint8"
        }
      ],
      "stateMutability": "view"
    },
    {
      "type": "function",
      "name": "MINTER_ROLE",
      "inputs": [],
      "outputs": [
        {
          "name": "",
          "type": "bytes32",
          "internalType": "bytes32"
        }
      ],
      "stateMutability": "view"
    },
    {
      "type": "function",
      "name": "addOwner",
      "inputs": [
        {
          "name": "newOwner",
          "type": "address",
          "internalType": "address"
        }
      ],
      "outputs": [],
      "stateMutability": "nonpayable"
    },
    {
      "type": "function",
      "name": "emergencyWithdraw",
      "inputs": [
        {
          "name": "token",
          "type": "address",
          "internalType": "address"
        },
        {
          "name": "amount",
          "type": "uint256",
          "internalType": "uint256"
        }
      ],
      "outputs": [],
      "stateMutability": "nonpayable"
    },
    {
      "type": "function",
      "name": "getBetHistory",
      "inputs": [
        {
          "name": "player",
          "type": "address",
          "internalType": "address"
        }
      ],
      "outputs": [
        {
          "name": "",
          "type": "tuple[]",
          "internalType": "struct Bet[]",
          "components": [
            {
              "name": "numbers",
              "type": "uint8[]",
              "internalType": "uint8[]"
            },
            {
              "name": "amount",
              "type": "uint256",
              "internalType": "uint256"
            },
            {
              "name": "betType",
              "type": "uint8",
              "internalType": "enum BetType"
            },
            {
              "name": "timestamp",
              "type": "uint256",
              "internalType": "uint256"
            },
            {
              "name": "winningNumber",
              "type": "uint8",
              "internalType": "uint8"
            },
            {
              "name": "completed",
              "type": "bool",
              "internalType": "bool"
            },
            {
              "name": "payout",
              "type": "uint256",
              "internalType": "uint256"
            },
            {
              "name": "status",
              "type": "uint8",
              "internalType": "enum GameStatus"
            }
          ]
        }
      ],
      "stateMutability": "view"
    },
    {
      "type": "function",
      "name": "getContractStats",
      "inputs": [],
      "outputs": [
        {
          "name": "totalGames",
          "type": "uint256",
          "internalType": "uint256"
        },
        {
          "name": "totalPayout",
          "type": "uint256",
          "internalType": "uint256"
        },
        {
          "name": "currentBalance",
          "type": "uint256",
          "internalType": "uint256"
        }
      ],
      "stateMutability": "view"
    },
    {
      "type": "function",
      "name": "getUserGameData",
      "inputs": [
        {
          "name": "player",
          "type": "address",
          "internalType": "address"
        }
      ],
      "outputs": [
        {
          "name": "",
          "type": "tuple",
          "internalType": "struct UserGameData",
          "components": [
            {
              "name": "betHistory",
              "type": "tuple[]",
              "internalType": "struct Bet[]",
              "components": [
                {
                  "name": "numbers",
                  "type": "uint8[]",
                  "internalType": "uint8[]"
                },
                {
                  "name": "amount",
                  "type": "uint256",
                  "internalType": "uint256"
                },
                {
                  "name": "betType",
                  "type": "uint8",
                  "internalType": "enum BetType"
                },
                {
                  "name": "timestamp",
                  "type": "uint256",
                  "internalType": "uint256"
                },
                {
                  "name": "winningNumber",
                  "type": "uint8",
                  "internalType": "uint8"
                },
                {
                  "name": "completed",
                  "type": "bool",
                  "internalType": "bool"
                },
                {
                  "name": "payout",
                  "type": "uint256",
                  "internalType": "uint256"
                },
                {
                  "name": "status",
                  "type": "uint8",
                  "internalType": "enum GameStatus"
                }
              ]
            },
            {
              "name": "winningNumbersHistory",
              "type": "uint8[]",
              "internalType": "uint8[]"
            },
            {
              "name": "totalBets",
              "type": "uint256",
              "internalType": "uint256"
            },
            {
              "name": "totalWinnings",
              "type": "uint256",
              "internalType": "uint256"
            },
            {
              "name": "totalLosses",
              "type": "uint256",
              "internalType": "uint256"
            },
            {
              "name": "gamesPlayed",
              "type": "uint256",
              "internalType": "uint256"
            },
            {
              "name": "lastPlayedTimestamp",
              "type": "uint256",
              "internalType": "uint256"
            },
            {
              "name": "maxHistorySize",
              "type": "uint256",
              "internalType": "uint256"
            }
          ]
        }
      ],
      "stateMutability": "view"
    },
    {
      "type": "function",
      "name": "isOwner",
      "inputs": [
        {
          "name": "account",
          "type": "address",
          "internalType": "address"
        }
      ],
      "outputs": [
        {
          "name": "",
          "type": "bool",
          "internalType": "bool"
        }
      ],
      "stateMutability": "view"
    },
    {
      "type": "function",
      "name": "myToken",
      "inputs": [],
      "outputs": [
        {
          "name": "",
          "type": "address",
          "internalType": "contract IMyToken"
        }
      ],
      "stateMutability": "view"
    },
    {
      "type": "function",
      "name": "owner",
      "inputs": [],
      "outputs": [
        {
          "name": "",
          "type": "address",
          "internalType": "address"
        }
      ],
      "stateMutability": "view"
    },
    {
      "type": "function",
      "name": "pause",
      "inputs": [],
      "outputs": [],
      "stateMutability": "nonpayable"
    },
    {
      "type": "function",
      "name": "paused",
      "inputs": [],
      "outputs": [
        {
          "name": "",
          "type": "bool",
          "internalType": "bool"
        }
      ],
      "stateMutability": "view"
    },
    {
      "type": "function",
      "name": "placeManyBetsAndSpin",
      "inputs": [
        {
          "name": "bets",
          "type": "tuple[]",
          "internalType": "struct BetRequest[]",
          "components": [
            {
              "name": "numbers",
              "type": "uint8[]",
              "internalType": "uint8[]"
            },
            {
              "name": "amount",
              "type": "uint256",
              "internalType": "uint256"
            },
            {
              "name": "betType",
              "type": "uint8",
              "internalType": "enum BetType"
            }
          ]
        }
      ],
      "outputs": [],
      "stateMutability": "nonpayable"
    },
    {
      "type": "function",
      "name": "removeOwner",
      "inputs": [
        {
          "name": "ownerToRemove",
          "type": "address",
          "internalType": "address"
        }
      ],
      "outputs": [],
      "stateMutability": "nonpayable"
    },
    {
      "type": "function",
      "name": "renounceOwnership",
      "inputs": [],
      "outputs": [],
      "stateMutability": "nonpayable"
    },
    {
      "type": "function",
      "name": "setHistorySize",
      "inputs": [
        {
          "name": "newSize",
          "type": "uint256",
          "internalType": "uint256"
        }
      ],
      "outputs": [],
      "stateMutability": "nonpayable"
    },
    {
      "type": "function",
      "name": "totalGamesPlayed",
      "inputs": [],
      "outputs": [
        {
          "name": "",
          "type": "uint256",
          "internalType": "uint256"
        }
      ],
      "stateMutability": "view"
    },
    {
      "type": "function",
      "name": "totalPayoutAmount",
      "inputs": [],
      "outputs": [
        {
          "name": "",
          "type": "uint256",
          "internalType": "uint256"
        }
      ],
      "stateMutability": "view"
    },
    {
      "type": "function",
      "name": "transferOwnership",
      "inputs": [
        {
          "name": "newOwner",
          "type": "address",
          "internalType": "address"
        }
      ],
      "outputs": [],
      "stateMutability": "nonpayable"
    },
    {
      "type": "function",
      "name": "unpause",
      "inputs": [],
      "outputs": [],
      "stateMutability": "nonpayable"
    },
    {
      "type": "function",
      "name": "userData",
      "inputs": [
        {
          "name": "",
          "type": "address",
          "internalType": "address"
        }
      ],
      "outputs": [
        {
          "name": "totalBets",
          "type": "uint256",
          "internalType": "uint256"
        },
        {
          "name": "totalWinnings",
          "type": "uint256",
          "internalType": "uint256"
        },
        {
          "name": "totalLosses",
          "type": "uint256",
          "internalType": "uint256"
        },
        {
          "name": "gamesPlayed",
          "type": "uint256",
          "internalType": "uint256"
        },
        {
          "name": "lastPlayedTimestamp",
          "type": "uint256",
          "internalType": "uint256"
        },
        {
          "name": "maxHistorySize",
          "type": "uint256",
          "internalType": "uint256"
        }
      ],
      "stateMutability": "view"
    },
    {
      "type": "function",
      "name": "verifyContractRoles",
      "inputs": [],
      "outputs": [],
      "stateMutability": "view"
    },
    {
      "type": "function",
      "name": "winningNumber",
      "inputs": [],
      "outputs": [
        {
          "name": "",
          "type": "uint8",
          "internalType": "uint8"
        }
      ],
      "stateMutability": "view"
    },
    {
      "type": "event",
      "name": "GameCompleted",
      "inputs": [
        {
          "name": "player",
          "type": "address",
          "indexed": true,
          "internalType": "address"
        },
        {
          "name": "winningNumber",
          "type": "uint8",
          "indexed": false,
          "internalType": "uint8"
        },
        {
          "name": "totalPayout",
          "type": "uint256",
          "indexed": false,
          "internalType": "uint256"
        }
      ],
      "anonymous": false
    },
    {
      "type": "event",
      "name": "OwnerAdded",
      "inputs": [
        {
          "name": "newOwner",
          "type": "address",
          "indexed": true,
          "internalType": "address"
        }
      ],
      "anonymous": false
    },
    {
      "type": "event",
      "name": "OwnerRemoved",
      "inputs": [
        {
          "name": "removedOwner",
          "type": "address",
          "indexed": true,
          "internalType": "address"
        }
      ],
      "anonymous": false
    },
    {
      "type": "event",
      "name": "OwnershipTransferred",
      "inputs": [
        {
          "name": "previousOwner",
          "type": "address",
          "indexed": true,
          "internalType": "address"
        },
        {
          "name": "newOwner",
          "type": "address",
          "indexed": true,
          "internalType": "address"
        }
      ],
      "anonymous": false
    },
    {
      "type": "event",
      "name": "Paused",
      "inputs": [
        {
          "name": "account",
          "type": "address",
          "indexed": false,
          "internalType": "address"
        }
      ],
      "anonymous": false
    },
    {
      "type": "event",
      "name": "Unpaused",
      "inputs": [
        {
          "name": "account",
          "type": "address",
          "indexed": false,
          "internalType": "address"
        }
      ],
      "anonymous": false
    },
    {
      "type": "error",
      "name": "BurnFailed",
      "inputs": [
        {
          "name": "account",
          "type": "address",
          "internalType": "address"
        },
        {
          "name": "amount",
          "type": "uint256",
          "internalType": "uint256"
        }
      ]
    },
    {
      "type": "error",
      "name": "EnforcedPause",
      "inputs": []
    },
    {
      "type": "error",
      "name": "ExpectedPause",
      "inputs": []
    },
    {
      "type": "error",
      "name": "InsufficientAllowance",
      "inputs": [
        {
          "name": "required",
          "type": "uint256",
          "internalType": "uint256"
        },
        {
          "name": "allowed",
          "type": "uint256",
          "internalType": "uint256"
        }
      ]
    },
    {
      "type": "error",
      "name": "InsufficientContractBalance",
      "inputs": [
        {
          "name": "required",
          "type": "uint256",
          "internalType": "uint256"
        },
        {
          "name": "available",
          "type": "uint256",
          "internalType": "uint256"
        }
      ]
    },
    {
      "type": "error",
      "name": "InsufficientUserBalance",
      "inputs": [
        {
          "name": "required",
          "type": "uint256",
          "internalType": "uint256"
        },
        {
          "name": "available",
          "type": "uint256",
          "internalType": "uint256"
        }
      ]
    },
    {
      "type": "error",
      "name": "InvalidBetParameters",
      "inputs": [
        {
          "name": "reason",
          "type": "string",
          "internalType": "string"
        }
      ]
    },
    {
      "type": "error",
      "name": "InvalidBetType",
      "inputs": [
        {
          "name": "betType",
          "type": "uint256",
          "internalType": "uint256"
        }
      ]
    },
    {
      "type": "error",
      "name": "MintFailed",
      "inputs": [
        {
          "name": "account",
          "type": "address",
          "internalType": "address"
        },
        {
          "name": "amount",
          "type": "uint256",
          "internalType": "uint256"
        }
      ]
    },
    {
      "type": "error",
      "name": "MissingContractRole",
      "inputs": [
        {
          "name": "role",
          "type": "bytes32",
          "internalType": "bytes32"
        }
      ]
    },
    {
      "type": "error",
      "name": "OwnableInvalidOwner",
      "inputs": [
        {
          "name": "owner",
          "type": "address",
          "internalType": "address"
        }
      ]
    },
    {
      "type": "error",
      "name": "OwnableUnauthorizedAccount",
      "inputs": [
        {
          "name": "account",
          "type": "address",
          "internalType": "address"
        }
      ]
    },
    {
      "type": "error",
      "name": "ReentrancyGuardReentrantCall",
      "inputs": []
    },
    {
      "type": "error",
      "name": "TransferFailed",
      "inputs": [
        {
          "name": "from",
          "type": "address",
          "internalType": "address"
        },
        {
          "name": "to",
          "type": "address",
          "internalType": "address"
        },
        {
          "name": "amount",
          "type": "uint256",
          "internalType": "uint256"
        }
      ]
    }
  ],
  "bytecode": {
    "object": "0x608060405234801561001057600080fd5b5060405161383a38038061383a83398101604081905261002f91610184565b6000805460ff19169055338061006057604051631e4fbdf760e01b8152600060048201526024015b60405180910390fd5b6100698161012b565b50600180556001600160a01b0381166100c45760405162461bcd60e51b815260206004820152601c60248201527f546f6b656e20616464726573732063616e6e6f74206265207a65726f000000006044820152606401610057565b600280546001600160a01b0319166001600160a01b03831617905533600081815260066020526040808220805460ff19166001908117909155600755517f994a936646fe87ffe4f1e469d3d6aa417d6b855598397f323de5b449f765f0c39190a2506101b4565b600080546001600160a01b03838116610100818102610100600160a81b0319851617855560405193049190911692909183917f8be0079c531659141344cd1fd0a4f28419497f9722a3daafe3b4186f6b6457e091a35050565b60006020828403121561019657600080fd5b81516001600160a01b03811681146101ad57600080fd5b9392505050565b613677806101c36000396000f3fe608060405234801561001057600080fd5b506004361061018e5760003560e01c80638456cb59116100de578063c8bfc23911610097578063dfe6b5d611610071578063dfe6b5d6146103d7578063e7efcfc2146103fa578063f2fde38b14610403578063fea9b5721461041657600080fd5b8063c8bfc2391461038f578063ce84a53b146103a2578063d5391393146103c257600080fd5b80638456cb59146102b75780638da5cb5b146102bf578063918f8674146102e957806395ccea67146102f2578063b8fcf93714610305578063c89109131461031857600080fd5b80634664611e1161014b5780635c975abb116101255780635c975abb1461028957806363df7a14146102945780637065cb481461029c578063715018a6146102af57600080fd5b80634664611e146102415780634efa3b54146102605780635c4921291461028057600080fd5b8063086bb1821461019357806310e05deb146101a8578063173825d9146101b0578063282c51f3146101c35780632f54bf6e146101fd5780633f4ba83a14610239575b600080fd5b6101a66101a136600461301e565b61041e565b005b6101a6610562565b6101a66101be366004613053565b6106e2565b6101ea7f3c11d16cbaffd01df69ce1c404f6340ee057498f5f00246190ea54220576a84881565b6040519081526020015b60405180910390f35b61022961020b366004613053565b6001600160a01b031660009081526006602052604090205460ff1690565b60405190151581526020016101f4565b6101a6610847565b60085461024e9060ff1681565b60405160ff90911681526020016101f4565b61027361026e366004613053565b610857565b6040516101f491906130d7565b6101ea60045481565b60005460ff16610229565b6101ea600a81565b6101a66102aa366004613053565b610aea565b6101a6610c00565b6101a6610c12565b60005461010090046001600160a01b03165b6040516001600160a01b0390911681526020016101f4565b6101ea61271081565b6101a661030036600461322f565b610c22565b6002546102d1906001600160a01b031681565b610362610326366004613053565b60036020528060005260406000206000915090508060020154908060030154908060040154908060050154908060060154908060070154905086565b604080519687526020870195909552938501929092526060840152608083015260a082015260c0016101f4565b6101a661039d366004613259565b610f92565b6103b56103b0366004613053565b611a18565b6040516101f491906132d0565b6101ea60008051602061362283398151915281565b6103df611be9565b604080519384526020840192909252908201526060016101f4565b6101ea60055481565b6101a6610411366004613053565b611c74565b61024e602481565b610426611cb2565b6000811161047b5760405162461bcd60e51b815260206004820152601d60248201527f486973746f72792073697a65206d75737420626520706f73697469766500000060448201526064015b60405180910390fd5b60648111156104c55760405162461bcd60e51b8152602060048201526016602482015275486973746f72792073697a6520746f6f206c6172676560501b6044820152606401610472565b336000908152600360205260409020600781018290555b805482101561055e5780548190806104f6576104f66133bb565b600082815260208120600019909201916007830201906105168282612ee8565b5060006001820181905560028201805460ff199081169091556003830182905560048301805461ffff19169055600583019190915560069091018054909116905590556104dc565b5050565b600254604051632474521560e21b815260008051602061362283398151915260048201523060248201526001600160a01b03909116906391d1485490604401602060405180830381865afa1580156105be573d6000803e3d6000fd5b505050506040513d601f19601f820116820180604052508101906105e291906133d1565b61060f576040516359f75fb760e11b81526000805160206136228339815191526004820152602401610472565b600254604051632474521560e21b81527f3c11d16cbaffd01df69ce1c404f6340ee057498f5f00246190ea54220576a84860048201523060248201526001600160a01b03909116906391d1485490604401602060405180830381865afa15801561067d573d6000803e3d6000fd5b505050506040513d601f19601f820116820180604052508101906106a191906133d1565b6106e0576040516359f75fb760e11b81527f3c11d16cbaffd01df69ce1c404f6340ee057498f5f00246190ea54220576a8486004820152602401610472565b565b6106ea611cd6565b6001600160a01b03811660009081526006602052604090205460ff1661073e5760405162461bcd60e51b81526020600482015260096024820152682737ba1037bbb732b960b91b6044820152606401610472565b6001600754116107905760405162461bcd60e51b815260206004820152601860248201527f43616e6e6f742072656d6f7665206c617374206f776e657200000000000000006044820152606401610472565b336001600160a01b038216036107dd5760405162461bcd60e51b815260206004820152601260248201527121b0b73737ba103932b6b7bb329039b2b63360711b6044820152606401610472565b6001600160a01b0381166000908152600660205260408120805460ff19169055600780549161080b83613409565b90915550506040516001600160a01b038216907f58619076adf5bb0943d100ef88d52d7c3fd691b19d3a9071b555b651fbf418da90600090a250565b61084f611cd6565b6106e0611d09565b61089f60405180610100016040528060608152602001606081526020016000815260200160008152602001600081526020016000815260200160008152602001600081525090565b6001600160a01b038216600090815260036020908152604080832081518154610120948102820185019093526101008101838152909491938593919285929185015b82821015610a295783829060005260206000209060070201604051806101000160405290816000820180548060200260200160405190810160405280929190818152602001828054801561097257602002820191906000526020600020906000905b825461010083900a900460ff168152602060019283018181049485019490930390920291018084116109435790505b505050918352505060018201546020820152600282015460409091019060ff16600c8111156109a3576109a36130ad565b600c8111156109b4576109b46130ad565b815260038201546020820152600482015460ff808216604084015261010090910481161515606083015260058301546080830152600683015460a090920191166001811115610a0557610a056130ad565b6001811115610a1657610a166130ad565b81525050815260200190600101906108e1565b50505050815260200160018201805480602002602001604051908101604052809291908181526020018280548015610a9e57602002820191906000526020600020906000905b825461010083900a900460ff16815260206001928301818104948501949093039092029101808411610a6f5790505b5050505050815260200160028201548152602001600382015481526020016004820154815260200160058201548152602001600682015481526020016007820154815250509050919050565b610af2611cd6565b6001600160a01b038116610b3a5760405162461bcd60e51b815260206004820152600f60248201526e496e76616c6964206164647265737360881b6044820152606401610472565b6001600160a01b03811660009081526006602052604090205460ff1615610b935760405162461bcd60e51b815260206004820152600d60248201526c20b63932b0b23c9037bbb732b960991b6044820152606401610472565b6001600160a01b0381166000908152600660205260408120805460ff191660011790556007805491610bc483613420565b90915550506040516001600160a01b038216907f994a936646fe87ffe4f1e469d3d6aa417d6b855598397f323de5b449f765f0c390600090a250565b610c08611cd6565b6106e06000611d5b565b610c1a611cd6565b6106e0611db4565b610c2a611cd6565b6002546001600160a01b0390811690831603610e19576002546040516370a0823160e01b81523060048201526001600160a01b03909116906370a0823190602401602060405180830381865afa158015610c88573d6000803e3d6000fd5b505050506040513d601f19601f82011682018060405250810190610cac9190613439565b811115610d42576002546040516370a0823160e01b815230600482015282916001600160a01b0316906370a08231906024015b602060405180830381865afa158015610cfc573d6000803e3d6000fd5b505050506040513d601f19601f82011682018060405250810190610d209190613439565b60405163b7ddd88b60e01b815260048101929092526024820152604401610472565b6002546001600160a01b031663a9059cbb610d6b6000546001600160a01b036101009091041690565b6040516001600160e01b031960e084901b1681526001600160a01b039091166004820152602481018490526044016020604051808303816000875af1158015610db8573d6000803e3d6000fd5b505050506040513d601f19601f82011682018060405250810190610ddc91906133d1565b61055e576000546040516317e3057d60e31b81523060048201526101009091046001600160a01b0316602482015260448101829052606401610472565b6040516370a0823160e01b815230600482015282906001600160a01b038216906370a0823190602401602060405180830381865afa158015610e5f573d6000803e3d6000fd5b505050506040513d601f19601f82011682018060405250810190610e839190613439565b821115610eb8576040516370a0823160e01b815230600482015282906001600160a01b038316906370a0823190602401610cdf565b806001600160a01b031663a9059cbb610edf6000546001600160a01b036101009091041690565b6040516001600160e01b031960e084901b1681526001600160a01b039091166004820152602481018590526044016020604051808303816000875af1158015610f2c573d6000803e3d6000fd5b505050506040513d601f19601f82011682018060405250810190610f5091906133d1565b610f8d576000546040516317e3057d60e31b81523060048201526101009091046001600160a01b0316602482015260448101839052606401610472565b505050565b610f9a611df1565b610fa2611cb2565b33600090815260036020526040812090829003610ff5576040516334460f4160e01b815260206004820152601060248201526f139bc818995d1cc81c1c9bdd9a59195960821b6044820152606401610472565b600f821115611037576040516334460f4160e01b815260206004820152600d60248201526c546f6f206d616e79206265747360981b6044820152606401610472565b61103f611e1b565b6008805460ff191660ff9290921691909117905560005b828110156111bf5783838281811061107057611070613452565b90506020028101906110829190613468565b602001356000036110cb576040516334460f4160e01b8152602060048201526012602482015271125b9d985b1a590818995d08185b5bdd5b9d60721b6044820152606401610472565b61116a8484838181106110e0576110e0613452565b90506020028101906110f29190613468565b6110fc9080613488565b8080602002602001604051908101604052809392919081815260200183836020028082843760009201919091525088925087915085905081811061114257611142613452565b90506020028101906111549190613468565b6111659060608101906040016134d9565b611e95565b6111b7576040516334460f4160e01b815260206004820152601960248201527f496e76616c69642062657420636f6e66696775726174696f6e000000000000006044820152606401610472565b600101611056565b5080600701546000036111d457600a60078201555b6000805b8381101561121c578484828181106111f2576111f2613452565b90506020028101906112049190613468565b6112129060200135836134fa565b91506001016111d8565b506002546040516370a0823160e01b815233600482015282916001600160a01b0316906370a0823190602401602060405180830381865afa158015611265573d6000803e3d6000fd5b505050506040513d601f19601f820116820180604052508101906112899190613439565b101561131d576002546040516370a0823160e01b815233600482015282916001600160a01b0316906370a0823190602401602060405180830381865afa1580156112d7573d6000803e3d6000fd5b505050506040513d601f19601f820116820180604052508101906112fb9190613439565b6040516302fa826960e51b815260048101929092526024820152604401610472565b600254604051636eb1769f60e11b815233600482015230602482015282916001600160a01b03169063dd62ed3e90604401602060405180830381865afa15801561136b573d6000803e3d6000fd5b505050506040513d601f19601f8201168201806040525081019061138f9190613439565b101561142957600254604051636eb1769f60e11b815233600482015230602482015282916001600160a01b03169063dd62ed3e90604401602060405180830381865afa1580156113e3573d6000803e3d6000fd5b505050506040513d601f19601f820116820180604052508101906114079190613439565b60405163054365bb60e31b815260048101929092526024820152604401610472565b6000808467ffffffffffffffff8111156114455761144561350d565b60405190808252806020026020018201604052801561147e57816020015b61146b612f0d565b8152602001906001900390816114635790505b50905060005b8581101561181a57600061155f8888848181106114a3576114a3613452565b90506020028101906114b59190613468565b6114bf9080613488565b808060200260200160405190810160405280939291908181526020018383602002808284376000920191909152508c92508b915086905081811061150557611505613452565b90506020028101906115179190613468565b6115289060608101906040016134d9565b8a8a8681811061153a5761153a613452565b905060200281019061154c9190613468565b600854602091909101359060ff16612089565b905060405180610100016040528089898581811061157f5761157f613452565b90506020028101906115919190613468565b61159b9080613488565b808060200260200160405190810160405280939291908181526020018383602002808284376000920191909152505050908252506020018989858181106115e4576115e4613452565b90506020028101906115f69190613468565b60200135815260200189898581811061161157611611613452565b90506020028101906116239190613468565b6116349060608101906040016134d9565b600c811115611645576116456130ad565b815242602082015260085460ff166040820152600160608201526080810183905260a00182611675576001611678565b60005b6001811115611689576116896130ad565b81525083838151811061169e5761169e613452565b602090810291909101015280156116da57808660030160008282546116c391906134fa565b909155506116d3905081856134fa565b935061171b565b8787838181106116ec576116ec613452565b90506020028101906116fe9190613468565b6020013586600401600082825461171591906134fa565b90915550505b8560000183838151811061173157611731613452565b60209081029190910181015182546001810184556000938452928290208151805192946007029091019261176a92849290910190612f63565b506020820151816001015560408201518160020160006101000a81548160ff0219169083600c81111561179f5761179f6130ad565b021790555060608201516003820155608082015160048201805460a085015115156101000261ffff1990911660ff9093169290921791909117905560c0820151600582015560e082015160068201805460ff191660018381811115611806576118066130ad565b021790555050600190920191506114849050565b5060085461182c90859060ff1661213f565b811561196257600254604051632474521560e21b815260008051602061362283398151915260048201523060248201526001600160a01b03909116906391d1485490604401602060405180830381865afa15801561188e573d6000803e3d6000fd5b505050506040513d601f19601f820116820180604052508101906118b291906133d1565b6118df576040516359f75fb760e11b81526000805160206136228339815191526004820152602401610472565b6002546040516340c10f1960e01b8152336004820152602481018490526001600160a01b03909116906340c10f1990604401600060405180830381600087803b15801561192b57600080fd5b505af192505050801561193c575060015b61196257604051635c0b206f60e01b815233600482015260248101839052604401610472565b8284600201600082825461197691906134fa565b92505081905550600184600501600082825461199291906134fa565b9091555050426006850155600480549060006119ad83613420565b919050555081600560008282546119c491906134fa565b90915550506008546040805160ff90921682526020820184905233917f6a126dc71fe4052476ed01bb95f5ea05bfea784eaa855c55914ebca59710f0ab910160405180910390a25050505061055e60018055565b60606001600160a01b038216611a63576040516334460f4160e01b815260206004820152600f60248201526e496e76616c6964206164647265737360881b6044820152606401610472565b6001600160a01b038216600090815260036020908152604080832080548251818502810185019093528083529193909284015b82821015611bde57838290600052602060002090600702016040518061010001604052908160008201805480602002602001604051908101604052809291908181526020018280548015611b2757602002820191906000526020600020906000905b825461010083900a900460ff16815260206001928301818104948501949093039092029101808411611af85790505b505050918352505060018201546020820152600282015460409091019060ff16600c811115611b5857611b586130ad565b600c811115611b6957611b696130ad565b815260038201546020820152600482015460ff808216604084015261010090910481161515606083015260058301546080830152600683015460a090920191166001811115611bba57611bba6130ad565b6001811115611bcb57611bcb6130ad565b8152505081526020019060010190611a96565b505050509050919050565b600480546005546002546040516370a0823160e01b8152309481019490945260009384938493909290916001600160a01b03909116906370a0823190602401602060405180830381865afa158015611c45573d6000803e3d6000fd5b505050506040513d601f19601f82011682018060405250810190611c699190613439565b925092509250909192565b611c7c611cd6565b6001600160a01b038116611ca657604051631e4fbdf760e01b815260006004820152602401610472565b611caf81611d5b565b50565b60005460ff16156106e05760405163d93c066560e01b815260040160405180910390fd5b6000546001600160a01b036101009091041633146106e05760405163118cdaa760e01b8152336004820152602401610472565b611d11612296565b6000805460ff191690557f5db9ee0a495bf2e6ff9c91a7834c1ba4fdd244a5e8aa4e537bd38aeae4b073aa335b6040516001600160a01b03909116815260200160405180910390a1565b600080546001600160a01b03838116610100818102610100600160a81b0319851617855560405193049190911692909183917f8be0079c531659141344cd1fd0a4f28419497f9722a3daafe3b4186f6b6457e091a35050565b611dbc611cb2565b6000805460ff191660011790557f62e78cea01bee320cd4e420270b5ea74000d11b0c9f74754ebdbfc544b05a258611d3e3390565b600260015403611e1457604051633ee5aeb560e01b815260040160405180910390fd5b6002600155565b6000611e2960246001613523565b60ff16424433600454604051602001611e6d9493929190938452602084019290925260601b6bffffffffffffffffffffffff19166040830152605482015260740190565b6040516020818303038152906040528051906020012060001c611e909190613552565b905090565b6000805b83518160ff161015611eec57602460ff16848260ff1681518110611ebf57611ebf613452565b602002602001015160ff161115611eda576000915050612083565b80611ee481613566565b915050611e99565b50600082600c811115611f0157611f016130ad565b03611f1157508151600114612083565b600182600c811115611f2557611f256130ad565b03611f80578251600214611f3b57506000612083565b611f7983600081518110611f5157611f51613452565b602002602001015184600181518110611f6c57611f6c613452565b60200260200101516122b9565b9050612083565b600282600c811115611f9457611f946130ad565b03611fb3578251600314611faa57506000612083565b611f798361234a565b600382600c811115611fc757611fc76130ad565b03611fe6578251600414611fdd57506000612083565b611f798361245f565b600482600c811115611ffa57611ffa6130ad565b0361201957825160061461201057506000612083565b611f79836125a9565b600582600c81111561202d5761202d6130ad565b0361203b57611f7983612735565b600682600c81111561204f5761204f6130ad565b0361205d57611f79836127f0565b600782600c811115612071576120716130ad565b1061207f5750815115612083565b5060005b92915050565b60008260000361209b57506000612137565b6120a68585846128b6565b156121335760006120b685612aad565b905060006127106120c78387613585565b6120d1919061359c565b90506120df856000196135b0565b8111156121205760405162461bcd60e51b815260206004820152600f60248201526e5061796f7574206f766572666c6f7760881b6044820152606401610472565b61212a81866134fa565b92505050612137565b5060005b949350505050565b816007015460000361215357600a60078301555b600782015460018301541061225a5760005b60018381015461217591906135b0565b811015612209578260010181600161218d91906134fa565b8154811061219d5761219d613452565b90600052602060002090602091828204019190069054906101000a900460ff168360010182815481106121d2576121d2613452565b90600052602060002090602091828204019190066101000a81548160ff021916908360ff1602179055508080600101915050612165565b5060018083018054839261221c916135b0565b8154811061222c5761222c613452565b90600052602060002090602091828204019190066101000a81548160ff021916908360ff1602179055505050565b600180830180549182018155600090815260209081902090820401805460ff808516601f9094166101000a938402930219169190911790555050565b60005460ff166106e057604051638dfc202b60e01b815260040160405180910390fd5b6000602460ff841611806122d05750602460ff8316115b156122dd57506000612083565b8160ff168360ff1611156122ef579091905b6122fa836001613523565b60ff168260ff1614801561231a57506123146003846135c3565b60ff1615155b80612343575061232b836003613523565b60ff168260ff16148015612343575060218360ff1611155b9392505050565b6000612358600260246135e5565b60ff168260008151811061236e5761236e613452565b602002602001015160ff16111561238757506000919050565b60038260008151811061239c5761239c613452565b60200260200101516123ae91906135c3565b60ff166001146123c057506000919050565b816000815181106123d3576123d3613452565b602002602001015160016123e79190613523565b60ff16826001815181106123fd576123fd613452565b602002602001015160ff1614801561208357508160008151811061242357612423613452565b602002602001015160026124379190613523565b60ff168260028151811061244d5761244d613452565b602002602001015160ff161492915050565b60008060405180608001604052808460008151811061248057612480613452565b602002602001015160ff1660ff168152602001846001815181106124a6576124a6613452565b602002602001015160ff1660ff168152602001846002815181106124cc576124cc613452565b602002602001015160ff1660ff168152602001846003815181106124f2576124f2613452565b602002602001015160ff1660ff16815250905061250e81612bc1565b8051602060ff90911611806125315750805161252c906003906135c3565b60ff16155b1561253f5750600092915050565b805161254c906001613523565b60ff16816001602002015160ff1614801561257f5750805161256f906003613523565b60ff16816002602002015160ff16145b801561234357508051612593906004613523565b60ff16816003602002015160ff16149392505050565b6000806040518060c00160405280846000815181106125ca576125ca613452565b602002602001015160ff1660ff168152602001846001815181106125f0576125f0613452565b602002602001015160ff1660ff1681526020018460028151811061261657612616613452565b602002602001015160ff1660ff1681526020018460038151811061263c5761263c613452565b602002602001015160ff1660ff1681526020018460048151811061266257612662613452565b602002602001015160ff1660ff1681526020018460058151811061268857612688613452565b602002602001015160ff1660ff1681525090506126a481612cd1565b8051601f60ff90911611806126ca575080516126c2906003906135c3565b60ff16600114155b156126d85750600092915050565b60015b60068160ff16101561272b5781516126f4908290613523565b60ff16828260ff166006811061270c5761270c613452565b602002015160ff1614612723575060009392505050565b6001016126db565b5060019392505050565b60008151600c1461274857506000919050565b60008260008151811061275d5761275d613452565b602002602001015190508060ff1660011415801561277f57508060ff16600d14155b801561278f57508060ff16601914155b1561279d5750600092915050565b60005b600c8160ff16101561272b576127b68183613523565b60ff16848260ff16815181106127ce576127ce613452565b602002602001015160ff16146127e8575060009392505050565b6001016127a0565b60008151600c1461280357506000919050565b60008260008151811061281857612818613452565b602002602001015190508060ff1660011415801561283a57508060ff16600214155b801561284a57508060ff16600314155b156128585750600092915050565b60005b600c8160ff16101561272b576128728160036135fe565b61287c9083613523565b60ff16848260ff168151811061289457612894613452565b602002602001015160ff16146128ae575060009392505050565b60010161285b565b6000602460ff831611156128cc57506000612343565b8160ff1660000361292957600083600c8111156128eb576128eb6130ad565b1480156128f9575083516001145b801561292257508360008151811061291357612913613452565b602002602001015160ff166000145b9050612343565b600783600c81111561293d5761293d6130ad565b0361294b5761292282612de1565b600883600c81111561295f5761295f6130ad565b036129815761296d82612de1565b15801561292257505060ff81161515612343565b600983600c811115612995576129956130ad565b036129bc576129a56002836135c3565b60ff1615801561292257505060ff81161515612343565b600a83600c8111156129d0576129d06130ad565b036129ed576129e06002836135c3565b60ff166001149050612343565b600b83600c811115612a0157612a016130ad565b03612a235760018260ff1610158015612922575050601260ff82161115612343565b600c83600c811115612a3757612a376130ad565b03612a595760138260ff1610158015612922575050602460ff82161115612343565b60005b84518160ff161015612133578260ff16858260ff1681518110612a8157612a81613452565b602002602001015160ff1603612a9b576001915050612343565b80612aa581613566565b915050612a5c565b60008082600c811115612ac257612ac26130ad565b03612ad4576120836127106023613585565b600182600c811115612ae857612ae86130ad565b03612afa576120836127106011613585565b600282600c811115612b0e57612b0e6130ad565b03612b2057612083612710600b613585565b600382600c811115612b3457612b346130ad565b03612b46576120836127106008613585565b600482600c811115612b5a57612b5a6130ad565b03612b6c576120836127106005613585565b600582600c811115612b8057612b806130ad565b03612b92576120836127106002613585565b600682600c811115612ba657612ba66130ad565b03612bb8576120836127106002613585565b50612710919050565b60005b60038160ff16101561055e5760005b612bde8260036135e5565b60ff168160ff161015612cc85782612bf7826001613523565b60ff1660048110612c0a57612c0a613452565b602002015160ff16838260ff1660048110612c2757612c27613452565b602002015160ff161115612cc05782612c41826001613523565b60ff1660048110612c5457612c54613452565b6020020151838260ff1660048110612c6e57612c6e613452565b6020020151848360ff1660048110612c8857612c88613452565b6020020185612c98856001613523565b60ff1660048110612cab57612cab613452565b60ff9384166020919091029190910152911690525b600101612bd3565b50600101612bc4565b60005b60058160ff16101561055e5760005b612cee8260056135e5565b60ff168160ff161015612dd85782612d07826001613523565b60ff1660068110612d1a57612d1a613452565b602002015160ff16838260ff1660068110612d3757612d37613452565b602002015160ff161115612dd05782612d51826001613523565b60ff1660068110612d6457612d64613452565b6020020151838260ff1660068110612d7e57612d7e613452565b6020020151848360ff1660068110612d9857612d98613452565b6020020185612da8856001613523565b60ff1660068110612dbb57612dbb613452565b60ff9384166020919091029190910152911690525b600101612ce3565b50600101612cd4565b60008160ff16600003612df657506000919050565b60408051610240810182526001815260036020808301919091526005928201929092526007606082015260096080820152600c60a0820152600e60c0820152601060e082015260126101008201526013610120820152601561014082015260176101608201526019610180820152601b6101a0820152601e6101c08201526101e08101919091526022610200820152602461022082015260005b60128160ff161015612ede578360ff16828260ff1660128110612eb557612eb5613452565b602002015160ff1603612ecc575060019392505050565b80612ed681613566565b915050612e90565b5060009392505050565b50805460008255601f016020900490600052602060002090810190611caf9190613009565b60405180610100016040528060608152602001600081526020016000600c811115612f3a57612f3a6130ad565b815260006020820181905260408201819052606082018190526080820181905260a09091015290565b82805482825590600052602060002090601f01602090048101928215612ff95791602002820160005b83821115612fca57835183826101000a81548160ff021916908360ff1602179055509260200192600101602081600001049283019260010302612f8c565b8015612ff75782816101000a81549060ff0219169055600101602081600001049283019260010302612fca565b505b50613005929150613009565b5090565b5b80821115613005576000815560010161300a565b60006020828403121561303057600080fd5b5035919050565b80356001600160a01b038116811461304e57600080fd5b919050565b60006020828403121561306557600080fd5b61234382613037565b600081518084526020840193506020830160005b828110156130a357815160ff16865260209586019590910190600101613082565b5093949350505050565b634e487b7160e01b600052602160045260246000fd5b600281106130d3576130d36130ad565b9052565b602081526000610120820183516101006020850152818151808452610140860191506101408160051b870101935060208301925060005b818110156131c65761013f1987860301835283518051610100875261313761010088018261306e565b9050602082015160208801526040820151600d8110613158576131586130ad565b8060408901525060608201516060880152608082015161317d608089018260ff169052565b5060a082015161319160a089018215159052565b5060c082015160c088015260e082015191506131b060e08801836130c3565b955050602093840193929092019160010161310e565b505050506020840151838203601f190160408501526131e5828261306e565b9150506040840151606084015260608401516080840152608084015160a084015260a084015160c084015260c084015160e084015260e08401516101008401528091505092915050565b6000806040838503121561324257600080fd5b61324b83613037565b946020939093013593505050565b6000806020838503121561326c57600080fd5b823567ffffffffffffffff81111561328357600080fd5b8301601f8101851361329457600080fd5b803567ffffffffffffffff8111156132ab57600080fd5b8560208260051b84010111156132c057600080fd5b6020919091019590945092505050565b6000602082016020835280845180835260408501915060408160051b86010192506020860160005b828110156133af57603f1987860301845281518051610100875261332061010088018261306e565b9050602082015160208801526040820151600d8110613341576133416130ad565b80604089015250606082015160608801526080820151613366608089018260ff169052565b5060a082015161337a60a089018215159052565b5060c082015160c088015260e0820151915061339960e08801836130c3565b95505060209384019391909101906001016132f8565b50929695505050505050565b634e487b7160e01b600052603160045260246000fd5b6000602082840312156133e357600080fd5b8151801515811461234357600080fd5b634e487b7160e01b600052601160045260246000fd5b600081613418576134186133f3565b506000190190565b600060018201613432576134326133f3565b5060010190565b60006020828403121561344b57600080fd5b5051919050565b634e487b7160e01b600052603260045260246000fd5b60008235605e1983360301811261347e57600080fd5b9190910192915050565b6000808335601e1984360301811261349f57600080fd5b83018035915067ffffffffffffffff8211156134ba57600080fd5b6020019150600581901b36038213156134d257600080fd5b9250929050565b6000602082840312156134eb57600080fd5b8135600d811061234357600080fd5b80820180821115612083576120836133f3565b634e487b7160e01b600052604160045260246000fd5b60ff8181168382160190811115612083576120836133f3565b634e487b7160e01b600052601260045260246000fd5b6000826135615761356161353c565b500690565b600060ff821660ff810361357c5761357c6133f3565b60010192915050565b8082028115828204841417612083576120836133f3565b6000826135ab576135ab61353c565b500490565b81810381811115612083576120836133f3565b600060ff8316806135d6576135d661353c565b8060ff84160691505092915050565b60ff8281168282160390811115612083576120836133f3565b60ff818116838216029081169081811461361a5761361a6133f3565b509291505056fe9f2df0fed2c77648de5860a4cc508cd0818c85b8b8a1ab4ceeef8d981c8956a6a2646970667358221220bc0169dda72d077c384e7f52ca99d15a185ab9c3c62069a38ef74987365eaf0964736f6c634300081a0033",
    "linkReferences": {}
  },
  "methodIdentifiers": {
    "BURNER_ROLE()": "282c51f3",
    "DEFAULT_HISTORY_SIZE()": "63df7a14",
    "DENOMINATOR()": "918f8674",
    "MAX_NUMBER()": "fea9b572",
    "MINTER_ROLE()": "d5391393",
    "addOwner(address)": "7065cb48",
    "emergencyWithdraw(address,uint256)": "95ccea67",
    "getBetHistory(address)": "ce84a53b",
    "getContractStats()": "dfe6b5d6",
    "getUserGameData(address)": "4efa3b54",
    "isOwner(address)": "2f54bf6e",
    "myToken()": "b8fcf937",
    "owner()": "8da5cb5b",
    "pause()": "8456cb59",
    "paused()": "5c975abb",
    "placeManyBetsAndSpin((uint8[],uint256,uint8)[])": "c8bfc239",
    "removeOwner(address)": "173825d9",
    "renounceOwnership()": "715018a6",
    "setHistorySize(uint256)": "086bb182",
    "totalGamesPlayed()": "5c492129",
    "totalPayoutAmount()": "e7efcfc2",
    "transferOwnership(address)": "f2fde38b",
    "unpause()": "3f4ba83a",
    "userData(address)": "c8910913",
    "verifyContractRoles()": "10e05deb",
    "winningNumber()": "4664611e"
  },
  "id": 25
}