{
  "abi": [
    {
      "type": "constructor",
      "inputs": [
        {
          "name": "name",
          "type": "string",
          "internalType": "string"
        },
        {
          "name": "symbol",
          "type": "string",
          "internalType": "string"
        }
      ],
      "stateMutability": "nonpayable"
    },
    {
      "type": "function",
      "name": "BURNER_ROLE",
      "inputs": [],
      "outputs": [
        {
          "name": "",
          "type": "bytes32",
          "internalType": "bytes32"
        }
      ],
      "stateMutability": "view"
    },
    {
      "type": "function",
      "name": "DEFAULT_ADMIN_ROLE",
      "inputs": [],
      "outputs": [
        {
          "name": "",
          "type": "bytes32",
          "internalType": "bytes32"
        }
      ],
      "stateMutability": "view"
    },
    {
      "type": "function",
      "name": "MINTER_ROLE",
      "inputs": [],
      "outputs": [
        {
          "name": "",
          "type": "bytes32",
          "internalType": "bytes32"
        }
      ],
      "stateMutability": "view"
    },
    {
      "type": "function",
      "name": "allowance",
      "inputs": [
        {
          "name": "owner",
          "type": "address",
          "internalType": "address"
        },
        {
          "name": "spender",
          "type": "address",
          "internalType": "address"
        }
      ],
      "outputs": [
        {
          "name": "",
          "type": "uint256",
          "internalType": "uint256"
        }
      ],
      "stateMutability": "view"
    },
    {
      "type": "function",
      "name": "approve",
      "inputs": [
        {
          "name": "spender",
          "type": "address",
          "internalType": "address"
        },
        {
          "name": "value",
          "type": "uint256",
          "internalType": "uint256"
        }
      ],
      "outputs": [
        {
          "name": "",
          "type": "bool",
          "internalType": "bool"
        }
      ],
      "stateMutability": "nonpayable"
    },
    {
      "type": "function",
      "name": "balanceOf",
      "inputs": [
        {
          "name": "account",
          "type": "address",
          "internalType": "address"
        }
      ],
      "outputs": [
        {
          "name": "",
          "type": "uint256",
          "internalType": "uint256"
        }
      ],
      "stateMutability": "view"
    },
    {
      "type": "function",
      "name": "burn",
      "inputs": [
        {
          "name": "from",
          "type": "address",
          "internalType": "address"
        },
        {
          "name": "amount",
          "type": "uint256",
          "internalType": "uint256"
        }
      ],
      "outputs": [],
      "stateMutability": "nonpayable"
    },
    {
      "type": "function",
      "name": "decimals",
      "inputs": [],
      "outputs": [
        {
          "name": "",
          "type": "uint8",
          "internalType": "uint8"
        }
      ],
      "stateMutability": "view"
    },
    {
      "type": "function",
      "name": "getMinterBurnerAddresses",
      "inputs": [],
      "outputs": [
        {
          "name": "minters",
          "type": "address[]",
          "internalType": "address[]"
        },
        {
          "name": "burners",
          "type": "address[]",
          "internalType": "address[]"
        }
      ],
      "stateMutability": "view"
    },
    {
      "type": "function",
      "name": "getRoleAdmin",
      "inputs": [
        {
          "name": "role",
          "type": "bytes32",
          "internalType": "bytes32"
        }
      ],
      "outputs": [
        {
          "name": "",
          "type": "bytes32",
          "internalType": "bytes32"
        }
      ],
      "stateMutability": "view"
    },
    {
      "type": "function",
      "name": "grantRole",
      "inputs": [
        {
          "name": "role",
          "type": "bytes32",
          "internalType": "bytes32"
        },
        {
          "name": "account",
          "type": "address",
          "internalType": "address"
        }
      ],
      "outputs": [],
      "stateMutability": "nonpayable"
    },
    {
      "type": "function",
      "name": "hasRole",
      "inputs": [
        {
          "name": "role",
          "type": "bytes32",
          "internalType": "bytes32"
        },
        {
          "name": "account",
          "type": "address",
          "internalType": "address"
        }
      ],
      "outputs": [
        {
          "name": "",
          "type": "bool",
          "internalType": "bool"
        }
      ],
      "stateMutability": "view"
    },
    {
      "type": "function",
      "name": "mint",
      "inputs": [
        {
          "name": "to",
          "type": "address",
          "internalType": "address"
        },
        {
          "name": "amount",
          "type": "uint256",
          "internalType": "uint256"
        }
      ],
      "outputs": [],
      "stateMutability": "nonpayable"
    },
    {
      "type": "function",
      "name": "name",
      "inputs": [],
      "outputs": [
        {
          "name": "",
          "type": "string",
          "internalType": "string"
        }
      ],
      "stateMutability": "view"
    },
    {
      "type": "function",
      "name": "renounceRole",
      "inputs": [
        {
          "name": "role",
          "type": "bytes32",
          "internalType": "bytes32"
        },
        {
          "name": "callerConfirmation",
          "type": "address",
          "internalType": "address"
        }
      ],
      "outputs": [],
      "stateMutability": "nonpayable"
    },
    {
      "type": "function",
      "name": "revokeRole",
      "inputs": [
        {
          "name": "role",
          "type": "bytes32",
          "internalType": "bytes32"
        },
        {
          "name": "account",
          "type": "address",
          "internalType": "address"
        }
      ],
      "outputs": [],
      "stateMutability": "nonpayable"
    },
    {
      "type": "function",
      "name": "supportsInterface",
      "inputs": [
        {
          "name": "interfaceId",
          "type": "bytes4",
          "internalType": "bytes4"
        }
      ],
      "outputs": [
        {
          "name": "",
          "type": "bool",
          "internalType": "bool"
        }
      ],
      "stateMutability": "view"
    },
    {
      "type": "function",
      "name": "symbol",
      "inputs": [],
      "outputs": [
        {
          "name": "",
          "type": "string",
          "internalType": "string"
        }
      ],
      "stateMutability": "view"
    },
    {
      "type": "function",
      "name": "totalSupply",
      "inputs": [],
      "outputs": [
        {
          "name": "",
          "type": "uint256",
          "internalType": "uint256"
        }
      ],
      "stateMutability": "view"
    },
    {
      "type": "function",
      "name": "transfer",
      "inputs": [
        {
          "name": "to",
          "type": "address",
          "internalType": "address"
        },
        {
          "name": "value",
          "type": "uint256",
          "internalType": "uint256"
        }
      ],
      "outputs": [
        {
          "name": "",
          "type": "bool",
          "internalType": "bool"
        }
      ],
      "stateMutability": "nonpayable"
    },
    {
      "type": "function",
      "name": "transferFrom",
      "inputs": [
        {
          "name": "from",
          "type": "address",
          "internalType": "address"
        },
        {
          "name": "to",
          "type": "address",
          "internalType": "address"
        },
        {
          "name": "value",
          "type": "uint256",
          "internalType": "uint256"
        }
      ],
      "outputs": [
        {
          "name": "",
          "type": "bool",
          "internalType": "bool"
        }
      ],
      "stateMutability": "nonpayable"
    },
    {
      "type": "event",
      "name": "Approval",
      "inputs": [
        {
          "name": "owner",
          "type": "address",
          "indexed": true,
          "internalType": "address"
        },
        {
          "name": "spender",
          "type": "address",
          "indexed": true,
          "internalType": "address"
        },
        {
          "name": "value",
          "type": "uint256",
          "indexed": false,
          "internalType": "uint256"
        }
      ],
      "anonymous": false
    },
    {
      "type": "event",
      "name": "RoleAdminChanged",
      "inputs": [
        {
          "name": "role",
          "type": "bytes32",
          "indexed": true,
          "internalType": "bytes32"
        },
        {
          "name": "previousAdminRole",
          "type": "bytes32",
          "indexed": true,
          "internalType": "bytes32"
        },
        {
          "name": "newAdminRole",
          "type": "bytes32",
          "indexed": true,
          "internalType": "bytes32"
        }
      ],
      "anonymous": false
    },
    {
      "type": "event",
      "name": "RoleGranted",
      "inputs": [
        {
          "name": "role",
          "type": "bytes32",
          "indexed": true,
          "internalType": "bytes32"
        },
        {
          "name": "account",
          "type": "address",
          "indexed": true,
          "internalType": "address"
        },
        {
          "name": "sender",
          "type": "address",
          "indexed": true,
          "internalType": "address"
        }
      ],
      "anonymous": false
    },
    {
      "type": "event",
      "name": "RoleRevoked",
      "inputs": [
        {
          "name": "role",
          "type": "bytes32",
          "indexed": true,
          "internalType": "bytes32"
        },
        {
          "name": "account",
          "type": "address",
          "indexed": true,
          "internalType": "address"
        },
        {
          "name": "sender",
          "type": "address",
          "indexed": true,
          "internalType": "address"
        }
      ],
      "anonymous": false
    },
    {
      "type": "event",
      "name": "Transfer",
      "inputs": [
        {
          "name": "from",
          "type": "address",
          "indexed": true,
          "internalType": "address"
        },
        {
          "name": "to",
          "type": "address",
          "indexed": true,
          "internalType": "address"
        },
        {
          "name": "value",
          "type": "uint256",
          "indexed": false,
          "internalType": "uint256"
        }
      ],
      "anonymous": false
    },
    {
      "type": "error",
      "name": "AccessControlBadConfirmation",
      "inputs": []
    },
    {
      "type": "error",
      "name": "AccessControlUnauthorizedAccount",
      "inputs": [
        {
          "name": "account",
          "type": "address",
          "internalType": "address"
        },
        {
          "name": "neededRole",
          "type": "bytes32",
          "internalType": "bytes32"
        }
      ]
    },
    {
      "type": "error",
      "name": "ERC20InsufficientAllowance",
      "inputs": [
        {
          "name": "spender",
          "type": "address",
          "internalType": "address"
        },
        {
          "name": "allowance",
          "type": "uint256",
          "internalType": "uint256"
        },
        {
          "name": "needed",
          "type": "uint256",
          "internalType": "uint256"
        }
      ]
    },
    {
      "type": "error",
      "name": "ERC20InsufficientBalance",
      "inputs": [
        {
          "name": "sender",
          "type": "address",
          "internalType": "address"
        },
        {
          "name": "balance",
          "type": "uint256",
          "internalType": "uint256"
        },
        {
          "name": "needed",
          "type": "uint256",
          "internalType": "uint256"
        }
      ]
    },
    {
      "type": "error",
      "name": "ERC20InvalidApprover",
      "inputs": [
        {
          "name": "approver",
          "type": "address",
          "internalType": "address"
        }
      ]
    },
    {
      "type": "error",
      "name": "ERC20InvalidReceiver",
      "inputs": [
        {
          "name": "receiver",
          "type": "address",
          "internalType": "address"
        }
      ]
    },
    {
      "type": "error",
      "name": "ERC20InvalidSender",
      "inputs": [
        {
          "name": "sender",
          "type": "address",
          "internalType": "address"
        }
      ]
    },
    {
      "type": "error",
      "name": "ERC20InvalidSpender",
      "inputs": [
        {
          "name": "spender",
          "type": "address",
          "internalType": "address"
        }
      ]
    }
  ],
  "bytecode": {
    "object": "0x608060405234801561001057600080fd5b5060405161174d38038061174d83398101604081905261002f91610447565b8181600361003d8382610539565b50600461004a8282610539565b5061005a91506000905033610175565b506100857f9f2df0fed2c77648de5860a4cc508cd0818c85b8b8a1ab4ceeef8d981c8956a633610175565b506100b07f3c11d16cbaffd01df69ce1c404f6340ee057498f5f00246190ea54220576a84833610175565b503360008181526006602090815260408083208054600160ff199182168117909255600790935290832080549092168117909155600880548083019091557ff3f7a9fe364faab93b216da50a3214154f22a0a2b415b23a84c8169e8b636ee30180546001600160a01b031990811685179091556009805492830181559092527f6e1540171b6c0c960b71a7020d9f60077f6af931a8bbf590da0223dacf75c7af0180549091168217905561016e9069152d02c7e14af6800000610225565b5050610618565b60008281526005602090815260408083206001600160a01b038516845290915281205460ff1661021b5760008381526005602090815260408083206001600160a01b03861684529091529020805460ff191660011790556101d33390565b6001600160a01b0316826001600160a01b0316847f2f8788117e7eff1d82e926ec794901d17c78024a50270940304540a733656f0d60405160405180910390a450600161021f565b5060005b92915050565b6001600160a01b0382166102545760405163ec442f0560e01b8152600060048201526024015b60405180910390fd5b61026060008383610264565b5050565b6001600160a01b03831661028f57806002600082825461028491906105f7565b909155506103019050565b6001600160a01b038316600090815260208190526040902054818110156102e25760405163391434e360e21b81526001600160a01b0385166004820152602481018290526044810183905260640161024b565b6001600160a01b03841660009081526020819052604090209082900390555b6001600160a01b03821661031d5760028054829003905561033c565b6001600160a01b03821660009081526020819052604090208054820190555b816001600160a01b0316836001600160a01b03167fddf252ad1be2c89b69c2b068fc378daa952ba7f163c4a11628f55a4df523b3ef8360405161038191815260200190565b60405180910390a3505050565b634e487b7160e01b600052604160045260246000fd5b600082601f8301126103b557600080fd5b81516001600160401b038111156103ce576103ce61038e565b604051601f8201601f19908116603f011681016001600160401b03811182821017156103fc576103fc61038e565b60405281815283820160200185101561041457600080fd5b60005b8281101561043357602081860181015183830182015201610417565b506000918101602001919091529392505050565b6000806040838503121561045a57600080fd5b82516001600160401b0381111561047057600080fd5b61047c858286016103a4565b602085015190935090506001600160401b0381111561049a57600080fd5b6104a6858286016103a4565b9150509250929050565b600181811c908216806104c457607f821691505b6020821081036104e457634e487b7160e01b600052602260045260246000fd5b50919050565b601f82111561053457806000526020600020601f840160051c810160208510156105115750805b601f840160051c820191505b81811015610531576000815560010161051d565b50505b505050565b81516001600160401b038111156105525761055261038e565b6105668161056084546104b0565b846104ea565b6020601f82116001811461059a57600083156105825750848201515b600019600385901b1c1916600184901b178455610531565b600084815260208120601f198516915b828110156105ca57878501518255602094850194600190920191016105aa565b50848210156105e85786840151600019600387901b60f8161c191681555b50505050600190811b01905550565b8082018082111561021f57634e487b7160e01b600052601160045260246000fd5b611126806106276000396000f3fe608060405234801561001057600080fd5b50600436106101375760003560e01c806336568abe116100b85780639dc29fac1161007c5780639dc29fac1461028d578063a217fddf146102a0578063a9059cbb146102a8578063d5391393146102bb578063d547741f146102d0578063dd62ed3e146102e357600080fd5b806336568abe1461022357806340c10f191461023657806370a082311461024957806391d148541461027257806395d89b411461028557600080fd5b8063248a9ca3116100ff578063248a9ca3146101b1578063282c51f3146101d45780632f1734e9146101e95780632f2ff15d146101ff578063313ce5671461021457600080fd5b806301ffc9a71461013c57806306fdde0314610164578063095ea7b31461017957806318160ddd1461018c57806323b872dd1461019e575b600080fd5b61014f61014a366004610e0f565b61031c565b60405190151581526020015b60405180910390f35b61016c610362565b60405161015b9190610e40565b61014f610187366004610eaa565b6103f4565b6002545b60405190815260200161015b565b61014f6101ac366004610ed4565b61040c565b6101906101bf366004610f11565b60009081526005602052604090206001015490565b6101906000805160206110b183398151915281565b6101f1610430565b60405161015b929190610f6f565b61021261020d366004610f9d565b6104f7565b005b6040516012815260200161015b565b610212610231366004610f9d565b610665565b610212610244366004610eaa565b610698565b610190610257366004610fc9565b6001600160a01b031660009081526020819052604090205490565b61014f610280366004610f9d565b6106ba565b61016c6106e5565b61021261029b366004610eaa565b6106f4565b610190600081565b61014f6102b6366004610eaa565b610716565b6101906000805160206110d183398151915281565b6102126102de366004610f9d565b610724565b6101906102f1366004610fe4565b6001600160a01b03918216600090815260016020908152604080832093909416825291909152205490565b60006001600160e01b03198216632753d04360e01b148061034d57506001600160e01b031982166336372b0760e01b145b8061035c575061035c82610814565b92915050565b6060600380546103719061100e565b80601f016020809104026020016040519081016040528092919081815260200182805461039d9061100e565b80156103ea5780601f106103bf576101008083540402835291602001916103ea565b820191906000526020600020905b8154815290600101906020018083116103cd57829003601f168201915b5050505050905090565b600033610402818585610849565b5060019392505050565b60003361041a858285610856565b6104258585856108d9565b506001949350505050565b606080600860098180548060200260200160405190810160405280929190818152602001828054801561048c57602002820191906000526020600020905b81546001600160a01b0316815260019091019060200180831161046e575b50505050509150808054806020026020016040519081016040528092919081815260200182805480156104e857602002820191906000526020600020905b81546001600160a01b031681526001909101906020018083116104ca575b50505050509050915091509091565b60008281526005602052604090206001015461051281610938565b61051c8383610945565b6000805160206110d18339815191528314801561055257506001600160a01b03821660009081526006602052604090205460ff16155b156105bf57506001600160a01b03166000818152600660205260408120805460ff191660019081179091556008805491820181559091527ff3f7a9fe364faab93b216da50a3214154f22a0a2b415b23a84c8169e8b636ee30180546001600160a01b031916909117905550565b6000805160206110b1833981519152831480156105f557506001600160a01b03821660009081526007602052604090205460ff16155b15610660576001600160a01b0382166000818152600760205260408120805460ff191660019081179091556009805491820181559091527f6e1540171b6c0c960b71a7020d9f60077f6af931a8bbf590da0223dacf75c7af0180546001600160a01b03191690911790555b505050565b6001600160a01b038116331461068e5760405163334bd91960e11b815260040160405180910390fd5b610660828261096a565b6000805160206110d18339815191526106b081610938565b61066083836109df565b60009182526005602090815260408084206001600160a01b0393909316845291905290205460ff1690565b6060600480546103719061100e565b6000805160206110b183398151915261070c81610938565b6106608383610a19565b6000336104028185856108d9565b60008281526005602052604090206001015461073f81610938565b610749838361096a565b506000805160206110d18339815191528314801561077f57506001600160a01b03821660009081526006602052604090205460ff165b156107af576001600160a01b0382166000908152600660205260409020805460ff19169055610660600883610a4f565b6000805160206110b1833981519152831480156107e457506001600160a01b03821660009081526007602052604090205460ff165b15610660576001600160a01b0382166000908152600760205260409020805460ff19169055610660600983610a4f565b60006001600160e01b03198216637965db0b60e01b148061035c57506301ffc9a760e01b6001600160e01b031983161461035c565b6106608383836001610b4b565b6001600160a01b0383811660009081526001602090815260408083209386168352929052205460001981146108d357818110156108c457604051637dc7a0d960e11b81526001600160a01b038416600482015260248101829052604481018390526064015b60405180910390fd5b6108d384848484036000610b4b565b50505050565b6001600160a01b03831661090357604051634b637e8f60e11b8152600060048201526024016108bb565b6001600160a01b03821661092d5760405163ec442f0560e01b8152600060048201526024016108bb565b610660838383610c20565b6109428133610d4a565b50565b60008281526005602052604090206001015461096081610938565b6108d38383610d83565b600061097683836106ba565b156109d75760008381526005602090815260408083206001600160a01b0386168085529252808320805460ff1916905551339286917ff6391f5c32d9c69d2a47ea670b442974b53935d1edc7fd64eb21e047a839171b9190a450600161035c565b50600061035c565b6001600160a01b038216610a095760405163ec442f0560e01b8152600060048201526024016108bb565b610a1560008383610c20565b5050565b6001600160a01b038216610a4357604051634b637e8f60e11b8152600060048201526024016108bb565b610a1582600083610c20565b815460005b818110156108d357826001600160a01b0316848281548110610a7857610a78611048565b6000918252602090912001546001600160a01b031603610b435783610a9e600184611074565b81548110610aae57610aae611048565b9060005260206000200160009054906101000a90046001600160a01b0316848281548110610ade57610ade611048565b9060005260206000200160006101000a8154816001600160a01b0302191690836001600160a01b0316021790555083805480610b1c57610b1c611087565b600082815260209020810160001990810180546001600160a01b03191690550190556108d3565b600101610a54565b6001600160a01b038416610b755760405163e602df0560e01b8152600060048201526024016108bb565b6001600160a01b038316610b9f57604051634a1406b160e11b8152600060048201526024016108bb565b6001600160a01b03808516600090815260016020908152604080832093871683529290522082905580156108d357826001600160a01b0316846001600160a01b03167f8c5be1e5ebec7d5bd14f71427d1e84f3dd0314c0f7b2291e5b200ac8c7c3b92584604051610c1291815260200190565b60405180910390a350505050565b6001600160a01b038316610c4b578060026000828254610c40919061109d565b90915550610cbd9050565b6001600160a01b03831660009081526020819052604090205481811015610c9e5760405163391434e360e21b81526001600160a01b038516600482015260248101829052604481018390526064016108bb565b6001600160a01b03841660009081526020819052604090209082900390555b6001600160a01b038216610cd957600280548290039055610cf8565b6001600160a01b03821660009081526020819052604090208054820190555b816001600160a01b0316836001600160a01b03167fddf252ad1be2c89b69c2b068fc378daa952ba7f163c4a11628f55a4df523b3ef83604051610d3d91815260200190565b60405180910390a3505050565b610d5482826106ba565b610a155760405163e2517d3f60e01b81526001600160a01b0382166004820152602481018390526044016108bb565b6000610d8f83836106ba565b6109d75760008381526005602090815260408083206001600160a01b03861684529091529020805460ff19166001179055610dc73390565b6001600160a01b0316826001600160a01b0316847f2f8788117e7eff1d82e926ec794901d17c78024a50270940304540a733656f0d60405160405180910390a450600161035c565b600060208284031215610e2157600080fd5b81356001600160e01b031981168114610e3957600080fd5b9392505050565b602081526000825180602084015260005b81811015610e6e5760208186018101516040868401015201610e51565b506000604082850101526040601f19601f83011684010191505092915050565b80356001600160a01b0381168114610ea557600080fd5b919050565b60008060408385031215610ebd57600080fd5b610ec683610e8e565b946020939093013593505050565b600080600060608486031215610ee957600080fd5b610ef284610e8e565b9250610f0060208501610e8e565b929592945050506040919091013590565b600060208284031215610f2357600080fd5b5035919050565b600081518084526020840193506020830160005b82811015610f655781516001600160a01b0316865260209586019590910190600101610f3e565b5093949350505050565b604081526000610f826040830185610f2a565b8281036020840152610f948185610f2a565b95945050505050565b60008060408385031215610fb057600080fd5b82359150610fc060208401610e8e565b90509250929050565b600060208284031215610fdb57600080fd5b610e3982610e8e565b60008060408385031215610ff757600080fd5b61100083610e8e565b9150610fc060208401610e8e565b600181811c9082168061102257607f821691505b60208210810361104257634e487b7160e01b600052602260045260246000fd5b50919050565b634e487b7160e01b600052603260045260246000fd5b634e487b7160e01b600052601160045260246000fd5b8181038181111561035c5761035c61105e565b634e487b7160e01b600052603160045260246000fd5b8082018082111561035c5761035c61105e56fe3c11d16cbaffd01df69ce1c404f6340ee057498f5f00246190ea54220576a8489f2df0fed2c77648de5860a4cc508cd0818c85b8b8a1ab4ceeef8d981c8956a6a2646970667358221220b98c310ac8674d19c871db7c35aef183cc7f13f3bb3e06c70f95e0dd509bae7c64736f6c634300081a0033",
    "linkReferences": {}
  },
  "methodIdentifiers": {
    "BURNER_ROLE()": "282c51f3",
    "DEFAULT_ADMIN_ROLE()": "a217fddf",
    "MINTER_ROLE()": "d5391393",
    "allowance(address,address)": "dd62ed3e",
    "approve(address,uint256)": "095ea7b3",
    "balanceOf(address)": "70a08231",
    "burn(address,uint256)": "9dc29fac",
    "decimals()": "313ce567",
    "getMinterBurnerAddresses()": "2f1734e9",
    "getRoleAdmin(bytes32)": "248a9ca3",
    "grantRole(bytes32,address)": "2f2ff15d",
    "hasRole(bytes32,address)": "91d14854",
    "mint(address,uint256)": "40c10f19",
    "name()": "06fdde03",
    "renounceRole(bytes32,address)": "36568abe",
    "revokeRole(bytes32,address)": "d547741f",
    "supportsInterface(bytes4)": "01ffc9a7",
    "symbol()": "95d89b41",
    "totalSupply()": "18160ddd",
    "transfer(address,uint256)": "a9059cbb",
    "transferFrom(address,address,uint256)": "23b872dd"
  },
  "id": 40
}