{
  "abi": [
    {
      "type": "constructor",
      "inputs": [
        {
          "name": "name",
          "type": "string",
          "internalType": "string"
        },
        {
          "name": "symbol",
          "type": "string",
          "internalType": "string"
        }
      ],
      "stateMutability": "nonpayable"
    },
    {
      "type": "function",
      "name": "BURNER_ROLE",
      "inputs": [],
      "outputs": [
        {
          "name": "",
          "type": "bytes32",
          "internalType": "bytes32"
        }
      ],
      "stateMutability": "view"
    },
    {
      "type": "function",
      "name": "DEFAULT_ADMIN_ROLE",
      "inputs": [],
      "outputs": [
        {
          "name": "",
          "type": "bytes32",
          "internalType": "bytes32"
        }
      ],
      "stateMutability": "view"
    },
    {
      "type": "function",
      "name": "DOMAIN_SEPARATOR",
      "inputs": [],
      "outputs": [
        {
          "name": "",
          "type": "bytes32",
          "internalType": "bytes32"
        }
      ],
      "stateMutability": "view"
    },
    {
      "type": "function",
      "name": "MINTER_ROLE",
      "inputs": [],
      "outputs": [
        {
          "name": "",
          "type": "bytes32",
          "internalType": "bytes32"
        }
      ],
      "stateMutability": "view"
    },
    {
      "type": "function",
      "name": "allowance",
      "inputs": [
        {
          "name": "owner",
          "type": "address",
          "internalType": "address"
        },
        {
          "name": "spender",
          "type": "address",
          "internalType": "address"
        }
      ],
      "outputs": [
        {
          "name": "",
          "type": "uint256",
          "internalType": "uint256"
        }
      ],
      "stateMutability": "view"
    },
    {
      "type": "function",
      "name": "approve",
      "inputs": [
        {
          "name": "spender",
          "type": "address",
          "internalType": "address"
        },
        {
          "name": "value",
          "type": "uint256",
          "internalType": "uint256"
        }
      ],
      "outputs": [
        {
          "name": "",
          "type": "bool",
          "internalType": "bool"
        }
      ],
      "stateMutability": "nonpayable"
    },
    {
      "type": "function",
      "name": "balanceOf",
      "inputs": [
        {
          "name": "account",
          "type": "address",
          "internalType": "address"
        }
      ],
      "outputs": [
        {
          "name": "",
          "type": "uint256",
          "internalType": "uint256"
        }
      ],
      "stateMutability": "view"
    },
    {
      "type": "function",
      "name": "burn",
      "inputs": [
        {
          "name": "from",
          "type": "address",
          "internalType": "address"
        },
        {
          "name": "amount",
          "type": "uint256",
          "internalType": "uint256"
        }
      ],
      "outputs": [],
      "stateMutability": "nonpayable"
    },
    {
      "type": "function",
      "name": "decimals",
      "inputs": [],
      "outputs": [
        {
          "name": "",
          "type": "uint8",
          "internalType": "uint8"
        }
      ],
      "stateMutability": "view"
    },
    {
      "type": "function",
      "name": "eip712Domain",
      "inputs": [],
      "outputs": [
        {
          "name": "fields",
          "type": "bytes1",
          "internalType": "bytes1"
        },
        {
          "name": "name",
          "type": "string",
          "internalType": "string"
        },
        {
          "name": "version",
          "type": "string",
          "internalType": "string"
        },
        {
          "name": "chainId",
          "type": "uint256",
          "internalType": "uint256"
        },
        {
          "name": "verifyingContract",
          "type": "address",
          "internalType": "address"
        },
        {
          "name": "salt",
          "type": "bytes32",
          "internalType": "bytes32"
        },
        {
          "name": "extensions",
          "type": "uint256[]",
          "internalType": "uint256[]"
        }
      ],
      "stateMutability": "view"
    },
    {
      "type": "function",
      "name": "getMinterBurnerAddresses",
      "inputs": [],
      "outputs": [
        {
          "name": "minters",
          "type": "address[]",
          "internalType": "address[]"
        },
        {
          "name": "burners",
          "type": "address[]",
          "internalType": "address[]"
        }
      ],
      "stateMutability": "view"
    },
    {
      "type": "function",
      "name": "getRoleAdmin",
      "inputs": [
        {
          "name": "role",
          "type": "bytes32",
          "internalType": "bytes32"
        }
      ],
      "outputs": [
        {
          "name": "",
          "type": "bytes32",
          "internalType": "bytes32"
        }
      ],
      "stateMutability": "view"
    },
    {
      "type": "function",
      "name": "grantRole",
      "inputs": [
        {
          "name": "role",
          "type": "bytes32",
          "internalType": "bytes32"
        },
        {
          "name": "account",
          "type": "address",
          "internalType": "address"
        }
      ],
      "outputs": [],
      "stateMutability": "nonpayable"
    },
    {
      "type": "function",
      "name": "hasRole",
      "inputs": [
        {
          "name": "role",
          "type": "bytes32",
          "internalType": "bytes32"
        },
        {
          "name": "account",
          "type": "address",
          "internalType": "address"
        }
      ],
      "outputs": [
        {
          "name": "",
          "type": "bool",
          "internalType": "bool"
        }
      ],
      "stateMutability": "view"
    },
    {
      "type": "function",
      "name": "mint",
      "inputs": [
        {
          "name": "to",
          "type": "address",
          "internalType": "address"
        },
        {
          "name": "amount",
          "type": "uint256",
          "internalType": "uint256"
        }
      ],
      "outputs": [],
      "stateMutability": "nonpayable"
    },
    {
      "type": "function",
      "name": "name",
      "inputs": [],
      "outputs": [
        {
          "name": "",
          "type": "string",
          "internalType": "string"
        }
      ],
      "stateMutability": "view"
    },
    {
      "type": "function",
      "name": "nonces",
      "inputs": [
        {
          "name": "owner",
          "type": "address",
          "internalType": "address"
        }
      ],
      "outputs": [
        {
          "name": "",
          "type": "uint256",
          "internalType": "uint256"
        }
      ],
      "stateMutability": "view"
    },
    {
      "type": "function",
      "name": "permit",
      "inputs": [
        {
          "name": "owner",
          "type": "address",
          "internalType": "address"
        },
        {
          "name": "spender",
          "type": "address",
          "internalType": "address"
        },
        {
          "name": "value",
          "type": "uint256",
          "internalType": "uint256"
        },
        {
          "name": "deadline",
          "type": "uint256",
          "internalType": "uint256"
        },
        {
          "name": "v",
          "type": "uint8",
          "internalType": "uint8"
        },
        {
          "name": "r",
          "type": "bytes32",
          "internalType": "bytes32"
        },
        {
          "name": "s",
          "type": "bytes32",
          "internalType": "bytes32"
        }
      ],
      "outputs": [],
      "stateMutability": "nonpayable"
    },
    {
      "type": "function",
      "name": "renounceRole",
      "inputs": [
        {
          "name": "role",
          "type": "bytes32",
          "internalType": "bytes32"
        },
        {
          "name": "callerConfirmation",
          "type": "address",
          "internalType": "address"
        }
      ],
      "outputs": [],
      "stateMutability": "nonpayable"
    },
    {
      "type": "function",
      "name": "revokeRole",
      "inputs": [
        {
          "name": "role",
          "type": "bytes32",
          "internalType": "bytes32"
        },
        {
          "name": "account",
          "type": "address",
          "internalType": "address"
        }
      ],
      "outputs": [],
      "stateMutability": "nonpayable"
    },
    {
      "type": "function",
      "name": "supportsInterface",
      "inputs": [
        {
          "name": "interfaceId",
          "type": "bytes4",
          "internalType": "bytes4"
        }
      ],
      "outputs": [
        {
          "name": "",
          "type": "bool",
          "internalType": "bool"
        }
      ],
      "stateMutability": "view"
    },
    {
      "type": "function",
      "name": "symbol",
      "inputs": [],
      "outputs": [
        {
          "name": "",
          "type": "string",
          "internalType": "string"
        }
      ],
      "stateMutability": "view"
    },
    {
      "type": "function",
      "name": "totalSupply",
      "inputs": [],
      "outputs": [
        {
          "name": "",
          "type": "uint256",
          "internalType": "uint256"
        }
      ],
      "stateMutability": "view"
    },
    {
      "type": "function",
      "name": "transfer",
      "inputs": [
        {
          "name": "to",
          "type": "address",
          "internalType": "address"
        },
        {
          "name": "value",
          "type": "uint256",
          "internalType": "uint256"
        }
      ],
      "outputs": [
        {
          "name": "",
          "type": "bool",
          "internalType": "bool"
        }
      ],
      "stateMutability": "nonpayable"
    },
    {
      "type": "function",
      "name": "transferFrom",
      "inputs": [
        {
          "name": "from",
          "type": "address",
          "internalType": "address"
        },
        {
          "name": "to",
          "type": "address",
          "internalType": "address"
        },
        {
          "name": "value",
          "type": "uint256",
          "internalType": "uint256"
        }
      ],
      "outputs": [
        {
          "name": "",
          "type": "bool",
          "internalType": "bool"
        }
      ],
      "stateMutability": "nonpayable"
    },
    {
      "type": "event",
      "name": "Approval",
      "inputs": [
        {
          "name": "owner",
          "type": "address",
          "indexed": true,
          "internalType": "address"
        },
        {
          "name": "spender",
          "type": "address",
          "indexed": true,
          "internalType": "address"
        },
        {
          "name": "value",
          "type": "uint256",
          "indexed": false,
          "internalType": "uint256"
        }
      ],
      "anonymous": false
    },
    {
      "type": "event",
      "name": "EIP712DomainChanged",
      "inputs": [],
      "anonymous": false
    },
    {
      "type": "event",
      "name": "RoleAdminChanged",
      "inputs": [
        {
          "name": "role",
          "type": "bytes32",
          "indexed": true,
          "internalType": "bytes32"
        },
        {
          "name": "previousAdminRole",
          "type": "bytes32",
          "indexed": true,
          "internalType": "bytes32"
        },
        {
          "name": "newAdminRole",
          "type": "bytes32",
          "indexed": true,
          "internalType": "bytes32"
        }
      ],
      "anonymous": false
    },
    {
      "type": "event",
      "name": "RoleGranted",
      "inputs": [
        {
          "name": "role",
          "type": "bytes32",
          "indexed": true,
          "internalType": "bytes32"
        },
        {
          "name": "account",
          "type": "address",
          "indexed": true,
          "internalType": "address"
        },
        {
          "name": "sender",
          "type": "address",
          "indexed": true,
          "internalType": "address"
        }
      ],
      "anonymous": false
    },
    {
      "type": "event",
      "name": "RoleRevoked",
      "inputs": [
        {
          "name": "role",
          "type": "bytes32",
          "indexed": true,
          "internalType": "bytes32"
        },
        {
          "name": "account",
          "type": "address",
          "indexed": true,
          "internalType": "address"
        },
        {
          "name": "sender",
          "type": "address",
          "indexed": true,
          "internalType": "address"
        }
      ],
      "anonymous": false
    },
    {
      "type": "event",
      "name": "Transfer",
      "inputs": [
        {
          "name": "from",
          "type": "address",
          "indexed": true,
          "internalType": "address"
        },
        {
          "name": "to",
          "type": "address",
          "indexed": true,
          "internalType": "address"
        },
        {
          "name": "value",
          "type": "uint256",
          "indexed": false,
          "internalType": "uint256"
        }
      ],
      "anonymous": false
    },
    {
      "type": "error",
      "name": "AccessControlBadConfirmation",
      "inputs": []
    },
    {
      "type": "error",
      "name": "AccessControlUnauthorizedAccount",
      "inputs": [
        {
          "name": "account",
          "type": "address",
          "internalType": "address"
        },
        {
          "name": "neededRole",
          "type": "bytes32",
          "internalType": "bytes32"
        }
      ]
    },
    {
      "type": "error",
      "name": "ECDSAInvalidSignature",
      "inputs": []
    },
    {
      "type": "error",
      "name": "ECDSAInvalidSignatureLength",
      "inputs": [
        {
          "name": "length",
          "type": "uint256",
          "internalType": "uint256"
        }
      ]
    },
    {
      "type": "error",
      "name": "ECDSAInvalidSignatureS",
      "inputs": [
        {
          "name": "s",
          "type": "bytes32",
          "internalType": "bytes32"
        }
      ]
    },
    {
      "type": "error",
      "name": "ERC20InsufficientAllowance",
      "inputs": [
        {
          "name": "spender",
          "type": "address",
          "internalType": "address"
        },
        {
          "name": "allowance",
          "type": "uint256",
          "internalType": "uint256"
        },
        {
          "name": "needed",
          "type": "uint256",
          "internalType": "uint256"
        }
      ]
    },
    {
      "type": "error",
      "name": "ERC20InsufficientBalance",
      "inputs": [
        {
          "name": "sender",
          "type": "address",
          "internalType": "address"
        },
        {
          "name": "balance",
          "type": "uint256",
          "internalType": "uint256"
        },
        {
          "name": "needed",
          "type": "uint256",
          "internalType": "uint256"
        }
      ]
    },
    {
      "type": "error",
      "name": "ERC20InvalidApprover",
      "inputs": [
        {
          "name": "approver",
          "type": "address",
          "internalType": "address"
        }
      ]
    },
    {
      "type": "error",
      "name": "ERC20InvalidReceiver",
      "inputs": [
        {
          "name": "receiver",
          "type": "address",
          "internalType": "address"
        }
      ]
    },
    {
      "type": "error",
      "name": "ERC20InvalidSender",
      "inputs": [
        {
          "name": "sender",
          "type": "address",
          "internalType": "address"
        }
      ]
    },
    {
      "type": "error",
      "name": "ERC20InvalidSpender",
      "inputs": [
        {
          "name": "spender",
          "type": "address",
          "internalType": "address"
        }
      ]
    },
    {
      "type": "error",
      "name": "ERC2612ExpiredSignature",
      "inputs": [
        {
          "name": "deadline",
          "type": "uint256",
          "internalType": "uint256"
        }
      ]
    },
    {
      "type": "error",
      "name": "ERC2612InvalidSigner",
      "inputs": [
        {
          "name": "signer",
          "type": "address",
          "internalType": "address"
        },
        {
          "name": "owner",
          "type": "address",
          "internalType": "address"
        }
      ]
    },
    {
      "type": "error",
      "name": "InvalidAccountNonce",
      "inputs": [
        {
          "name": "account",
          "type": "address",
          "internalType": "address"
        },
        {
          "name": "currentNonce",
          "type": "uint256",
          "internalType": "uint256"
        }
      ]
    },
    {
      "type": "error",
      "name": "InvalidShortString",
      "inputs": []
    },
    {
      "type": "error",
      "name": "StringTooLong",
      "inputs": [
        {
          "name": "str",
          "type": "string",
          "internalType": "string"
        }
      ]
    }
  ],
  "bytecode": {
    "object": "0x61016060405234801561001157600080fd5b506040516121343803806121348339810160408190526100309161058e565b6040805180820190915260018152603160f81b6020820152829081908184600361005a8382610680565b5060046100678282610680565b5061007791508390506005610243565b61012052610086816006610243565b61014052815160208084019190912060e052815190820120610100524660a05261011360e05161010051604080517f8b73c3c69bb8fe3d512ecc4cf759cc79239f7b179b0ffacaa9a75d522b39400f60208201529081019290925260608201524660808201523060a082015260009060c00160405160208183030381529060405280519060200120905090565b60805250503060c05250610128600033610276565b506101537f9f2df0fed2c77648de5860a4cc508cd0818c85b8b8a1ab4ceeef8d981c8956a633610276565b5061017e7f3c11d16cbaffd01df69ce1c404f6340ee057498f5f00246190ea54220576a84833610276565b503360008181526009602090815260408083208054600160ff199182168117909255600a90935290832080549092168117909155600b80548083019091557f0175b7a638427703f0dbe7bb9bbf987a2551717b34e79f33b5b1008d1fa01db90180546001600160a01b03199081168517909155600c805492830181559092527fdf6966c971051c3d54ec59162606531493a51404a002842f56009d7e5cf4a8c70180549091168217905561023c9069152d02c7e14af6800000610324565b50506107b6565b600060208351101561025f5761025883610363565b9050610270565b8161026a8482610680565b5060ff90505b92915050565b60008281526008602090815260408083206001600160a01b038516845290915281205460ff1661031c5760008381526008602090815260408083206001600160a01b03861684529091529020805460ff191660011790556102d43390565b6001600160a01b0316826001600160a01b0316847f2f8788117e7eff1d82e926ec794901d17c78024a50270940304540a733656f0d60405160405180910390a4506001610270565b506000610270565b6001600160a01b0382166103535760405163ec442f0560e01b8152600060048201526024015b60405180910390fd5b61035f600083836103a1565b5050565b600080829050601f8151111561038e578260405163305a27a960e01b815260040161034a919061073e565b805161039982610771565b179392505050565b6001600160a01b0383166103cc5780600260008282546103c19190610795565b9091555061043e9050565b6001600160a01b0383166000908152602081905260409020548181101561041f5760405163391434e360e21b81526001600160a01b0385166004820152602481018290526044810183905260640161034a565b6001600160a01b03841660009081526020819052604090209082900390555b6001600160a01b03821661045a57600280548290039055610479565b6001600160a01b03821660009081526020819052604090208054820190555b816001600160a01b0316836001600160a01b03167fddf252ad1be2c89b69c2b068fc378daa952ba7f163c4a11628f55a4df523b3ef836040516104be91815260200190565b60405180910390a3505050565b634e487b7160e01b600052604160045260246000fd5b60005b838110156104fc5781810151838201526020016104e4565b50506000910152565b600082601f83011261051657600080fd5b81516001600160401b0381111561052f5761052f6104cb565b604051601f8201601f19908116603f011681016001600160401b038111828210171561055d5761055d6104cb565b60405281815283820160200185101561057557600080fd5b6105868260208301602087016104e1565b949350505050565b600080604083850312156105a157600080fd5b82516001600160401b038111156105b757600080fd5b6105c385828601610505565b602085015190935090506001600160401b038111156105e157600080fd5b6105ed85828601610505565b9150509250929050565b600181811c9082168061060b57607f821691505b60208210810361062b57634e487b7160e01b600052602260045260246000fd5b50919050565b601f82111561067b57806000526020600020601f840160051c810160208510156106585750805b601f840160051c820191505b818110156106785760008155600101610664565b50505b505050565b81516001600160401b03811115610699576106996104cb565b6106ad816106a784546105f7565b84610631565b6020601f8211600181146106e157600083156106c95750848201515b600019600385901b1c1916600184901b178455610678565b600084815260208120601f198516915b8281101561071157878501518255602094850194600190920191016106f1565b508482101561072f5786840151600019600387901b60f8161c191681555b50505050600190811b01905550565b602081526000825180602084015261075d8160408501602087016104e1565b601f01601f19169190910160400192915050565b8051602080830151919081101561062b5760001960209190910360031b1b16919050565b8082018082111561027057634e487b7160e01b600052601160045260246000fd5b60805160a05160c05160e0516101005161012051610140516119246108106000396000610dd001526000610da301526000610c7e01526000610c5601526000610bb101526000610bdb01526000610c0501526119246000f3fe608060405234801561001057600080fd5b50600436106101735760003560e01c806340c10f19116100de5780639dc29fac11610097578063d505accf11610071578063d505accf1461032d578063d539139314610340578063d547741f14610355578063dd62ed3e1461036857600080fd5b80639dc29fac146102ff578063a217fddf14610312578063a9059cbb1461031a57600080fd5b806340c10f191461027a57806370a082311461028d5780637ecebe00146102b657806384b0196e146102c957806391d14854146102e457806395d89b41146102f757600080fd5b8063282c51f311610130578063282c51f3146102105780632f1734e9146102255780632f2ff15d1461023b578063313ce567146102505780633644e5151461025f57806336568abe1461026757600080fd5b806301ffc9a71461017857806306fdde03146101a0578063095ea7b3146101b557806318160ddd146101c857806323b872dd146101da578063248a9ca3146101ed575b600080fd5b61018b6101863660046114e1565b6103a1565b60405190151581526020015b60405180910390f35b6101a8610402565b6040516101979190611558565b61018b6101c3366004611587565b610494565b6002545b604051908152602001610197565b61018b6101e83660046115b1565b6104ac565b6101cc6101fb3660046115ee565b60009081526008602052604090206001015490565b6101cc6000805160206118af83398151915281565b61022d6104d0565b60405161019792919061164c565b61024e61024936600461167a565b610597565b005b60405160128152602001610197565b6101cc610705565b61024e61027536600461167a565b610714565b61024e610288366004611587565b610747565b6101cc61029b3660046116a6565b6001600160a01b031660009081526020819052604090205490565b6101cc6102c43660046116a6565b610769565b6102d1610774565b60405161019797969594939291906116c1565b61018b6102f236600461167a565b6107ba565b6101a86107e5565b61024e61030d366004611587565b6107f4565b6101cc600081565b61018b610328366004611587565b610816565b61024e61033b366004611759565b610824565b6101cc6000805160206118cf83398151915281565b61024e61036336600461167a565b610963565b6101cc6103763660046117cc565b6001600160a01b03918216600090815260016020908152604080832093909416825291909152205490565b60006001600160e01b03198216632753d04360e01b14806103d257506001600160e01b031982166336372b0760e01b145b806103ed57506001600160e01b03198216634ec7fbed60e11b145b806103fc57506103fc82610a53565b92915050565b606060038054610411906117f6565b80601f016020809104026020016040519081016040528092919081815260200182805461043d906117f6565b801561048a5780601f1061045f5761010080835404028352916020019161048a565b820191906000526020600020905b81548152906001019060200180831161046d57829003601f168201915b5050505050905090565b6000336104a2818585610a88565b5060019392505050565b6000336104ba858285610a95565b6104c5858585610b13565b506001949350505050565b606080600b600c8180548060200260200160405190810160405280929190818152602001828054801561052c57602002820191906000526020600020905b81546001600160a01b0316815260019091019060200180831161050e575b505050505091508080548060200260200160405190810160405280929190818152602001828054801561058857602002820191906000526020600020905b81546001600160a01b0316815260019091019060200180831161056a575b50505050509050915091509091565b6000828152600860205260409020600101546105b281610b72565b6105bc8383610b7f565b6000805160206118cf833981519152831480156105f257506001600160a01b03821660009081526009602052604090205460ff16155b1561065f57506001600160a01b03166000818152600960205260408120805460ff19166001908117909155600b805491820181559091527f0175b7a638427703f0dbe7bb9bbf987a2551717b34e79f33b5b1008d1fa01db90180546001600160a01b031916909117905550565b6000805160206118af8339815191528314801561069557506001600160a01b0382166000908152600a602052604090205460ff16155b15610700576001600160a01b0382166000818152600a60205260408120805460ff19166001908117909155600c805491820181559091527fdf6966c971051c3d54ec59162606531493a51404a002842f56009d7e5cf4a8c70180546001600160a01b03191690911790555b505050565b600061070f610ba4565b905090565b6001600160a01b038116331461073d5760405163334bd91960e11b815260040160405180910390fd5b6107008282610ccf565b6000805160206118cf83398151915261075f81610b72565b6107008383610d44565b60006103fc82610d7e565b600060608060008060006060610788610d9c565b610790610dc9565b60408051600080825260208201909252600f60f81b9b939a50919850469750309650945092509050565b60009182526008602090815260408084206001600160a01b0393909316845291905290205460ff1690565b606060048054610411906117f6565b6000805160206118af83398151915261080c81610b72565b6107008383610df6565b6000336104a2818585610b13565b8342111561084d5760405163313c898160e11b8152600481018590526024015b60405180910390fd5b60007f6e71edae12b1b97f4d1f60370fef10105fa2faae0126114a169c64845d6126c988888861089a8c6001600160a01b0316600090815260076020526040902080546001810190915590565b6040805160208101969096526001600160a01b0394851690860152929091166060840152608083015260a082015260c0810186905260e00160405160208183030381529060405280519060200120905060006108f582610e2c565b9050600061090582878787610e59565b9050896001600160a01b0316816001600160a01b03161461094c576040516325c0072360e11b81526001600160a01b0380831660048301528b166024820152604401610844565b6109578a8a8a610a88565b50505050505050505050565b60008281526008602052604090206001015461097e81610b72565b6109888383610ccf565b506000805160206118cf833981519152831480156109be57506001600160a01b03821660009081526009602052604090205460ff165b156109ee576001600160a01b0382166000908152600960205260409020805460ff19169055610700600b83610e87565b6000805160206118af83398151915283148015610a2357506001600160a01b0382166000908152600a602052604090205460ff165b15610700576001600160a01b0382166000908152600a60205260409020805460ff19169055610700600c83610e87565b60006001600160e01b03198216637965db0b60e01b14806103fc57506301ffc9a760e01b6001600160e01b03198316146103fc565b6107008383836001610f83565b6001600160a01b038381166000908152600160209081526040808320938616835292905220546000198114610b0d5781811015610afe57604051637dc7a0d960e11b81526001600160a01b03841660048201526024810182905260448101839052606401610844565b610b0d84848484036000610f83565b50505050565b6001600160a01b038316610b3d57604051634b637e8f60e11b815260006004820152602401610844565b6001600160a01b038216610b675760405163ec442f0560e01b815260006004820152602401610844565b610700838383611058565b610b7c8133611182565b50565b600082815260086020526040902060010154610b9a81610b72565b610b0d83836111bb565b6000306001600160a01b037f000000000000000000000000000000000000000000000000000000000000000016148015610bfd57507f000000000000000000000000000000000000000000000000000000000000000046145b15610c2757507f000000000000000000000000000000000000000000000000000000000000000090565b61070f604080517f8b73c3c69bb8fe3d512ecc4cf759cc79239f7b179b0ffacaa9a75d522b39400f60208201527f0000000000000000000000000000000000000000000000000000000000000000918101919091527f000000000000000000000000000000000000000000000000000000000000000060608201524660808201523060a082015260009060c00160405160208183030381529060405280519060200120905090565b6000610cdb83836107ba565b15610d3c5760008381526008602090815260408083206001600160a01b0386168085529252808320805460ff1916905551339286917ff6391f5c32d9c69d2a47ea670b442974b53935d1edc7fd64eb21e047a839171b9190a45060016103fc565b5060006103fc565b6001600160a01b038216610d6e5760405163ec442f0560e01b815260006004820152602401610844565b610d7a60008383611058565b5050565b6001600160a01b0381166000908152600760205260408120546103fc565b606061070f7f00000000000000000000000000000000000000000000000000000000000000006005611247565b606061070f7f00000000000000000000000000000000000000000000000000000000000000006006611247565b6001600160a01b038216610e2057604051634b637e8f60e11b815260006004820152602401610844565b610d7a82600083611058565b60006103fc610e39610ba4565b8360405161190160f01b8152600281019290925260228201526042902090565b600080600080610e6b888888886112f2565b925092509250610e7b82826113c1565b50909695505050505050565b815460005b81811015610b0d57826001600160a01b0316848281548110610eb057610eb0611830565b6000918252602090912001546001600160a01b031603610f7b5783610ed660018461185c565b81548110610ee657610ee6611830565b9060005260206000200160009054906101000a90046001600160a01b0316848281548110610f1657610f16611830565b9060005260206000200160006101000a8154816001600160a01b0302191690836001600160a01b0316021790555083805480610f5457610f5461186f565b600082815260209020810160001990810180546001600160a01b0319169055019055610b0d565b600101610e8c565b6001600160a01b038416610fad5760405163e602df0560e01b815260006004820152602401610844565b6001600160a01b038316610fd757604051634a1406b160e11b815260006004820152602401610844565b6001600160a01b0380851660009081526001602090815260408083209387168352929052208290558015610b0d57826001600160a01b0316846001600160a01b03167f8c5be1e5ebec7d5bd14f71427d1e84f3dd0314c0f7b2291e5b200ac8c7c3b9258460405161104a91815260200190565b60405180910390a350505050565b6001600160a01b0383166110835780600260008282546110789190611885565b909155506110f59050565b6001600160a01b038316600090815260208190526040902054818110156110d65760405163391434e360e21b81526001600160a01b03851660048201526024810182905260448101839052606401610844565b6001600160a01b03841660009081526020819052604090209082900390555b6001600160a01b03821661111157600280548290039055611130565b6001600160a01b03821660009081526020819052604090208054820190555b816001600160a01b0316836001600160a01b03167fddf252ad1be2c89b69c2b068fc378daa952ba7f163c4a11628f55a4df523b3ef8360405161117591815260200190565b60405180910390a3505050565b61118c82826107ba565b610d7a5760405163e2517d3f60e01b81526001600160a01b038216600482015260248101839052604401610844565b60006111c783836107ba565b610d3c5760008381526008602090815260408083206001600160a01b03861684529091529020805460ff191660011790556111ff3390565b6001600160a01b0316826001600160a01b0316847f2f8788117e7eff1d82e926ec794901d17c78024a50270940304540a733656f0d60405160405180910390a45060016103fc565b606060ff83146112615761125a8361147a565b90506103fc565b81805461126d906117f6565b80601f0160208091040260200160405190810160405280929190818152602001828054611299906117f6565b80156112e65780601f106112bb576101008083540402835291602001916112e6565b820191906000526020600020905b8154815290600101906020018083116112c957829003601f168201915b505050505090506103fc565b600080807f7fffffffffffffffffffffffffffffff5d576e7357a4501ddfe92f46681b20a084111561132d57506000915060039050826113b7565b604080516000808252602082018084528a905260ff891692820192909252606081018790526080810186905260019060a0016020604051602081039080840390855afa158015611381573d6000803e3d6000fd5b5050604051601f1901519150506001600160a01b0381166113ad575060009250600191508290506113b7565b9250600091508190505b9450945094915050565b60008260038111156113d5576113d5611898565b036113de575050565b60018260038111156113f2576113f2611898565b036114105760405163f645eedf60e01b815260040160405180910390fd5b600282600381111561142457611424611898565b036114455760405163fce698f760e01b815260048101829052602401610844565b600382600381111561145957611459611898565b03610d7a576040516335e2f38360e21b815260048101829052602401610844565b60606000611487836114b9565b604080516020808252818301909252919250600091906020820181803683375050509182525060208101929092525090565b600060ff8216601f8111156103fc57604051632cd44ac360e21b815260040160405180910390fd5b6000602082840312156114f357600080fd5b81356001600160e01b03198116811461150b57600080fd5b9392505050565b6000815180845260005b818110156115385760208185018101518683018201520161151c565b506000602082860101526020601f19601f83011685010191505092915050565b60208152600061150b6020830184611512565b80356001600160a01b038116811461158257600080fd5b919050565b6000806040838503121561159a57600080fd5b6115a38361156b565b946020939093013593505050565b6000806000606084860312156115c657600080fd5b6115cf8461156b565b92506115dd6020850161156b565b929592945050506040919091013590565b60006020828403121561160057600080fd5b5035919050565b600081518084526020840193506020830160005b828110156116425781516001600160a01b031686526020958601959091019060010161161b565b5093949350505050565b60408152600061165f6040830185611607565b82810360208401526116718185611607565b95945050505050565b6000806040838503121561168d57600080fd5b8235915061169d6020840161156b565b90509250929050565b6000602082840312156116b857600080fd5b61150b8261156b565b60ff60f81b8816815260e0602082015260006116e060e0830189611512565b82810360408401526116f28189611512565b606084018890526001600160a01b038716608085015260a0840186905283810360c08501528451808252602080870193509091019060005b8181101561174857835183526020938401939092019160010161172a565b50909b9a5050505050505050505050565b600080600080600080600060e0888a03121561177457600080fd5b61177d8861156b565b965061178b6020890161156b565b95506040880135945060608801359350608088013560ff811681146117af57600080fd5b9699959850939692959460a0840135945060c09093013592915050565b600080604083850312156117df57600080fd5b6117e88361156b565b915061169d6020840161156b565b600181811c9082168061180a57607f821691505b60208210810361182a57634e487b7160e01b600052602260045260246000fd5b50919050565b634e487b7160e01b600052603260045260246000fd5b634e487b7160e01b600052601160045260246000fd5b818103818111156103fc576103fc611846565b634e487b7160e01b600052603160045260246000fd5b808201808211156103fc576103fc611846565b634e487b7160e01b600052602160045260246000fdfe3c11d16cbaffd01df69ce1c404f6340ee057498f5f00246190ea54220576a8489f2df0fed2c77648de5860a4cc508cd0818c85b8b8a1ab4ceeef8d981c8956a6a264697066735822122090b03b997bc9c470f5826c11d0b19d9c8e52f82c95bbf909833d286d804f602d64736f6c634300081a0033",
    "linkReferences": {}
  },
  "methodIdentifiers": {
    "BURNER_ROLE()": "282c51f3",
    "DEFAULT_ADMIN_ROLE()": "a217fddf",
    "DOMAIN_SEPARATOR()": "3644e515",
    "MINTER_ROLE()": "d5391393",
    "allowance(address,address)": "dd62ed3e",
    "approve(address,uint256)": "095ea7b3",
    "balanceOf(address)": "70a08231",
    "burn(address,uint256)": "9dc29fac",
    "decimals()": "313ce567",
    "eip712Domain()": "84b0196e",
    "getMinterBurnerAddresses()": "2f1734e9",
    "getRoleAdmin(bytes32)": "248a9ca3",
    "grantRole(bytes32,address)": "2f2ff15d",
    "hasRole(bytes32,address)": "91d14854",
    "mint(address,uint256)": "40c10f19",
    "name()": "06fdde03",
    "nonces(address)": "7ecebe00",
    "permit(address,address,uint256,uint256,uint8,bytes32,bytes32)": "d505accf",
    "renounceRole(bytes32,address)": "36568abe",
    "revokeRole(bytes32,address)": "d547741f",
    "supportsInterface(bytes4)": "01ffc9a7",
    "symbol()": "95d89b41",
    "totalSupply()": "18160ddd",
    "transfer(address,uint256)": "a9059cbb",
    "transferFrom(address,address,uint256)": "23b872dd"
  },
  "id": 61
}